{\rtf1\ansi\deff0\deftab720{\fonttbl{\f0\fswiss MS Sans Serif;}{\f1\froman\fcharset2 Symbol;}{\f2\fswiss\fprq2 System;}{\f3\froman\fprq2 Times New Roman;}{\f4\fswiss\fprq2 Arial;}{\f5\froman\fprq2 Bookman Old Style;}{\f6\fmodern\fprq1 Courier New;}{\f7\fmodern Courier New;}{\f8\froman Times New Roman;}{\f9\froman\fprq2 Symbol;}{\f10\froman\fcharset1 Times New Roman;}{\f11\froman\fprq2\fcharset2 Times New Roman;}{\f12\froman\fcharset1 Times New Roman;}}
{\colortbl\red0\green0\blue0;\red0\green0\blue255;\red255\green0\blue0;\red0\green128\blue0;}
\deflang1036\pard\li300\ri5\fi-300{\*\pn\pnlvlblt\pnf1\pnindent300{\pntxtb\'b7}}\plain\f6\fs22\cf2 {\pntext\f1\'b7\tab}3+44
\par \pard\li50\ri6\plain\lang1033\f6\fs22\cf1\protect    {\pict\wmetafile8\picw774\pich825\picscalex99\picscaley99\picwgoal439\pichgoal468
010009000003110100000700180000000000050000000B0200000000050000000C023903060303
0000001E00050000000C023B030803050000000B0200000000030000001E00030000001E000500
00000C02D501B801050000000B0200000000050000000B020000000018000000FF06000006002B
C804002A000100020000C000C0FF3FFF3F020000C0FF3F00C0FF3F020000000400000024000400
00002D01000009000000FA02000000000000000000002200040000002D01010007000000FC0200
00000000000000040000002D01020010000000FB0210FF00000000000090010000000107000000
417269616C000100040000002D0103000400000002010100050000000102FFFFFF00040000002E
01180005000000090200000000040000000801000015000000FB0210FF00000000000090010000
00010700000054696D6573204E657720526F6D616E000100040000002D0104000B00000026060F
000C004D6174685479706500007B000500000009020000FF00070000002105010034003B016400
070000002105010037003B01DC0009000000FA02000000000000000000002200040000002D0105
0004000000F001010007000000FC020000FFFFFF000000040000002D01010010000000FB021000
070000000000BC02000000000102022253797374656D0000040000002D010600040000002701FF
FF04000000F001030004000000F0010400040000002701FFFF040000002701FFFF030000000000
}\plain\lang1033\f6\fs22\cf1\protect 
\par \pard\li50\ri2\plain\lang1033\f6\fs22\cf1\protect 
\par \pard\li300\ri5\fi-300{\*\pn\pnlvlblt\pnf1\pnindent300{\pntxtb\'b7}}\plain\lang1033\f6\fs22\cf2 {\pntext\f1\'b7\tab}#\\$
\par \pard\li50\ri6\plain\lang1033\f6\fs22\cf1\protect #
\par \pard\li50\ri2\plain\lang1033\f6\fs22\cf1\protect ^ Error: Illegal character '#' [line 1, col 1]
\par 
\par \pard\li300\ri5\fi-300{\*\pn\pnlvlblt\pnf1\pnindent300{\pntxtb\'b7}}\plain\lang1033\f6\fs22\cf2 {\pntext\f1\'b7\tab}3*4
\par \pard\li50\ri6\plain\lang1033\f6\fs22\cf1\protect    {\pict\wmetafile8\picw774\pich825\picscalex99\picscaley99\picwgoal439\pichgoal468
010009000003110100000700180000000000050000000B0200000000050000000C023903060303
0000001E00050000000C023B030803050000000B0200000000030000001E00030000001E000500
00000C02D501B801050000000B0200000000050000000B020000000018000000FF060000060031
C804002A000100020000C000C0FF3FFF3F020000C0FF3F00C0FF3F0200050000000102FFFF0400
00002D01000009000000FA02000000000000000000002200040000002D01010007000000FC0200
00000000000000040000002D01020010000000FB0210FF00000000000090010000000107000000
417269616C000100040000002D0103000400000002010100050000000102FFFFFF00040000002E
01180005000000090200000000040000000801000015000000FB0210FF00000000000090010000
00010700000054696D6573204E657720526F6D616E000100040000002D0104000B00000026060F
000C004D6174685479706500007B000500000009020000FF00070000002105010031003B016400
070000002105010032003B01DC0009000000FA02000000000000000000002200040000002D0105
0004000000F001010007000000FC020000FFFFFF000000040000002D01010010000000FB021000
070000000000BC02000000000102022253797374656D0000040000002D010600040000002701FF
FF04000000F001030004000000F0010400040000002701FFFF040000002701FFFF030000000000
}\plain\lang1033\f6\fs22\cf1\protect 
\par \pard\li50\ri2\plain\lang1033\f6\fs22\cf1\protect 
\par \pard\li300\ri5\fi-300{\*\pn\pnlvlblt\pnf1\pnindent300{\pntxtb\'b7}}\plain\f6\fs22\cf2 {\pntext\f1\'b7\tab}3*4
\par \pard\li50\ri6\plain\lang1033\f6\fs22\cf1\protect    {\pict\wmetafile8\picw774\pich825\picscalex99\picscaley99\picwgoal439\pichgoal468
010009000003110100000700180000000000050000000B0200000000050000000C023903060303
0000001E00050000000C023B030803050000000B0200000000030000001E00030000001E000500
00000C02D501B801050000000B0200000000050000000B020000000018000000FF060000060037
C804002A000100020000C000C0FF3FFF3F020000C0FF3F00C0FF3F0200050000000102FFFF0400
00002D01000009000000FA02000000000000000000002200040000002D01010007000000FC0200
00000000000000040000002D01020010000000FB0210FF00000000000090010000000107000000
417269616C000100040000002D0103000400000002010100050000000102FFFFFF00040000002E
01180005000000090200000000040000000801000015000000FB0210FF00000000000090010000
00010700000054696D6573204E657720526F6D616E000100040000002D0104000B00000026060F
000C004D6174685479706500007B000500000009020000FF00070000002105010031003B016400
070000002105010032003B01DC0009000000FA02000000000000000000002200040000002D0105
0004000000F001010007000000FC020000FFFFFF000000040000002D01010010000000FB021000
070000000000BC02000000000102022253797374656D0000040000002D010600040000002701FF
FF04000000F001030004000000F0010400040000002701FFFF040000002701FFFF030000000000
}\plain\lang1033\f6\fs22\cf1\protect 
\par \pard\li50\ri2\plain\lang1033\f6\fs22\cf1\protect 
\par \pard\li300\ri5\fi-300{\*\pn\pnlvlblt\pnf1\pnindent300{\pntxtb\'b7}}\plain\f6\fs22\cf2 {\pntext\f1\'b7\tab}1
\par \pard\li50\ri6\plain\lang1033\f6\fs22\cf1\protect    {\pict\wmetafile8\picw562\pich825\picscalex99\picscaley99\picwgoal319\pichgoal468
0100090000030A0100000700180000000000050000000B0200000000050000000C023903320203
0000001E00050000000C023B033402050000000B0200000000030000001E00030000001E000500
00000C02D5014001050000000B0200000000050000000B020000000018000000FF06000006003D
C804002A000100020000C000C0FF3FFF3F020000C0FF3F00C0FF3F0200050000000102FFFF0400
00002D01000009000000FA02000000000000000000002200040000002D01010007000000FC0200
00000000000000040000002D01020010000000FB0210FF00000000000090010000000107000000
417269616C000100040000002D0103000400000002010100050000000102FFFFFF00040000002E
01180005000000090200000000040000000801000015000000FB0210FF00000000000090010000
00010700000054696D6573204E657720526F6D616E000100040000002D0104000B00000026060F
000C004D6174685479706500007B000500000009020000FF00070000002105010031003B016400
09000000FA02000000000000000000002200040000002D01050004000000F001010007000000FC
020000FFFFFF000000040000002D01010010000000FB021000070000000000BC02000000000102
022253797374656D0000040000002D010600040000002701FFFF04000000F001030004000000F0
010400040000002701FFFF040000002701FFFF030000000000
}\plain\lang1033\f6\fs22\cf1\protect 
\par \pard\li50\ri2\plain\lang1033\f6\fs22\cf1\protect 
\par \pard\li300\ri5\fi-300{\*\pn\pnlvlblt\pnf1\pnindent300{\pntxtb\'b7}}\plain\f6\fs22\cf2 {\pntext\f1\'b7\tab}diff(x^3,x)
\par \plain\lang1033\f6\fs22\cf2 {\pntext\f1\'b7\tab}
\par \plain\f6\fs22\cf2 {\pntext\f1\'b7\tab}H:=U(c)*exp(-T*t)+p*(f(k)-n*k-c)
\par \pard\li50\ri6\plain\lang1033\f6\fs22\cf1\protect    {\pict\wmetafile8\picw6323\pich1095\picscalex99\picscaley99\picwgoal3585\pichgoal621
010009000003190500001200180000000000050000000B0200000000050000000C024704B31803
0000001E00050000000C024904B518050000000B0200000000030000001E00030000001E000500
00000C026E02020E050000000B0200000000050000000B020000000018000000FF060000060043
C804002A000100020000C000C0FF3FFF3F020000C0FF3F00C0FF3F0200050000000102FFFF0400
00002D01000009000000FA02000000000000000000002200040000002D01010007000000FC0200
00000000000000040000002D01020010000000FB0210FF00000000000090010000000107000000
417269616C000100040000002D0103000400000002010100050000000102FFFFFF00040000002E
01180005000000090200000000040000000801000015000000FB0210FF00000000000090010000
00010700000054696D6573204E657720526F6D616E000100040000002D0104000B00000026060F
000C004D6174685479706500007B0015000000FB0210FF00000000000090010100000107000000
54696D6573204E657720526F6D616E000100040000002D01050013000000FB0210FF0000000000
00900100000001070000005346204D61746820457874000100040000002D01060013000000FB02
10FF000000000000900100000002070000005346204D61746820457874000200040000002D0107
0015000000FB0210FF0000000000009001000000020700000054696D6573204E657720526F6D61
6E000200040000002D010800040000002D010400040000002D010600040000002D010700040000
002D010800040000002D01040015000000FB0256FF000000000000900101000001070000005469
6D6573204E657720526F6D616E000100040000002D01090010000000FB0256FF00000000000090
01000000020700000053796D626F6C0002040000002D010A0010000000FB0256FF000000000000
9001000000020700000053796D626F6C0002040000002D010B0010000000FB0210FF0000000000
009001000000020700000053796D626F6C0002040000002D010C0015000000FB0210FF00000000
00009001010000020700000054696D6573204E657720526F6D616E000200040000002D010D0004
0000002D010500040000002D010600040000002D010700040000002D010800040000002D010400
040000002D010600040000002D010700040000002D010800040000002D010400040000002D0105
0010000000FB0210FF0000000000009001000000020700000053796D626F6C0002040000002D01
0E00040000002D010C00040000002D010700040000002D010800040000002D010400040000002D
010600040000002D010700040000002D010800040000002D010400040000002D01060004000000
2D010700040000002D010C00040000002D010800040000002D010400040000002D010E00040000
002D010C000500000009020000FF00040000002D010D00040000002D0105000700000021050100
5500D4016400040000002D010600040000002D010700040000002D010800040000002D01040004
0000002D010600040000002D010700040000002D010800040000002D010400040000002D010600
040000002D01070007000000210501002800D4012701040000002D010800040000002D01040004
0000002D01050007000000210501006300D4018401040000002D010600040000002D0107000400
00002D010800040000002D010400040000002D010600040000002D010700040000002D01080004
0000002D010400040000002D010600040000002D01070007000000210501002900D401EF010400
00002D010C000700000021050100D700D4017C02040000002D010800040000002D010400070000
00210501006500D401E802040000002D010A00040000002D010B0007000000210501002D003501
6C0315000000FB0256FF0000000000009001010000020700000054696D6573204E657720526F6D
616E000200040000002D010F00040000002D010900070000002105010054003501E30304000000
2D010A00040000002D010B000700000021050100D70035016B04040000002D010F00040000002D
010900070000002105010074003501AF04040000002D010E00040000002D010C00070000002105
01002D00D4011E05040000002D010700040000002D010800040000002D010400040000002D0106
00040000002D010700040000002D010800040000002D010400040000002D010600040000002D01
0700040000002D010C00040000002D010D00040000002D01050007000000210501007000D401F8
05040000002D010E00040000002D010C000700000021050100D700D401A006040000002D010700
040000002D010800040000002D010400040000002D010600040000002D010700040000002D0108
00040000002D010400040000002D010600040000002D010700040000002D010800040000002D01
0400040000002D010600040000002D010700040000002D010800040000002D010400040000002D
010600040000002D0107000700000021050100A100CA000C07040000002D010D00040000002D01
050007000000210501006300D4017A07040000002D010E00040000002D010C0007000000210501
002D00D4012108040000002D010D00040000002D01050007000000210501006600D4010A090400
00002D010600040000002D010700040000002D010800040000002D010400040000002D01060004
0000002D010700040000002D010800040000002D010400040000002D010600040000002D010700
07000000210501002800D4017C09040000002D010800040000002D010400040000002D01050007
000000210501006B00D401D909040000002D010600040000002D010700040000002D0108000400
00002D010400040000002D010600040000002D010700040000002D010800040000002D01040004
0000002D010600040000002D01070007000000210501002900D4014E0A040000002D010C000700
0000210501002B00D401E70A040000002D010D00040000002D01050007000000210501006B00D4
01A70B040000002D010E00040000002D010C000700000021050100D700D4014C0C040000002D01
0D00040000002D01050007000000210501006E00D401B80C040000002D010600040000002D0107
00040000002D010800040000002D010400040000002D010600040000002D010700040000002D01
0800040000002D010400040000002D010600040000002D0107000700000021050100A200CA0030
0D09000000FA02000000000000000000002200040000002D01100004000000F001010007000000
FC020000FFFFFF000000040000002D01010010000000FB021000070000000000BC020000000001
02022253797374656D0000040000002D011100040000002701FFFF04000000F001030004000000
F001040004000000F001050004000000F001060004000000F001070004000000F0010800040000
00F001090004000000F0010A0004000000F0010B0004000000F0010C0004000000F0010D000400
0000F0010E0004000000F0010F00040000002701FFFF040000002701FFFF030000000000
}\plain\lang1033\f6\fs22\cf1\protect 
\par \pard\li50\ri2\plain\lang1033\f6\fs22\cf1\protect 
\par \pard\li300\ri5\fi-300{\*\pn\pnlvlblt\pnf1\pnindent300{\pntxtb\'b7}}\plain\lang1033\f6\fs22\cf2 {\pntext\f1\'b7\tab}ec.=diff5Hmc-=)
\par \pard\li50\ri6\plain\lang1033\f6\fs22\cf1\protect ec.=d
\par \pard\li50\ri2\plain\lang1033\f6\fs22\cf1\protect     ^ Error: 'expression' expected [line 1, col 5]
\par 
\par \pard\li300\ri5\fi-300{\*\pn\pnlvlblt\pnf1\pnindent300{\pntxtb\'b7}}\plain\f6\fs22\cf2 {\pntext\f1\'b7\tab}ec:=diff(H,c)=0
\par \pard\li50\ri6\plain\lang1033\f6\fs22\cf1\protect    {\pict\wmetafile8\picw4450\pich1682\picscalex99\picscaley99\picwgoal2523\pichgoal954
010009000003350400001200180000000000050000000B0200000000050000000C029206621103
0000001E00050000000C0293066411050000000B0200000000030000001E00030000001E000500
00000C02BA03DC09050000000B0200000000050000000B020000000018000000FF060000060054
C804002A000100020000C000C0FF3FFF3F020000C0FF3F00C0FF3F0200050000000102FFFF0400
00002D01000009000000FA02000000000000000000002200040000002D01010007000000FC0200
00000000000000040000002D01020010000000FB0210FF00000000000090010000000107000000
417269616C000100040000002D0103000400000002010100050000000102FFFFFF00040000002E
01180005000000090200000000040000000801000015000000FB0210FF00000000000090010000
00010700000054696D6573204E657720526F6D616E000100040000002D0104000B00000026060F
000C004D6174685479706500003C0115000000FB0256FF00000000000090010100000107000000
54696D6573204E657720526F6D616E000100040000002D01050010000000FB0256FF0000000000
009001000000020700000053796D626F6C0002040000002D01060010000000FB0256FF00000000
00009001000000020700000053796D626F6C0002040000002D01070015000000FB0210FF000000
0000009001010000020700000054696D6573204E657720526F6D616E000200040000002D010800
15000000FB0210FF0000000000009001010000010700000054696D6573204E657720526F6D616E
000100040000002D01090013000000FB0210FF000000000000900100000001070000005346204D
61746820457874000100040000002D010A0013000000FB0210FF00000000000090010000000207
0000005346204D61746820457874000200040000002D010B0015000000FB0210FF000000000000
9001000000020700000054696D6573204E657720526F6D616E000200040000002D010C00040000
002D010400040000002D010A00040000002D010B00040000002D010C00040000002D0104001000
0000FB0210FF0000000000009001000000020700000053796D626F6C0002040000002D010D0010
000000FB0210FF0000000000009001000000020700000053796D626F6C0002040000002D010E00
040000002D010C00040000002D010400040000002D010900040000002D010D00040000002D010E
00040000002D010C00040000002D010400040000002D010D00040000002D010E00040000002D01
0800040000002D010900040000002D010D00040000002D010E00040000002D010C00040000002D
010400040000002D010D00040000002D010E00040000002D010C00040000002D01040004000000
2D010D00040000002D010E00040000002D010C00040000002D0104000500000009020000FF0007
0000002105010065002E026400040000002D010600040000002D01070007000000210501002D00
8F01E80015000000FB0256FF0000000000009001010000020700000054696D6573204E65772052
6F6D616E000200040000002D010F00040000002D010500070000002105010054008F015F010400
00002D010600040000002D0107000700000021050100D7008F01E701040000002D010F00040000
002D010500070000002105010074008F012B02040000002D010D00040000002D010E0007000000
21050100D7002E028E02040000002D010C00040000002D010400040000002D010D00040000002D
010E00040000002D010C00040000002D010400040000002D010D00040000002D010E0004000000
2D010C00040000002D010400040000002D010D00040000002D010E00040000002D010C00040000
002D010400040000002D010D00040000002D010E00040000002D010C00040000002D0104000400
00002D010D00040000002D010E000700000021050100B6008C014C030700000021050100B60022
031703040000002D010800040000002D010900070000002105010063002203B203040000002D01
0A00040000002D010B000700000021050100C500DD01FA020700000021050100C500DD018A0307
00000021050100C500DD01AA03040000002D010C00040000002D01040007000000210501002000
2E023A04040000002D010900070000002105010055002E027604040000002D010A00040000002D
010B00040000002D010C00040000002D010400040000002D010A00040000002D010B0004000000
2D010C00040000002D010400040000002D010A00040000002D010B00070000002105010028002E
023905040000002D010C00040000002D010400040000002D010900070000002105010063002E02
9605040000002D010A00040000002D010B00040000002D010C00040000002D010400040000002D
010A00040000002D010B00040000002D010C00040000002D010400040000002D010A0004000000
2D010B00070000002105010029002E020106040000002D010E0007000000210501002D002E029A
06040000002D010800040000002D010900070000002105010070002E027407040000002D010D00
040000002D010E0007000000210501003D002E023408040000002D010C00040000002D01040007
0000002105010030002E02000909000000FA02000000000000000000002200040000002D011000
04000000F001010007000000FC020000FFFFFF000000040000002D01010010000000FB02100007
0000000000BC02000000000102022253797374656D0000040000002D011100040000002701FFFF
04000000F001030004000000F001040004000000F001050004000000F001060004000000F00107
0004000000F001080004000000F001090004000000F0010A0004000000F0010B0004000000F001
0C0004000000F0010D0004000000F0010E0004000000F0010F00040000002701FFFF0400000027
01FFFF030000000000
}\plain\lang1033\f6\fs22\cf1\protect 
\par \pard\li50\ri2\plain\lang1033\f6\fs22\cf1\protect 
\par \pard\li300\ri5\fi-300{\*\pn\pnlvlblt\pnf1\pnindent300{\pntxtb\'b7}}\plain\lang1033\f6\fs22\cf2 {\pntext\f1\'b7\tab}solve(ec,p)
\par \pard\li50\ri6\plain\lang1033\f6\fs22\cf1\protect    {\pict\wmetafile8\picw3730\pich1682\picscalex99\picscaley99\picwgoal2115\pichgoal954
0100090000035F0400001200180000000000050000000B0200000000050000000C029206920E03
0000001E00050000000C029306940E050000000B0200000000030000001E00030000001E000500
00000C02BA034408050000000B0200000000050000000B020000000018000000FF060000060065
C804002A000100020000C000C0FF3FFF3F020000C0FF3F00C0FF3F0200050000000102FFFF0400
00002D01000009000000FA02000000000000000000002200040000002D01010007000000FC0200
00000000000000040000002D01020010000000FB0210FF00000000000090010000000107000000
417269616C000100040000002D0103000400000002010100050000000102FFFFFF00040000002E
01180005000000090200000000040000000801000015000000FB0210FF00000000000090010000
00010700000054696D6573204E657720526F6D616E000100040000002D0104000B00000026060F
000C004D6174685479706500003C0115000000FB0256FF00000000000090010100000107000000
54696D6573204E657720526F6D616E000100040000002D01050010000000FB0256FF0000000000
009001000000020700000053796D626F6C0002040000002D01060010000000FB0256FF00000000
00009001000000020700000053796D626F6C0002040000002D01070015000000FB0210FF000000
0000009001010000020700000054696D6573204E657720526F6D616E000200040000002D010800
15000000FB0210FF0000000000009001010000010700000054696D6573204E657720526F6D616E
000100040000002D01090013000000FB0210FF000000000000900100000001070000005346204D
61746820457874000100040000002D010A0013000000FB0210FF00000000000090010000000207
0000005346204D61746820457874000200040000002D010B0015000000FB0210FF000000000000
9001000000020700000054696D6573204E657720526F6D616E000200040000002D010C00040000
002D010400040000002D010A00040000002D010B00040000002D010C00040000002D0104001000
0000FB0210FF0000000000009001000000020700000053796D626F6C0002040000002D010D0010
000000FB0210FF0000000000009001000000020700000053796D626F6C0002040000002D010E00
040000002D010C00040000002D010400040000002D010900040000002D010D00040000002D010E
00040000002D010C00040000002D010400040000002D010D00040000002D010E00040000002D01
0B00040000002D010C00040000002D010400040000002D010A00040000002D010B00040000002D
010C00040000002D010400040000002D010A00040000002D010B00040000002D010C0004000000
2D010400040000002D010A00040000002D010B00040000002D010C00040000002D010400040000
002D010A00040000002D010B00040000002D010C00040000002D010400040000002D010A000400
00002D010B000500000009020000FF000700000021050100C70075006400040000002D010C0004
0000002D010400040000002D010D00040000002D010E00040000002D010C00040000002D010400
070000002105010065002E022501040000002D010600040000002D01070007000000210501002D
008F01A90115000000FB0256FF0000000000009001010000020700000054696D6573204E657720
526F6D616E000200040000002D010F00040000002D010500070000002105010054008F01200204
0000002D010600040000002D0107000700000021050100D7008F01A802040000002D010F000400
00002D010500070000002105010074008F01EC02040000002D010D00040000002D010E00070000
0021050100D7002E024F03040000002D010C00040000002D010400040000002D010D0004000000
2D010E00040000002D010C00040000002D010400040000002D010D00040000002D010E00040000
002D010C00040000002D010400040000002D010D00040000002D010E00040000002D010C000400
00002D010400040000002D010D00040000002D010E00040000002D010C00040000002D01040004
0000002D010D00040000002D010E000700000021050100B6008C010D040700000021050100B600
2203D803040000002D010800040000002D0109000700000021050100630022037304040000002D
010A00040000002D010B000700000021050100C500DD01BB030700000021050100C500DD014B04
0700000021050100C500DD016B04040000002D010C00040000002D010400070000002105010020
002E02FB04040000002D010900070000002105010055002E023705040000002D010A0004000000
2D010B00040000002D010C00040000002D010400040000002D010A00040000002D010B00040000
002D010C00040000002D010400040000002D010A00040000002D010B0007000000210501002800
2E02FA05040000002D010C00040000002D010400040000002D010900070000002105010063002E
025706040000002D010A00040000002D010B00040000002D010C00040000002D01040004000000
2D010A00040000002D010B00040000002D010C00040000002D010400040000002D010A00040000
002D010B00070000002105010029002E02C206040000002D010C00040000002D01040004000000
2D010A00040000002D010B00040000002D010C00040000002D010400040000002D010A00040000
002D010B000700000021050100C80075001F0709000000FA020000000000000000000022000400
00002D01100004000000F001010007000000FC020000FFFFFF000000040000002D010100100000
00FB021000070000000000BC02000000000102022253797374656D0000040000002D0111000400
00002701FFFF04000000F001030004000000F001040004000000F001050004000000F001060004
000000F001070004000000F001080004000000F001090004000000F0010A0004000000F0010B00
04000000F0010C0004000000F0010D0004000000F0010E0004000000F0010F00040000002701FF
FF040000002701FFFF030000000000
}\plain\lang1033\f6\fs22\cf1\protect 
\par \pard\li50\ri2\plain\lang1033\f6\fs22\cf1\protect 
\par \pard\li300\ri5\fi-300{\*\pn\pnlvlblt\pnf1\pnindent300{\pntxtb\'b7}}\plain\lang1033\f6\fs22\cf2 {\pntext\f1\'b7\tab}p1:=solve(ec,p)
\par \pard\li50\ri6\plain\lang1033\f6\fs22\cf1\protect    {\pict\wmetafile8\picw3730\pich1682\picscalex99\picscaley99\picwgoal2115\pichgoal954
0100090000035F0400001200180000000000050000000B0200000000050000000C029206920E03
0000001E00050000000C029306940E050000000B0200000000030000001E00030000001E000500
00000C02BA034408050000000B0200000000050000000B020000000018000000FF060000060076
C804002A000100020000C000C0FF3FFF3F020000C0FF3F00C0FF3F0200050000000102FFFF0400
00002D01000009000000FA02000000000000000000002200040000002D01010007000000FC0200
00000000000000040000002D01020010000000FB0210FF00000000000090010000000107000000
417269616C000100040000002D0103000400000002010100050000000102FFFFFF00040000002E
01180005000000090200000000040000000801000015000000FB0210FF00000000000090010000
00010700000054696D6573204E657720526F6D616E000100040000002D0104000B00000026060F
000C004D6174685479706500003C0115000000FB0256FF00000000000090010100000107000000
54696D6573204E657720526F6D616E000100040000002D01050010000000FB0256FF0000000000
009001000000020700000053796D626F6C0002040000002D01060010000000FB0256FF00000000
00009001000000020700000053796D626F6C0002040000002D01070015000000FB0210FF000000
0000009001010000020700000054696D6573204E657720526F6D616E000200040000002D010800
15000000FB0210FF0000000000009001010000010700000054696D6573204E657720526F6D616E
000100040000002D01090013000000FB0210FF000000000000900100000001070000005346204D
61746820457874000100040000002D010A0013000000FB0210FF00000000000090010000000207
0000005346204D61746820457874000200040000002D010B0015000000FB0210FF000000000000
9001000000020700000054696D6573204E657720526F6D616E000200040000002D010C00040000
002D010400040000002D010A00040000002D010B00040000002D010C00040000002D0104001000
0000FB0210FF0000000000009001000000020700000053796D626F6C0002040000002D010D0010
000000FB0210FF0000000000009001000000020700000053796D626F6C0002040000002D010E00
040000002D010C00040000002D010400040000002D010900040000002D010D00040000002D010E
00040000002D010C00040000002D010400040000002D010D00040000002D010E00040000002D01
0B00040000002D010C00040000002D010400040000002D010A00040000002D010B00040000002D
010C00040000002D010400040000002D010A00040000002D010B00040000002D010C0004000000
2D010400040000002D010A00040000002D010B00040000002D010C00040000002D010400040000
002D010A00040000002D010B00040000002D010C00040000002D010400040000002D010A000400
00002D010B000500000009020000FF000700000021050100C70075006400040000002D010C0004
0000002D010400040000002D010D00040000002D010E00040000002D010C00040000002D010400
070000002105010065002E022501040000002D010600040000002D01070007000000210501002D
008F01A90115000000FB0256FF0000000000009001010000020700000054696D6573204E657720
526F6D616E000200040000002D010F00040000002D010500070000002105010054008F01200204
0000002D010600040000002D0107000700000021050100D7008F01A802040000002D010F000400
00002D010500070000002105010074008F01EC02040000002D010D00040000002D010E00070000
0021050100D7002E024F03040000002D010C00040000002D010400040000002D010D0004000000
2D010E00040000002D010C00040000002D010400040000002D010D00040000002D010E00040000
002D010C00040000002D010400040000002D010D00040000002D010E00040000002D010C000400
00002D010400040000002D010D00040000002D010E00040000002D010C00040000002D01040004
0000002D010D00040000002D010E000700000021050100B6008C010D040700000021050100B600
2203D803040000002D010800040000002D0109000700000021050100630022037304040000002D
010A00040000002D010B000700000021050100C500DD01BB030700000021050100C500DD014B04
0700000021050100C500DD016B04040000002D010C00040000002D010400070000002105010020
002E02FB04040000002D010900070000002105010055002E023705040000002D010A0004000000
2D010B00040000002D010C00040000002D010400040000002D010A00040000002D010B00040000
002D010C00040000002D010400040000002D010A00040000002D010B0007000000210501002800
2E02FA05040000002D010C00040000002D010400040000002D010900070000002105010063002E
025706040000002D010A00040000002D010B00040000002D010C00040000002D01040004000000
2D010A00040000002D010B00040000002D010C00040000002D010400040000002D010A00040000
002D010B00070000002105010029002E02C206040000002D010C00040000002D01040004000000
2D010A00040000002D010B00040000002D010C00040000002D010400040000002D010A00040000
002D010B000700000021050100C80075001F0709000000FA020000000000000000000022000400
00002D01100004000000F001010007000000FC020000FFFFFF000000040000002D010100100000
00FB021000070000000000BC02000000000102022253797374656D0000040000002D0111000400
00002701FFFF04000000F001030004000000F001040004000000F001050004000000F001060004
000000F001070004000000F001080004000000F001090004000000F0010A0004000000F0010B00
04000000F0010C0004000000F0010D0004000000F0010E0004000000F0010F00040000002701FF
FF040000002701FFFF030000000000
}\plain\lang1033\f6\fs22\cf1\protect 
\par \pard\li50\ri2\plain\lang1033\f6\fs22\cf1\protect 
\par \pard\li300\ri5\fi-300{\*\pn\pnlvlblt\pnf1\pnindent300{\pntxtb\'b7}}\plain\lang1033\f6\fs22\cf2 {\pntext\f1\'b7\tab}p1[0]
\par \pard\li50\ri6\plain\lang1033\f6\fs22\cf1\protect    {\pict\wmetafile8\picw2303\pich825\picscalex99\picscaley99\picwgoal1306\pichgoal468
010009000003950100000A00180000000000050000000B0200000000050000000C023903FF0803
0000001E00050000000C023B030009050000000B0200000000030000001E00030000001E000500
00000C02D5011A05050000000B0200000000050000000B020000000018000000FF060000060087
C804002A000100020000C000C0FF3FFF3F020000C0FF3F00C0FF3F0200050000000102FFFF0400
00002D01000009000000FA02000000000000000000002200040000002D01010007000000FC0200
00000000000000040000002D01020010000000FB0210FF00000000000090010000000107000000
417269616C000100040000002D0103000400000002010100050000000102FFFFFF00040000002E
01180005000000090200000000040000000801000015000000FB0210FF00000000000090010000
00010700000054696D6573204E657720526F6D616E000100040000002D0104000B00000026060F
000C004D6174685479706500007B0010000000FB0210FF00000000000090010000000207000000
53796D626F6C0002040000002D01050010000000FB0210FF000000000000900100000002070000
0053796D626F6C0002040000002D01060015000000FB0210FF0000000000009001000000020700
000054696D6573204E657720526F6D616E000200040000002D010700040000002D010400050000
0009020000FF00070000002105010044003B01640007000000210501004F003B01110107000000
210501004D003B01BE01040000002D010500040000002D01060007000000210501005F003B0193
02040000002D010700040000002D010400070000002105010053003B010B030700000021050100
45003B019003070000002105010054003B01230409000000FA0200000000000000000000220004
0000002D01080004000000F001010007000000FC020000FFFFFF000000040000002D0101001000
0000FB021000070000000000BC02000000000102022253797374656D0000040000002D01090004
0000002701FFFF04000000F001030004000000F001040004000000F001050004000000F0010600
04000000F0010700040000002701FFFF040000002701FFFF030000000000
}\plain\lang1033\f6\fs22\cf1\protect 
\par \pard\li50\ri2\plain\lang1033\f6\fs22\cf1\protect 
\par \pard\li300\ri5\fi-300{\*\pn\pnlvlblt\pnf1\pnindent300{\pntxtb\'b7}}\plain\lang1033\f6\fs22\cf2 {\pntext\f1\'b7\tab}p1+0
\par \pard\li50\ri6\plain\lang1033\f6\fs22\cf1\protect    {\pict\wmetafile8\picw3730\pich1682\picscalex99\picscaley99\picwgoal2115\pichgoal954
0100090000035F0400001200180000000000050000000B0200000000050000000C029206920E03
0000001E00050000000C029306940E050000000B0200000000030000001E00030000001E000500
00000C02BA034408050000000B0200000000050000000B020000000018000000FF060000060090
C804002A000100020000C000C0FF3FFF3F020000C0FF3F00C0FF3F0200050000000102FFFF0400
00002D01000009000000FA02000000000000000000002200040000002D01010007000000FC0200
00000000000000040000002D01020010000000FB0210FF00000000000090010000000107000000
417269616C000100040000002D0103000400000002010100050000000102FFFFFF00040000002E
01180005000000090200000000040000000801000015000000FB0210FF00000000000090010000
00010700000054696D6573204E657720526F6D616E000100040000002D0104000B00000026060F
000C004D6174685479706500003C0115000000FB0256FF00000000000090010100000107000000
54696D6573204E657720526F6D616E000100040000002D01050010000000FB0256FF0000000000
009001000000020700000053796D626F6C0002040000002D01060010000000FB0256FF00000000
00009001000000020700000053796D626F6C0002040000002D01070015000000FB0210FF000000
0000009001010000020700000054696D6573204E657720526F6D616E000200040000002D010800
15000000FB0210FF0000000000009001010000010700000054696D6573204E657720526F6D616E
000100040000002D01090013000000FB0210FF000000000000900100000001070000005346204D
61746820457874000100040000002D010A0013000000FB0210FF00000000000090010000000207
0000005346204D61746820457874000200040000002D010B0015000000FB0210FF000000000000
9001000000020700000054696D6573204E657720526F6D616E000200040000002D010C00040000
002D010400040000002D010A00040000002D010B00040000002D010C00040000002D0104001000
0000FB0210FF0000000000009001000000020700000053796D626F6C0002040000002D010D0010
000000FB0210FF0000000000009001000000020700000053796D626F6C0002040000002D010E00
040000002D010C00040000002D010400040000002D010900040000002D010D00040000002D010E
00040000002D010C00040000002D010400040000002D010D00040000002D010E00040000002D01
0B00040000002D010C00040000002D010400040000002D010A00040000002D010B00040000002D
010C00040000002D010400040000002D010A00040000002D010B00040000002D010C0004000000
2D010400040000002D010A00040000002D010B00040000002D010C00040000002D010400040000
002D010A00040000002D010B00040000002D010C00040000002D010400040000002D010A000400
00002D010B000500000009020000FF000700000021050100C70075006400040000002D010C0004
0000002D010400040000002D010D00040000002D010E00040000002D010C00040000002D010400
070000002105010065002E022501040000002D010600040000002D01070007000000210501002D
008F01A90115000000FB0256FF0000000000009001010000020700000054696D6573204E657720
526F6D616E000200040000002D010F00040000002D010500070000002105010054008F01200204
0000002D010600040000002D0107000700000021050100D7008F01A802040000002D010F000400
00002D010500070000002105010074008F01EC02040000002D010D00040000002D010E00070000
0021050100D7002E024F03040000002D010C00040000002D010400040000002D010D0004000000
2D010E00040000002D010C00040000002D010400040000002D010D00040000002D010E00040000
002D010C00040000002D010400040000002D010D00040000002D010E00040000002D010C000400
00002D010400040000002D010D00040000002D010E00040000002D010C00040000002D01040004
0000002D010D00040000002D010E000700000021050100B6008C010D040700000021050100B600
2203D803040000002D010800040000002D0109000700000021050100630022037304040000002D
010A00040000002D010B000700000021050100C500DD01BB030700000021050100C500DD014B04
0700000021050100C500DD016B04040000002D010C00040000002D010400070000002105010020
002E02FB04040000002D010900070000002105010055002E023705040000002D010A0004000000
2D010B00040000002D010C00040000002D010400040000002D010A00040000002D010B00040000
002D010C00040000002D010400040000002D010A00040000002D010B0007000000210501002800
2E02FA05040000002D010C00040000002D010400040000002D010900070000002105010063002E
025706040000002D010A00040000002D010B00040000002D010C00040000002D01040004000000
2D010A00040000002D010B00040000002D010C00040000002D010400040000002D010A00040000
002D010B00070000002105010029002E02C206040000002D010C00040000002D01040004000000
2D010A00040000002D010B00040000002D010C00040000002D010400040000002D010A00040000
002D010B000700000021050100C80075001F0709000000FA020000000000000000000022000400
00002D01100004000000F001010007000000FC020000FFFFFF000000040000002D010100100000
00FB021000070000000000BC02000000000102022253797374656D0000040000002D0111000400
00002701FFFF04000000F001030004000000F001040004000000F001050004000000F001060004
000000F001070004000000F001080004000000F001090004000000F0010A0004000000F0010B00
04000000F0010C0004000000F0010D0004000000F0010E0004000000F0010F00040000002701FF
FF040000002701FFFF030000000000
}\plain\lang1033\f6\fs22\cf1\protect 
\par \pard\li50\ri2\plain\lang1033\f6\fs22\cf1\protect 
\par \pard\li300\ri5\fi-300{\*\pn\pnlvlblt\pnf1\pnindent300{\pntxtb\'b7}}\plain\lang1033\f6\fs22\cf2 {\pntext\f1\'b7\tab}p1[1]
\par \pard\li50\ri6\plain\lang1033\f6\fs22\cf1\protect    {\pict\wmetafile8\picw3051\pich1682\picscalex99\picscaley99\picwgoal1730\pichgoal954
010009000003DD0300001200180000000000050000000B0200000000050000000C029206EB0B03
0000001E00050000000C029306EC0B050000000B0200000000030000001E00030000001E000500
00000C02BA03C206050000000B0200000000050000000B020000000018000000FF0600000600A1
C804002A000100020000C000C0FF3FFF3F020000C0FF3F00C0FF3F0200050000000102FFFF0400
00002D01000009000000FA02000000000000000000002200040000002D01010007000000FC0200
00000000000000040000002D01020010000000FB0210FF00000000000090010000000107000000
417269616C000100040000002D0103000400000002010100050000000102FFFFFF00040000002E
01180005000000090200000000040000000801000015000000FB0210FF00000000000090010000
00010700000054696D6573204E657720526F6D616E000100040000002D0104000B00000026060F
000C004D6174685479706500003C0115000000FB0256FF00000000000090010100000107000000
54696D6573204E657720526F6D616E000100040000002D01050010000000FB0256FF0000000000
009001000000020700000053796D626F6C0002040000002D01060010000000FB0256FF00000000
00009001000000020700000053796D626F6C0002040000002D01070015000000FB0210FF000000
0000009001010000020700000054696D6573204E657720526F6D616E000200040000002D010800
15000000FB0210FF0000000000009001010000010700000054696D6573204E657720526F6D616E
000100040000002D01090013000000FB0210FF000000000000900100000001070000005346204D
61746820457874000100040000002D010A0013000000FB0210FF00000000000090010000000207
0000005346204D61746820457874000200040000002D010B0015000000FB0210FF000000000000
9001000000020700000054696D6573204E657720526F6D616E000200040000002D010C00040000
002D010400040000002D010A00040000002D010B00040000002D010C00040000002D0104001000
0000FB0210FF0000000000009001000000020700000053796D626F6C0002040000002D010D0010
000000FB0210FF0000000000009001000000020700000053796D626F6C0002040000002D010E00
040000002D010C00040000002D010400040000002D010900040000002D010D00040000002D010E
00040000002D010C00040000002D010400040000002D010D00040000002D010E00040000002D01
0C00040000002D010400040000002D010D00040000002D010E00040000002D010C00040000002D
0104000500000009020000FF00070000002105010065002E026400040000002D01060004000000
2D01070007000000210501002D008F01E80015000000FB0256FF00000000000090010100000207
00000054696D6573204E657720526F6D616E000200040000002D010F00040000002D0105000700
00002105010054008F015F01040000002D010600040000002D0107000700000021050100D7008F
01E701040000002D010F00040000002D010500070000002105010074008F012B02040000002D01
0D00040000002D010E000700000021050100D7002E028E02040000002D010C00040000002D0104
00040000002D010D00040000002D010E00040000002D010C00040000002D010400040000002D01
0D00040000002D010E00040000002D010C00040000002D010400040000002D010D00040000002D
010E00040000002D010C00040000002D010400040000002D010D00040000002D010E0004000000
2D010C00040000002D010400040000002D010D00040000002D010E000700000021050100B6008C
014C030700000021050100B60022031703040000002D010800040000002D010900070000002105
010063002203B203040000002D010A00040000002D010B000700000021050100C500DD01FA0207
00000021050100C500DD018A030700000021050100C500DD01AA03040000002D010C0004000000
2D010400070000002105010020002E023A04040000002D010900070000002105010055002E0276
04040000002D010A00040000002D010B00040000002D010C00040000002D010400040000002D01
0A00040000002D010B00040000002D010C00040000002D010400040000002D010A00040000002D
010B00070000002105010028002E023905040000002D010C00040000002D010400040000002D01
0900070000002105010063002E029605040000002D010A00040000002D010B00040000002D010C
00040000002D010400040000002D010A00040000002D010B00040000002D010C00040000002D01
0400040000002D010A00040000002D010B00070000002105010029002E02010609000000FA0200
0000000000000000002200040000002D01100004000000F001010007000000FC020000FFFFFF00
0000040000002D01010010000000FB021000070000000000BC0200000000010202225379737465
6D0000040000002D011100040000002701FFFF04000000F001030004000000F001040004000000
F001050004000000F001060004000000F001070004000000F001080004000000F0010900040000
00F0010A0004000000F0010B0004000000F0010C0004000000F0010D0004000000F0010E000400
0000F0010F00040000002701FFFF040000002701FFFF030000000000
}\plain\lang1033\f6\fs22\cf1\protect 
\par \pard\li50\ri2\plain\lang1033\f6\fs22\cf1\protect 
\par \pard\li300\ri5\fi-300{\*\pn\pnlvlblt\pnf1\pnindent300{\pntxtb\'b7}}\plain\lang1033\f6\fs22\cf2 {\pntext\f1\'b7\tab}p1=p1[1]
\par \pard\li50\ri6\plain\lang1033\f6\fs22\cf1\protect    {\pict\wmetafile8\picw6917\pich1682\picscalex99\picscaley99\picwgoal3922\pichgoal954
010009000003410600001200180000000000050000000B0200000000050000000C029206051B03
0000001E00050000000C029306061B050000000B0200000000030000001E00030000001E000500
00000C02BA03520F050000000B0200000000050000000B020000000018000000FF0600000600B2
C804002A000100020000C000C0FF3FFF3F020000C0FF3F00C0FF3F0200050000000102FFFF0400
00002D01000009000000FA02000000000000000000002200040000002D01010007000000FC0200
00000000000000040000002D01020010000000FB0210FF00000000000090010000000107000000
417269616C000100040000002D0103000400000002010100050000000102FFFFFF00040000002E
01180005000000090200000000040000000801000015000000FB0210FF00000000000090010000
00010700000054696D6573204E657720526F6D616E000100040000002D0104000B00000026060F
000C004D6174685479706500003C0115000000FB0256FF00000000000090010100000107000000
54696D6573204E657720526F6D616E000100040000002D01050010000000FB0256FF0000000000
009001000000020700000053796D626F6C0002040000002D01060010000000FB0256FF00000000
00009001000000020700000053796D626F6C0002040000002D01070015000000FB0210FF000000
0000009001010000020700000054696D6573204E657720526F6D616E000200040000002D010800
15000000FB0210FF0000000000009001010000010700000054696D6573204E657720526F6D616E
000100040000002D01090013000000FB0210FF000000000000900100000001070000005346204D
61746820457874000100040000002D010A0013000000FB0210FF00000000000090010000000207
0000005346204D61746820457874000200040000002D010B0015000000FB0210FF000000000000
9001000000020700000054696D6573204E657720526F6D616E000200040000002D010C00040000
002D010400040000002D010A00040000002D010B00040000002D010C00040000002D0104001000
0000FB0210FF0000000000009001000000020700000053796D626F6C0002040000002D010D0010
000000FB0210FF0000000000009001000000020700000053796D626F6C0002040000002D010E00
040000002D010C00040000002D010400040000002D010900040000002D010D00040000002D010E
00040000002D010C00040000002D010400040000002D010D00040000002D010E00040000002D01
0B00040000002D010C00040000002D010400040000002D010A00040000002D010B00040000002D
010C00040000002D010400040000002D010A00040000002D010B00040000002D010C0004000000
2D010400040000002D010500040000002D010600040000002D010700040000002D010800040000
002D010900040000002D010A00040000002D010B00040000002D010C00040000002D0104000400
00002D010A00040000002D010B00040000002D010C00040000002D010400040000002D010D0004
0000002D010E00040000002D010C00040000002D010400040000002D010900040000002D010D00
040000002D010E00040000002D010C00040000002D010400040000002D010D00040000002D010E
00040000002D010C00040000002D010400040000002D010A00040000002D010B00040000002D01
0C00040000002D010400040000002D010A00040000002D010B00040000002D010C00040000002D
010400040000002D010A00040000002D010B000500000009020000FF000700000021050100C700
75006400040000002D010C00040000002D010400040000002D010D00040000002D010E00040000
002D010C00040000002D010400070000002105010065002E022501040000002D01060004000000
2D01070007000000210501002D008F01A90115000000FB0256FF00000000000090010100000207
00000054696D6573204E657720526F6D616E000200040000002D010F00040000002D0105000700
00002105010054008F012002040000002D010600040000002D0107000700000021050100D7008F
01A802040000002D010F00040000002D010500070000002105010074008F01EC02040000002D01
0D00040000002D010E000700000021050100D7002E024F03040000002D010C00040000002D0104
00040000002D010D00040000002D010E00040000002D010C00040000002D010400040000002D01
0D00040000002D010E00040000002D010C00040000002D010400040000002D010D00040000002D
010E00040000002D010C00040000002D010400040000002D010D00040000002D010E0004000000
2D010C00040000002D010400040000002D010D00040000002D010E000700000021050100B6008C
010D040700000021050100B6002203D803040000002D010800040000002D010900070000002105
0100630022037304040000002D010A00040000002D010B000700000021050100C500DD01BB0307
00000021050100C500DD014B040700000021050100C500DD016B04040000002D010C0004000000
2D010400070000002105010020002E02FB04040000002D010900070000002105010055002E0237
05040000002D010A00040000002D010B00040000002D010C00040000002D010400040000002D01
0A00040000002D010B00040000002D010C00040000002D010400040000002D010A00040000002D
010B00070000002105010028002E02FA05040000002D010C00040000002D010400040000002D01
0900070000002105010063002E025706040000002D010A00040000002D010B00040000002D010C
00040000002D010400040000002D010A00040000002D010B00040000002D010C00040000002D01
0400040000002D010A00040000002D010B00070000002105010029002E02C206040000002D010C
00040000002D010400040000002D010A00040000002D010B00040000002D010C00040000002D01
0400040000002D010A00040000002D010B000700000021050100C80075001F07040000002D010E
0007000000210501003D002E022808040000002D010C00040000002D0104000700000021050100
65002E02F408040000002D010600040000002D01070007000000210501002D008F017809040000
002D010F00040000002D010500070000002105010054008F01EF09040000002D01060004000000
2D0107000700000021050100D7008F01770A040000002D010F00040000002D0105000700000021
05010074008F01BB0A040000002D010D00040000002D010E000700000021050100D7002E021E0B
040000002D010C00040000002D010400040000002D010D00040000002D010E00040000002D010C
00040000002D010400040000002D010D00040000002D010E00040000002D010C00040000002D01
0400040000002D010D00040000002D010E00040000002D010C00040000002D010400040000002D
010D00040000002D010E00040000002D010C00040000002D010400040000002D010D0004000000
2D010E000700000021050100B6008C01DC0B0700000021050100B6002203A70B040000002D0108
00040000002D010900070000002105010063002203420C040000002D010A00040000002D010B00
0700000021050100C500DD018A0B0700000021050100C500DD011A0C0700000021050100C500DD
013A0C040000002D010C00040000002D010400070000002105010020002E02CA0C040000002D01
0900070000002105010055002E02060D040000002D010A00040000002D010B00040000002D010C
00040000002D010400040000002D010A00040000002D010B00040000002D010C00040000002D01
0400040000002D010A00040000002D010B00070000002105010028002E02C90D040000002D010C
00040000002D010400040000002D010900070000002105010063002E02260E040000002D010A00
040000002D010B00040000002D010C00040000002D010400040000002D010A00040000002D010B
00040000002D010C00040000002D010400040000002D010A00040000002D010B00070000002105
010029002E02910E09000000FA02000000000000000000002200040000002D01100004000000F0
01010007000000FC020000FFFFFF000000040000002D01010010000000FB021000070000000000
BC02000000000102022253797374656D0000040000002D011100040000002701FFFF04000000F0
01030004000000F001040004000000F001050004000000F001060004000000F001070004000000
F001080004000000F001090004000000F0010A0004000000F0010B0004000000F0010C00040000
00F0010D0004000000F0010E0004000000F0010F00040000002701FFFF040000002701FFFF0300
00000000
}\plain\lang1033\f6\fs22\cf1\protect 
\par \pard\li50\ri2\plain\lang1033\f6\fs22\cf1\protect 
\par \pard\li300\ri5\fi-300{\*\pn\pnlvlblt\pnf1\pnindent300{\pntxtb\'b7}}\plain\lang1033\f6\fs22\cf2 {\pntext\f1\'b7\tab}p1
\par \pard\li50\ri6\plain\lang1033\f6\fs22\cf1\protect    {\pict\wmetafile8\picw3730\pich1682\picscalex99\picscaley99\picwgoal2115\pichgoal954
0100090000035F0400001200180000000000050000000B0200000000050000000C029206920E03
0000001E00050000000C029306940E050000000B0200000000030000001E00030000001E000500
00000C02BA034408050000000B0200000000050000000B020000000018000000FF0600000600C3
C804002A000100020000C000C0FF3FFF3F020000C0FF3F00C0FF3F0200050000000102FFFF0400
00002D01000009000000FA02000000000000000000002200040000002D01010007000000FC0200
00000000000000040000002D01020010000000FB0210FF00000000000090010000000107000000
417269616C000100040000002D0103000400000002010100050000000102FFFFFF00040000002E
01180005000000090200000000040000000801000015000000FB0210FF00000000000090010000
00010700000054696D6573204E657720526F6D616E000100040000002D0104000B00000026060F
000C004D6174685479706500003C0115000000FB0256FF00000000000090010100000107000000
54696D6573204E657720526F6D616E000100040000002D01050010000000FB0256FF0000000000
009001000000020700000053796D626F6C0002040000002D01060010000000FB0256FF00000000
00009001000000020700000053796D626F6C0002040000002D01070015000000FB0210FF000000
0000009001010000020700000054696D6573204E657720526F6D616E000200040000002D010800
15000000FB0210FF0000000000009001010000010700000054696D6573204E657720526F6D616E
000100040000002D01090013000000FB0210FF000000000000900100000001070000005346204D
61746820457874000100040000002D010A0013000000FB0210FF00000000000090010000000207
0000005346204D61746820457874000200040000002D010B0015000000FB0210FF000000000000
9001000000020700000054696D6573204E657720526F6D616E000200040000002D010C00040000
002D010400040000002D010A00040000002D010B00040000002D010C00040000002D0104001000
0000FB0210FF0000000000009001000000020700000053796D626F6C0002040000002D010D0010
000000FB0210FF0000000000009001000000020700000053796D626F6C0002040000002D010E00
040000002D010C00040000002D010400040000002D010900040000002D010D00040000002D010E
00040000002D010C00040000002D010400040000002D010D00040000002D010E00040000002D01
0B00040000002D010C00040000002D010400040000002D010A00040000002D010B00040000002D
010C00040000002D010400040000002D010A00040000002D010B00040000002D010C0004000000
2D010400040000002D010A00040000002D010B00040000002D010C00040000002D010400040000
002D010A00040000002D010B00040000002D010C00040000002D010400040000002D010A000400
00002D010B000500000009020000FF000700000021050100C70075006400040000002D010C0004
0000002D010400040000002D010D00040000002D010E00040000002D010C00040000002D010400
070000002105010065002E022501040000002D010600040000002D01070007000000210501002D
008F01A90115000000FB0256FF0000000000009001010000020700000054696D6573204E657720
526F6D616E000200040000002D010F00040000002D010500070000002105010054008F01200204
0000002D010600040000002D0107000700000021050100D7008F01A802040000002D010F000400
00002D010500070000002105010074008F01EC02040000002D010D00040000002D010E00070000
0021050100D7002E024F03040000002D010C00040000002D010400040000002D010D0004000000
2D010E00040000002D010C00040000002D010400040000002D010D00040000002D010E00040000
002D010C00040000002D010400040000002D010D00040000002D010E00040000002D010C000400
00002D010400040000002D010D00040000002D010E00040000002D010C00040000002D01040004
0000002D010D00040000002D010E000700000021050100B6008C010D040700000021050100B600
2203D803040000002D010800040000002D0109000700000021050100630022037304040000002D
010A00040000002D010B000700000021050100C500DD01BB030700000021050100C500DD014B04
0700000021050100C500DD016B04040000002D010C00040000002D010400070000002105010020
002E02FB04040000002D010900070000002105010055002E023705040000002D010A0004000000
2D010B00040000002D010C00040000002D010400040000002D010A00040000002D010B00040000
002D010C00040000002D010400040000002D010A00040000002D010B0007000000210501002800
2E02FA05040000002D010C00040000002D010400040000002D010900070000002105010063002E
025706040000002D010A00040000002D010B00040000002D010C00040000002D01040004000000
2D010A00040000002D010B00040000002D010C00040000002D010400040000002D010A00040000
002D010B00070000002105010029002E02C206040000002D010C00040000002D01040004000000
2D010A00040000002D010B00040000002D010C00040000002D010400040000002D010A00040000
002D010B000700000021050100C80075001F0709000000FA020000000000000000000022000400
00002D01100004000000F001010007000000FC020000FFFFFF000000040000002D010100100000
00FB021000070000000000BC02000000000102022253797374656D0000040000002D0111000400
00002701FFFF04000000F001030004000000F001040004000000F001050004000000F001060004
000000F001070004000000F001080004000000F001090004000000F0010A0004000000F0010B00
04000000F0010C0004000000F0010D0004000000F0010E0004000000F0010F00040000002701FF
FF040000002701FFFF030000000000
}\plain\lang1033\f6\fs22\cf1\protect 
\par \pard\li50\ri2\plain\lang1033\f6\fs22\cf1\protect 
\par \pard\li300\ri5\fi-300{\*\pn\pnlvlblt\pnf1\pnindent300{\pntxtb\'b7}}\plain\lang1033\f6\fs22\cf2 {\pntext\f1\'b7\tab}p1:=p1[1]
\par \pard\li50\ri6\plain\lang1033\f6\fs22\cf1\protect    {\pict\wmetafile8\picw3051\pich1682\picscalex99\picscaley99\picwgoal1730\pichgoal954
010009000003DD0300001200180000000000050000000B0200000000050000000C029206EB0B03
0000001E00050000000C029306EC0B050000000B0200000000030000001E00030000001E000500
00000C02BA03C206050000000B0200000000050000000B020000000018000000FF0600000600D4
C804002A000100020000C000C0FF3FFF3F020000C0FF3F00C0FF3F0200050000000102FFFF0400
00002D01000009000000FA02000000000000000000002200040000002D01010007000000FC0200
00000000000000040000002D01020010000000FB0210FF00000000000090010000000107000000
417269616C000100040000002D0103000400000002010100050000000102FFFFFF00040000002E
01180005000000090200000000040000000801000015000000FB0210FF00000000000090010000
00010700000054696D6573204E657720526F6D616E000100040000002D0104000B00000026060F
000C004D6174685479706500003C0115000000FB0256FF00000000000090010100000107000000
54696D6573204E657720526F6D616E000100040000002D01050010000000FB0256FF0000000000
009001000000020700000053796D626F6C0002040000002D01060010000000FB0256FF00000000
00009001000000020700000053796D626F6C0002040000002D01070015000000FB0210FF000000
0000009001010000020700000054696D6573204E657720526F6D616E000200040000002D010800
15000000FB0210FF0000000000009001010000010700000054696D6573204E657720526F6D616E
000100040000002D01090013000000FB0210FF000000000000900100000001070000005346204D
61746820457874000100040000002D010A0013000000FB0210FF00000000000090010000000207
0000005346204D61746820457874000200040000002D010B0015000000FB0210FF000000000000
9001000000020700000054696D6573204E657720526F6D616E000200040000002D010C00040000
002D010400040000002D010A00040000002D010B00040000002D010C00040000002D0104001000
0000FB0210FF0000000000009001000000020700000053796D626F6C0002040000002D010D0010
000000FB0210FF0000000000009001000000020700000053796D626F6C0002040000002D010E00
040000002D010C00040000002D010400040000002D010900040000002D010D00040000002D010E
00040000002D010C00040000002D010400040000002D010D00040000002D010E00040000002D01
0C00040000002D010400040000002D010D00040000002D010E00040000002D010C00040000002D
0104000500000009020000FF00070000002105010065002E026400040000002D01060004000000
2D01070007000000210501002D008F01E80015000000FB0256FF00000000000090010100000207
00000054696D6573204E657720526F6D616E000200040000002D010F00040000002D0105000700
00002105010054008F015F01040000002D010600040000002D0107000700000021050100D7008F
01E701040000002D010F00040000002D010500070000002105010074008F012B02040000002D01
0D00040000002D010E000700000021050100D7002E028E02040000002D010C00040000002D0104
00040000002D010D00040000002D010E00040000002D010C00040000002D010400040000002D01
0D00040000002D010E00040000002D010C00040000002D010400040000002D010D00040000002D
010E00040000002D010C00040000002D010400040000002D010D00040000002D010E0004000000
2D010C00040000002D010400040000002D010D00040000002D010E000700000021050100B6008C
014C030700000021050100B60022031703040000002D010800040000002D010900070000002105
010063002203B203040000002D010A00040000002D010B000700000021050100C500DD01FA0207
00000021050100C500DD018A030700000021050100C500DD01AA03040000002D010C0004000000
2D010400070000002105010020002E023A04040000002D010900070000002105010055002E0276
04040000002D010A00040000002D010B00040000002D010C00040000002D010400040000002D01
0A00040000002D010B00040000002D010C00040000002D010400040000002D010A00040000002D
010B00070000002105010028002E023905040000002D010C00040000002D010400040000002D01
0900070000002105010063002E029605040000002D010A00040000002D010B00040000002D010C
00040000002D010400040000002D010A00040000002D010B00040000002D010C00040000002D01
0400040000002D010A00040000002D010B00070000002105010029002E02010609000000FA0200
0000000000000000002200040000002D01100004000000F001010007000000FC020000FFFFFF00
0000040000002D01010010000000FB021000070000000000BC0200000000010202225379737465
6D0000040000002D011100040000002701FFFF04000000F001030004000000F001040004000000
F001050004000000F001060004000000F001070004000000F001080004000000F0010900040000
00F0010A0004000000F0010B0004000000F0010C0004000000F0010D0004000000F0010E000400
0000F0010F00040000002701FFFF040000002701FFFF030000000000
}\plain\lang1033\f6\fs22\cf1\protect 
\par \pard\li50\ri2\plain\lang1033\f6\fs22\cf1\protect 
\par \pard\li300\ri5\fi-300{\*\pn\pnlvlblt\pnf1\pnindent300{\pntxtb\'b7}}\plain\lang1033\f6\fs22\cf2 {\pntext\f1\'b7\tab}p1
\par \pard\li50\ri6\plain\lang1033\f6\fs22\cf1\protect    {\pict\wmetafile8\picw3051\pich1682\picscalex99\picscaley99\picwgoal1730\pichgoal954
010009000003DD0300001200180000000000050000000B0200000000050000000C029206EB0B03
0000001E00050000000C029306EC0B050000000B0200000000030000001E00030000001E000500
00000C02BA03C206050000000B0200000000050000000B020000000018000000FF0600000600E5
C804002A000100020000C000C0FF3FFF3F020000C0FF3F00C0FF3F0200050000000102FFFF0400
00002D01000009000000FA02000000000000000000002200040000002D01010007000000FC0200
00000000000000040000002D01020010000000FB0210FF00000000000090010000000107000000
417269616C000100040000002D0103000400000002010100050000000102FFFFFF00040000002E
01180005000000090200000000040000000801000015000000FB0210FF00000000000090010000
00010700000054696D6573204E657720526F6D616E000100040000002D0104000B00000026060F
000C004D6174685479706500003C0115000000FB0256FF00000000000090010100000107000000
54696D6573204E657720526F6D616E000100040000002D01050010000000FB0256FF0000000000
009001000000020700000053796D626F6C0002040000002D01060010000000FB0256FF00000000
00009001000000020700000053796D626F6C0002040000002D01070015000000FB0210FF000000
0000009001010000020700000054696D6573204E657720526F6D616E000200040000002D010800
15000000FB0210FF0000000000009001010000010700000054696D6573204E657720526F6D616E
000100040000002D01090013000000FB0210FF000000000000900100000001070000005346204D
61746820457874000100040000002D010A0013000000FB0210FF00000000000090010000000207
0000005346204D61746820457874000200040000002D010B0015000000FB0210FF000000000000
9001000000020700000054696D6573204E657720526F6D616E000200040000002D010C00040000
002D010400040000002D010A00040000002D010B00040000002D010C00040000002D0104001000
0000FB0210FF0000000000009001000000020700000053796D626F6C0002040000002D010D0010
000000FB0210FF0000000000009001000000020700000053796D626F6C0002040000002D010E00
040000002D010C00040000002D010400040000002D010900040000002D010D00040000002D010E
00040000002D010C00040000002D010400040000002D010D00040000002D010E00040000002D01
0C00040000002D010400040000002D010D00040000002D010E00040000002D010C00040000002D
0104000500000009020000FF00070000002105010065002E026400040000002D01060004000000
2D01070007000000210501002D008F01E80015000000FB0256FF00000000000090010100000207
00000054696D6573204E657720526F6D616E000200040000002D010F00040000002D0105000700
00002105010054008F015F01040000002D010600040000002D0107000700000021050100D7008F
01E701040000002D010F00040000002D010500070000002105010074008F012B02040000002D01
0D00040000002D010E000700000021050100D7002E028E02040000002D010C00040000002D0104
00040000002D010D00040000002D010E00040000002D010C00040000002D010400040000002D01
0D00040000002D010E00040000002D010C00040000002D010400040000002D010D00040000002D
010E00040000002D010C00040000002D010400040000002D010D00040000002D010E0004000000
2D010C00040000002D010400040000002D010D00040000002D010E000700000021050100B6008C
014C030700000021050100B60022031703040000002D010800040000002D010900070000002105
010063002203B203040000002D010A00040000002D010B000700000021050100C500DD01FA0207
00000021050100C500DD018A030700000021050100C500DD01AA03040000002D010C0004000000
2D010400070000002105010020002E023A04040000002D010900070000002105010055002E0276
04040000002D010A00040000002D010B00040000002D010C00040000002D010400040000002D01
0A00040000002D010B00040000002D010C00040000002D010400040000002D010A00040000002D
010B00070000002105010028002E023905040000002D010C00040000002D010400040000002D01
0900070000002105010063002E029605040000002D010A00040000002D010B00040000002D010C
00040000002D010400040000002D010A00040000002D010B00040000002D010C00040000002D01
0400040000002D010A00040000002D010B00070000002105010029002E02010609000000FA0200
0000000000000000002200040000002D01100004000000F001010007000000FC020000FFFFFF00
0000040000002D01010010000000FB021000070000000000BC0200000000010202225379737465
6D0000040000002D011100040000002701FFFF04000000F001030004000000F001040004000000
F001050004000000F001060004000000F001070004000000F001080004000000F0010900040000
00F0010A0004000000F0010B0004000000F0010C0004000000F0010D0004000000F0010E000400
0000F0010F00040000002701FFFF040000002701FFFF030000000000
}\plain\lang1033\f6\fs22\cf1\protect 
\par \pard\li50\ri2\plain\lang1033\f6\fs22\cf1\protect 
\par \pard\li300\ri5\fi-300{\*\pn\pnlvlblt\pnf1\pnindent300{\pntxtb\'b7}}\plain\lang1033\f6\fs22\cf2 {\pntext\f1\'b7\tab}
\par {\pntext\f1\'b7\tab}ek:=diff\plain\f6\fs22\cf2 (P(t),t)=subs(-diff(H,k),p=P(t))
\par \pard\li50\ri6\plain\lang1033\f6\fs22\cf1\protect    {\pict\wmetafile8\picw5993\pich1682\picscalex99\picscaley99\picwgoal3398\pichgoal954
010009000003F90500000E00180000000000050000000B0200000000050000000C029206691703
0000001E00050000000C0293066A17050000000B0200000000030000001E00030000001E000500
00000C02BA03460D050000000B0200000000050000000B020000000018000000FF0600000600F6
C804002A000100020000C000C0FF3FFF3F020000C0FF3F00C0FF3F0200050000000102FFFF0400
00002D01000009000000FA02000000000000000000002200040000002D01010007000000FC0200
00000000000000040000002D01020010000000FB0210FF00000000000090010000000107000000
417269616C000100040000002D0103000400000002010100050000000102FFFFFF00040000002E
01180005000000090200000000040000000801000015000000FB0210FF00000000000090010000
00010700000054696D6573204E657720526F6D616E000100040000002D0104000B00000026060F
000C004D6174685479706500003C0115000000FB0210FF00000000000090010100000107000000
54696D6573204E657720526F6D616E000100040000002D01050013000000FB0210FF0000000000
00900100000001070000005346204D61746820457874000100040000002D01060013000000FB02
10FF000000000000900100000002070000005346204D61746820457874000200040000002D0107
0015000000FB0210FF0000000000009001000000020700000054696D6573204E657720526F6D61
6E000200040000002D010800040000002D010400040000002D010600040000002D010700040000
002D010800040000002D01040010000000FB0210FF000000000000900100000002070000005379
6D626F6C0002040000002D01090010000000FB0210FF0000000000009001000000020700000053
796D626F6C0002040000002D010A00040000002D010800040000002D010400040000002D010500
040000002D010900040000002D010A00040000002D010800040000002D010400040000002D0105
00040000002D010600040000002D010700040000002D010800040000002D010400040000002D01
0600040000002D010700040000002D010800040000002D010400040000002D010500040000002D
010600040000002D010700040000002D010800040000002D010400040000002D01060004000000
2D010700040000002D010800040000002D010400040000002D010900040000002D010A00040000
002D010800040000002D010400040000002D010500040000002D010900040000002D010A000400
00002D010800040000002D010400040000002D010900040000002D010A00040000002D01070004
0000002D010800040000002D010400040000002D010600040000002D010700040000002D010800
040000002D010400040000002D010600040000002D010700040000002D010A00040000002D0108
00040000002D010400040000002D010900040000002D010A00040000002D010800040000002D01
0400040000002D010900040000002D010A00040000002D010800040000002D010400040000002D
010900040000002D010A00040000002D010800040000002D010400040000002D01090004000000
2D010A00040000002D010800040000002D0104000500000009020000FF00040000002D01090004
0000002D010A000700000021050100B6008C01A4000700000021050100B6002203810015000000
FB0210FF0000000000009001010000020700000054696D6573204E657720526F6D616E00020004
0000002D010B00040000002D0105000700000021050100740022031C01040000002D0106000400
00002D0107000700000021050100C500DD0164000700000021050100C500DD01F000040000002D
010800040000002D010400070000002105010020002E028001040000002D010500070000002105
010050002E02C101040000002D010600040000002D010700040000002D010800040000002D0104
00040000002D010600040000002D010700040000002D010800040000002D010400040000002D01
0600040000002D010700070000002105010028002E025602040000002D010800040000002D0104
00040000002D010500070000002105010074002E02B302040000002D010600040000002D010700
040000002D010800040000002D010400040000002D010600040000002D010700040000002D0108
00040000002D010400040000002D010600040000002D010700070000002105010029002E02FA02
040000002D010A0007000000210501003D002E029F03040000002D010700040000002D01080004
0000002D010400040000002D010600040000002D010700040000002D010800040000002D010400
040000002D010600040000002D010700040000002D010A00040000002D010B00040000002D0105
00070000002105010050002E027004040000002D010600040000002D010700040000002D010800
040000002D010400040000002D010600040000002D010700040000002D010800040000002D0104
00040000002D010600040000002D010700070000002105010028002E020505040000002D010800
040000002D010400040000002D010500070000002105010074002E026205040000002D01060004
0000002D010700040000002D010800040000002D010400040000002D010600040000002D010700
040000002D010800040000002D010400040000002D010600040000002D01070007000000210501
0029002E02A905040000002D010A000700000021050100D7002E023606040000002D0107000400
00002D010800040000002D010400040000002D010600040000002D010700040000002D01080004
0000002D010400040000002D010600040000002D010700040000002D010800040000002D010400
040000002D010600040000002D010700040000002D010800040000002D010400040000002D0106
00040000002D0107000700000021050100C3007500A206040000002D010B00040000002D010500
07000000210501006E002E026007040000002D010900040000002D010A0007000000210501002D
002E021408040000002D010800040000002D010400040000002D010900040000002D010A000400
00002D010800040000002D010400040000002D010900040000002D010A00040000002D01080004
0000002D010400040000002D010900040000002D010A00040000002D010800040000002D010400
040000002D010900040000002D010A00040000002D010800040000002D010400040000002D0109
00040000002D010A000700000021050100B6008C012B090700000021050100B6002203F1080400
00002D010B00040000002D01050007000000210501006B0022038C09040000002D010600040000
002D0107000700000021050100C500DD01D4080700000021050100C500DD016409070000002105
0100C500DD018E09040000002D010800040000002D010400070000002105010020002E021E0A04
0000002D010500070000002105010066002E02830A040000002D010600040000002D0107000400
00002D010800040000002D010400040000002D010600040000002D010700040000002D01080004
0000002D010400040000002D010600040000002D010700070000002105010028002E02F50A0400
00002D010800040000002D010400040000002D01050007000000210501006B002E02520B040000
002D010600040000002D010700040000002D010800040000002D010400040000002D0106000400
00002D010700040000002D010800040000002D010400040000002D010600040000002D01070007
0000002105010029002E02C70B040000002D010800040000002D010400040000002D0106000400
00002D010700040000002D010800040000002D010400040000002D010600040000002D01070007
0000002105010021007500240C09000000FA02000000000000000000002200040000002D010C00
04000000F001010007000000FC020000FFFFFF000000040000002D01010010000000FB02100007
0000000000BC02000000000102022253797374656D0000040000002D010D00040000002701FFFF
04000000F001030004000000F001040004000000F001050004000000F001060004000000F00107
0004000000F001080004000000F001090004000000F0010A0004000000F0010B00040000002701
FFFF040000002701FFFF030000000000
}\plain\lang1033\f6\fs22\cf1\protect 
\par \pard\li50\ri2\plain\lang1033\f6\fs22\cf1\protect 
\par \pard\li300\ri5\fi-300{\*\pn\pnlvlblt\pnf1\pnindent300{\pntxtb\'b7}}\plain\f6\fs22\cf2 {\pntext\f1\'b7\tab}p2:=subs(p1,c=C(t))
\par \pard\li50\ri6\plain\lang1033\f6\fs22\cf1\protect    {\pict\wmetafile8\picw4176\pich1682\picscalex99\picscaley99\picwgoal2368\pichgoal954
010009000003FD0400001200180000000000050000000B0200000000050000000C029206501003
0000001E00050000000C0293065110050000000B0200000000030000001E00030000001E000500
00000C02BA034009050000000B0200000000050000000B020000000018000000FF060000060003
C904002A000100020000C000C0FF3FFF3F020000C0FF3F00C0FF3F0200050000000102FFFF0400
00002D01000009000000FA02000000000000000000002200040000002D01010007000000FC0200
00000000000000040000002D01020010000000FB0210FF00000000000090010000000107000000
417269616C000100040000002D0103000400000002010100050000000102FFFFFF00040000002E
01180005000000090200000000040000000801000015000000FB0210FF00000000000090010000
00010700000054696D6573204E657720526F6D616E000100040000002D0104000B00000026060F
000C004D6174685479706500003C0115000000FB0256FF00000000000090010100000107000000
54696D6573204E657720526F6D616E000100040000002D01050010000000FB0256FF0000000000
009001000000020700000053796D626F6C0002040000002D01060010000000FB0256FF00000000
00009001000000020700000053796D626F6C0002040000002D01070015000000FB0210FF000000
0000009001010000020700000054696D6573204E657720526F6D616E000200040000002D010800
15000000FB0210FF0000000000009001010000010700000054696D6573204E657720526F6D616E
000100040000002D01090013000000FB0210FF000000000000900100000001070000005346204D
61746820457874000100040000002D010A0013000000FB0210FF00000000000090010000000207
0000005346204D61746820457874000200040000002D010B0015000000FB0210FF000000000000
9001000000020700000054696D6573204E657720526F6D616E000200040000002D010C00040000
002D010400040000002D010A00040000002D010B00040000002D010C00040000002D0104000400
00002D010A00040000002D010B00040000002D010C00040000002D010400040000002D010A0004
0000002D010B00040000002D010C00040000002D01040010000000FB0210FF0000000000009001
000000020700000053796D626F6C0002040000002D010D0010000000FB0210FF00000000000090
01000000020700000053796D626F6C0002040000002D010E00040000002D010C00040000002D01
0400040000002D010900040000002D010A00040000002D010B00040000002D010C00040000002D
010400040000002D010A00040000002D010B00040000002D010C00040000002D01040004000000
2D010D00040000002D010E00040000002D010C00040000002D010400040000002D010D00040000
002D010E00040000002D010C00040000002D010400040000002D010D00040000002D010E000400
00002D010C00040000002D0104000500000009020000FF00070000002105010065002E02640004
0000002D010600040000002D01070007000000210501002D008F01E80015000000FB0256FF0000
000000009001010000020700000054696D6573204E657720526F6D616E000200040000002D010F
00040000002D010500070000002105010054008F015F01040000002D010600040000002D010700
0700000021050100D7008F01E701040000002D010F00040000002D010500070000002105010074
008F012B02040000002D010D00040000002D010E000700000021050100D7002E028E0204000000
2D010C00040000002D010400040000002D010D00040000002D010E00040000002D010C00040000
002D010400040000002D010D00040000002D010E00040000002D010C00040000002D0104000400
00002D010D00040000002D010E00040000002D010C00040000002D010400040000002D010D0004
0000002D010E00040000002D010C00040000002D010400040000002D010D00040000002D010E00
0700000021050100B6008C01EC030700000021050100B60022031703040000002D010800040000
002D010900070000002105010043002203B203040000002D010A00040000002D010B0004000000
2D010C00040000002D010400040000002D010A00040000002D010B00040000002D010C00040000
002D010400040000002D010A00040000002D010B000700000021050100280022035B0404000000
2D010C00040000002D010400040000002D010900070000002105010074002203B804040000002D
010A00040000002D010B00040000002D010C00040000002D010400040000002D010A0004000000
2D010B00040000002D010C00040000002D010400040000002D010A00040000002D010B00070000
002105010029002203FF040700000021050100C500DD01FA020700000021050100C500DD018A03
0700000021050100C500DD011A040700000021050100C500DD01AA040700000021050100C500DD
01E904040000002D010C00040000002D010400070000002105010020002E027905040000002D01
0900070000002105010055002E02B505040000002D010A00040000002D010B00040000002D010C
00040000002D010400040000002D010A00040000002D010B00040000002D010C00040000002D01
0400040000002D010A00040000002D010B00070000002105010028002E027806040000002D010C
00040000002D010400040000002D010900070000002105010043002E02D506040000002D010A00
040000002D010B00040000002D010C00040000002D010400040000002D010A00040000002D010B
00040000002D010C00040000002D010400040000002D010A00040000002D010B00070000002105
010028002E027E07040000002D010C00040000002D010400040000002D01090007000000210501
0074002E02DB07040000002D010A00040000002D010B00040000002D010C00040000002D010400
040000002D010A00040000002D010B00040000002D010C00040000002D010400040000002D010A
00040000002D010B00070000002105010029002E022208040000002D010C00040000002D010400
040000002D010A00040000002D010B00040000002D010C00040000002D010400040000002D010A
00040000002D010B00070000002105010029002E027F0809000000FA0200000000000000000000
2200040000002D01100004000000F001010007000000FC020000FFFFFF000000040000002D0101
0010000000FB021000070000000000BC02000000000102022253797374656D0000040000002D01
1100040000002701FFFF04000000F001030004000000F001040004000000F001050004000000F0
01060004000000F001070004000000F001080004000000F001090004000000F0010A0004000000
F0010B0004000000F0010C0004000000F0010D0004000000F0010E0004000000F0010F00040000
002701FFFF040000002701FFFF030000000000
}\plain\lang1033\f6\fs22\cf1\protect 
\par \pard\li50\ri2\plain\lang1033\f6\fs22\cf1\protect 
\par \pard\li300\ri5\fi-300{\*\pn\pnlvlblt\pnf1\pnindent300{\pntxtb\'b7}}\plain\f6\fs22\cf2 {\pntext\f1\'b7\tab}D(sin)
\par \pard\li50\ri6\plain\lang1033\f6\fs22\cf1\protect    {\pict\wmetafile8\picw915\pich825\picscalex99\picscaley99\picwgoal519\pichgoal468
010009000003180100000700180000000000050000000B0200000000050000000C023903930303
0000001E00050000000C023B039503050000000B0200000000030000001E00030000001E000500
00000C02D5010802050000000B0200000000050000000B020000000018000000FF060000060014
C904002A000100020000C000C0FF3FFF3F020000C0FF3F00C0FF3F0200050000000102FFFF0400
00002D01000009000000FA02000000000000000000002200040000002D01010007000000FC0200
00000000000000040000002D01020010000000FB0210FF00000000000090010000000107000000
417269616C000100040000002D0103000400000002010100050000000102FFFFFF00040000002E
01180005000000090200000000040000000801000015000000FB0210FF00000000000090010000
00010700000054696D6573204E657720526F6D616E000100040000002D0104000B00000026060F
000C004D6174685479706500007B000500000009020000FF00070000002105010063003B016400
07000000210501006F003B01CF00070000002105010073003B01470109000000FA020000000000
00000000002200040000002D01050004000000F001010007000000FC020000FFFFFF0000000400
00002D01010010000000FB021000070000000000BC02000000000102022253797374656D000004
0000002D010600040000002701FFFF04000000F001030004000000F0010400040000002701FFFF
040000002701FFFF030000000000
}\plain\lang1033\f6\fs22\cf1\protect 
\par \pard\li50\ri2\plain\lang1033\f6\fs22\cf1\protect 
\par \pard\li300\ri5\fi-300{\*\pn\pnlvlblt\pnf1\pnindent300{\pntxtb\'b7}}\plain\f6\fs22\cf2 {\pntext\f1\'b7\tab}p3:=subs(p1,diff(U(c),c)=D(U)(c))
\par \pard\li50\ri6\plain\lang1033\f6\fs22\cf1\protect    {\pict\wmetafile8\picw2478\pich1095\picscalex99\picscaley99\picwgoal1405\pichgoal621
010009000003330300001200180000000000050000000B0200000000050000000C024704AE0903
0000001E00050000000C024904B009050000000B0200000000030000001E00030000001E000500
00000C026E027E05050000000B0200000000050000000B020000000018000000FF06000006001A
C904002A000100020000C000C0FF3FFF3F020000C0FF3F00C0FF3F0200050000000102FFFF0400
00002D01000009000000FA02000000000000000000002200040000002D01010007000000FC0200
00000000000000040000002D01020010000000FB0210FF00000000000090010000000107000000
417269616C000100040000002D0103000400000002010100050000000102FFFFFF00040000002E
01180005000000090200000000040000000801000015000000FB0210FF00000000000090010000
00010700000054696D6573204E657720526F6D616E000100040000002D0104000B00000026060F
000C004D6174685479706500007B0015000000FB0210FF00000000000090010100000107000000
54696D6573204E657720526F6D616E000100040000002D01050015000000FB0256FF0000000000
009001000000010700000054696D6573204E657720526F6D616E000100040000002D0106000400
00002D01050013000000FB0210FF000000000000900100000001070000005346204D6174682045
7874000100040000002D01070013000000FB0210FF000000000000900100000002070000005346
204D61746820457874000200040000002D01080015000000FB0210FF0000000000009001000000
020700000054696D6573204E657720526F6D616E000200040000002D010900040000002D010400
040000002D010700040000002D010800040000002D010900040000002D01040015000000FB0256
FF0000000000009001010000010700000054696D6573204E657720526F6D616E00010004000000
2D010A0010000000FB0256FF0000000000009001000000020700000053796D626F6C0002040000
002D010B0010000000FB0256FF0000000000009001000000020700000053796D626F6C00020400
00002D010C0010000000FB0210FF0000000000009001000000020700000053796D626F6C000204
0000002D010D00040000002D010900040000002D01040010000000FB0210FF0000000000009001
000000020700000053796D626F6C0002040000002D010E00040000002D010D00040000002D0109
00040000002D010400040000002D0106000500000009020000FF00040000002D01050007000000
210501005500D4016400040000002D010600070000002105010027009E014001040000002D0107
00040000002D010800040000002D010900040000002D010400040000002D010700040000002D01
0800040000002D010900040000002D010400040000002D010700040000002D0108000700000021
0501002800D4015F01040000002D010900040000002D010400040000002D010500070000002105
01006300D401BC01040000002D010700040000002D010800040000002D010900040000002D0104
00040000002D010700040000002D010800040000002D010900040000002D010400040000002D01
0700040000002D01080007000000210501002900D4012702040000002D010D0007000000210501
00D700D401B402040000002D010900040000002D01040007000000210501006500D40120030400
00002D010B00040000002D010C0007000000210501002D003501A40315000000FB0256FF000000
0000009001010000020700000054696D6573204E657720526F6D616E000200040000002D010F00
040000002D010A000700000021050100540035011B04040000002D010B00040000002D010C0007
00000021050100D7003501A304040000002D010F00040000002D010A0007000000210501007400
3501E70409000000FA02000000000000000000002200040000002D01100004000000F001010007
000000FC020000FFFFFF000000040000002D01010010000000FB021000070000000000BC020000
00000102022253797374656D0000040000002D011100040000002701FFFF04000000F001030004
000000F001040004000000F001050004000000F001060004000000F001070004000000F0010800
04000000F001090004000000F0010A0004000000F0010B0004000000F0010C0004000000F0010D
0004000000F0010E0004000000F0010F00040000002701FFFF040000002701FFFF030000000000
}\plain\lang1033\f6\fs22\cf1\protect 
\par \pard\li50\ri2\plain\lang1033\f6\fs22\cf1\protect 
\par \pard\li300\ri5\fi-300{\*\pn\pnlvlblt\pnf1\pnindent300{\pntxtb\'b7}}\plain\f6\fs22\cf2 {\pntext\f1\'b7\tab}p4:=subs(p3,c=C(t))
\par \pard\li50\ri6\plain\lang1033\f6\fs22\cf1\protect    {\pict\wmetafile8\picw3042\pich1095\picscalex99\picscaley99\picwgoal1725\pichgoal621
010009000003BC0300001200180000000000050000000B0200000000050000000C024704E20B03
0000001E00050000000C024904E30B050000000B0200000000030000001E00030000001E000500
00000C026E02BD06050000000B0200000000050000000B020000000018000000FF06000006002B
C904002A000100020000C000C0FF3FFF3F020000C0FF3F00C0FF3F0200050000000102FFFF0400
00002D01000009000000FA02000000000000000000002200040000002D01010007000000FC0200
00000000000000040000002D01020010000000FB0210FF00000000000090010000000107000000
417269616C000100040000002D0103000400000002010100050000000102FFFFFF00040000002E
01180005000000090200000000040000000801000015000000FB0210FF00000000000090010000
00010700000054696D6573204E657720526F6D616E000100040000002D0104000B00000026060F
000C004D6174685479706500007B0015000000FB0210FF00000000000090010100000107000000
54696D6573204E657720526F6D616E000100040000002D01050015000000FB0256FF0000000000
009001000000010700000054696D6573204E657720526F6D616E000100040000002D0106000400
00002D01050013000000FB0210FF000000000000900100000001070000005346204D6174682045
7874000100040000002D01070013000000FB0210FF000000000000900100000002070000005346
204D61746820457874000200040000002D01080015000000FB0210FF0000000000009001000000
020700000054696D6573204E657720526F6D616E000200040000002D010900040000002D010400
040000002D010700040000002D010800040000002D010900040000002D010400040000002D0107
00040000002D010800040000002D010900040000002D010400040000002D010700040000002D01
0800040000002D010900040000002D01040015000000FB0256FF00000000000090010100000107
00000054696D6573204E657720526F6D616E000100040000002D010A0010000000FB0256FF0000
000000009001000000020700000053796D626F6C0002040000002D010B0010000000FB0256FF00
00000000009001000000020700000053796D626F6C0002040000002D010C0010000000FB0210FF
0000000000009001000000020700000053796D626F6C0002040000002D010D00040000002D0109
00040000002D01040010000000FB0210FF0000000000009001000000020700000053796D626F6C
0002040000002D010E00040000002D010D00040000002D010900040000002D010400040000002D
0106000500000009020000FF00040000002D01050007000000210501005500D401640004000000
2D010600070000002105010027009E014001040000002D010700040000002D010800040000002D
010900040000002D010400040000002D010700040000002D010800040000002D01090004000000
2D010400040000002D010700040000002D01080007000000210501002800D4015F01040000002D
010900040000002D010400040000002D01050007000000210501004300D401BC01040000002D01
0700040000002D010800040000002D010900040000002D010400040000002D010700040000002D
010800040000002D010900040000002D010400040000002D010700040000002D01080007000000
210501002800D4016502040000002D010900040000002D010400040000002D0105000700000021
0501007400D401C202040000002D010700040000002D010800040000002D010900040000002D01
0400040000002D010700040000002D010800040000002D010900040000002D010400040000002D
010700040000002D01080007000000210501002900D4010903040000002D010900040000002D01
0400040000002D010700040000002D010800040000002D010900040000002D010400040000002D
010700040000002D01080007000000210501002900D4016603040000002D010D00070000002105
0100D700D401F303040000002D010900040000002D01040007000000210501006500D4015F0404
0000002D010B00040000002D010C0007000000210501002D003501E30415000000FB0256FF0000
000000009001010000020700000054696D6573204E657720526F6D616E000200040000002D010F
00040000002D010A000700000021050100540035015A05040000002D010B00040000002D010C00
0700000021050100D7003501E205040000002D010F00040000002D010A00070000002105010074
003501260609000000FA02000000000000000000002200040000002D01100004000000F0010100
07000000FC020000FFFFFF000000040000002D01010010000000FB021000070000000000BC0200
0000000102022253797374656D0000040000002D011100040000002701FFFF04000000F0010300
04000000F001040004000000F001050004000000F001060004000000F001070004000000F00108
0004000000F001090004000000F0010A0004000000F0010B0004000000F0010C0004000000F001
0D0004000000F0010E0004000000F0010F00040000002701FFFF040000002701FFFF0300000000
00
}\plain\lang1033\f6\fs22\cf1\protect 
\par \pard\li50\ri2\plain\lang1033\f6\fs22\cf1\protect 
\par \pard\li300\ri5\fi-300{\*\pn\pnlvlblt\pnf1\pnindent300{\pntxtb\'b7}}\plain\f6\fs22\cf2 {\pntext\f1\'b7\tab}fff:=x->x*x*x
\par \pard\li50\ri6\plain\lang1033\f6\fs22\cf1\protect    {\pict\wmetafile8\picw2377\pich968\picscalex99\picscaley99\picwgoal1348\pichgoal549
010009000003FB0100000C00180000000000050000000B0200000000050000000C02C803490903
0000001E00050000000C02CA034B09050000000B0200000000030000001E00030000001E000500
00000C0226024505050000000B0200000000050000000B020000000018000000FF06000006003C
C904002A000100020000C000C0FF3FFF3F020000C0FF3F00C0FF3F0200050000000102FFFF0400
00002D01000009000000FA02000000000000000000002200040000002D01010007000000FC0200
00000000000000040000002D01020010000000FB0210FF00000000000090010000000107000000
417269616C000100040000002D0103000400000002010100050000000102FFFFFF00040000002E
01180005000000090200000000040000000801000015000000FB0210FF00000000000090010000
00010700000054696D6573204E657720526F6D616E000100040000002D0104000B00000026060F
000C004D6174685479706500007B0015000000FB0210FF00000000000090010100000107000000
54696D6573204E657720526F6D616E000100040000002D01050010000000FB0210FF0000000000
009001000000020700000053796D626F6C0002040000002D01060010000000FB0210FF00000000
00009001000000020700000053796D626F6C0002040000002D01070015000000FB0210FF000000
0000009001000000020700000054696D6573204E657720526F6D616E000200040000002D010800
040000002D010400040000002D010600040000002D0107000500000009020000FF0015000000FB
0210FF0000000000009001010000020700000054696D6573204E657720526F6D616E0002000400
00002D010900040000002D010500070000002105010078008C016B00040000002D010600040000
002D0107000700000021050100AE008C011E01040000002D010900040000002D01050007000000
2105010078008C015A02040000002D010600040000002D0107000700000021050100D7008C01F5
02040000002D010900040000002D010500070000002105010078008C016803040000002D010600
040000002D0107000700000021050100D7008C010304040000002D010900040000002D01050007
0000002105010078008C01760409000000FA02000000000000000000002200040000002D010A00
04000000F001010007000000FC020000FFFFFF000000040000002D01010010000000FB02100007
0000000000BC02000000000102022253797374656D0000040000002D010B00040000002701FFFF
04000000F001030004000000F001040004000000F001050004000000F001060004000000F00107
0004000000F001080004000000F0010900040000002701FFFF040000002701FFFF030000000000
}\plain\lang1033\f6\fs22\cf1\protect 
\par \pard\li50\ri2\plain\lang1033\f6\fs22\cf1\protect 
\par \pard\li300\ri5\fi-300{\*\pn\pnlvlblt\pnf1\pnindent300{\pntxtb\'b7}}\plain\lang1033\f6\fs22\cf2 {\pntext\f1\'b7\tab}fff5!)-
\par \pard\li50\ri6\plain\lang1033\f6\fs22\cf1\protect fff5!)
\par \pard\li50\ri2\plain\lang1033\f6\fs22\cf1\protect      ^ Error: Unexpected ')' [line 1, col 6]
\par 
\par \pard\li300\ri5\fi-300{\*\pn\pnlvlblt\pnf1\pnindent300{\pntxtb\'b7}}\plain\lang1033\f6\fs22\cf2 {\pntext\f1\'b7\tab}fff(10)
\par \pard\li50\ri6\plain\lang1033\f6\fs22\cf1\protect    {\pict\wmetafile8\picw1197\pich825\picscalex99\picscaley99\picwgoal679\pichgoal468
0100090000031F0100000700180000000000050000000B0200000000050000000C023903AD0403
0000001E00050000000C023B03AF04050000000B0200000000030000001E00030000001E000500
00000C02D501A802050000000B0200000000050000000B020000000018000000FF060000060047
C904002A000100020000C000C0FF3FFF3F020000C0FF3F00C0FF3F0200050000000102FFFF0400
00002D01000009000000FA02000000000000000000002200040000002D01010007000000FC0200
00000000000000040000002D01020010000000FB0210FF00000000000090010000000107000000
417269616C000100040000002D0103000400000002010100050000000102FFFFFF00040000002E
01180005000000090200000000040000000801000015000000FB0210FF00000000000090010000
00010700000054696D6573204E657720526F6D616E000100040000002D0104000B00000026060F
000C004D6174685479706500007B000500000009020000FF00070000002105010031003B016400
070000002105010030003B01DC00070000002105010030003B015401070000002105010030003B
01CC0109000000FA02000000000000000000002200040000002D01050004000000F00101000700
0000FC020000FFFFFF000000040000002D01010010000000FB021000070000000000BC02000000
000102022253797374656D0000040000002D010600040000002701FFFF04000000F00103000400
0000F0010400040000002701FFFF040000002701FFFF030000000000
}\plain\lang1033\f6\fs22\cf1\protect 
\par \pard\li50\ri2\plain\lang1033\f6\fs22\cf1\protect 
\par \pard\li300\ri5\fi-300{\*\pn\pnlvlblt\pnf1\pnindent300{\pntxtb\'b7}}\plain\lang1033\f6\fs22\cf2 {\pntext\f1\'b7\tab}P:=t->p4
\par \pard\li50\ri6\plain\lang1033\f6\fs22\cf1\protect    {\pict\wmetafile8\picw1573\pich968\picscalex99\picscaley99\picwgoal892\pichgoal549
010009000003CA0100000C00180000000000050000000B0200000000050000000C02C803250603
0000001E00050000000C02CA032706050000000B0200000000030000001E00030000001E000500
00000C0226027D03050000000B0200000000050000000B020000000018000000FF06000006004D
C904002A000100020000C000C0FF3FFF3F020000C0FF3F00C0FF3F0200050000000102FFFF0400
00002D01000009000000FA02000000000000000000002200040000002D01010007000000FC0200
00000000000000040000002D01020010000000FB0210FF00000000000090010000000107000000
417269616C000100040000002D0103000400000002010100050000000102FFFFFF00040000002E
01180005000000090200000000040000000801000015000000FB0210FF00000000000090010000
00010700000054696D6573204E657720526F6D616E000100040000002D0104000B00000026060F
000C004D6174685479706500007B0015000000FB0210FF00000000000090010100000107000000
54696D6573204E657720526F6D616E000100040000002D010500040000002D01040010000000FB
0210FF0000000000009001000000020700000053796D626F6C0002040000002D01060010000000
FB0210FF0000000000009001000000020700000053796D626F6C0002040000002D010700150000
00FB0210FF0000000000009001000000020700000054696D6573204E657720526F6D616E000200
040000002D010800040000002D010400040000002D010600040000002D01070005000000090200
00FF0015000000FB0210FF0000000000009001010000020700000054696D6573204E657720526F
6D616E000200040000002D010900040000002D010500070000002105010074008C016400040000
002D010600040000002D0107000700000021050100AE008C01F300040000002D01080004000000
2D010400070000002105010070008C012902070000002105010034008C01A10209000000FA0200
0000000000000000002200040000002D010A0004000000F001010007000000FC020000FFFFFF00
0000040000002D01010010000000FB021000070000000000BC0200000000010202225379737465
6D0000040000002D010B00040000002701FFFF04000000F001030004000000F001040004000000
F001050004000000F001060004000000F001070004000000F001080004000000F0010900040000
002701FFFF040000002701FFFF030000000000
}\plain\lang1033\f6\fs22\cf1\protect 
\par \pard\li50\ri2\plain\lang1033\f6\fs22\cf1\protect 
\par \pard\li300\ri5\fi-300{\*\pn\pnlvlblt\pnf1\pnindent300{\pntxtb\'b7}}\plain\lang1033\f6\fs22\cf2 {\pntext\f1\'b7\tab}ek
\par \pard\li50\ri6\plain\lang1033\f6\fs22\cf1\protect    {\pict\wmetafile8\picw14732\pich1682\picscaley99\picwgoal8352\pichgoal954
0100090000034D0B00001300180000000000050000000B0200000000050000000C0292068C3903
0000001E00050000000C0293068C39050000000B0200000000030000001E00030000001E000500
00000C02BA03A020050000000B0200000000050000000B020000000018000000FF060000060058
C904002A000100020000C000C0FF3FFF3F020000C0FF3F00C0FF3F0200050000000102FFFF0400
00002D01000009000000FA02000000000000000000002200040000002D01010007000000FC0200
00000000000000040000002D01020010000000FB0210FF00000000000090010000000107000000
417269616C000100040000002D0103000400000002010100050000000102FFFFFF00040000002E
01180005000000090200000000040000000801000015000000FB0210FF00000000000090010000
00010700000054696D6573204E657720526F6D616E000100040000002D0104000B00000026060F
000C004D6174685479706500003C0115000000FB0210FF00000000000090010100000107000000
54696D6573204E657720526F6D616E000100040000002D01050015000000FB0256FF0000000000
009001000000010700000054696D6573204E657720526F6D616E000100040000002D0106000400
00002D01050013000000FB0210FF000000000000900100000001070000005346204D6174682045
7874000100040000002D01070013000000FB0210FF000000000000900100000002070000005346
204D61746820457874000200040000002D01080015000000FB0210FF0000000000009001000000
020700000054696D6573204E657720526F6D616E000200040000002D010900040000002D010400
040000002D010700040000002D010800040000002D010900040000002D010400040000002D0107
00040000002D010800040000002D010900040000002D010400040000002D010700040000002D01
0800040000002D010900040000002D01040015000000FB0256FF00000000000090010100000107
00000054696D6573204E657720526F6D616E000100040000002D010A0010000000FB0256FF0000
000000009001000000020700000053796D626F6C0002040000002D010B0010000000FB0256FF00
00000000009001000000020700000053796D626F6C0002040000002D010C0015000000FB0210FF
0000000000009001010000020700000054696D6573204E657720526F6D616E000200040000002D
010D00040000002D010500040000002D010700040000002D010800040000002D01090004000000
2D010400040000002D010700040000002D010800040000002D010900040000002D010400100000
00FB0210FF0000000000009001000000020700000053796D626F6C0002040000002D010E001000
0000FB0210FF0000000000009001000000020700000053796D626F6C0002040000002D010F0004
0000002D010900040000002D010400040000002D010500040000002D010E00040000002D010F00
040000002D010900040000002D010400040000002D010E00040000002D010F00040000002D010D
00040000002D010500040000002D010400040000002D010500040000002D010600040000002D01
0500040000002D010700040000002D010800040000002D010900040000002D010400040000002D
010700040000002D010800040000002D010900040000002D010400040000002D01070004000000
2D010800040000002D010900040000002D010400040000002D010700040000002D010800040000
002D010900040000002D010400040000002D010A00040000002D010B00040000002D010C000400
00002D010F00040000002D010900040000002D010400040000002D010500040000002D01060004
0000002D010500040000002D010700040000002D010800040000002D010900040000002D010400
040000002D010700040000002D010800040000002D010900040000002D010400040000002D0107
00040000002D010800040000002D010900040000002D010400040000002D010700040000002D01
0800040000002D010900040000002D010400040000002D010A00040000002D010B00040000002D
010C00040000002D010D00040000002D010500040000002D010700040000002D01080004000000
2D010900040000002D010400040000002D010700040000002D010800040000002D010900040000
002D010400040000002D010E00040000002D010F00040000002D010900040000002D0104000400
00002D010500040000002D010E00040000002D010F00040000002D010900040000002D01040004
0000002D010E00040000002D010F00040000002D010800040000002D010900040000002D010400
040000002D010700040000002D010800040000002D010900040000002D010400040000002D0107
00040000002D010800040000002D010F00040000002D010900040000002D010400040000002D01
0E00040000002D010F00040000002D010900040000002D010400040000002D010600040000002D
010400040000002D0106000500000009020000FF00040000002D01050007000000210501005500
2E026400040000002D01060007000000210501002700F801400107000000210501002700F80178
01040000002D010700040000002D010800040000002D010900040000002D010400040000002D01
0700040000002D010800040000002D010900040000002D010400040000002D010700040000002D
010800070000002105010028002E029701040000002D010900040000002D010400040000002D01
0500070000002105010043002E02F401040000002D010700040000002D010800040000002D0109
00040000002D010400040000002D010700040000002D010800040000002D010900040000002D01
0400040000002D010700040000002D010800070000002105010028002E029D02040000002D0109
00040000002D010400040000002D010500070000002105010074002E02FA02040000002D010700
040000002D010800040000002D010900040000002D010400040000002D010700040000002D0108
00040000002D010900040000002D010400040000002D010700040000002D010800070000002105
010029002E024103040000002D010900040000002D010400040000002D010700040000002D0108
00040000002D010900040000002D010400040000002D010700040000002D010800070000002105
010029002E029E03040000002D010F000700000021050100D7002E022B04040000002D01090004
0000002D010400070000002105010065002E029704040000002D010B00040000002D010C000700
0000210501002D008F011B0515000000FB0256FF0000000000009001010000020700000054696D
6573204E657720526F6D616E000200040000002D011000040000002D010A000700000021050100
54008F019205040000002D010B00040000002D010C000700000021050100D7008F011A06040000
002D011000040000002D010A00070000002105010074008F015E06040000002D010E0004000000
2D010F000700000021050100D7002E02C106040000002D010900040000002D010400040000002D
010E00040000002D010F00040000002D010900040000002D010400040000002D010E0004000000
2D010F00040000002D010900040000002D010400040000002D010E00040000002D010F00040000
002D010900040000002D010400040000002D010E00040000002D010F00040000002D0109000400
00002D010400040000002D010E00040000002D010F000700000021050100B6008C016D07070000
0021050100B60022034A07040000002D010D00040000002D010500070000002105010074002203
E507040000002D010700040000002D0108000700000021050100C500DD012D0707000000210501
00C500DD01B907040000002D010900040000002D010400070000002105010020002E0249080400
00002D010500070000002105010043002E028508040000002D010700040000002D010800040000
002D010900040000002D010400040000002D010700040000002D010800040000002D0109000400
00002D010400040000002D010700040000002D010800070000002105010028002E022E09040000
002D010900040000002D010400040000002D010500070000002105010074002E028B0904000000
2D010700040000002D010800040000002D010900040000002D010400040000002D010700040000
002D010800040000002D010900040000002D010400040000002D010700040000002D0108000700
00002105010029002E02D209040000002D010F0007000000210501002D002E026B0A040000002D
010D00040000002D010500070000002105010054002E022B0B040000002D010E00040000002D01
0F000700000021050100D7002E02F60B040000002D010900040000002D010400040000002D0106
00040000002D010500070000002105010055002E02620C040000002D0106000700000021050100
2700F8013E0D040000002D010700040000002D010800040000002D010900040000002D01040004
0000002D010700040000002D010800040000002D010900040000002D010400040000002D010700
040000002D010800070000002105010028002E025D0D040000002D010900040000002D01040004
0000002D010500070000002105010043002E02BA0D040000002D010700040000002D0108000400
00002D010900040000002D010400040000002D010700040000002D010800040000002D01090004
0000002D010400040000002D010700040000002D010800070000002105010028002E02630E0400
00002D010900040000002D010400040000002D010500070000002105010074002E02C00E040000
002D010700040000002D010800040000002D010900040000002D010400040000002D0107000400
00002D010800040000002D010900040000002D010400040000002D010700040000002D01080007
0000002105010029002E02070F040000002D010900040000002D010400040000002D0107000400
00002D010800040000002D010900040000002D010400040000002D010700040000002D01080007
0000002105010029002E02640F040000002D010F000700000021050100D7002E02F10F04000000
2D010900040000002D010400070000002105010065002E025D10040000002D010B00040000002D
010C0007000000210501002D008F01E110040000002D011000040000002D010A00070000002105
010054008F015811040000002D010B00040000002D010C000700000021050100D7008F01E01104
0000002D011000040000002D010A00070000002105010074008F012412040000002D010E000400
00002D010F0007000000210501003D002E029F12040000002D010800040000002D010900040000
002D010400040000002D010700040000002D010800040000002D010900040000002D0104000400
00002D010700040000002D010800040000002D010F00040000002D010900040000002D01040004
0000002D010600040000002D010500070000002105010055002E026B13040000002D0106000700
0000210501002700F8014714040000002D010700040000002D010800040000002D010900040000
002D010400040000002D010700040000002D010800040000002D010900040000002D0104000400
00002D010700040000002D010800070000002105010028002E026614040000002D010900040000
002D010400040000002D010500070000002105010043002E02C314040000002D01070004000000
2D010800040000002D010900040000002D010400040000002D010700040000002D010800040000
002D010900040000002D010400040000002D010700040000002D01080007000000210501002800
2E026C15040000002D010900040000002D010400040000002D010500070000002105010074002E
02C915040000002D010700040000002D010800040000002D010900040000002D01040004000000
2D010700040000002D010800040000002D010900040000002D010400040000002D010700040000
002D010800070000002105010029002E021016040000002D010900040000002D01040004000000
2D010700040000002D010800040000002D010900040000002D010400040000002D010700040000
002D010800070000002105010029002E026D16040000002D010F000700000021050100D7002E02
FA16040000002D010900040000002D010400070000002105010065002E026617040000002D010B
00040000002D010C0007000000210501002D008F01EA17040000002D011000040000002D010A00
070000002105010054008F016118040000002D010B00040000002D010C000700000021050100D7
008F01E918040000002D011000040000002D010A00070000002105010074008F012D1904000000
2D010E00040000002D010F000700000021050100D7002E029019040000002D010800040000002D
010900040000002D010400040000002D010700040000002D010800040000002D01090004000000
2D010400040000002D010700040000002D010800040000002D010900040000002D010400040000
002D010700040000002D010800040000002D010900040000002D010400040000002D0107000400
00002D0108000700000021050100C3007500FC19040000002D010D00040000002D010500070000
00210501006E002E02BA1A040000002D010E00040000002D010F0007000000210501002D002E02
6E1B040000002D010900040000002D010400040000002D010E00040000002D010F00040000002D
010900040000002D010400040000002D010E00040000002D010F00040000002D01090004000000
2D010400040000002D010E00040000002D010F00040000002D010900040000002D010400040000
002D010E00040000002D010F00040000002D010900040000002D010400040000002D010E000400
00002D010F000700000021050100B6008C01851C0700000021050100B60022034B1C040000002D
010D00040000002D01050007000000210501006B002203E61C040000002D010700040000002D01
08000700000021050100C500DD012E1C0700000021050100C500DD01BE1C0700000021050100C5
00DD01E81C040000002D010900040000002D010400070000002105010020002E02781D04000000
2D010500070000002105010066002E02DD1D040000002D010700040000002D010800040000002D
010900040000002D010400040000002D010700040000002D010800040000002D01090004000000
2D010400040000002D010700040000002D010800070000002105010028002E024F1E040000002D
010900040000002D010400040000002D01050007000000210501006B002E02AC1E040000002D01
0700040000002D010800040000002D010900040000002D010400040000002D010700040000002D
010800040000002D010900040000002D010400040000002D010700040000002D01080007000000
2105010029002E02211F040000002D010900040000002D010400040000002D010700040000002D
010800040000002D010900040000002D010400040000002D010700040000002D01080007000000
21050100210075007E1F09000000FA02000000000000000000002200040000002D011100040000
00F001010007000000FC020000FFFFFF000000040000002D01010010000000FB02100007000000
