\mnb150<nb wrap="0" txtwidth="80" autowidth="0" pprint="1" typeset="1" xface="Times New Roman" xsize="240" xbold="0" xitalic="0" xcolor="#0000FF" slidents="1" sizemult="71" minsize="160" ifont="0 220 255 0 49 Courier New" ofont="0 220 16711680 0 49 Courier New" tfont="0 220 0 1 0 Times New Roman"></nb>ÿ{\rtf1\ansi\deff0\deftab720{\fonttbl{\f0\fswiss MS Sans Serif;}{\f1\froman\fcharset2 Symbol;}{\f2\fswiss\fprq2 System;}{\f3\froman\fprq2 Times New Roman;}{\f4\fswiss\fprq2 Arial;}{\f5\froman\fprq2 Bookman Old Style;}{\f6\fmodern\fprq1 Courier New;}{\f7\fmodern Courier New;}{\f8\froman Times New Roman;}{\f9\froman\fprq2 Symbol;}{\f10\froman\fcharset1 Times New Roman;}{\f11\froman\fprq2\fcharset2 Times New Roman;}{\f12\froman\fcharset1 Times New Roman;}}
{\colortbl\red0\green0\blue0;\red0\green0\blue255;\red255\green0\blue0;\red0\green128\blue0;}
\deflang1033\pard\li300\ri5\fi-300{\*\pn\pnlvlblt\pnf1\pnindent300{\pntxtb\'b7}}\plain\lang1036\f6\fs22\cf2 {\pntext\f1\'b7\tab}rea\plain\f6\fs22\cf2 d("c:\\\\jacques\\\\eco\\\\ramsey26in.txt")
\par \pard\li50\ri6\plain\f6\fs22\cf1\protect    {\pict\wmetafile8\picw1413\pich827\picwgoal801\pichgoal468
0100090000031E0100000700180000000000050000000B0200000000050000000C023B03850503
0000001E00030000001E00050000000C02D5012103050000000B020000000018000000FF060000
060024AE00002A000100020000C000C0FF3FFF3F020000C0FF3F00C0FF3F020000000400000024
00040000002D01000009000000FA02000000000000000000002200040000002D01010007000000
FC020000000000000000040000002D01020010000000FB0210FF00000000000090010000000107
000000417269616C000100040000002D0103000400000002010100050000000102FFFFFF000400
00002E01180005000000090200000000040000000801000015000000FB0210FF00000000000090
01000000010700000054696D6573204E657720526F6D616E000100040000002D0104000B000000
26060F000C004D6174685479706500007B000500000009020000FF00070000002105010072003B
016400070000002105010065003B01B400070000002105010073003B011F010700000021050100
74003B017C01070000002105010061003B01BF01070000002105010072003B012A020700000021
05010074003B017A0209000000FA02000000000000000000002200040000002D01050004000000
F001010007000000FC020000FFFFFF000000040000002D01010010000000FB0210000700000000
00BC02000000000102022253797374656D0000040000002D010600040000002701FFFF04000000
F001030004000000F0010400040000002701FFFF030000000000
}\plain\f6\fs22\cf1\protect 
\par \pard\li50\ri2\plain\f6\fs22\cf1\protect    {\pict\wmetafile8\picw2630\pich972\picwgoal1491\pichgoal551
010009000003170200000D00180000000000050000000B0200000000050000000C02CC03460A03
0000001E00030000001E00050000000C022702D305050000000B020000000018000000FF060000
06002AAE00002A000100020000C000C0FF3FFF3F020000C0FF3F00C0FF3F020015000000FB0210
FF040000002D01000009000000FA02000000000000000000002200040000002D01010007000000
FC020000000000000000040000002D01020010000000FB0210FF00000000000090010000000107
000000417269616C000100040000002D0103000400000002010100050000000102FFFFFF000400
00002E01180005000000090200000000040000000801000015000000FB0210FF00000000000090
01000000010700000054696D6573204E657720526F6D616E000100040000002D0104000B000000
26060F000C004D6174685479706500007B0015000000FB0210FF00000000000090010100000107
00000054696D6573204E657720526F6D616E000100040000002D010500040000002D0104000400
00002D01050015000000FB0256FF0000000000009001000000010700000054696D6573204E6577
20526F6D616E000100040000002D01060010000000FB0210FF0000000000009001000000020700
000053796D626F6C0002040000002D01070010000000FB0210FF00000000000090010000000207
00000053796D626F6C0002040000002D01080015000000FB0210FF000000000000900100000002
0700000054696D6573204E657720526F6D616E000200040000002D010900040000002D01040004
0000002D010700040000002D0108000500000009020000FF0015000000FB0210FF000000000000
9001010000020700000054696D6573204E657720526F6D616E000200040000002D010A00040000
002D010500070000002105010078008D016B00040000002D010700040000002D01080007000000
21050100AE008D011E01040000002D010A00040000002D010500070000002105010041008D015E
02040000002D010700040000002D0108000700000021050100D7008D012103040000002D010900
040000002D010400040000002D010500070000002105010078008D019403040000002D01060007
000000210501006100EF00FF0307000000210501006C00EF004A0407000000210501007000EF00
790407000000210501006800EF00CE0407000000210501006100EF00230509000000FA02000000
000000000000002200040000002D010B0004000000F001010007000000FC020000FFFFFF000000
040000002D01010010000000FB021000070000000000BC02000000000102022253797374656D00
00040000002D010C00040000002701FFFF04000000F001030004000000F001040004000000F001
050004000000F001060004000000F001070004000000F001080004000000F001090004000000F0
010A00040000002701FFFF030000000000
}\plain\f6\fs22\cf1\protect 
\par    {\pict\wmetafile8\picw4228\pich972\picwgoal2396\pichgoal551
010009000003C00200001000180000000000050000000B0200000000050000000C02CC03841003
0000001E00030000001E00050000000C0227025D09050000000B020000000018000000FF060000
060036AE00002A000100020000C000C0FF3FFF3F020000C0FF3F00C0FF3F020015000000FB0210
FF040000002D01000009000000FA02000000000000000000002200040000002D01010007000000
FC020000000000000000040000002D01020010000000FB0210FF00000000000090010000000107
000000417269616C000100040000002D0103000400000002010100050000000102FFFFFF000400
00002E01180005000000090200000000040000000801000015000000FB0210FF00000000000090
01000000010700000054696D6573204E657720526F6D616E000100040000002D0104000B000000
26060F000C004D6174685479706500007B0015000000FB0210FF00000000000090010100000107
00000054696D6573204E657720526F6D616E000100040000002D010500040000002D0104000400
00002D01050015000000FB0256FF0000000000009001000000010700000054696D6573204E6577
20526F6D616E000100040000002D01060010000000FB0256FF0000000000009001000000020700
000053796D626F6C0002040000002D01070010000000FB0256FF00000000000090010000000207
00000053796D626F6C0002040000002D01080015000000FB0210FF000000000000900100000002
0700000054696D6573204E657720526F6D616E000200040000002D010900040000002D01040010
000000FB0210FF0000000000009001000000020700000053796D626F6C0002040000002D010A00
10000000FB0210FF0000000000009001000000020700000053796D626F6C0002040000002D010B
00040000002D010900040000002D010400040000002D010A00040000002D010B00050000000902
0000FF0015000000FB0210FF0000000000009001010000020700000054696D6573204E65772052
6F6D616E000200040000002D010C00040000002D010500070000002105010078008D016B000400
00002D010A00040000002D010B000700000021050100AE008D011E01040000002D010C00040000
002D010500070000002105010041008D015E02040000002D010A00040000002D010B0007000000
21050100D7008D012103040000002D010900040000002D010400040000002D0105000700000021
05010078008D019403040000002D01060007000000210501006100EF00FF030700000021050100
6C00EF004A0407000000210501007000EF00790407000000210501006800EF00CE040700000021
0501006100EF002305040000002D010700040000002D01080007000000210501002D00EF008805
15000000FB0256FF0000000000009001000000020700000054696D6573204E657720526F6D616E
000200040000002D010D00040000002D01060007000000210501003100EF00FF05040000002D01
0A00040000002D010B000700000021050100D7008D018406040000002D010900040000002D0104
00070000002105010061008D01F00607000000210501006C008D015B0707000000210501007000
8D019E07070000002105010068008D011608070000002105010061008D018E0809000000FA0200
0000000000000000002200040000002D010E0004000000F001010007000000FC020000FFFFFF00
0000040000002D01010010000000FB021000070000000000BC0200000000010202225379737465
6D0000040000002D010F00040000002701FFFF04000000F001030004000000F001040004000000
F001050004000000F001060004000000F001070004000000F001080004000000F0010900040000
00F0010A0004000000F0010B0004000000F0010C0004000000F0010D00040000002701FFFF0300
00000000
}\plain\f6\fs22\cf1\protect 
\par    {\pict\wmetafile8\picw3776\pich970\picwgoal2140\pichgoal549
010009000003C10200000E00180000000000050000000B0200000000050000000C02CA03C00E03
0000001E00030000001E00050000000C0226025D08050000000B020000000018000000FF060000
060045AE00002A000100020000C000C0FF3FFF3F020000C0FF3F00C0FF3F020015000000FB0210
FF040000002D01000009000000FA02000000000000000000002200040000002D01010007000000
FC020000000000000000040000002D01020010000000FB0210FF00000000000090010000000107
000000417269616C000100040000002D0103000400000002010100050000000102FFFFFF000400
00002E01180005000000090200000000040000000801000015000000FB0210FF00000000000090
01000000010700000054696D6573204E657720526F6D616E000100040000002D0104000B000000
26060F000C004D6174685479706500007B0015000000FB0210FF00000000000090010100000107
00000054696D6573204E657720526F6D616E000100040000002D010500040000002D0104000400
00002D01050013000000FB0210FF000000000000900100000001070000005346204D6174682045
7874000100040000002D01060013000000FB0210FF000000000000900100000002070000005346
204D61746820457874000200040000002D01070015000000FB0210FF0000000000009001000000
020700000054696D6573204E657720526F6D616E000200040000002D010800040000002D010400
040000002D010600040000002D010700040000002D010800040000002D010400040000002D0105
0010000000FB0210FF0000000000009001000000020700000053796D626F6C0002040000002D01
090010000000FB0210FF0000000000009001000000020700000053796D626F6C0002040000002D
010A00040000002D010800040000002D010400040000002D010900040000002D010A0005000000
09020000FF0015000000FB0210FF0000000000009001010000020700000054696D6573204E6577
20526F6D616E000200040000002D010B00040000002D010500070000002105010078008C016B00
040000002D010900040000002D010A000700000021050100AE008C011E01040000002D01080004
0000002D010400070000002105010066008C01530207000000210501006E008C01A30207000000
2105010070008C011B03040000002D010600040000002D010700040000002D010800040000002D
010400040000002D010600040000002D010700040000002D010800040000002D01040004000000
2D010600040000002D010700070000002105010028008C019303040000002D010800040000002D
010400040000002D010500070000002105010078008C01F703040000002D010600040000002D01
0700040000002D010800040000002D010400040000002D010600040000002D010700040000002D
010800040000002D010400040000002D010600040000002D010700070000002105010029008C01
6204040000002D010A0007000000210501002D008C01FB04040000002D010800040000002D0104
0007000000210501006D008C01BB05070000002105010075008C017306040000002D0109000400
00002D010A000700000021050100D7008C011B07040000002D010B00040000002D010500070000
002105010078008C018E0709000000FA02000000000000000000002200040000002D010C000400
0000F001010007000000FC020000FFFFFF000000040000002D01010010000000FB021000070000
000000BC02000000000102022253797374656D0000040000002D010D00040000002701FFFF0400
0000F001030004000000F001040004000000F001050004000000F001060004000000F001070004
000000F001080004000000F001090004000000F0010A0004000000F0010B00040000002701FFFF
030000000000
}\plain\f6\fs22\cf1\protect 
\par    {\pict\wmetafile8\picw5209\pich972\picwgoal2953\pichgoal551
010009000003F50200001000180000000000050000000B0200000000050000000C02CC03591403
0000001E00030000001E00050000000C022702890B050000000B020000000018000000FF060000
060052AE00002A000100020000C000C0FF3FFF3F020000C0FF3F00C0FF3F020015000000FB0210
FF040000002D01000009000000FA02000000000000000000002200040000002D01010007000000
FC020000000000000000040000002D01020010000000FB0210FF00000000000090010000000107
000000417269616C000100040000002D0103000400000002010100050000000102FFFFFF000400
00002E01180005000000090200000000040000000801000015000000FB0210FF00000000000090
01000000010700000054696D6573204E657720526F6D616E000100040000002D0104000B000000
26060F000C004D6174685479706500007B0015000000FB0210FF00000000000090010100000107
00000054696D6573204E657720526F6D616E000100040000002D010500040000002D0104000400
00002D01050015000000FB0256FF0000000000009001000000010700000054696D6573204E6577
20526F6D616E000100040000002D01060010000000FB0256FF0000000000009001000000020700
000053796D626F6C0002040000002D01070010000000FB0256FF00000000000090010000000207
00000053796D626F6C0002040000002D01080015000000FB0210FF000000000000900100000002
0700000054696D6573204E657720526F6D616E000200040000002D010900040000002D01040010
000000FB0210FF0000000000009001000000020700000053796D626F6C0002040000002D010A00
10000000FB0210FF0000000000009001000000020700000053796D626F6C0002040000002D010B
00040000002D010900040000002D010400040000002D010A00040000002D010B00040000002D01
0900040000002D010400040000002D010A00040000002D010B000500000009020000FF00150000
00FB0210FF0000000000009001010000020700000054696D6573204E657720526F6D616E000200
040000002D010C00040000002D010500070000002105010078008D016B00040000002D010A0004
0000002D010B000700000021050100AE008D011E01040000002D010C00040000002D0105000700
00002105010041008D015E02040000002D010A00040000002D010B000700000021050100D7008D
012103040000002D010900040000002D010400040000002D010500070000002105010078008D01
9403040000002D01060007000000210501006100EF00FF0307000000210501006C00EF004A0407
000000210501007000EF00790407000000210501006800EF00CE0407000000210501006100EF00
2305040000002D010700040000002D01080007000000210501002D00EF00880515000000FB0256
FF0000000000009001000000020700000054696D6573204E657720526F6D616E00020004000000
2D010D00040000002D01060007000000210501003100EF00FF05040000002D010A00040000002D
010B000700000021050100D7008D018406040000002D010900040000002D010400070000002105
010061008D01F00607000000210501006C008D015B07070000002105010070008D019E07070000
002105010068008D011608070000002105010061008D018E08040000002D010A00040000002D01
0B0007000000210501002D008D013509040000002D010900040000002D01040007000000210501
006D008D01F509070000002105010075008D01AD0A09000000FA02000000000000000000002200
040000002D010E0004000000F001010007000000FC020000FFFFFF000000040000002D01010010
000000FB021000070000000000BC02000000000102022253797374656D0000040000002D010F00
040000002701FFFF04000000F001030004000000F001040004000000F001050004000000F00106
0004000000F001070004000000F001080004000000F001090004000000F0010A0004000000F001
0B0004000000F0010C0004000000F0010D00040000002701FFFF030000000000
}\plain\f6\fs22\cf1\protect 
\par    {\pict\wmetafile8\picw2085\pich970\picwgoal1182\pichgoal549
010009000003770200000E00180000000000050000000B0200000000050000000C02CA03250803
0000001E00030000001E00050000000C0226029E04050000000B020000000018000000FF060000
060061AE00002A000100020000C000C0FF3FFF3F020000C0FF3F00C0FF3F020015000000FB0210
FF040000002D01000009000000FA02000000000000000000002200040000002D01010007000000
FC020000000000000000040000002D01020010000000FB0210FF00000000000090010000000107
000000417269616C000100040000002D0103000400000002010100050000000102FFFFFF000400
00002E01180005000000090200000000040000000801000015000000FB0210FF00000000000090
01000000010700000054696D6573204E657720526F6D616E000100040000002D0104000B000000
26060F000C004D6174685479706500007B0015000000FB0210FF00000000000090010100000107
00000054696D6573204E657720526F6D616E000100040000002D010500040000002D0104000400
00002D01050013000000FB0210FF000000000000900100000001070000005346204D6174682045
7874000100040000002D01060013000000FB0210FF000000000000900100000002070000005346
204D61746820457874000200040000002D01070015000000FB0210FF0000000000009001000000
020700000054696D6573204E657720526F6D616E000200040000002D010800040000002D010400
040000002D010600040000002D010700040000002D010800040000002D01040010000000FB0210
FF0000000000009001000000020700000053796D626F6C0002040000002D01090010000000FB02
10FF0000000000009001000000020700000053796D626F6C0002040000002D010A00040000002D
010800040000002D010400040000002D010900040000002D010A000500000009020000FF001500
0000FB0210FF0000000000009001010000020700000054696D6573204E657720526F6D616E0002
00040000002D010B00040000002D010500070000002105010078008C016B00040000002D010900
040000002D010A000700000021050100AE008C011E01040000002D010800040000002D01040007
000000210501006C008C01530207000000210501006E008C019602040000002D01060004000000
2D010700040000002D010800040000002D010400040000002D010600040000002D010700040000
002D010800040000002D010400040000002D010600040000002D01070007000000210501002800
8C010E03040000002D010800040000002D010400040000002D010500070000002105010078008C
017203040000002D010600040000002D010700040000002D010800040000002D01040004000000
2D010600040000002D010700040000002D010800040000002D010400040000002D010600040000
002D010700070000002105010029008C01DD0309000000FA020000000000000000000022000400
00002D010C0004000000F001010007000000FC020000FFFFFF000000040000002D010100100000
00FB021000070000000000BC02000000000102022253797374656D0000040000002D010D000400
00002701FFFF04000000F001030004000000F001040004000000F001050004000000F001060004
000000F001070004000000F001080004000000F001090004000000F0010A0004000000F0010B00
040000002701FFFF030000000000
}\plain\f6\fs22\cf1\protect 
\par    {\pict\wmetafile8\picw1540\pich1129\picwgoal873\pichgoal640
010009000003040200000E00180000000000050000000B0200000000050000000C026904040603
0000001E00030000001E00050000000C0280026903050000000B020000000018000000FF060000
06006EAE00002A000100020000C000C0FF3FFF3F020000C0FF3F00C0FF3F020015000000FB0210
FF040000002D01000009000000FA02000000000000000000002200040000002D01010007000000
FC020000000000000000040000002D01020010000000FB0210FF00000000000090010000000107
000000417269616C000100040000002D0103000400000002010100050000000102FFFFFF000400
00002E01180005000000090200000000040000000801000015000000FB0210FF00000000000090
01000000010700000054696D6573204E657720526F6D616E000100040000002D0104000B000000
26060F000C004D617468547970650000BF0015000000FB0210FF00000000000090010100000107
00000054696D6573204E657720526F6D616E000100040000002D010500040000002D0104000400
00002D010500040000002D01040010000000FB0210FF0000000000009001000000020700000053
796D626F6C0002040000002D01060010000000FB0210FF00000000000090010000000207000000
53796D626F6C0002040000002D01070015000000FB0210FF000000000000900100000002070000
0054696D6573204E657720526F6D616E000200040000002D010800040000002D01040004000000
2D010600040000002D0107000500000009020000FF0015000000FB0210FF000000000000900101
0000020700000054696D6573204E657720526F6D616E000200040000002D010900040000002D01
05000700000021050100780091016B00040000002D010600040000002D01070007000000210501
00AE0091011E01040000002D010800040000002D01040007000000210501003100230170020400
00002D0105000700000021050100780019027A0213000000FB0210FF0000000000009001000000
01070000005346204D61746820457874000100040000002D010A0013000000FB0210FF00000000
0000900100000002070000005346204D61746820457874000200040000002D010B000700000021
050100C500400153020700000021050100C5004001750209000000FA0200000000000000000000
2200040000002D010C0004000000F001010007000000FC020000FFFFFF000000040000002D0101
0010000000FB021000070000000000BC02000000000102022253797374656D0000040000002D01
0D00040000002701FFFF04000000F001030004000000F001040004000000F001050004000000F0
01060004000000F001070004000000F001080004000000F001090004000000F0010A0004000000
F0010B00040000002701FFFF030000000000
}\plain\f6\fs22\cf1\protect 
\par    {\pict\wmetafile8\picw6727\pich970\picwgoal3813\pichgoal549
0100090000032E0500000E00180000000000050000000B0200000000050000000C02CA03471A03
0000001E00030000001E00050000000C022602E60E050000000B020000000018000000FF060000
06007BAE00002A000100020000C000C0FF3FFF3F020000C0FF3F00C0FF3F020015000000FB0210
FF040000002D01000009000000FA02000000000000000000002200040000002D01010007000000
FC020000000000000000040000002D01020010000000FB0210FF00000000000090010000000107
000000417269616C000100040000002D0103000400000002010100050000000102FFFFFF000400
00002E01180005000000090200000000040000000801000015000000FB0210FF00000000000090
01000000010700000054696D6573204E657720526F6D616E000100040000002D0104000B000000
26060F000C004D6174685479706500007B0015000000FB0210FF00000000000090010100000107
00000054696D6573204E657720526F6D616E000100040000002D010500040000002D0104001300
0000FB0210FF000000000000900100000001070000005346204D61746820457874000100040000
002D01060013000000FB0210FF000000000000900100000002070000005346204D617468204578
74000200040000002D01070015000000FB0210FF0000000000009001000000020700000054696D
6573204E657720526F6D616E000200040000002D010800040000002D010400040000002D010600
040000002D010700040000002D010800040000002D010400040000002D010500040000002D0106
00040000002D010700040000002D010800040000002D010400040000002D010600040000002D01
0700040000002D010800040000002D010400040000002D010500040000002D010400040000002D
010500040000002D010600040000002D010700040000002D010800040000002D01040004000000
2D010600040000002D010700040000002D010800040000002D010400040000002D010500100000
00FB0210FF0000000000009001000000020700000053796D626F6C0002040000002D0109001000
0000FB0210FF0000000000009001000000020700000053796D626F6C0002040000002D010A0004
0000002D010700040000002D010800040000002D010400040000002D010600040000002D010700
040000002D010800040000002D010400040000002D010900040000002D010A00040000002D0108
00040000002D010400040000002D010600040000002D010700040000002D010800040000002D01
0400040000002D010600040000002D010700040000002D010800040000002D010400040000002D
010900040000002D010A00040000002D010700040000002D010800040000002D01040004000000
2D010600040000002D010700040000002D010800040000002D010400040000002D010600040000
002D010700040000002D010800040000002D010400040000002D010600040000002D0107000400
00002D010800040000002D0104000500000009020000FF00040000002D010600040000002D0107
00070000002105010028008C016400040000002D010800040000002D010400040000002D010500
070000002105010063008C01C100040000002D01040007000000210501002C008C012C01040000
002D01050007000000210501006B008C01BC01040000002D01040007000000210501002C008C01
3102040000002D010500070000002105010070008C01DB02040000002D010600040000002D0107
00040000002D010800040000002D010400040000002D010600040000002D010700040000002D01
0800040000002D010400040000002D010600040000002D010700070000002105010029008C0153
03040000002D010A000700000021050100AE008C01F803040000002D010800040000002D010400
070000002105010055008C012D05070000002105010074008C01DA05070000002105010069008C
011D0607000000210501006C008C016006040000002D010600040000002D010700040000002D01
0800040000002D010400040000002D010600040000002D010700040000002D010800040000002D
010400040000002D010600040000002D010700070000002105010028008C01A306040000002D01
0800040000002D010400040000002D010500070000002105010063008C010007040000002D0106
00040000002D010700040000002D010800040000002D010400040000002D010600040000002D01
0700040000002D010800040000002D010400040000002D010600040000002D0107000700000021
05010029008C016B07040000002D010A0007000000210501002B008C010408040000002D010700
040000002D010800040000002D010400040000002D010600040000002D010700040000002D0108
00040000002D010400040000002D010900040000002D010A0015000000FB0210FF000000000000
9001010000020700000054696D6573204E657720526F6D616E000200040000002D010B00040000
002D010500070000002105010070008C01DE08040000002D010900040000002D010A0007000000
21050100D7008C018609040000002D010700040000002D010800040000002D010400040000002D
010600040000002D010700040000002D010800040000002D010400040000002D01060004000000
2D010700040000002D010800040000002D010400040000002D010600040000002D010700040000
002D010800040000002D010400040000002D010600040000002D01070007000000210501002800
8C01F209040000002D010800040000002D010400070000002105010066008C014F0A0700000021
05010070008C019F0A07000000210501006E008C01170B040000002D010600040000002D010700
040000002D010800040000002D010400040000002D010600040000002D010700040000002D0108
00040000002D010400040000002D010600040000002D010700070000002105010028008C018F0B
040000002D010800040000002D010400040000002D01050007000000210501006B008C01EC0B04
0000002D010600040000002D010700040000002D010800040000002D010400040000002D010600
040000002D010700040000002D010800040000002D010400040000002D010600040000002D0107
00070000002105010029008C01610C040000002D010A0007000000210501002D008C01FA0C0400
00002D010B00040000002D010500070000002105010063008C01BA0D040000002D010600040000
002D010700040000002D010800040000002D010400040000002D010600040000002D0107000400
00002D010800040000002D010400040000002D010600040000002D010700070000002105010029
008C01250E09000000FA02000000000000000000002200040000002D010C0004000000F0010100
07000000FC020000FFFFFF000000040000002D01010010000000FB021000070000000000BC0200
0000000102022253797374656D0000040000002D010D00040000002701FFFF04000000F0010300
04000000F001040004000000F001050004000000F001060004000000F001070004000000F00108
0004000000F001090004000000F0010A0004000000F0010B00040000002701FFFF030000000000
}\plain\f6\fs22\cf1\protect 
\par    {\pict\wmetafile8\picw1369\pich1129\picwgoal776\pichgoal640
010009000003EC0100000E00180000000000050000000B0200000000050000000C026904590503
0000001E00030000001E00050000000C0280020803050000000B020000000018000000FF060000
060088AE00002A000100020000C000C0FF3FFF3F020000C0FF3F00C0FF3F020015000000FB0210
FF040000002D01000009000000FA02000000000000000000002200040000002D01010007000000
FC020000000000000000040000002D01020010000000FB0210FF00000000000090010000000107
000000417269616C000100040000002D0103000400000002010100050000000102FFFFFF000400
00002E01180005000000090200000000040000000801000015000000FB0210FF00000000000090
01000000010700000054696D6573204E657720526F6D616E000100040000002D0104000B000000
26060F000C004D617468547970650000BF0015000000FB0210FF00000000000090010100000107
00000054696D6573204E657720526F6D616E000100040000002D010500040000002D0104000400
00002D01050010000000FB0210FF0000000000009001000000020700000053796D626F6C000204
0000002D01060010000000FB0210FF0000000000009001000000020700000053796D626F6C0002
040000002D01070015000000FB0210FF0000000000009001000000020700000054696D6573204E
657720526F6D616E000200040000002D010800040000002D0104000500000009020000FF000700
000021050100310023018100040000002D010500070000002105010063001902870013000000FB
0210FF000000000000900100000001070000005346204D61746820457874000100040000002D01
090013000000FB0210FF000000000000900100000002070000005346204D617468204578740002
00040000002D010A000700000021050100C500400164000700000021050100C500400186000400
00002D01070007000000210501002D009101520115000000FB0210FF0000000000009001010000
020700000054696D6573204E657720526F6D616E000200040000002D010B00040000002D010500
0700000021050100700091012C0209000000FA02000000000000000000002200040000002D010C
0004000000F001010007000000FC020000FFFFFF000000040000002D01010010000000FB021000
070000000000BC02000000000102022253797374656D0000040000002D010D00040000002701FF
FF04000000F001030004000000F001040004000000F001050004000000F001060004000000F001
070004000000F001080004000000F001090004000000F0010A0004000000F0010B000400000027
01FFFF030000000000
}\plain\f6\fs22\cf1\protect 
\par    {\pict\wmetafile8\picw5643\pich972\picwgoal3199\pichgoal551
010009000003EC0300001200180000000000050000000B0200000000050000000C02CC030B1603
0000001E00030000001E00050000000C0227027F0C050000000B020000000018000000FF060000
060095AE00002A000100020000C000C0FF3FFF3F020000C0FF3F00C0FF3F020015000000FB0210
FF040000002D01000009000000FA02000000000000000000002200040000002D01010007000000
FC020000000000000000040000002D01020010000000FB0210FF00000000000090010000000107
000000417269616C000100040000002D0103000400000002010100050000000102FFFFFF000400
00002E01180005000000090200000000040000000801000015000000FB0210FF00000000000090
01000000010700000054696D6573204E657720526F6D616E000100040000002D0104000B000000
26060F000C004D6174685479706500007B0015000000FB0210FF00000000000090010100000107
00000054696D6573204E657720526F6D616E000100040000002D010500040000002D0104000400
00002D010500040000002D010400040000002D01050015000000FB0256FF000000000000900100
0000010700000054696D6573204E657720526F6D616E000100040000002D01060010000000FB02
56FF0000000000009001000000020700000053796D626F6C0002040000002D01070010000000FB
0256FF0000000000009001000000020700000053796D626F6C0002040000002D01080015000000
FB0210FF0000000000009001000000020700000054696D6573204E657720526F6D616E00020004
0000002D010900040000002D01040010000000FB0210FF00000000000090010000000207000000
53796D626F6C0002040000002D010A0010000000FB0210FF000000000000900100000002070000
0053796D626F6C0002040000002D010B0013000000FB0210FF0000000000009001000000020700
00005346204D61746820457874000200040000002D010C00040000002D010900040000002D0104
0013000000FB0210FF000000000000900100000001070000005346204D61746820457874000100
040000002D010D00040000002D010C00040000002D010900040000002D010400040000002D010D
00040000002D010C00040000002D010B00040000002D010900040000002D010400040000002D01
0A00040000002D010B000500000009020000FF0007000000210501002D008D018800040000002D
010C00040000002D010900040000002D010400040000002D010D00040000002D010C0004000000
2D010900040000002D010400040000002D010D00040000002D010C00040000002D010B00150000
00FB0210FF0000000000009001010000020700000054696D6573204E657720526F6D616E000200
040000002D010E00040000002D010500070000002105010070008D015601040000002D010A0004
0000002D010B000700000021050100D7008D01FE01040000002D010C00040000002D0109000400
00002D010400040000002D010D00040000002D010C00040000002D010900040000002D01040004
0000002D010D00040000002D010C00040000002D010900040000002D010400040000002D010D00
040000002D010C00040000002D010900040000002D010400040000002D010D00040000002D010C
000700000021050100A10082006A02040000002D010900040000002D0104000700000021050100
6D008D01D802070000002105010075008D019003040000002D010A00040000002D010B00070000
00210501002D008D014404040000002D010E00040000002D010500070000002105010041008D01
0F05040000002D010A00040000002D010B000700000021050100D7008D01D205040000002D0109
00040000002D010400040000002D01050007000000210501006B008D013E06040000002D010600
07000000210501006100EF00B30607000000210501006C00EF00FE0607000000210501007000EF
002D0707000000210501006800EF00820707000000210501006100EF00D707040000002D010700
040000002D01080007000000210501002D00EF003C0815000000FB0256FF000000000000900100
0000020700000054696D6573204E657720526F6D616E000200040000002D010F00040000002D01
060007000000210501003100EF00B308040000002D010A00040000002D010B0007000000210501
00D7008D013809040000002D010900040000002D010400070000002105010061008D01A4090700
0000210501006C008D010F0A070000002105010070008D01520A070000002105010068008D01CA
0A070000002105010061008D01420B040000002D010D00040000002D010C00040000002D010900
040000002D010400040000002D010D00040000002D010C00040000002D010900040000002D0104
00040000002D010D00040000002D010C000700000021050100A2008200AD0B09000000FA020000
00000000000000002200040000002D01100004000000F001010007000000FC020000FFFFFF0000
00040000002D01010010000000FB021000070000000000BC02000000000102022253797374656D
0000040000002D011100040000002701FFFF04000000F001030004000000F001040004000000F0
01050004000000F001060004000000F001070004000000F001080004000000F001090004000000
F0010A0004000000F0010B0004000000F0010C0004000000F0010D0004000000F0010E00040000
00F0010F00040000002701FFFF030000000000
}\plain\f6\fs22\cf1\protect 
\par    {\pict\wmetafile8\picw2252\pich1215\picwgoal1276\pichgoal688
010009000003090300000E00180000000000050000000B0200000000050000000C02BF04CC0803
0000001E00030000001E00050000000C02B102FD04050000000B020000000018000000FF060000
0600A6AE00002A000100020000C000C0FF3FFF3F020000C0FF3F00C0FF3F020015000000FB0210
FF040000002D01000009000000FA02000000000000000000002200040000002D01010007000000
FC020000000000000000040000002D01020010000000FB0210FF00000000000090010000000107
000000417269616C000100040000002D0103000400000002010100050000000102FFFFFF000400
00002E01180005000000090200000000040000000801000015000000FB0210FF00000000000090
01000000010700000054696D6573204E657720526F6D616E000100040000002D0104000B000000
26060F000C004D617468547970650000E60015000000FB0210FF00000000000090010100000107
00000054696D6573204E657720526F6D616E000100040000002D01050013000000FB0210FF0000
00000000900100000001070000005346204D61746820457874000100040000002D010600130000
00FB0210FF000000000000900100000002070000005346204D6174682045787400020004000000
2D01070015000000FB0210FF0000000000009001000000020700000054696D6573204E65772052
6F6D616E000200040000002D010800040000002D010400040000002D010600040000002D010700
040000002D010800040000002D010400040000002D010500040000002D010600040000002D0107
00040000002D010800040000002D010400040000002D010600040000002D010700040000002D01
0800040000002D01040010000000FB0210FF0000000000009001000000020700000053796D626F
6C0002040000002D01090010000000FB0210FF0000000000009001000000020700000053796D62
6F6C0002040000002D010A00040000002D010800040000002D0104000500000009020000FF0007
0000002105010031002301FB00040000002D010500070000002105010063001D02810004000000
2D010600040000002D010700040000002D010800040000002D010400040000002D010600040000
002D010700040000002D010800040000002D010400040000002D010600040000002D0107000700
00002105010028001D02EC00040000002D010800040000002D010400040000002D010500070000
002105010074001D024901040000002D010600040000002D010700040000002D01080004000000
2D010400040000002D010600040000002D010700040000002D010800040000002D010400040000
002D010600040000002D010700070000002105010029001D0290010700000021050100C5004001
64000700000021050100C5004001F4000700000021050100C50040017A01040000002D010A0007
000000210501002D009101460215000000FB0210FF000000000000900101000002070000005469
6D6573204E657720526F6D616E000200040000002D010B00040000002D01050007000000210501
00700091012003040000002D010600040000002D010700040000002D010800040000002D010400
040000002D010600040000002D010700040000002D010800040000002D010400040000002D0106
00040000002D0107000700000021050100280091019803040000002D010800040000002D010400
040000002D010500070000002105010074009101F503040000002D010600040000002D01070004
0000002D010800040000002D010400040000002D010600040000002D010700040000002D010800
040000002D010400040000002D010600040000002D0107000700000021050100290091013C0409
000000FA02000000000000000000002200040000002D010C0004000000F001010007000000FC02
0000FFFFFF000000040000002D01010010000000FB021000070000000000BC0200000000010202
2253797374656D0000040000002D010D00040000002701FFFF04000000F001030004000000F001
040004000000F001050004000000F001060004000000F001070004000000F001080004000000F0
01090004000000F0010A0004000000F0010B00040000002701FFFF030000000000
}\plain\f6\fs22\cf1\protect 
\par    {\pict\wmetafile8\picw6549\pich972\picwgoal3712\pichgoal551
010009000003FE0400001200180000000000050000000B0200000000050000000C02CC03951903
0000001E00030000001E00050000000C022702810E050000000B020000000018000000FF060000
0600B3AE00002A000100020000C000C0FF3FFF3F020000C0FF3F00C0FF3F020015000000FB0210
FF040000002D01000009000000FA02000000000000000000002200040000002D01010007000000
FC020000000000000000040000002D01020010000000FB0210FF00000000000090010000000107
000000417269616C000100040000002D0103000400000002010100050000000102FFFFFF000400
00002E01180005000000090200000000040000000801000015000000FB0210FF00000000000090
01000000010700000054696D6573204E657720526F6D616E000100040000002D0104000B000000
26060F000C004D6174685479706500007B0015000000FB0210FF00000000000090010100000107
00000054696D6573204E657720526F6D616E000100040000002D01050013000000FB0210FF0000
00000000900100000001070000005346204D61746820457874000100040000002D010600130000
00FB0210FF000000000000900100000002070000005346204D6174682045787400020004000000
2D01070015000000FB0210FF0000000000009001000000020700000054696D6573204E65772052
6F6D616E000200040000002D010800040000002D010400040000002D010600040000002D010700
040000002D010800040000002D010400040000002D010500040000002D010400040000002D0105
00040000002D010600040000002D010700040000002D010800040000002D010400040000002D01
0600040000002D010700040000002D010800040000002D01040015000000FB0256FF0000000000
009001000000010700000054696D6573204E657720526F6D616E000100040000002D0109001000
0000FB0256FF0000000000009001000000020700000053796D626F6C0002040000002D010A0010
000000FB0256FF0000000000009001000000020700000053796D626F6C0002040000002D010B00
10000000FB0210FF0000000000009001000000020700000053796D626F6C0002040000002D010C
00040000002D010700040000002D010800040000002D010400040000002D010600040000002D01
0700040000002D010800040000002D010400040000002D010600040000002D010700040000002D
010C00040000002D010800040000002D01040010000000FB0210FF000000000000900100000002
0700000053796D626F6C0002040000002D010D00040000002D010C000500000009020000FF0007
000000210501002D008D018800040000002D010700040000002D010800040000002D0104000400
00002D010600040000002D010700040000002D010800040000002D010400040000002D01060004
0000002D010700040000002D010C0015000000FB0210FF00000000000090010100000207000000
54696D6573204E657720526F6D616E000200040000002D010E00040000002D0105000700000021
05010070008D015601040000002D010600040000002D010700040000002D010800040000002D01
0400040000002D010600040000002D010700040000002D010800040000002D010400040000002D
010600040000002D010700070000002105010028008D01CE01040000002D010800040000002D01
0400040000002D010500070000002105010074008D012B02040000002D010600040000002D0107
00040000002D010800040000002D010400040000002D010600040000002D010700040000002D01
0800040000002D010400040000002D010600040000002D010700070000002105010029008D0172
02040000002D010C000700000021050100D7008D01FF02040000002D010700040000002D010800
040000002D010400040000002D010600040000002D010700040000002D010800040000002D0104
00040000002D010600040000002D010700040000002D010800040000002D010400040000002D01
0600040000002D010700040000002D010800040000002D010400040000002D010600040000002D
0107000700000021050100A10082006B03040000002D010800040000002D010400070000002105
01006D008D01D903070000002105010075008D019104040000002D010D00040000002D010C0007
000000210501002D008D014505040000002D010E00040000002D01050007000000210501004100
8D011006040000002D010D00040000002D010C000700000021050100D7008D01D306040000002D
010800040000002D010400070000002105010061008D013F0707000000210501006C008D01AA07
070000002105010070008D01ED07070000002105010068008D016508070000002105010061008D
01DD08040000002D010D00040000002D010C000700000021050100D7008D017809040000002D01
0800040000002D010400040000002D01050007000000210501006B008D01E409040000002D0106
00040000002D010700040000002D010800040000002D010400040000002D010600040000002D01
0700040000002D010800040000002D010400040000002D010600040000002D0107000700000021
05010028008D01590A040000002D010800040000002D010400040000002D010500070000002105
010074008D01B60A040000002D010600040000002D010700040000002D010800040000002D0104
00040000002D010600040000002D010700040000002D010800040000002D010400040000002D01
0600040000002D010700070000002105010029008D01FD0A15000000FB0256FF00000000000090
01000000020700000054696D6573204E657720526F6D616E000200040000002D010F0004000000
2D01090007000000210501006100EF005A0B07000000210501006C00EF00A50B07000000210501
007000EF00D40B07000000210501006800EF00290C07000000210501006100EF007E0C04000000
2D010A00040000002D010B0007000000210501002D00EF00E30C040000002D010F00040000002D
01090007000000210501003100EF005A0D040000002D010600040000002D010700040000002D01
0800040000002D010400040000002D010600040000002D010700040000002D010800040000002D
010400040000002D010600040000002D0107000700000021050100A2008200AF0D09000000FA02
000000000000000000002200040000002D01100004000000F001010007000000FC020000FFFFFF
000000040000002D01010010000000FB021000070000000000BC02000000000102022253797374
656D0000040000002D011100040000002701FFFF04000000F001030004000000F0010400040000
00F001050004000000F001060004000000F001070004000000F001080004000000F00109000400
0000F0010A0004000000F0010B0004000000F0010C0004000000F0010D0004000000F0010E0004
000000F0010F00040000002701FFFF030000000000
}\plain\f6\fs22\cf1\protect 
\par    {\pict\wmetafile8\picw9738\pich1683\picwgoal5520\pichgoal954
0100090000032C0700001200180000000000050000000B0200000000050000000C0293060A2603
0000001E00030000001E00050000000C02BA039115050000000B020000000018000000FF060000
0600C4AE00002A000100020000C000C0FF3FFF3F020000C0FF3F00C0FF3F020015000000FB0210
FF040000002D01000009000000FA02000000000000000000002200040000002D01010007000000
FC020000000000000000040000002D01020010000000FB0210FF00000000000090010000000107
000000417269616C000100040000002D0103000400000002010100050000000102FFFFFF000400
00002E01180005000000090200000000040000000801000015000000FB0210FF00000000000090
01000000010700000054696D6573204E657720526F6D616E000100040000002D0104000B000000
26060F000C004D6174685479706500003C0115000000FB0210FF00000000000090010100000107
00000054696D6573204E657720526F6D616E000100040000002D01050013000000FB0210FF0000
00000000900100000001070000005346204D61746820457874000100040000002D010600130000
00FB0210FF000000000000900100000002070000005346204D6174682045787400020004000000
2D01070015000000FB0210FF0000000000009001000000020700000054696D6573204E65772052
6F6D616E000200040000002D010800040000002D010400040000002D010600040000002D010700
040000002D010800040000002D01040010000000FB0210FF000000000000900100000002070000
0053796D626F6C0002040000002D01090010000000FB0210FF0000000000009001000000020700
000053796D626F6C0002040000002D010A00040000002D010800040000002D010400040000002D
010500040000002D010900040000002D010A00040000002D010800040000002D01040004000000
2D010500040000002D010600040000002D010700040000002D010800040000002D010400040000
002D010600040000002D010700040000002D010800040000002D010400040000002D0105000400
00002D010400040000002D010500040000002D010600040000002D010700040000002D01080004
0000002D010400040000002D010600040000002D010700040000002D010800040000002D010400
15000000FB0256FF0000000000009001000000010700000054696D6573204E657720526F6D616E
000100040000002D010B0010000000FB0256FF0000000000009001000000020700000053796D62
6F6C0002040000002D010C0010000000FB0256FF0000000000009001000000020700000053796D
626F6C0002040000002D010D00040000002D010A00040000002D010700040000002D0108000400
00002D010400040000002D010600040000002D010700040000002D010800040000002D01040004
0000002D010600040000002D010700040000002D010A00040000002D010800040000002D010400
040000002D010500040000002D010600040000002D010700040000002D010800040000002D0104
00040000002D010600040000002D010700040000002D010800040000002D010400040000002D01
0900040000002D010A00040000002D010800040000002D010400040000002D010900040000002D
010A00040000002D010800040000002D010400040000002D010900040000002D010A0004000000
2D010800040000002D010400040000002D010900040000002D010A00040000002D010800040000
002D010400040000002D010900040000002D010A00040000002D010800040000002D0104000500
000009020000FF00040000002D010900040000002D010A000700000021050100B6008C01A40007
00000021050100B6002203810015000000FB0210FF000000000000900101000002070000005469
6D6573204E657720526F6D616E000200040000002D010E00040000002D01050007000000210501
00740022031C01040000002D010600040000002D0107000700000021050100C500DD0164000700
000021050100C500DD01F000040000002D010800040000002D010400070000002105010020002E
028001040000002D010500070000002105010070002E02D601040000002D010600040000002D01
0700040000002D010800040000002D010400040000002D010600040000002D010700040000002D
010800040000002D010400040000002D010600040000002D010700070000002105010028002E02
4E02040000002D010800040000002D010400040000002D010500070000002105010074002E02AB
02040000002D010600040000002D010700040000002D010800040000002D010400040000002D01
0600040000002D010700040000002D010800040000002D010400040000002D010600040000002D
010700070000002105010029002E02F202040000002D010A0007000000210501002D002E028B03
040000002D010700040000002D010800040000002D010400040000002D010600040000002D0107
00040000002D010800040000002D010400040000002D010600040000002D010700040000002D01
0A00040000002D010E00040000002D010500070000002105010070002E026504040000002D0106
00040000002D010700040000002D010800040000002D010400040000002D010600040000002D01
0700040000002D010800040000002D010400040000002D010600040000002D0107000700000021
05010028002E02DD04040000002D010800040000002D010400040000002D010500070000002105
010074002E023A05040000002D010600040000002D010700040000002D010800040000002D0104
00040000002D010600040000002D010700040000002D010800040000002D010400040000002D01
0600040000002D010700070000002105010029002E028105040000002D010A0007000000210501
00D7002E020E06040000002D010700040000002D010800040000002D010400040000002D010600
040000002D010700040000002D010800040000002D010400040000002D010600040000002D0107
00040000002D010800040000002D010400040000002D010600040000002D010700040000002D01
0800040000002D010400040000002D010600040000002D0107000700000021050100A10023017A
06040000002D010800040000002D01040007000000210501006D002E02E8060700000021050100
75002E02A007040000002D010900040000002D010A0007000000210501002D002E025408040000
002D010E00040000002D010500070000002105010041002E021F09040000002D01090004000000
2D010A000700000021050100D7002E02E209040000002D010800040000002D0104000700000021
05010061002E024E0A07000000210501006C002E02B90A070000002105010070002E02FC0A0700
00002105010068002E02740B070000002105010061002E02EC0B040000002D010900040000002D
010A000700000021050100D7002E02870C040000002D010800040000002D010400040000002D01
050007000000210501006B002E02F30C040000002D010600040000002D010700040000002D0108
00040000002D010400040000002D010600040000002D010700040000002D010800040000002D01
0400040000002D010600040000002D010700070000002105010028002E02680D040000002D0108
00040000002D010400040000002D010500070000002105010074002E02C50D040000002D010600
040000002D010700040000002D010800040000002D010400040000002D010600040000002D0107
00040000002D010800040000002D010400040000002D010600040000002D010700070000002105
010029002E020C0E15000000FB0256FF0000000000009001000000020700000054696D6573204E
657720526F6D616E000200040000002D010F00040000002D010B00070000002105010061009001
690E07000000210501006C009001B40E070000002105010070009001E30E070000002105010068
009001380F0700000021050100610090018D0F040000002D010C00040000002D010D0007000000
210501002D009001F20F040000002D010F00040000002D010B0007000000210501003100900169
10040000002D010600040000002D010700040000002D010800040000002D010400040000002D01
0600040000002D010700040000002D010800040000002D010400040000002D010600040000002D
0107000700000021050100A2002301BE10040000002D010A0007000000210501002D002E026811
040000002D010800040000002D010400070000002105010070002E022912070000002105010073
002E02A112040000002D010900040000002D010A000700000021050100D7002E022E1304000000
2D010E00040000002D010500070000002105010070002E02B413040000002D010600040000002D
010700040000002D010800040000002D010400040000002D010600040000002D01070004000000
2D010800040000002D010400040000002D010600040000002D010700070000002105010028002E
022C14040000002D010800040000002D010400040000002D010500070000002105010074002E02
8914040000002D010600040000002D010700040000002D010800040000002D010400040000002D
010600040000002D010700040000002D010800040000002D010400040000002D01060004000000
2D010700070000002105010029002E02D01409000000FA02000000000000000000002200040000
002D01100004000000F001010007000000FC020000FFFFFF000000040000002D01010010000000
FB021000070000000000BC02000000000102022253797374656D0000040000002D011100040000
002701FFFF04000000F001030004000000F001040004000000F001050004000000F00106000400
0000F001070004000000F001080004000000F001090004000000F0010A0004000000F0010B0004
000000F0010C0004000000F0010D0004000000F0010E0004000000F0010F00040000002701FFFF
030000000000
}\plain\f6\fs22\cf1\protect 
\par    {\pict\wmetafile8\picw7881\pich1685\picwgoal4467\pichgoal955
010009000003EF0600001200180000000000050000000B0200000000050000000C029506C91E03
0000001E00030000001E00050000000C02BB037411050000000B020000000018000000FF060000
0600D5AE00002A000100020000C000C0FF3FFF3F020000C0FF3F00C0FF3F020015000000FB0210
FF040000002D01000009000000FA02000000000000000000002200040000002D01010007000000
FC020000000000000000040000002D01020010000000FB0210FF00000000000090010000000107
000000417269616C000100040000002D0103000400000002010100050000000102FFFFFF000400
00002E01180005000000090200000000040000000801000015000000FB0210FF00000000000090
01000000010700000054696D6573204E657720526F6D616E000100040000002D0104000B000000
26060F000C004D6174685479706500003C0115000000FB0210FF00000000000090010100000107
00000054696D6573204E657720526F6D616E000100040000002D01050013000000FB0210FF0000
00000000900100000001070000005346204D61746820457874000100040000002D010600130000
00FB0210FF000000000000900100000002070000005346204D6174682045787400020004000000
2D01070015000000FB0210FF0000000000009001000000020700000054696D6573204E65772052
6F6D616E000200040000002D010800040000002D010400040000002D010600040000002D010700
040000002D010800040000002D01040010000000FB0210FF000000000000900100000002070000
0053796D626F6C0002040000002D01090010000000FB0210FF0000000000009001000000020700
000053796D626F6C0002040000002D010A00040000002D010800040000002D010400040000002D
010500040000002D010900040000002D010A00040000002D010800040000002D01040004000000
2D010500040000002D010400040000002D010500040000002D010600040000002D010700040000
002D010800040000002D010400040000002D010600040000002D010700040000002D0108000400
00002D01040015000000FB0256FF0000000000009001000000010700000054696D6573204E6577
20526F6D616E000100040000002D010B0010000000FB0256FF0000000000009001000000020700
000053796D626F6C0002040000002D010C0010000000FB0256FF00000000000090010000000207
00000053796D626F6C0002040000002D010D00040000002D010A00040000002D01080004000000
2D010400040000002D010500040000002D010600040000002D010700040000002D010800040000
002D010400040000002D010600040000002D010700040000002D010800040000002D0104000400
00002D010500040000002D010600040000002D010700040000002D010800040000002D01040004
0000002D010600040000002D010700040000002D010800040000002D010400040000002D010900
040000002D010A00040000002D010800040000002D010400040000002D010900040000002D010A
00040000002D010800040000002D010400040000002D010900040000002D010A00040000002D01
0800040000002D010400040000002D010900040000002D010A00040000002D010800040000002D
010400040000002D010900040000002D010A00040000002D010800040000002D01040005000000
09020000FF00040000002D010900040000002D010A000700000021050100B6008D01A400070000
0021050100B6002303810015000000FB0210FF0000000000009001010000020700000054696D65
73204E657720526F6D616E000200040000002D010E00040000002D010500070000002105010074
0023031C01040000002D010600040000002D0107000700000021050100C500DE01640007000000
21050100C500DE01F000040000002D010800040000002D010400070000002105010020002F0280
0107000000210501003100C1015302040000002D01050007000000210501006300BB02D9010400
00002D010600040000002D010700040000002D010800040000002D010400040000002D01060004
0000002D010700040000002D010800040000002D010400040000002D010600040000002D010700
07000000210501002800BB024402040000002D010800040000002D010400040000002D01050007
000000210501007400BB02A102040000002D010600040000002D010700040000002D0108000400
00002D010400040000002D010600040000002D010700040000002D010800040000002D01040004
0000002D010600040000002D01070007000000210501002900BB02E8020700000021050100C500
DE01BC010700000021050100C500DE014C020700000021050100C500DE01D202040000002D010A
0007000000210501002D002F029E03040000002D010800040000002D0104000700000021050100
6D008D017B04070000002105010075008D013305040000002D010900040000002D010A00070000
00210501002D008D01E705040000002D010E00040000002D010500070000002105010041008D01
B206040000002D010900040000002D010A000700000021050100D7008D017507040000002D0108
00040000002D010400070000002105010061008D01E10707000000210501006C008D014C080700
00002105010070008D018F08070000002105010068008D010709070000002105010061008D017F
09040000002D010900040000002D010A000700000021050100D7008D011A0A040000002D010800
040000002D010400040000002D01050007000000210501006B008D01860A040000002D01060004
0000002D010700040000002D010800040000002D010400040000002D010600040000002D010700
040000002D010800040000002D010400040000002D010600040000002D01070007000000210501
0028008D01FB0A040000002D010800040000002D010400040000002D0105000700000021050100
74008D01580B040000002D010600040000002D010700040000002D010800040000002D01040004
0000002D010600040000002D010700040000002D010800040000002D010400040000002D010600
040000002D010700070000002105010029008D019F0B15000000FB0256FF000000000000900100
0000020700000054696D6573204E657720526F6D616E000200040000002D010F00040000002D01
0B0007000000210501006100EF00FC0B07000000210501006C00EF00470C070000002105010070
00EF00760C07000000210501006800EF00CB0C07000000210501006100EF00200D040000002D01
0C00040000002D010D0007000000210501002D00EF00850D040000002D010F00040000002D010B
0007000000210501003100EF00FC0D040000002D01050007000000210501006300BB02B0080400
00002D010600040000002D010700040000002D010800040000002D010400040000002D01060004
0000002D010700040000002D010800040000002D010400040000002D010600040000002D010700
07000000210501002800BB021B09040000002D010800040000002D010400040000002D01050007
000000210501007400BB027809040000002D010600040000002D010700040000002D0108000400
00002D010400040000002D010600040000002D010700040000002D010800040000002D01040004
0000002D010600040000002D01070007000000210501002900BB02BF090700000021050100C500
DE015E040700000021050100C500DE01EE040700000021050100C500DE017E0507000000210501
00C500DE010E060700000021050100C500DE019E060700000021050100C500DE012E0707000000
21050100C500DE01BE070700000021050100C500DE014E080700000021050100C500DE01DE0807
00000021050100C500DE016E090700000021050100C500DE01FE090700000021050100C500DE01
8E0A0700000021050100C500DE011E0B0700000021050100C500DE01AE0B0700000021050100C5
00DE013E0C0700000021050100C500DE01CE0C0700000021050100C500DE015E0D070000002105
0100C500DE01DE0D040000002D010A0007000000210501002D002F02AA0E040000002D01080004
0000002D010400070000002105010070008E01D30F070000002105010073008E014B1004000000
2D01050007000000210501006300BB02870F040000002D010600040000002D010700040000002D
010800040000002D010400040000002D010600040000002D010700040000002D01080004000000
2D010400040000002D010600040000002D01070007000000210501002800BB02F20F040000002D
010800040000002D010400040000002D01050007000000210501007400BB024F10040000002D01
0600040000002D010700040000002D010800040000002D010400040000002D010600040000002D
010700040000002D010800040000002D010400040000002D010600040000002D01070007000000
210501002900BB0296100700000021050100C500DE016A0F0700000021050100C500DE01FA0F07
00000021050100C500DE01801009000000FA02000000000000000000002200040000002D011000
04000000F001010007000000FC020000FFFFFF000000040000002D01010010000000FB02100007
0000000000BC02000000000102022253797374656D0000040000002D011100040000002701FFFF
04000000F001030004000000F001040004000000F001050004000000F001060004000000F00107
0004000000F001080004000000F001090004000000F0010A0004000000F0010B0004000000F001
0C0004000000F0010D0004000000F0010E0004000000F0010F00040000002701FFFF0300000000
00
}\plain\f6\fs22\cf1\protect 
\par    {\pict\wmetafile8\picw12801\pich1826\picwgoal7257\pichgoal1035
010009000003790B00001400180000000000050000000B0200000000050000000C022207013203
0000001E00030000001E00050000000C020B04591C050000000B020000000018000000FF060000
0600E6AE00002A000100020000C000C0FF3FFF3F020000C0FF3F00C0FF3F020015000000FB0210
FF040000002D01000009000000FA02000000000000000000002200040000002D01010007000000
FC020000000000000000040000002D01020010000000FB0210FF00000000000090010000000107
000000417269616C000100040000002D0103000400000002010100050000000102FFFFFF000400
00002E01180005000000090200000000040000000801000015000000FB0210FF00000000000090
01000000010700000054696D6573204E657720526F6D616E000100040000002D0104000B000000
26060F000C004D617468547970650000E80015000000FB0210FF00000000000090010100000107
00000054696D6573204E657720526F6D616E000100040000002D01050013000000FB0210FF0000
00000000900100000001070000005346204D61746820457874000100040000002D010600130000
00FB0210FF000000000000900100000002070000005346204D6174682045787400020004000000
2D01070015000000FB0210FF0000000000009001000000020700000054696D6573204E65772052
6F6D616E000200040000002D010800040000002D010400040000002D010600040000002D010700
040000002D010800040000002D010400040000002D010500040000002D010600040000002D0107
00040000002D010800040000002D010400040000002D010600040000002D010700040000002D01
0800040000002D01040010000000FB0256FF0000000000009001000000020700000053796D626F
6C0002040000002D01090010000000FB0256FF0000000000009001000000020700000053796D62
6F6C0002040000002D010A0015000000FB0256FF0000000000009001000000020700000054696D
6573204E657720526F6D616E000200040000002D010B0015000000FB0256FF0000000000009001
000000010700000054696D6573204E657720526F6D616E000100040000002D010C0015000000FB
0256FF0000000000009001010000010700000054696D6573204E657720526F6D616E0001000400
00002D010D00040000002D010900040000002D010A00040000002D010B00040000002D010C0004
0000002D01040010000000FB0210FF0000000000009001000000020700000053796D626F6C0002
040000002D010E0010000000FB0210FF0000000000009001000000020700000053796D626F6C00
02040000002D010F00040000002D010800040000002D010400040000002D010500040000002D01
0600040000002D010700040000002D010800040000002D010400040000002D010600040000002D
010700040000002D010800040000002D010400040000002D010500040000002D01060004000000
2D010700040000002D010800040000002D010400040000002D010600040000002D010700040000
002D010800040000002D010400040000002D010E00040000002D010F00040000002D0108000400
00002D010400040000002D010500040000002D010600040000002D010700040000002D01080004
0000002D010400040000002D010600040000002D010700040000002D010800040000002D010400
040000002D010500040000002D010600040000002D010700040000002D010800040000002D0104
00040000002D010600040000002D010700040000002D010800040000002D010400040000002D01
0E00040000002D010F0015000000FB0210FF0000000000009001010000020700000054696D6573
204E657720526F6D616E000200040000002D011000040000002D010500040000002D0104000400
00002D010500040000002D010600040000002D010700040000002D010800040000002D01040004
0000002D010600040000002D010700040000002D010800040000002D010400040000002D010500
040000002D010600040000002D010700040000002D010800040000002D010400040000002D0106
00040000002D010700040000002D010800040000002D010400040000002D010C00040000002D01
0E00040000002D010F00040000002D010800040000002D010400040000002D010500040000002D
010600040000002D010700040000002D010800040000002D010400040000002D01060004000000
2D010700040000002D010800040000002D010400040000002D010E00040000002D010F00040000
002D010800040000002D010400040000002D010E00040000002D010F000500000009020000FF00
07000000210501002D00E8028800040000002D010800040000002D010400040000002D010E0004
0000002D010F00040000002D011000040000002D01050007000000210501006B00C00159010400
00002D010600040000002D010700040000002D010800040000002D010400040000002D01060004
0000002D010700040000002D010800040000002D010400040000002D010600040000002D010700
07000000210501002800C001CE01040000002D010800040000002D010400040000002D01050007
000000210501007400C0012B02040000002D010600040000002D010700040000002D0108000400
00002D010400040000002D010600040000002D010700040000002D010800040000002D01040004
0000002D010600040000002D01070007000000210501002900C0017202040000002D010F000700
000021050100D700C001FF02040000002D010800040000002D010400040000002D010900040000
002D010A00040000002D010B00040000002D010C00040000002D010900040000002D010A000400
00002D010B00040000002D010C00040000002D010400040000002D010900040000002D010A0004
0000002D010B00040000002D010C00040000002D010900040000002D010A00040000002D010B00
040000002D010C00040000002D010900040000002D010A000700000021050100B6003501990307
00000021050100B6005502800315000000FB0256FF000000000000900101000002070000005469
6D6573204E657720526F6D616E000200040000002D011100040000002D010D0007000000210501
0074005502ED03040000002D010600040000002D0107000700000021050100C5006F016B030700
000021050100C5006F01A503040000002D010800040000002D01040007000000210501002000C0
013504040000002D01050007000000210501006300C0017104040000002D010600040000002D01
0700040000002D010800040000002D010400040000002D010600040000002D010700040000002D
010800040000002D010400040000002D010600040000002D01070007000000210501002800C001
DC04040000002D010800040000002D010400040000002D01050007000000210501007400C00139
05040000002D010600040000002D010700040000002D010800040000002D010400040000002D01
0600040000002D010700040000002D010800040000002D010400040000002D010600040000002D
01070007000000210501002900C0018005040000002D010F0007000000210501002B00C0011906
040000002D010800040000002D01040007000000210501006D00C001D906070000002105010075
00C0019107040000002D010E00040000002D010F000700000021050100D700C001390804000000
2D011000040000002D01050007000000210501006300C001A508040000002D010600040000002D
010700040000002D010800040000002D010400040000002D010600040000002D01070004000000
2D010800040000002D010400040000002D010600040000002D01070007000000210501002800C0
011009040000002D010800040000002D010400040000002D01050007000000210501007400C001
6D09040000002D010600040000002D010700040000002D010800040000002D010400040000002D
010600040000002D010700040000002D010800040000002D010400040000002D01060004000000
2D01070007000000210501002900C001B409040000002D010F000700000021050100D700C00141
0A040000002D011000040000002D01050007000000210501006B00C001AD0A040000002D010600
040000002D010700040000002D010800040000002D010400040000002D010600040000002D0107
00040000002D010800040000002D010400040000002D010600040000002D010700070000002105
01002800C001220B040000002D010800040000002D010400040000002D01050007000000210501
007400C0017F0B040000002D010600040000002D010700040000002D010800040000002D010400
040000002D010600040000002D010700040000002D010800040000002D010400040000002D0106
00040000002D01070007000000210501002900C001C60B040000002D010F000700000021050100
2B00C0015F0C040000002D010800040000002D01040007000000210501007000C001200D070000
00210501007300C001980D040000002D010E00040000002D010F000700000021050100D700C001
250E040000002D011000040000002D01050007000000210501006300C001910E040000002D0106
00040000002D010700040000002D010800040000002D010400040000002D010600040000002D01
0700040000002D010800040000002D010400040000002D010600040000002D0107000700000021
0501002800C001FC0E040000002D010800040000002D010400040000002D010500070000002105
01007400C001590F040000002D010600040000002D010700040000002D010800040000002D0104
00040000002D010600040000002D010700040000002D010800040000002D010400040000002D01
0600040000002D01070007000000210501002900C001A00F040000002D010F0007000000210501
00D700C0012D10040000002D011000040000002D01050007000000210501006B00C00199100400
00002D010600040000002D010700040000002D010800040000002D010400040000002D01060004
0000002D010700040000002D010800040000002D010400040000002D010600040000002D010700
07000000210501002800C0010E11040000002D010800040000002D010400040000002D01050007
000000210501007400C0016B11040000002D010600040000002D010700040000002D0108000400
00002D010400040000002D010600040000002D010700040000002D010800040000002D01040004
0000002D010600040000002D01070007000000210501002900C001B211040000002D010F000700
0000210501002D00C0014B12040000002D011000040000002D01050007000000210501004100C0
011613040000002D010E00040000002D010F000700000021050100D700C001D913040000002D01
0800040000002D01040007000000210501006100C001451407000000210501006C00C001B01407
000000210501007000C001F31407000000210501006800C0016B1507000000210501006100C001
E315040000002D010E00040000002D010F000700000021050100D700C0017E16040000002D0110
00040000002D01050007000000210501006300C001EA16040000002D010600040000002D010700
040000002D010800040000002D010400040000002D010600040000002D010700040000002D0108
00040000002D010400040000002D010600040000002D01070007000000210501002800C0015517
040000002D010800040000002D010400040000002D01050007000000210501007400C001B21704
0000002D010600040000002D010700040000002D010800040000002D010400040000002D010600
040000002D010700040000002D010800040000002D010400040000002D010600040000002D0107
0007000000210501002900C001F917040000002D010F000700000021050100D700C00186180400
00002D010800040000002D010400040000002D01050007000000210501006B00C001F218040000
002D010600040000002D010700040000002D010800040000002D010400040000002D0106000400
00002D010700040000002D010800040000002D010400040000002D010600040000002D01070007
000000210501002800C0016719040000002D010800040000002D010400040000002D0105000700
0000210501007400C001C419040000002D010600040000002D010700040000002D010800040000
002D010400040000002D010600040000002D010700040000002D010800040000002D0104000400
00002D010600040000002D01070007000000210501002900C0010B1A040000002D010B00040000
002D010C00070000002105010061002201681A07000000210501006C002201B31A070000002105
010070002201E21A070000002105010068002201371B0700000021050100610022018C1B040000
002D01050007000000210501006B007703DD0D040000002D010600040000002D01070004000000
2D010800040000002D010400040000002D010600040000002D010700040000002D010800040000
002D010400040000002D010600040000002D010700070000002105010028007703520E04000000
2D010800040000002D010400040000002D010500070000002105010074007703AF0E040000002D
010600040000002D010700040000002D010800040000002D010400040000002D01060004000000
2D010700040000002D010800040000002D010400040000002D010600040000002D010700070000
002105010029007703F60E0700000021050100C50097023C010700000021050100C5009702CC01
0700000021050100C50097025C020700000021050100C5009702EC020700000021050100C50097
027C030700000021050100C50097020C040700000021050100C50097029C040700000021050100
C50097022C050700000021050100C5009702BC050700000021050100C50097024C060700000021
050100C5009702DC060700000021050100C50097026C070700000021050100C5009702FC070700
000021050100C50097028C080700000021050100C50097021C090700000021050100C5009702AC
090700000021050100C50097023C0A0700000021050100C5009702CC0A0700000021050100C500
97025C0B0700000021050100C5009702EC0B0700000021050100C50097027C0C07000000210501
00C50097020C0D0700000021050100C50097029C0D0700000021050100C50097022C0E07000000
21050100C5009702BC0E0700000021050100C50097024C0F0700000021050100C5009702DC0F07
00000021050100C50097026C100700000021050100C5009702FC100700000021050100C5009702
8C110700000021050100C50097021C120700000021050100C5009702AC120700000021050100C5
0097023C130700000021050100C5009702CC130700000021050100C50097025C14070000002105
0100C5009702EC140700000021050100C50097027C150700000021050100C50097020C16070000
0021050100C50097029C160700000021050100C50097022C170700000021050100C5009702BC17
0700000021050100C50097024C180700000021050100C5009702DC180700000021050100C50097
026C190700000021050100C5009702FC190700000021050100C50097028C1A0700000021050100
C50097021C1B0700000021050100C5009702651B09000000FA0200000000000000000000220004
0000002D01120004000000F001010007000000FC020000FFFFFF000000040000002D0101001000
0000FB021000070000000000BC02000000000102022253797374656D0000040000002D01130004
0000002701FFFF04000000F001030004000000F001040004000000F001050004000000F0010600
04000000F001070004000000F001080004000000F001090004000000F0010A0004000000F0010B
0004000000F0010C0004000000F0010D0004000000F0010E0004000000F0010F0004000000F001
100004000000F0011100040000002701FFFF030000000000
}\plain\f6\fs22\cf1\protect 
\par    {\pict\wmetafile8\picw7352\pich1683\picwgoal4168\pichgoal954
010009000003BC0500001000180000000000050000000B0200000000050000000C029306B81C03
0000001E00030000001E00050000000C02BA034810050000000B020000000018000000FF060000
0600F9AE00002A000100020000C000C0FF3FFF3F020000C0FF3F00C0FF3F020015000000FB0210
FF040000002D01000009000000FA02000000000000000000002200040000002D01010007000000
FC020000000000000000040000002D01020010000000FB0210FF00000000000090010000000107
000000417269616C000100040000002D0103000400000002010100050000000102FFFFFF000400
00002E01180005000000090200000000040000000801000015000000FB0210FF00000000000090
01000000010700000054696D6573204E657720526F6D616E000100040000002D0104000B000000
26060F000C004D6174685479706500003C0115000000FB0210FF00000000000090010100000107
00000054696D6573204E657720526F6D616E000100040000002D01050013000000FB0210FF0000
00000000900100000001070000005346204D61746820457874000100040000002D010600130000
00FB0210FF000000000000900100000002070000005346204D6174682045787400020004000000
2D01070015000000FB0210FF0000000000009001000000020700000054696D6573204E65772052
6F6D616E000200040000002D010800040000002D010400040000002D010600040000002D010700
040000002D010800040000002D01040010000000FB0210FF000000000000900100000002070000
0053796D626F6C0002040000002D01090010000000FB0210FF0000000000009001000000020700
000053796D626F6C0002040000002D010A00040000002D010800040000002D010400040000002D
010500040000002D010900040000002D010A00040000002D010800040000002D01040004000000
2D010500040000002D010600040000002D010700040000002D010800040000002D010400040000
002D010600040000002D010700040000002D010800040000002D010400040000002D0109000400
00002D010A0015000000FB0210FF0000000000009001010000020700000054696D6573204E6577
20526F6D616E000200040000002D010B00040000002D010500040000002D010600040000002D01
0700040000002D010800040000002D010400040000002D010600040000002D010700040000002D
010800040000002D010400040000002D010500040000002D010400040000002D01050004000000
2D010600040000002D010700040000002D010800040000002D010400040000002D010600040000
002D010700040000002D010800040000002D01040015000000FB0256FF00000000000090010000
00010700000054696D6573204E657720526F6D616E000100040000002D010C00040000002D0109
00040000002D010A00040000002D010800040000002D010400040000002D010900040000002D01
0A00040000002D010800040000002D010400040000002D010900040000002D010A00040000002D
010800040000002D010400040000002D010900040000002D010A00040000002D01080004000000
2D010400040000002D010900040000002D010A00040000002D010800040000002D010400050000
0009020000FF00040000002D010900040000002D010A000700000021050100B6008C01A4000700
000021050100B60022038100040000002D010B00040000002D0105000700000021050100740022
031C01040000002D010600040000002D0107000700000021050100C500DD016400070000002105
0100C500DD01F000040000002D010800040000002D010400070000002105010020002E02800104
0000002D01050007000000210501006B002E02BC01040000002D010600040000002D0107000400
00002D010800040000002D010400040000002D010600040000002D010700040000002D01080004
0000002D010400040000002D010600040000002D010700070000002105010028002E0231020400
00002D010800040000002D010400040000002D010500070000002105010074002E028E02040000
002D010600040000002D010700040000002D010800040000002D010400040000002D0106000400
00002D010700040000002D010800040000002D010400040000002D010600040000002D01070007
0000002105010029002E02D502040000002D010A0007000000210501003D002E027A0307000000
210501002D002E026A04040000002D010800040000002D01040007000000210501006D002E021E
05070000002105010075002E02D605040000002D010900040000002D010A000700000021050100
D7002E027E06040000002D010B00040000002D01050007000000210501006B002E02EA06040000
002D010600040000002D010700040000002D010800040000002D010400040000002D0106000400
00002D010700040000002D010800040000002D010400040000002D010600040000002D01070007
0000002105010028002E025F07040000002D010800040000002D010400040000002D0105000700
00002105010074002E02BC07040000002D010600040000002D010700040000002D010800040000
002D010400040000002D010600040000002D010700040000002D010800040000002D0104000400
00002D010600040000002D010700070000002105010029002E020308040000002D010A00070000
00210501002D002E029C08040000002D010B00040000002D010500070000002105010063002E02
5C09040000002D010600040000002D010700040000002D010800040000002D010400040000002D
010600040000002D010700040000002D010800040000002D010400040000002D01060004000000
2D010700070000002105010028002E02C709040000002D010800040000002D010400040000002D
010500070000002105010074002E02240A040000002D010600040000002D010700040000002D01
0800040000002D010400040000002D010600040000002D010700040000002D010800040000002D
010400040000002D010600040000002D010700070000002105010029002E026B0A040000002D01
0A0007000000210501002B002E02040B040000002D010B00040000002D01050007000000210501
0041002E02CF0B040000002D010900040000002D010A000700000021050100D7002E02920C0400
00002D010800040000002D010400040000002D01050007000000210501006B002E02FE0C040000
002D010600040000002D010700040000002D010800040000002D010400040000002D0106000400
00002D010700040000002D010800040000002D010400040000002D010600040000002D01070007
0000002105010028002E02730D040000002D010800040000002D010400040000002D0105000700
00002105010074002E02D00D040000002D010600040000002D010700040000002D010800040000
002D010400040000002D010600040000002D010700040000002D010800040000002D0104000400
00002D010600040000002D010700070000002105010029002E02170E15000000FB0256FF000000
0000009001000000020700000054696D6573204E657720526F6D616E000200040000002D010D00
040000002D010C00070000002105010061009001740E07000000210501006C009001BF0E070000
002105010070009001EE0E070000002105010068009001430F070000002105010061009001980F
09000000FA02000000000000000000002200040000002D010E0004000000F001010007000000FC
020000FFFFFF000000040000002D01010010000000FB021000070000000000BC02000000000102
022253797374656D0000040000002D010F00040000002701FFFF04000000F001030004000000F0
01040004000000F001050004000000F001060004000000F001070004000000F001080004000000
F001090004000000F0010A0004000000F0010B0004000000F0010C0004000000F0010D00040000
002701FFFF030000000000
}\plain\f6\fs22\cf1\protect 
\par    {\pict\wmetafile8\picw10317\pich1499\picwgoal5849\pichgoal849
010009000003B10800001000180000000000050000000B0200000000050000000C02DB054D2803
0000001E00030000001E00050000000C025203D916050000000B020000000018000000FF060000
060008AF00002A000100020000C000C0FF3FFF3F020000C0FF3F00C0FF3F020015000000FB0210
FF040000002D01000009000000FA02000000000000000000002200040000002D01010007000000
FC020000000000000000040000002D01020010000000FB0210FF00000000000090010000000107
000000417269616C000100040000002D0103000400000002010100050000000102FFFFFF000400
00002E01180005000000090200000000040000000801000015000000FB0210FF00000000000090
01000000010700000054696D6573204E657720526F6D616E000100040000002D0104000B000000
26060F000C004D617468547970650000E80015000000FB0210FF00000000000090010100000107
00000054696D6573204E657720526F6D616E000100040000002D01050013000000FB0210FF0000
00000000900100000001070000005346204D61746820457874000100040000002D010600130000
00FB0210FF000000000000900100000002070000005346204D6174682045787400020004000000
2D01070015000000FB0210FF0000000000009001000000020700000054696D6573204E65772052
6F6D616E000200040000002D010800040000002D010400040000002D010600040000002D010700
040000002D010800040000002D010400040000002D010500040000002D010600040000002D0107
00040000002D010800040000002D010400040000002D010600040000002D010700040000002D01
0800040000002D01040010000000FB0210FF0000000000009001000000020700000053796D626F
6C0002040000002D01090010000000FB0210FF0000000000009001000000020700000053796D62
6F6C0002040000002D010A00040000002D010800040000002D010400040000002D010500040000
002D010600040000002D010700040000002D010800040000002D010400040000002D0106000400
00002D010700040000002D010800040000002D010400040000002D010500040000002D01060004
0000002D010700040000002D010800040000002D010400040000002D010600040000002D010700
040000002D010800040000002D010400040000002D010900040000002D010A0015000000FB0210
FF0000000000009001010000020700000054696D6573204E657720526F6D616E00020004000000
2D010B00040000002D010500040000002D010400040000002D010500040000002D010600040000
002D010700040000002D010800040000002D010400040000002D010600040000002D0107000400
00002D010800040000002D010400040000002D010500040000002D010600040000002D01070004
0000002D010800040000002D010400040000002D010600040000002D010700040000002D010800
040000002D01040015000000FB0256FF0000000000009001000000010700000054696D6573204E
657720526F6D616E000100040000002D010C00040000002D010900040000002D010A0004000000
2D010800040000002D010400040000002D010500040000002D010600040000002D010700040000
002D010800040000002D010400040000002D010600040000002D010700040000002D0108000400
00002D010400040000002D010900040000002D010A00040000002D010800040000002D01040004
0000002D010900040000002D010A000500000009020000FF0007000000210501002D002F028800
040000002D010800040000002D010400040000002D010900040000002D010A00040000002D0108
00040000002D01040007000000210501006D008D015901070000002105010075008D0111020400
00002D010900040000002D010A000700000021050100D7008D01B902040000002D010B00040000
002D010500070000002105010063008D012503040000002D010600040000002D01070004000000
2D010800040000002D010400040000002D010600040000002D010700040000002D010800040000
002D010400040000002D010600040000002D010700070000002105010028008D01900304000000
2D010800040000002D010400040000002D010500070000002105010074008D01ED03040000002D
010600040000002D010700040000002D010800040000002D010400040000002D01060004000000
2D010700040000002D010800040000002D010400040000002D010600040000002D010700070000
002105010029008D013404040000002D010A000700000021050100D7008D01C104040000002D01
0B00040000002D01050007000000210501006B008D012D05040000002D010600040000002D0107
00040000002D010800040000002D010400040000002D010600040000002D010700040000002D01
0800040000002D010400040000002D010600040000002D010700070000002105010028008D01A2
05040000002D010800040000002D010400040000002D010500070000002105010074008D01FF05
040000002D010600040000002D010700040000002D010800040000002D010400040000002D0106
00040000002D010700040000002D010800040000002D010400040000002D010600040000002D01
0700070000002105010029008D014606040000002D010A0007000000210501002B008D01DF0604
0000002D010800040000002D010400070000002105010070008D01A00707000000210501007300
8D011808040000002D010900040000002D010A000700000021050100D7008D01A508040000002D
010B00040000002D010500070000002105010063008D011109040000002D010600040000002D01
0700040000002D010800040000002D010400040000002D010600040000002D010700040000002D
010800040000002D010400040000002D010600040000002D010700070000002105010028008D01
7C09040000002D010800040000002D010400040000002D010500070000002105010074008D01D9
09040000002D010600040000002D010700040000002D010800040000002D010400040000002D01
0600040000002D010700040000002D010800040000002D010400040000002D010600040000002D
010700070000002105010029008D01200A040000002D010A000700000021050100D7008D01AD0A
040000002D010B00040000002D01050007000000210501006B008D01190B040000002D01060004
0000002D010700040000002D010800040000002D010400040000002D010600040000002D010700
040000002D010800040000002D010400040000002D010600040000002D01070007000000210501
0028008D018E0B040000002D010800040000002D010400040000002D0105000700000021050100
74008D01EB0B040000002D010600040000002D010700040000002D010800040000002D01040004
0000002D010600040000002D010700040000002D010800040000002D010400040000002D010600
040000002D010700070000002105010029008D01320C040000002D010A0007000000210501002D
008D01CB0C040000002D010B00040000002D010500070000002105010041008D01960D04000000
2D010900040000002D010A000700000021050100D7008D01590E040000002D010800040000002D
010400070000002105010061008D01C50E07000000210501006C008D01300F0700000021050100
70008D01730F070000002105010068008D01EB0F070000002105010061008D016310040000002D
010900040000002D010A000700000021050100D7008D01FE10040000002D010B00040000002D01
0500070000002105010063008D016A11040000002D010600040000002D010700040000002D0108
00040000002D010400040000002D010600040000002D010700040000002D010800040000002D01
0400040000002D010600040000002D010700070000002105010028008D01D511040000002D0108
00040000002D010400040000002D010500070000002105010074008D013212040000002D010600
040000002D010700040000002D010800040000002D010400040000002D010600040000002D0107
00040000002D010800040000002D010400040000002D010600040000002D010700070000002105
010029008D017912040000002D010A000700000021050100D7008D010613040000002D01080004
0000002D010400040000002D01050007000000210501006B008D017213040000002D0106000400
00002D010700040000002D010800040000002D010400040000002D010600040000002D01070004
0000002D010800040000002D010400040000002D010600040000002D0107000700000021050100
28008D01E713040000002D010800040000002D010400040000002D010500070000002105010074
008D014414040000002D010600040000002D010700040000002D010800040000002D0104000400
00002D010600040000002D010700040000002D010800040000002D010400040000002D01060004
0000002D010700070000002105010029008D018B1415000000FB0256FF00000000000090010000
00020700000054696D6573204E657720526F6D616E000200040000002D010D00040000002D010C
0007000000210501006100EF00E81407000000210501006C00EF00331507000000210501007000
EF00621507000000210501006800EF00B71507000000210501006100EF000C16040000002D0105
0007000000210501006B00BE021D0B040000002D010600040000002D010700040000002D010800
040000002D010400040000002D010600040000002D010700040000002D010800040000002D0104
00040000002D010600040000002D01070007000000210501002800BE02920B040000002D010800
040000002D010400040000002D01050007000000210501007400BE02EF0B040000002D01060004
0000002D010700040000002D010800040000002D010400040000002D010600040000002D010700
040000002D010800040000002D010400040000002D010600040000002D01070007000000210501
002900BE02360C0700000021050100C500DE013C010700000021050100C500DE01CC0107000000
21050100C500DE015C020700000021050100C500DE01EC020700000021050100C500DE017C0307
00000021050100C500DE010C040700000021050100C500DE019C040700000021050100C500DE01
2C050700000021050100C500DE01BC050700000021050100C500DE014C060700000021050100C5
00DE01DC060700000021050100C500DE016C070700000021050100C500DE01FC07070000002105
0100C500DE018C080700000021050100C500DE011C090700000021050100C500DE01AC09070000
0021050100C500DE013C0A0700000021050100C500DE01CC0A0700000021050100C500DE015C0B
0700000021050100C500DE01EC0B0700000021050100C500DE017C0C0700000021050100C500DE
010C0D0700000021050100C500DE019C0D0700000021050100C500DE012C0E0700000021050100
C500DE01BC0E0700000021050100C500DE014C0F0700000021050100C500DE01DC0F0700000021
050100C500DE016C100700000021050100C500DE01FC100700000021050100C500DE018C110700
000021050100C500DE011C120700000021050100C500DE01AC120700000021050100C500DE013C
130700000021050100C500DE01CC130700000021050100C500DE015C140700000021050100C500
DE01EC140700000021050100C500DE017C150700000021050100C500DE01E51509000000FA0200
0000000000000000002200040000002D010E0004000000F001010007000000FC020000FFFFFF00
0000040000002D01010010000000FB021000070000000000BC0200000000010202225379737465
6D0000040000002D010F00040000002701FFFF04000000F001030004000000F001040004000000
F001050004000000F001060004000000F001070004000000F001080004000000F0010900040000
00F0010A0004000000F0010B0004000000F0010C0004000000F0010D00040000002701FFFF0300
00000000
}\plain\f6\fs22\cf1\protect 
\par    {\pict\wmetafile8\picw7597\pich1420\picwgoal4306\pichgoal805
010009000003730400000F00180000000000050000000B0200000000050000000C028C05AD1D03
0000001E00030000001E00050000000C022503D310050000000B020000000018000000FF060000
060017AF00002A000100020000C000C0FF3FFF3F020000C0FF3F00C0FF3F020015000000FB0210
FF040000002D01000009000000FA02000000000000000000002200040000002D01010007000000
FC020000000000000000040000002D01020010000000FB0210FF00000000000090010000000107
000000417269616C000100040000002D0103000400000002010100050000000102FFFFFF000400
00002E01180005000000090200000000040000000801000015000000FB0210FF00000000000090
01000000010700000054696D6573204E657720526F6D616E000100040000002D0104000B000000
26060F000C004D617468547970650000C40015000000FB0210FF00000000000090010100000107
00000054696D6573204E657720526F6D616E000100040000002D010500040000002D0104001000
0000FB0210FF0000000000009001000000020700000053796D626F6C0002040000002D01060010
000000FB0210FF0000000000009001000000020700000053796D626F6C0002040000002D010700
15000000FB0210FF0000000000009001010000020700000054696D6573204E657720526F6D616E
000200040000002D010800040000002D010500040000002D010400040000002D01060004000000
2D010700040000002D010800040000002D010500040000002D010400040000002D010500150000
00FB0256FF0000000000009001000000010700000054696D6573204E657720526F6D616E000100
040000002D010900040000002D010400040000002D010600040000002D01070015000000FB0210
FF0000000000009001000000020700000054696D6573204E657720526F6D616E00020004000000
2D010A00040000002D010400040000002D010500040000002D010400040000002D010600040000
002D010700040000002D010A00040000002D010400040000002D010600040000002D0107000500
000009020000FF0007000000210501002D002F028800040000002D010A00040000002D01040004
0000002D010600040000002D010700040000002D010800040000002D0105000700000021050100
63008D015901040000002D010600040000002D0107000700000021050100D7008D01F401040000
002D010800040000002D01050007000000210501006B008D016002040000002D01060004000000
2D0107000700000021050100D7008D010503040000002D010A00040000002D0104000700000021
0501006D008D017103070000002105010075008D012904040000002D010600040000002D010700
07000000210501002B008D01DD04040000002D010800040000002D010500070000002105010063
008D019D05040000002D010600040000002D0107000700000021050100D7008D01380604000000
2D010800040000002D01050007000000210501006B008D01A406040000002D010600040000002D
0107000700000021050100D7008D014907040000002D010A00040000002D010400070000002105
010070008D01B607070000002105010073008D012E08040000002D010600040000002D01070007
000000210501002D008D01C708040000002D010800040000002D01050007000000210501004100
8D019209040000002D010600040000002D0107000700000021050100D7008D01550A040000002D
010800040000002D010500070000002105010063008D01C10A040000002D010600040000002D01
07000700000021050100D7008D015C0B040000002D010A00040000002D010400040000002D0105
0007000000210501006B008D01C80B040000002D01090007000000210501006100EF003D0C0700
0000210501006C00EF00880C07000000210501007000EF00B70C07000000210501006800EF000C
0D07000000210501006100EF00610D040000002D010600040000002D0107000700000021050100
D7008D01DD0D040000002D010A00040000002D010400070000002105010061008D01490E070000
00210501006C008D01B40E070000002105010070008D01F70E070000002105010068008D016F0F
070000002105010061008D01E70F040000002D01050007000000210501006B00BE029B08130000
00FB0210FF000000000000900100000001070000005346204D6174682045787400010004000000
2D010B0013000000FB0210FF000000000000900100000002070000005346204D61746820457874
000200040000002D010C000700000021050100C500DE013C010700000021050100C500DE01CC01
0700000021050100C500DE015C020700000021050100C500DE01EC020700000021050100C500DE
017C030700000021050100C500DE010C040700000021050100C500DE019C040700000021050100
C500DE012C050700000021050100C500DE01BC050700000021050100C500DE014C060700000021
050100C500DE01DC060700000021050100C500DE016C070700000021050100C500DE01FC070700
000021050100C500DE018C080700000021050100C500DE011C090700000021050100C500DE01AC
090700000021050100C500DE013C0A0700000021050100C500DE01CC0A0700000021050100C500
DE015C0B0700000021050100C500DE01EC0B0700000021050100C500DE017C0C07000000210501
00C500DE010C0D0700000021050100C500DE019C0D0700000021050100C500DE012C0E07000000
21050100C500DE01BC0E0700000021050100C500DE014C0F0700000021050100C500DE01DC0F07
00000021050100C500DE01DF0F09000000FA02000000000000000000002200040000002D010D00
04000000F001010007000000FC020000FFFFFF000000040000002D01010010000000FB02100007
0000000000BC02000000000102022253797374656D0000040000002D010E00040000002701FFFF
04000000F001030004000000F001040004000000F001050004000000F001060004000000F00107
0004000000F001080004000000F001090004000000F0010A0004000000F0010B0004000000F001
0C00040000002701FFFF030000000000
}\plain\f6\fs22\cf1\protect 
\par    {\pict\wmetafile8\picw3858\pich972\picwgoal2187\pichgoal551
0100090000036E0200000D00180000000000050000000B0200000000050000000C02CC03120F03
0000001E00030000001E00050000000C0227028B08050000000B020000000018000000FF060000
060025AF00002A000100020000C000C0FF3FFF3F020000C0FF3F00C0FF3F020015000000FB0210
FF040000002D01000009000000FA02000000000000000000002200040000002D01010007000000
FC020000000000000000040000002D01020010000000FB0210FF00000000000090010000000107
000000417269616C000100040000002D0103000400000002010100050000000102FFFFFF000400
00002E01180005000000090200000000040000000801000015000000FB0210FF00000000000090
01000000010700000054696D6573204E657720526F6D616E000100040000002D0104000B000000
26060F000C004D6174685479706500007B0015000000FB0210FF00000000000090010100000107
00000054696D6573204E657720526F6D616E000100040000002D010500040000002D0104000400
00002D01050015000000FB0256FF0000000000009001000000010700000054696D6573204E6577
20526F6D616E000100040000002D01060010000000FB0210FF0000000000009001000000020700
000053796D626F6C0002040000002D01070010000000FB0210FF00000000000090010000000207
00000053796D626F6C0002040000002D01080015000000FB0210FF000000000000900101000002
0700000054696D6573204E657720526F6D616E000200040000002D010900040000002D01050004
0000002D010400040000002D010700040000002D01080015000000FB0210FF0000000000009001
000000020700000054696D6573204E657720526F6D616E000200040000002D010A00040000002D
010400040000002D010700040000002D0108000500000009020000FF00040000002D0109000400
00002D010500070000002105010041008D016F00040000002D010700040000002D010800070000
0021050100D7008D013201040000002D010A00040000002D010400040000002D01050007000000
210501006B008D019E01040000002D01060007000000210501006100EF00130207000000210501
006C00EF005E0207000000210501007000EF008D0207000000210501006800EF00E20207000000
210501006100EF003703040000002D010700040000002D01080007000000210501002D008D01BF
03040000002D010900040000002D010500070000002105010063008D017F04040000002D010700
040000002D01080007000000210501002D008D012605040000002D010900040000002D01050007
000000210501006B008D01E605040000002D010700040000002D0108000700000021050100D700
8D018B06040000002D010A00040000002D01040007000000210501006D008D01F7060700000021
05010075008D01AF0709000000FA02000000000000000000002200040000002D010B0004000000
F001010007000000FC020000FFFFFF000000040000002D01010010000000FB0210000700000000
00BC02000000000102022253797374656D0000040000002D010C00040000002701FFFF04000000
F001030004000000F001040004000000F001050004000000F001060004000000F0010700040000
00F001080004000000F001090004000000F0010A00040000002701FFFF030000000000
}\plain\f6\fs22\cf1\protect 
\par    {\pict\wmetafile8\picw14522\pich1420\picwgoal8232\pichgoal805
010009000003740700000F00180000000000050000000B0200000000050000000C028C05BA3803
0000001E00030000001E00050000000C0225032920050000000B020000000018000000FF060000
060031AF00002A000100020000C000C0FF3FFF3F020000C0FF3F00C0FF3F020015000000FB0210
FF040000002D01000009000000FA02000000000000000000002200040000002D01010007000000
FC020000000000000000040000002D01020010000000FB0210FF00000000000090010000000107
000000417269616C000100040000002D0103000400000002010100050000000102FFFFFF000400
00002E01180005000000090200000000040000000801000015000000FB0210FF00000000000090
01000000010700000054696D6573204E657720526F6D616E000100040000002D0104000B000000
26060F000C004D617468547970650000C40015000000FB0210FF00000000000090010100000107
00000054696D6573204E657720526F6D616E000100040000002D010500040000002D0104001000
0000FB0210FF0000000000009001000000020700000053796D626F6C0002040000002D01060010
000000FB0210FF0000000000009001000000020700000053796D626F6C0002040000002D010700
15000000FB0210FF0000000000009001010000020700000054696D6573204E657720526F6D616E
000200040000002D010800040000002D010500040000002D010400040000002D01060004000000
2D010700040000002D010800040000002D010500040000002D010400040000002D010500150000
00FB0256FF0000000000009001000000010700000054696D6573204E657720526F6D616E000100
040000002D010900040000002D010400040000002D010600040000002D01070015000000FB0210
FF0000000000009001000000020700000054696D6573204E657720526F6D616E00020004000000
2D010A00040000002D010400040000002D010500040000002D010400040000002D010600040000
002D010700040000002D010800040000002D010500040000002D010400040000002D0105000400
00002D010900040000002D010600040000002D010700040000002D010800040000002D01050004
0000002D010400040000002D010600040000002D010700040000002D010A00040000002D010400
13000000FB0210FF000000000000900100000001070000005346204D6174682045787400010004
0000002D010B0013000000FB0210FF000000000000900100000002070000005346204D61746820
457874000200040000002D010C00040000002D010A00040000002D010400040000002D010B0004
0000002D010C00040000002D010A00040000002D010400040000002D010B00040000002D010C00
040000002D010800040000002D010500040000002D010400040000002D010B00040000002D010C
00040000002D010A00040000002D010400040000002D010B00040000002D010C00040000002D01
0A00040000002D010400040000002D010B00040000002D010C00040000002D010A00040000002D
010400040000002D010B00040000002D010C00040000002D010A00040000002D01040004000000
2D010B00040000002D010C00040000002D010A00040000002D0104000500000009020000FF0007
0000002105010073002F02640007000000210501006F002F02C10007000000210501006C002F02
3901070000002105010076002F027C01070000002105010065002F02F401040000002D010B0004
0000002D010C00040000002D010A00040000002D010400040000002D010B00040000002D010C00
040000002D010A00040000002D010400040000002D010B00040000002D010C0007000000210501
00B50072005F02040000002D010A00040000002D010400040000002D010B00040000002D010C00
040000002D010A00040000002D010400040000002D010B00040000002D010C00040000002D010A
00040000002D010400040000002D010B00040000002D010C000700000021050100B70072001003
040000002D010A00040000002D010400040000002D010600040000002D01070007000000210501
002D002F02B303040000002D010A00040000002D010400040000002D010600040000002D010700
040000002D010800040000002D010500070000002105010063008D018404040000002D01060004
0000002D0107000700000021050100D7008D011F05040000002D010800040000002D0105000700
0000210501006B008D018B05040000002D010600040000002D0107000700000021050100D7008D
013006040000002D010A00040000002D01040007000000210501006D008D019C06070000002105
010075008D015407040000002D010600040000002D01070007000000210501002B008D01080804
0000002D010800040000002D010500070000002105010063008D01C808040000002D0106000400
00002D0107000700000021050100D7008D016309040000002D010800040000002D010500070000
00210501006B008D01CF09040000002D010600040000002D0107000700000021050100D7008D01
740A040000002D010A00040000002D010400070000002105010070008D01E10A07000000210501
0073008D01590B040000002D010600040000002D01070007000000210501002D008D01F20B0400
00002D010800040000002D010500070000002105010041008D01BD0C040000002D010600040000
002D0107000700000021050100D7008D01800D040000002D010800040000002D01050007000000
2105010063008D01EC0D040000002D010600040000002D0107000700000021050100D7008D0187
0E040000002D010A00040000002D010400040000002D01050007000000210501006B008D01F30E
040000002D01090007000000210501006100EF00680F07000000210501006C00EF00B30F070000
00210501007000EF00E20F07000000210501006800EF00371007000000210501006100EF008C10
040000002D010600040000002D0107000700000021050100D7008D010811040000002D010A0004
0000002D010400070000002105010061008D01741107000000210501006C008D01DF1107000000
2105010070008D012212070000002105010068008D019A12070000002105010061008D01121304
0000002D01050007000000210501006B00BE02C60B040000002D010B00040000002D010C000700
000021050100C500DE0167040700000021050100C500DE01F7040700000021050100C500DE0187
050700000021050100C500DE0117060700000021050100C500DE01A7060700000021050100C500
DE0137070700000021050100C500DE01C7070700000021050100C500DE01570807000000210501
00C500DE01E7080700000021050100C500DE0177090700000021050100C500DE01070A07000000
21050100C500DE01970A0700000021050100C500DE01270B0700000021050100C500DE01B70B07
00000021050100C500DE01470C0700000021050100C500DE01D70C0700000021050100C500DE01
670D0700000021050100C500DE01F70D0700000021050100C500DE01870E0700000021050100C5
00DE01170F0700000021050100C500DE01A70F0700000021050100C500DE013710070000002105
0100C500DE01C7100700000021050100C500DE0157110700000021050100C500DE01E711070000
0021050100C500DE0177120700000021050100C500DE0107130700000021050100C500DE010A13
040000002D010A00040000002D01040007000000210501002C002F029A13040000002D01060004
0000002D010700040000002D010800040000002D010500070000002105010041002F0235140400
00002D010600040000002D0107000700000021050100D7002F02F814040000002D010A00040000
002D010400040000002D01050007000000210501006B002F026415040000002D01090007000000
2105010061009101D91507000000210501006C0091012416070000002105010070009101531607
0000002105010068009101A816070000002105010061009101FD16040000002D01060004000000
2D01070007000000210501002D002F028517040000002D010800040000002D0105000700000021
05010063002F024518040000002D010600040000002D01070007000000210501002D002F02EC18
040000002D010800040000002D01050007000000210501006B002F02AC19040000002D01060004
0000002D0107000700000021050100D7002F02511A040000002D010A00040000002D0104000700
0000210501006D002F02BD1A070000002105010075002F02751B040000002D010B00040000002D
010C00040000002D010A00040000002D010400040000002D010B00040000002D010C0004000000
2D010A00040000002D010400040000002D010B00040000002D010C000700000021050100B80072
00ED1B040000002D010A00040000002D01040007000000210501002C002F026C1C040000002D01
0B00040000002D010C00040000002D010A00040000002D010400040000002D010B00040000002D
010C00040000002D010A00040000002D010400040000002D010B00040000002D010C0007000000
210501005B002F02FC1C040000002D010A00040000002D010400040000002D0105000700000021
05010063002F02501D040000002D01040007000000210501002C002F02BB1D040000002D010500
07000000210501006B002F024B1E040000002D010B00040000002D010C00040000002D010A0004
0000002D010400040000002D010B00040000002D010C00040000002D010A00040000002D010400
040000002D010B00040000002D010C0007000000210501005D002F02C01E040000002D010A0004
0000002D010400040000002D010B00040000002D010C00040000002D010A00040000002D010400
040000002D010B00040000002D010C000700000021050100B6007200141F09000000FA02000000
000000000000002200040000002D010D0004000000F001010007000000FC020000FFFFFF000000
040000002D01010010000000FB021000070000000000BC02000000000102022253797374656D00
00040000002D010E00040000002701FFFF04000000F001030004000000F001040004000000F001
050004000000F001060004000000F001070004000000F001080004000000F001090004000000F0
010A0004000000F0010B0004000000F0010C00040000002701FFFF030000000000
}\plain\f6\fs22\cf1\protect 
\par    {\pict\wmetafile8\picw7597\pich1420\picwgoal4306\pichgoal805
010009000003730400000F00180000000000050000000B0200000000050000000C028C05AD1D03
0000001E00030000001E00050000000C022503D310050000000B020000000018000000FF060000
06003FAF00002A000100020000C000C0FF3FFF3F020000C0FF3F00C0FF3F020015000000FB0210
FF040000002D01000009000000FA02000000000000000000002200040000002D01010007000000
FC020000000000000000040000002D01020010000000FB0210FF00000000000090010000000107
000000417269616C000100040000002D0103000400000002010100050000000102FFFFFF000400
00002E01180005000000090200000000040000000801000015000000FB0210FF00000000000090
01000000010700000054696D6573204E657720526F6D616E000100040000002D0104000B000000
26060F000C004D617468547970650000C40015000000FB0210FF00000000000090010100000107
00000054696D6573204E657720526F6D616E000100040000002D010500040000002D0104001000
0000FB0210FF0000000000009001000000020700000053796D626F6C0002040000002D01060010
000000FB0210FF0000000000009001000000020700000053796D626F6C0002040000002D010700
15000000FB0210FF0000000000009001010000020700000054696D6573204E657720526F6D616E
000200040000002D010800040000002D010500040000002D010400040000002D01060004000000
2D010700040000002D010800040000002D010500040000002D010400040000002D010500150000
00FB0256FF0000000000009001000000010700000054696D6573204E657720526F6D616E000100
040000002D010900040000002D010400040000002D010600040000002D01070015000000FB0210
FF0000000000009001000000020700000054696D6573204E657720526F6D616E00020004000000
2D010A00040000002D010400040000002D010500040000002D010400040000002D010600040000
002D010700040000002D010A00040000002D010400040000002D010600040000002D0107000500
000009020000FF0007000000210501002D002F028800040000002D010A00040000002D01040004
0000002D010600040000002D010700040000002D010800040000002D0105000700000021050100
63008D015901040000002D010600040000002D0107000700000021050100D7008D01F401040000
002D010800040000002D01050007000000210501006B008D016002040000002D01060004000000
2D0107000700000021050100D7008D010503040000002D010A00040000002D0104000700000021
0501006D008D017103070000002105010075008D012904040000002D010600040000002D010700
07000000210501002B008D01DD04040000002D010800040000002D010500070000002105010063
008D019D05040000002D010600040000002D0107000700000021050100D7008D01380604000000
2D010800040000002D01050007000000210501006B008D01A406040000002D010600040000002D
0107000700000021050100D7008D014907040000002D010A00040000002D010400070000002105
010070008D01B607070000002105010073008D012E08040000002D010600040000002D01070007
000000210501002D008D01C708040000002D010800040000002D01050007000000210501004100
8D019209040000002D010600040000002D0107000700000021050100D7008D01550A040000002D
010800040000002D010500070000002105010063008D01C10A040000002D010600040000002D01
