{\rtf1\ansi\deff0\deftab720{\fonttbl{\f0\fswiss MS Sans Serif;}{\f1\froman\fcharset2 Symbol;}{\f2\fswiss\fprq2 System;}{\f3\froman\fprq2 Times New Roman;}{\f4\fswiss\fprq2 Arial;}{\f5\froman\fprq2 Bookman Old Style;}{\f6\fmodern\fprq1 Courier New;}{\f7\fmodern Courier New;}{\f8\froman Times New Roman;}{\f9\froman\fprq2 Symbol;}{\f10\froman\fcharset1 Times New Roman;}{\f11\froman\fprq2\fcharset2 Times New Roman;}{\f12\froman\fcharset1 Times New Roman;}}
{\colortbl\red0\green0\blue0;\red0\green0\blue255;\red255\green0\blue0;\red0\green128\blue0;}
\deflang1033\pard\li300\ri5\fi-300{\*\pn\pnlvlblt\pnf1\pnindent300{\pntxtb\'b7}}\plain\lang1036\f6\fs22\cf2 {\pntext\f1\'b7\tab}rea\plain\f6\fs22\cf2 d("c:\\\\jacques\\\\eco\\\\ramsey26in.txt")
\par \pard\li50\ri6\plain\f6\fs22\cf1\protect    {\pict\wmetafile8\picw1412\pich825\picscalex99\picscaley99\picwgoal801\pichgoal468
010009000003340100000700180000000000050000000B0200000000050000000C023903840503
0000001E00050000000C023B038505050000000B0200000000030000001E00030000001E000500
00000C02D5012103050000000B0200000000050000000B020000000018000000FF06000006001A
BC00002A000100020000C000C0FF3FFF3F020000C0FF3F00C0FF3F020000000400000024000400
00002D01000009000000FA02000000000000000000002200040000002D01010007000000FC0200
00000000000000040000002D01020010000000FB0210FF00000000000090010000000107000000
417269616C000100040000002D0103000400000002010100050000000102FFFFFF00040000002E
01180005000000090200000000040000000801000015000000FB0210FF00000000000090010000
00010700000054696D6573204E657720526F6D616E000100040000002D0104000B00000026060F
000C004D6174685479706500007B000500000009020000FF00070000002105010072003B016400
070000002105010065003B01B400070000002105010073003B011F01070000002105010074003B
017C01070000002105010061003B01BF01070000002105010072003B012A020700000021050100
74003B017A0209000000FA02000000000000000000002200040000002D01050004000000F00101
0007000000FC020000FFFFFF000000040000002D01010010000000FB021000070000000000BC02
000000000102022253797374656D0000040000002D010600040000002701FFFF04000000F00103
0004000000F0010400040000002701FFFF040000002701FFFF030000000000
}\plain\f6\fs22\cf1\protect 
\par \pard\li50\ri2\plain\f6\fs22\cf1\protect    {\pict\wmetafile8\picw2629\pich971\picscalex99\picscaley99\picwgoal1491\pichgoal551
0100090000032D0200000D00180000000000050000000B0200000000050000000C02CB03450A03
0000001E00050000000C02CC03460A050000000B0200000000030000001E00030000001E000500
00000C022702D305050000000B0200000000050000000B020000000018000000FF060000060020
BC00002A000100020000C000C0FF3FFF3F020000C0FF3F00C0FF3F0200050000000102FFFF0400
00002D01000009000000FA02000000000000000000002200040000002D01010007000000FC0200
00000000000000040000002D01020010000000FB0210FF00000000000090010000000107000000
417269616C000100040000002D0103000400000002010100050000000102FFFFFF00040000002E
01180005000000090200000000040000000801000015000000FB0210FF00000000000090010000
00010700000054696D6573204E657720526F6D616E000100040000002D0104000B00000026060F
000C004D6174685479706500007B0015000000FB0210FF00000000000090010100000107000000
54696D6573204E657720526F6D616E000100040000002D010500040000002D010400040000002D
01050015000000FB0256FF0000000000009001000000010700000054696D6573204E657720526F
6D616E000100040000002D01060010000000FB0210FF0000000000009001000000020700000053
796D626F6C0002040000002D01070010000000FB0210FF00000000000090010000000207000000
53796D626F6C0002040000002D01080015000000FB0210FF000000000000900100000002070000
0054696D6573204E657720526F6D616E000200040000002D010900040000002D01040004000000
2D010700040000002D0108000500000009020000FF0015000000FB0210FF000000000000900101
0000020700000054696D6573204E657720526F6D616E000200040000002D010A00040000002D01
0500070000002105010078008D016B00040000002D010700040000002D01080007000000210501
00AE008D011E01040000002D010A00040000002D010500070000002105010041008D015E020400
00002D010700040000002D0108000700000021050100D7008D012103040000002D010900040000
002D010400040000002D010500070000002105010078008D019403040000002D01060007000000
210501006100EF00FF0307000000210501006C00EF004A0407000000210501007000EF00790407
000000210501006800EF00CE0407000000210501006100EF00230509000000FA02000000000000
000000002200040000002D010B0004000000F001010007000000FC020000FFFFFF000000040000
002D01010010000000FB021000070000000000BC02000000000102022253797374656D00000400
00002D010C00040000002701FFFF04000000F001030004000000F001040004000000F001050004
000000F001060004000000F001070004000000F001080004000000F001090004000000F0010A00
040000002701FFFF040000002701FFFF030000000000
}\plain\f6\fs22\cf1\protect 
\par    {\pict\wmetafile8\picw4226\pich971\picscalex99\picscaley99\picwgoal2396\pichgoal551
010009000003D60200001000180000000000050000000B0200000000050000000C02CB03821003
0000001E00050000000C02CC038410050000000B0200000000030000001E00030000001E000500
00000C0227025D09050000000B0200000000050000000B020000000018000000FF06000006002C
BC00002A000100020000C000C0FF3FFF3F020000C0FF3F00C0FF3F0200050000000102FFFF0400
00002D01000009000000FA02000000000000000000002200040000002D01010007000000FC0200
00000000000000040000002D01020010000000FB0210FF00000000000090010000000107000000
417269616C000100040000002D0103000400000002010100050000000102FFFFFF00040000002E
01180005000000090200000000040000000801000015000000FB0210FF00000000000090010000
00010700000054696D6573204E657720526F6D616E000100040000002D0104000B00000026060F
000C004D6174685479706500007B0015000000FB0210FF00000000000090010100000107000000
54696D6573204E657720526F6D616E000100040000002D010500040000002D010400040000002D
01050015000000FB0256FF0000000000009001000000010700000054696D6573204E657720526F
6D616E000100040000002D01060010000000FB0256FF0000000000009001000000020700000053
796D626F6C0002040000002D01070010000000FB0256FF00000000000090010000000207000000
53796D626F6C0002040000002D01080015000000FB0210FF000000000000900100000002070000
0054696D6573204E657720526F6D616E000200040000002D010900040000002D01040010000000
FB0210FF0000000000009001000000020700000053796D626F6C0002040000002D010A00100000
00FB0210FF0000000000009001000000020700000053796D626F6C0002040000002D010B000400
00002D010900040000002D010400040000002D010A00040000002D010B000500000009020000FF
0015000000FB0210FF0000000000009001010000020700000054696D6573204E657720526F6D61
6E000200040000002D010C00040000002D010500070000002105010078008D016B00040000002D
010A00040000002D010B000700000021050100AE008D011E01040000002D010C00040000002D01
0500070000002105010041008D015E02040000002D010A00040000002D010B0007000000210501
00D7008D012103040000002D010900040000002D010400040000002D0105000700000021050100
78008D019403040000002D01060007000000210501006100EF00FF0307000000210501006C00EF
004A0407000000210501007000EF00790407000000210501006800EF00CE040700000021050100
6100EF002305040000002D010700040000002D01080007000000210501002D00EF008805150000
00FB0256FF0000000000009001000000020700000054696D6573204E657720526F6D616E000200
040000002D010D00040000002D01060007000000210501003100EF00FF05040000002D010A0004
0000002D010B000700000021050100D7008D018406040000002D010900040000002D0104000700
00002105010061008D01F00607000000210501006C008D015B07070000002105010070008D019E
07070000002105010068008D011608070000002105010061008D018E0809000000FA0200000000
0000000000002200040000002D010E0004000000F001010007000000FC020000FFFFFF00000004
0000002D01010010000000FB021000070000000000BC02000000000102022253797374656D0000
040000002D010F00040000002701FFFF04000000F001030004000000F001040004000000F00105
0004000000F001060004000000F001070004000000F001080004000000F001090004000000F001
0A0004000000F0010B0004000000F0010C0004000000F0010D00040000002701FFFF0400000027
01FFFF030000000000
}\plain\f6\fs22\cf1\protect 
\par    {\pict\wmetafile8\picw3774\pich968\picscalex99\picscaley99\picwgoal2140\pichgoal549
010009000003D70200000E00180000000000050000000B0200000000050000000C02C803BE0E03
0000001E00050000000C02CA03C00E050000000B0200000000030000001E00030000001E000500
00000C0226025D08050000000B0200000000050000000B020000000018000000FF06000006003B
BC00002A000100020000C000C0FF3FFF3F020000C0FF3F00C0FF3F0200050000000102FFFF0400
00002D01000009000000FA02000000000000000000002200040000002D01010007000000FC0200
00000000000000040000002D01020010000000FB0210FF00000000000090010000000107000000
417269616C000100040000002D0103000400000002010100050000000102FFFFFF00040000002E
01180005000000090200000000040000000801000015000000FB0210FF00000000000090010000
00010700000054696D6573204E657720526F6D616E000100040000002D0104000B00000026060F
000C004D6174685479706500007B0015000000FB0210FF00000000000090010100000107000000
54696D6573204E657720526F6D616E000100040000002D010500040000002D010400040000002D
01050013000000FB0210FF000000000000900100000001070000005346204D6174682045787400
0100040000002D01060013000000FB0210FF000000000000900100000002070000005346204D61
746820457874000200040000002D01070015000000FB0210FF0000000000009001000000020700
000054696D6573204E657720526F6D616E000200040000002D010800040000002D010400040000
002D010600040000002D010700040000002D010800040000002D010400040000002D0105001000
0000FB0210FF0000000000009001000000020700000053796D626F6C0002040000002D01090010
000000FB0210FF0000000000009001000000020700000053796D626F6C0002040000002D010A00
040000002D010800040000002D010400040000002D010900040000002D010A0005000000090200
00FF0015000000FB0210FF0000000000009001010000020700000054696D6573204E657720526F
6D616E000200040000002D010B00040000002D010500070000002105010078008C016B00040000
002D010900040000002D010A000700000021050100AE008C011E01040000002D01080004000000
2D010400070000002105010066008C01530207000000210501006E008C01A30207000000210501
0070008C011B03040000002D010600040000002D010700040000002D010800040000002D010400
040000002D010600040000002D010700040000002D010800040000002D010400040000002D0106
00040000002D010700070000002105010028008C019303040000002D010800040000002D010400
040000002D010500070000002105010078008C01F703040000002D010600040000002D01070004
0000002D010800040000002D010400040000002D010600040000002D010700040000002D010800
040000002D010400040000002D010600040000002D010700070000002105010029008C01620404
0000002D010A0007000000210501002D008C01FB04040000002D010800040000002D0104000700
0000210501006D008C01BB05070000002105010075008C017306040000002D010900040000002D
010A000700000021050100D7008C011B07040000002D010B00040000002D010500070000002105
010078008C018E0709000000FA02000000000000000000002200040000002D010C0004000000F0
01010007000000FC020000FFFFFF000000040000002D01010010000000FB021000070000000000
BC02000000000102022253797374656D0000040000002D010D00040000002701FFFF04000000F0
01030004000000F001040004000000F001050004000000F001060004000000F001070004000000
F001080004000000F001090004000000F0010A0004000000F0010B00040000002701FFFF040000
002701FFFF030000000000
}\plain\f6\fs22\cf1\protect 
\par    {\pict\wmetafile8\picw5208\pich971\picscalex99\picscaley99\picwgoal2953\pichgoal551
0100090000030B0300001000180000000000050000000B0200000000050000000C02CB03581403
0000001E00050000000C02CC035914050000000B0200000000030000001E00030000001E000500
00000C022702890B050000000B0200000000050000000B020000000018000000FF060000060048
BC00002A000100020000C000C0FF3FFF3F020000C0FF3F00C0FF3F0200050000000102FFFF0400
00002D01000009000000FA02000000000000000000002200040000002D01010007000000FC0200
00000000000000040000002D01020010000000FB0210FF00000000000090010000000107000000
417269616C000100040000002D0103000400000002010100050000000102FFFFFF00040000002E
01180005000000090200000000040000000801000015000000FB0210FF00000000000090010000
00010700000054696D6573204E657720526F6D616E000100040000002D0104000B00000026060F
000C004D6174685479706500007B0015000000FB0210FF00000000000090010100000107000000
54696D6573204E657720526F6D616E000100040000002D010500040000002D010400040000002D
01050015000000FB0256FF0000000000009001000000010700000054696D6573204E657720526F
6D616E000100040000002D01060010000000FB0256FF0000000000009001000000020700000053
796D626F6C0002040000002D01070010000000FB0256FF00000000000090010000000207000000
53796D626F6C0002040000002D01080015000000FB0210FF000000000000900100000002070000
0054696D6573204E657720526F6D616E000200040000002D010900040000002D01040010000000
FB0210FF0000000000009001000000020700000053796D626F6C0002040000002D010A00100000
00FB0210FF0000000000009001000000020700000053796D626F6C0002040000002D010B000400
00002D010900040000002D010400040000002D010A00040000002D010B00040000002D01090004
0000002D010400040000002D010A00040000002D010B000500000009020000FF0015000000FB02
10FF0000000000009001010000020700000054696D6573204E657720526F6D616E000200040000
002D010C00040000002D010500070000002105010078008D016B00040000002D010A0004000000
2D010B000700000021050100AE008D011E01040000002D010C00040000002D0105000700000021
05010041008D015E02040000002D010A00040000002D010B000700000021050100D7008D012103
040000002D010900040000002D010400040000002D010500070000002105010078008D01940304
0000002D01060007000000210501006100EF00FF0307000000210501006C00EF004A0407000000
210501007000EF00790407000000210501006800EF00CE0407000000210501006100EF00230504
0000002D010700040000002D01080007000000210501002D00EF00880515000000FB0256FF0000
000000009001000000020700000054696D6573204E657720526F6D616E000200040000002D010D
00040000002D01060007000000210501003100EF00FF05040000002D010A00040000002D010B00
0700000021050100D7008D018406040000002D010900040000002D010400070000002105010061
008D01F00607000000210501006C008D015B07070000002105010070008D019E07070000002105
010068008D011608070000002105010061008D018E08040000002D010A00040000002D010B0007
000000210501002D008D013509040000002D010900040000002D01040007000000210501006D00
8D01F509070000002105010075008D01AD0A09000000FA02000000000000000000002200040000
002D010E0004000000F001010007000000FC020000FFFFFF000000040000002D01010010000000
FB021000070000000000BC02000000000102022253797374656D0000040000002D010F00040000
002701FFFF04000000F001030004000000F001040004000000F001050004000000F00106000400
0000F001070004000000F001080004000000F001090004000000F0010A0004000000F0010B0004
000000F0010C0004000000F0010D00040000002701FFFF040000002701FFFF030000000000
}\plain\f6\fs22\cf1\protect 
\par    {\pict\wmetafile8\picw2084\pich968\picscalex99\picscaley99\picwgoal1182\pichgoal549
0100090000038D0200000E00180000000000050000000B0200000000050000000C02C803240803
0000001E00050000000C02CA032508050000000B0200000000030000001E00030000001E000500
00000C0226029E04050000000B0200000000050000000B020000000018000000FF060000060057
BC00002A000100020000C000C0FF3FFF3F020000C0FF3F00C0FF3F0200050000000102FFFF0400
00002D01000009000000FA02000000000000000000002200040000002D01010007000000FC0200
00000000000000040000002D01020010000000FB0210FF00000000000090010000000107000000
417269616C000100040000002D0103000400000002010100050000000102FFFFFF00040000002E
01180005000000090200000000040000000801000015000000FB0210FF00000000000090010000
00010700000054696D6573204E657720526F6D616E000100040000002D0104000B00000026060F
000C004D6174685479706500007B0015000000FB0210FF00000000000090010100000107000000
54696D6573204E657720526F6D616E000100040000002D010500040000002D010400040000002D
01050013000000FB0210FF000000000000900100000001070000005346204D6174682045787400
0100040000002D01060013000000FB0210FF000000000000900100000002070000005346204D61
746820457874000200040000002D01070015000000FB0210FF0000000000009001000000020700
000054696D6573204E657720526F6D616E000200040000002D010800040000002D010400040000
002D010600040000002D010700040000002D010800040000002D01040010000000FB0210FF0000
000000009001000000020700000053796D626F6C0002040000002D01090010000000FB0210FF00
00000000009001000000020700000053796D626F6C0002040000002D010A00040000002D010800
040000002D010400040000002D010900040000002D010A000500000009020000FF0015000000FB
0210FF0000000000009001010000020700000054696D6573204E657720526F6D616E0002000400
00002D010B00040000002D010500070000002105010078008C016B00040000002D010900040000
002D010A000700000021050100AE008C011E01040000002D010800040000002D01040007000000
210501006C008C01530207000000210501006E008C019602040000002D010600040000002D0107
00040000002D010800040000002D010400040000002D010600040000002D010700040000002D01
0800040000002D010400040000002D010600040000002D010700070000002105010028008C010E
03040000002D010800040000002D010400040000002D010500070000002105010078008C017203
040000002D010600040000002D010700040000002D010800040000002D010400040000002D0106
00040000002D010700040000002D010800040000002D010400040000002D010600040000002D01
0700070000002105010029008C01DD0309000000FA02000000000000000000002200040000002D
010C0004000000F001010007000000FC020000FFFFFF000000040000002D01010010000000FB02
1000070000000000BC02000000000102022253797374656D0000040000002D010D000400000027
01FFFF04000000F001030004000000F001040004000000F001050004000000F001060004000000
F001070004000000F001080004000000F001090004000000F0010A0004000000F0010B00040000
002701FFFF040000002701FFFF030000000000
}\plain\f6\fs22\cf1\protect 
\par    {\pict\wmetafile8\picw1539\pich1128\picscalex99\picscaley99\picwgoal873\pichgoal640
0100090000031A0200000E00180000000000050000000B0200000000050000000C026804030603
0000001E00050000000C0269040406050000000B0200000000030000001E00030000001E000500
00000C0280026903050000000B0200000000050000000B020000000018000000FF060000060064
BC00002A000100020000C000C0FF3FFF3F020000C0FF3F00C0FF3F0200050000000102FFFF0400
00002D01000009000000FA02000000000000000000002200040000002D01010007000000FC0200
00000000000000040000002D01020010000000FB0210FF00000000000090010000000107000000
417269616C000100040000002D0103000400000002010100050000000102FFFFFF00040000002E
01180005000000090200000000040000000801000015000000FB0210FF00000000000090010000
00010700000054696D6573204E657720526F6D616E000100040000002D0104000B00000026060F
000C004D617468547970650000BF0015000000FB0210FF00000000000090010100000107000000
54696D6573204E657720526F6D616E000100040000002D010500040000002D010400040000002D
010500040000002D01040010000000FB0210FF0000000000009001000000020700000053796D62
6F6C0002040000002D01060010000000FB0210FF0000000000009001000000020700000053796D
626F6C0002040000002D01070015000000FB0210FF000000000000900100000002070000005469
6D6573204E657720526F6D616E000200040000002D010800040000002D010400040000002D0106
00040000002D0107000500000009020000FF0015000000FB0210FF000000000000900101000002
0700000054696D6573204E657720526F6D616E000200040000002D010900040000002D01050007
00000021050100780091016B00040000002D010600040000002D0107000700000021050100AE00
91011E01040000002D010800040000002D0104000700000021050100310023017002040000002D
0105000700000021050100780019027A0213000000FB0210FF0000000000009001000000010700
00005346204D61746820457874000100040000002D010A0013000000FB0210FF00000000000090
0100000002070000005346204D61746820457874000200040000002D010B000700000021050100
C500400153020700000021050100C5004001750209000000FA0200000000000000000000220004
0000002D010C0004000000F001010007000000FC020000FFFFFF000000040000002D0101001000
0000FB021000070000000000BC02000000000102022253797374656D0000040000002D010D0004
0000002701FFFF04000000F001030004000000F001040004000000F001050004000000F0010600
04000000F001070004000000F001080004000000F001090004000000F0010A0004000000F0010B
00040000002701FFFF040000002701FFFF030000000000
}\plain\f6\fs22\cf1\protect 
\par    {\pict\wmetafile8\picw6725\pich968\picscalex99\picscaley99\picwgoal3813\pichgoal549
010009000003440500000E00180000000000050000000B0200000000050000000C02C803451A03
0000001E00050000000C02CA03471A050000000B0200000000030000001E00030000001E000500
00000C022602E60E050000000B0200000000050000000B020000000018000000FF060000060071
BC00002A000100020000C000C0FF3FFF3F020000C0FF3F00C0FF3F0200050000000102FFFF0400
00002D01000009000000FA02000000000000000000002200040000002D01010007000000FC0200
00000000000000040000002D01020010000000FB0210FF00000000000090010000000107000000
417269616C000100040000002D0103000400000002010100050000000102FFFFFF00040000002E
01180005000000090200000000040000000801000015000000FB0210FF00000000000090010000
00010700000054696D6573204E657720526F6D616E000100040000002D0104000B00000026060F
000C004D6174685479706500007B0015000000FB0210FF00000000000090010100000107000000
54696D6573204E657720526F6D616E000100040000002D010500040000002D01040013000000FB
0210FF000000000000900100000001070000005346204D61746820457874000100040000002D01
060013000000FB0210FF000000000000900100000002070000005346204D617468204578740002
00040000002D01070015000000FB0210FF0000000000009001000000020700000054696D657320
4E657720526F6D616E000200040000002D010800040000002D010400040000002D010600040000
002D010700040000002D010800040000002D010400040000002D010500040000002D0106000400
00002D010700040000002D010800040000002D010400040000002D010600040000002D01070004
0000002D010800040000002D010400040000002D010500040000002D010400040000002D010500
040000002D010600040000002D010700040000002D010800040000002D010400040000002D0106
00040000002D010700040000002D010800040000002D010400040000002D01050010000000FB02
10FF0000000000009001000000020700000053796D626F6C0002040000002D01090010000000FB
0210FF0000000000009001000000020700000053796D626F6C0002040000002D010A0004000000
2D010700040000002D010800040000002D010400040000002D010600040000002D010700040000
002D010800040000002D010400040000002D010900040000002D010A00040000002D0108000400
00002D010400040000002D010600040000002D010700040000002D010800040000002D01040004
0000002D010600040000002D010700040000002D010800040000002D010400040000002D010900
040000002D010A00040000002D010700040000002D010800040000002D010400040000002D0106
00040000002D010700040000002D010800040000002D010400040000002D010600040000002D01
0700040000002D010800040000002D010400040000002D010600040000002D010700040000002D
010800040000002D0104000500000009020000FF00040000002D010600040000002D0107000700
00002105010028008C016400040000002D010800040000002D010400040000002D010500070000
002105010063008C01C100040000002D01040007000000210501002C008C012C01040000002D01
050007000000210501006B008C01BC01040000002D01040007000000210501002C008C01310204
0000002D010500070000002105010070008C01DB02040000002D010600040000002D0107000400
00002D010800040000002D010400040000002D010600040000002D010700040000002D01080004
0000002D010400040000002D010600040000002D010700070000002105010029008C0153030400
00002D010A000700000021050100AE008C01F803040000002D010800040000002D010400070000
002105010055008C012D05070000002105010074008C01DA05070000002105010069008C011D06
07000000210501006C008C016006040000002D010600040000002D010700040000002D01080004
0000002D010400040000002D010600040000002D010700040000002D010800040000002D010400
040000002D010600040000002D010700070000002105010028008C01A306040000002D01080004
0000002D010400040000002D010500070000002105010063008C010007040000002D0106000400
00002D010700040000002D010800040000002D010400040000002D010600040000002D01070004
0000002D010800040000002D010400040000002D010600040000002D0107000700000021050100
29008C016B07040000002D010A0007000000210501002B008C010408040000002D010700040000
002D010800040000002D010400040000002D010600040000002D010700040000002D0108000400
00002D010400040000002D010900040000002D010A0015000000FB0210FF000000000000900101
0000020700000054696D6573204E657720526F6D616E000200040000002D010B00040000002D01
0500070000002105010070008C01DE08040000002D010900040000002D010A0007000000210501
00D7008C018609040000002D010700040000002D010800040000002D010400040000002D010600
040000002D010700040000002D010800040000002D010400040000002D010600040000002D0107
00040000002D010800040000002D010400040000002D010600040000002D010700040000002D01
0800040000002D010400040000002D010600040000002D010700070000002105010028008C01F2
09040000002D010800040000002D010400070000002105010066008C014F0A0700000021050100
70008C019F0A07000000210501006E008C01170B040000002D010600040000002D010700040000
002D010800040000002D010400040000002D010600040000002D010700040000002D0108000400
00002D010400040000002D010600040000002D010700070000002105010028008C018F0B040000
002D010800040000002D010400040000002D01050007000000210501006B008C01EC0B04000000
2D010600040000002D010700040000002D010800040000002D010400040000002D010600040000
002D010700040000002D010800040000002D010400040000002D010600040000002D0107000700
00002105010029008C01610C040000002D010A0007000000210501002D008C01FA0C040000002D
010B00040000002D010500070000002105010063008C01BA0D040000002D010600040000002D01
0700040000002D010800040000002D010400040000002D010600040000002D010700040000002D
010800040000002D010400040000002D010600040000002D010700070000002105010029008C01
250E09000000FA02000000000000000000002200040000002D010C0004000000F0010100070000
00FC020000FFFFFF000000040000002D01010010000000FB021000070000000000BC0200000000
0102022253797374656D0000040000002D010D00040000002701FFFF04000000F0010300040000
00F001040004000000F001050004000000F001060004000000F001070004000000F00108000400
0000F001090004000000F0010A0004000000F0010B00040000002701FFFF040000002701FFFF03
0000000000
}\plain\f6\fs22\cf1\protect 
\par    {\pict\wmetafile8\picw1368\pich1128\picscalex99\picscaley99\picwgoal776\pichgoal640
010009000003020200000E00180000000000050000000B0200000000050000000C026804580503
0000001E00050000000C0269045905050000000B0200000000030000001E00030000001E000500
00000C0280020803050000000B0200000000050000000B020000000018000000FF06000006007E
BC00002A000100020000C000C0FF3FFF3F020000C0FF3F00C0FF3F0200050000000102FFFF0400
00002D01000009000000FA02000000000000000000002200040000002D01010007000000FC0200
00000000000000040000002D01020010000000FB0210FF00000000000090010000000107000000
417269616C000100040000002D0103000400000002010100050000000102FFFFFF00040000002E
01180005000000090200000000040000000801000015000000FB0210FF00000000000090010000
00010700000054696D6573204E657720526F6D616E000100040000002D0104000B00000026060F
000C004D617468547970650000BF0015000000FB0210FF00000000000090010100000107000000
54696D6573204E657720526F6D616E000100040000002D010500040000002D010400040000002D
01050010000000FB0210FF0000000000009001000000020700000053796D626F6C000204000000
2D01060010000000FB0210FF0000000000009001000000020700000053796D626F6C0002040000
002D01070015000000FB0210FF0000000000009001000000020700000054696D6573204E657720
526F6D616E000200040000002D010800040000002D0104000500000009020000FF000700000021
050100310023018100040000002D010500070000002105010063001902870013000000FB0210FF
000000000000900100000001070000005346204D61746820457874000100040000002D01090013
000000FB0210FF000000000000900100000002070000005346204D617468204578740002000400
00002D010A000700000021050100C500400164000700000021050100C50040018600040000002D
01070007000000210501002D009101520115000000FB0210FF0000000000009001010000020700
000054696D6573204E657720526F6D616E000200040000002D010B00040000002D010500070000
0021050100700091012C0209000000FA02000000000000000000002200040000002D010C000400
0000F001010007000000FC020000FFFFFF000000040000002D01010010000000FB021000070000
000000BC02000000000102022253797374656D0000040000002D010D00040000002701FFFF0400
0000F001030004000000F001040004000000F001050004000000F001060004000000F001070004
000000F001080004000000F001090004000000F0010A0004000000F0010B00040000002701FFFF
040000002701FFFF030000000000
}\plain\f6\fs22\cf1\protect 
\par    {\pict\wmetafile8\picw5642\pich971\picscalex99\picscaley99\picwgoal3199\pichgoal551
010009000003020400001200180000000000050000000B0200000000050000000C02CB030A1603
0000001E00050000000C02CC030B16050000000B0200000000030000001E00030000001E000500
00000C0227027F0C050000000B0200000000050000000B020000000018000000FF06000006008B
BC00002A000100020000C000C0FF3FFF3F020000C0FF3F00C0FF3F0200050000000102FFFF0400
00002D01000009000000FA02000000000000000000002200040000002D01010007000000FC0200
00000000000000040000002D01020010000000FB0210FF00000000000090010000000107000000
417269616C000100040000002D0103000400000002010100050000000102FFFFFF00040000002E
01180005000000090200000000040000000801000015000000FB0210FF00000000000090010000
00010700000054696D6573204E657720526F6D616E000100040000002D0104000B00000026060F
000C004D6174685479706500007B0015000000FB0210FF00000000000090010100000107000000
54696D6573204E657720526F6D616E000100040000002D010500040000002D010400040000002D
010500040000002D010400040000002D01050015000000FB0256FF000000000000900100000001
0700000054696D6573204E657720526F6D616E000100040000002D01060010000000FB0256FF00
00000000009001000000020700000053796D626F6C0002040000002D01070010000000FB0256FF
0000000000009001000000020700000053796D626F6C0002040000002D01080015000000FB0210
FF0000000000009001000000020700000054696D6573204E657720526F6D616E00020004000000
2D010900040000002D01040010000000FB0210FF0000000000009001000000020700000053796D
626F6C0002040000002D010A0010000000FB0210FF000000000000900100000002070000005379
6D626F6C0002040000002D010B0013000000FB0210FF0000000000009001000000020700000053
46204D61746820457874000200040000002D010C00040000002D010900040000002D0104001300
0000FB0210FF000000000000900100000001070000005346204D61746820457874000100040000
002D010D00040000002D010C00040000002D010900040000002D010400040000002D010D000400
00002D010C00040000002D010B00040000002D010900040000002D010400040000002D010A0004
0000002D010B000500000009020000FF0007000000210501002D008D018800040000002D010C00
040000002D010900040000002D010400040000002D010D00040000002D010C00040000002D0109
00040000002D010400040000002D010D00040000002D010C00040000002D010B0015000000FB02
10FF0000000000009001010000020700000054696D6573204E657720526F6D616E000200040000
002D010E00040000002D010500070000002105010070008D015601040000002D010A0004000000
2D010B000700000021050100D7008D01FE01040000002D010C00040000002D010900040000002D
010400040000002D010D00040000002D010C00040000002D010900040000002D01040004000000
2D010D00040000002D010C00040000002D010900040000002D010400040000002D010D00040000
002D010C00040000002D010900040000002D010400040000002D010D00040000002D010C000700
000021050100A10082006A02040000002D010900040000002D01040007000000210501006D008D
01D802070000002105010075008D019003040000002D010A00040000002D010B00070000002105
01002D008D014404040000002D010E00040000002D010500070000002105010041008D010F0504
0000002D010A00040000002D010B000700000021050100D7008D01D205040000002D0109000400
00002D010400040000002D01050007000000210501006B008D013E06040000002D010600070000
00210501006100EF00B30607000000210501006C00EF00FE0607000000210501007000EF002D07
07000000210501006800EF00820707000000210501006100EF00D707040000002D010700040000
002D01080007000000210501002D00EF003C0815000000FB0256FF000000000000900100000002
0700000054696D6573204E657720526F6D616E000200040000002D010F00040000002D01060007
000000210501003100EF00B308040000002D010A00040000002D010B000700000021050100D700
8D013809040000002D010900040000002D010400070000002105010061008D01A4090700000021
0501006C008D010F0A070000002105010070008D01520A070000002105010068008D01CA0A0700
00002105010061008D01420B040000002D010D00040000002D010C00040000002D010900040000
002D010400040000002D010D00040000002D010C00040000002D010900040000002D0104000400
00002D010D00040000002D010C000700000021050100A2008200AD0B09000000FA020000000000
00000000002200040000002D01100004000000F001010007000000FC020000FFFFFF0000000400
00002D01010010000000FB021000070000000000BC02000000000102022253797374656D000004
0000002D011100040000002701FFFF04000000F001030004000000F001040004000000F0010500
04000000F001060004000000F001070004000000F001080004000000F001090004000000F0010A
0004000000F0010B0004000000F0010C0004000000F0010D0004000000F0010E0004000000F001
0F00040000002701FFFF040000002701FFFF030000000000
}\plain\f6\fs22\cf1\protect 
\par    {\pict\wmetafile8\picw2250\pich1213\picscalex99\picscaley99\picwgoal1276\pichgoal688
0100090000031F0300000E00180000000000050000000B0200000000050000000C02BD04CA0803
0000001E00050000000C02BF04CC08050000000B0200000000030000001E00030000001E000500
00000C02B102FD04050000000B0200000000050000000B020000000018000000FF06000006009C
BC00002A000100020000C000C0FF3FFF3F020000C0FF3F00C0FF3F0200050000000102FFFF0400
00002D01000009000000FA02000000000000000000002200040000002D01010007000000FC0200
00000000000000040000002D01020010000000FB0210FF00000000000090010000000107000000
417269616C000100040000002D0103000400000002010100050000000102FFFFFF00040000002E
01180005000000090200000000040000000801000015000000FB0210FF00000000000090010000
00010700000054696D6573204E657720526F6D616E000100040000002D0104000B00000026060F
000C004D617468547970650000E60015000000FB0210FF00000000000090010100000107000000
54696D6573204E657720526F6D616E000100040000002D01050013000000FB0210FF0000000000
00900100000001070000005346204D61746820457874000100040000002D01060013000000FB02
10FF000000000000900100000002070000005346204D61746820457874000200040000002D0107
0015000000FB0210FF0000000000009001000000020700000054696D6573204E657720526F6D61
6E000200040000002D010800040000002D010400040000002D010600040000002D010700040000
002D010800040000002D010400040000002D010500040000002D010600040000002D0107000400
00002D010800040000002D010400040000002D010600040000002D010700040000002D01080004
0000002D01040010000000FB0210FF0000000000009001000000020700000053796D626F6C0002
040000002D01090010000000FB0210FF0000000000009001000000020700000053796D626F6C00
02040000002D010A00040000002D010800040000002D0104000500000009020000FF0007000000
2105010031002301FB00040000002D010500070000002105010063001D028100040000002D0106
00040000002D010700040000002D010800040000002D010400040000002D010600040000002D01
0700040000002D010800040000002D010400040000002D010600040000002D0107000700000021
05010028001D02EC00040000002D010800040000002D010400040000002D010500070000002105
010074001D024901040000002D010600040000002D010700040000002D010800040000002D0104
00040000002D010600040000002D010700040000002D010800040000002D010400040000002D01
0600040000002D010700070000002105010029001D0290010700000021050100C5004001640007
00000021050100C5004001F4000700000021050100C50040017A01040000002D010A0007000000
210501002D009101460215000000FB0210FF0000000000009001010000020700000054696D6573
204E657720526F6D616E000200040000002D010B00040000002D01050007000000210501007000
91012003040000002D010600040000002D010700040000002D010800040000002D010400040000
002D010600040000002D010700040000002D010800040000002D010400040000002D0106000400
00002D0107000700000021050100280091019803040000002D010800040000002D010400040000
002D010500070000002105010074009101F503040000002D010600040000002D01070004000000
2D010800040000002D010400040000002D010600040000002D010700040000002D010800040000
002D010400040000002D010600040000002D0107000700000021050100290091013C0409000000
FA02000000000000000000002200040000002D010C0004000000F001010007000000FC020000FF
FFFF000000040000002D01010010000000FB021000070000000000BC0200000000010202225379
7374656D0000040000002D010D00040000002701FFFF04000000F001030004000000F001040004
000000F001050004000000F001060004000000F001070004000000F001080004000000F0010900
04000000F0010A0004000000F0010B00040000002701FFFF040000002701FFFF030000000000
}\plain\f6\fs22\cf1\protect 
\par    {\pict\wmetafile8\picw6547\pich971\picscalex99\picscaley99\picwgoal3712\pichgoal551
010009000003140500001200180000000000050000000B0200000000050000000C02CB03931903
0000001E00050000000C02CC039519050000000B0200000000030000001E00030000001E000500
00000C022702810E050000000B0200000000050000000B020000000018000000FF0600000600A9
BC00002A000100020000C000C0FF3FFF3F020000C0FF3F00C0FF3F0200050000000102FFFF0400
00002D01000009000000FA02000000000000000000002200040000002D01010007000000FC0200
00000000000000040000002D01020010000000FB0210FF00000000000090010000000107000000
417269616C000100040000002D0103000400000002010100050000000102FFFFFF00040000002E
01180005000000090200000000040000000801000015000000FB0210FF00000000000090010000
00010700000054696D6573204E657720526F6D616E000100040000002D0104000B00000026060F
000C004D6174685479706500007B0015000000FB0210FF00000000000090010100000107000000
54696D6573204E657720526F6D616E000100040000002D01050013000000FB0210FF0000000000
00900100000001070000005346204D61746820457874000100040000002D01060013000000FB02
10FF000000000000900100000002070000005346204D61746820457874000200040000002D0107
0015000000FB0210FF0000000000009001000000020700000054696D6573204E657720526F6D61
6E000200040000002D010800040000002D010400040000002D010600040000002D010700040000
002D010800040000002D010400040000002D010500040000002D010400040000002D0105000400
00002D010600040000002D010700040000002D010800040000002D010400040000002D01060004
0000002D010700040000002D010800040000002D01040015000000FB0256FF0000000000009001
000000010700000054696D6573204E657720526F6D616E000100040000002D01090010000000FB
0256FF0000000000009001000000020700000053796D626F6C0002040000002D010A0010000000
FB0256FF0000000000009001000000020700000053796D626F6C0002040000002D010B00100000
00FB0210FF0000000000009001000000020700000053796D626F6C0002040000002D010C000400
00002D010700040000002D010800040000002D010400040000002D010600040000002D01070004
0000002D010800040000002D010400040000002D010600040000002D010700040000002D010C00
040000002D010800040000002D01040010000000FB0210FF000000000000900100000002070000
0053796D626F6C0002040000002D010D00040000002D010C000500000009020000FF0007000000
210501002D008D018800040000002D010700040000002D010800040000002D010400040000002D
010600040000002D010700040000002D010800040000002D010400040000002D01060004000000
2D010700040000002D010C0015000000FB0210FF0000000000009001010000020700000054696D
6573204E657720526F6D616E000200040000002D010E00040000002D0105000700000021050100
70008D015601040000002D010600040000002D010700040000002D010800040000002D01040004
0000002D010600040000002D010700040000002D010800040000002D010400040000002D010600
040000002D010700070000002105010028008D01CE01040000002D010800040000002D01040004
0000002D010500070000002105010074008D012B02040000002D010600040000002D0107000400
00002D010800040000002D010400040000002D010600040000002D010700040000002D01080004
0000002D010400040000002D010600040000002D010700070000002105010029008D0172020400
00002D010C000700000021050100D7008D01FF02040000002D010700040000002D010800040000
002D010400040000002D010600040000002D010700040000002D010800040000002D0104000400
00002D010600040000002D010700040000002D010800040000002D010400040000002D01060004
0000002D010700040000002D010800040000002D010400040000002D010600040000002D010700
0700000021050100A10082006B03040000002D010800040000002D01040007000000210501006D
008D01D903070000002105010075008D019104040000002D010D00040000002D010C0007000000
210501002D008D014505040000002D010E00040000002D010500070000002105010041008D0110
06040000002D010D00040000002D010C000700000021050100D7008D01D306040000002D010800
040000002D010400070000002105010061008D013F0707000000210501006C008D01AA07070000
002105010070008D01ED07070000002105010068008D016508070000002105010061008D01DD08
040000002D010D00040000002D010C000700000021050100D7008D017809040000002D01080004
0000002D010400040000002D01050007000000210501006B008D01E409040000002D0106000400
00002D010700040000002D010800040000002D010400040000002D010600040000002D01070004
0000002D010800040000002D010400040000002D010600040000002D0107000700000021050100
28008D01590A040000002D010800040000002D010400040000002D010500070000002105010074
008D01B60A040000002D010600040000002D010700040000002D010800040000002D0104000400
00002D010600040000002D010700040000002D010800040000002D010400040000002D01060004
0000002D010700070000002105010029008D01FD0A15000000FB0256FF00000000000090010000
00020700000054696D6573204E657720526F6D616E000200040000002D010F00040000002D0109
0007000000210501006100EF005A0B07000000210501006C00EF00A50B07000000210501007000
EF00D40B07000000210501006800EF00290C07000000210501006100EF007E0C040000002D010A
00040000002D010B0007000000210501002D00EF00E30C040000002D010F00040000002D010900
07000000210501003100EF005A0D040000002D010600040000002D010700040000002D01080004
0000002D010400040000002D010600040000002D010700040000002D010800040000002D010400
040000002D010600040000002D0107000700000021050100A2008200AF0D09000000FA02000000
000000000000002200040000002D01100004000000F001010007000000FC020000FFFFFF000000
040000002D01010010000000FB021000070000000000BC02000000000102022253797374656D00
00040000002D011100040000002701FFFF04000000F001030004000000F001040004000000F001
050004000000F001060004000000F001070004000000F001080004000000F001090004000000F0
010A0004000000F0010B0004000000F0010C0004000000F0010D0004000000F0010E0004000000
F0010F00040000002701FFFF040000002701FFFF030000000000
}\plain\f6\fs22\cf1\protect 
\par    {\pict\wmetafile8\picw9736\pich1682\picscalex99\picscaley99\picwgoal5520\pichgoal954
010009000003420700001200180000000000050000000B0200000000050000000C029206082603
0000001E00050000000C0293060A26050000000B0200000000030000001E00030000001E000500
00000C02BA039115050000000B0200000000050000000B020000000018000000FF0600000600BA
BC00002A000100020000C000C0FF3FFF3F020000C0FF3F00C0FF3F0200050000000102FFFF0400
00002D01000009000000FA02000000000000000000002200040000002D01010007000000FC0200
00000000000000040000002D01020010000000FB0210FF00000000000090010000000107000000
417269616C000100040000002D0103000400000002010100050000000102FFFFFF00040000002E
01180005000000090200000000040000000801000015000000FB0210FF00000000000090010000
00010700000054696D6573204E657720526F6D616E000100040000002D0104000B00000026060F
000C004D6174685479706500003C0115000000FB0210FF00000000000090010100000107000000
54696D6573204E657720526F6D616E000100040000002D01050013000000FB0210FF0000000000
00900100000001070000005346204D61746820457874000100040000002D01060013000000FB02
10FF000000000000900100000002070000005346204D61746820457874000200040000002D0107
0015000000FB0210FF0000000000009001000000020700000054696D6573204E657720526F6D61
6E000200040000002D010800040000002D010400040000002D010600040000002D010700040000
002D010800040000002D01040010000000FB0210FF000000000000900100000002070000005379
6D626F6C0002040000002D01090010000000FB0210FF0000000000009001000000020700000053
796D626F6C0002040000002D010A00040000002D010800040000002D010400040000002D010500
040000002D010900040000002D010A00040000002D010800040000002D010400040000002D0105
00040000002D010600040000002D010700040000002D010800040000002D010400040000002D01
0600040000002D010700040000002D010800040000002D010400040000002D010500040000002D
010400040000002D010500040000002D010600040000002D010700040000002D01080004000000
2D010400040000002D010600040000002D010700040000002D010800040000002D010400150000
00FB0256FF0000000000009001000000010700000054696D6573204E657720526F6D616E000100
040000002D010B0010000000FB0256FF0000000000009001000000020700000053796D626F6C00
02040000002D010C0010000000FB0256FF0000000000009001000000020700000053796D626F6C
0002040000002D010D00040000002D010A00040000002D010700040000002D010800040000002D
010400040000002D010600040000002D010700040000002D010800040000002D01040004000000
2D010600040000002D010700040000002D010A00040000002D010800040000002D010400040000
002D010500040000002D010600040000002D010700040000002D010800040000002D0104000400
00002D010600040000002D010700040000002D010800040000002D010400040000002D01090004
0000002D010A00040000002D010800040000002D010400040000002D010900040000002D010A00
040000002D010800040000002D010400040000002D010900040000002D010A00040000002D0108
00040000002D010400040000002D010900040000002D010A00040000002D010800040000002D01
0400040000002D010900040000002D010A00040000002D010800040000002D0104000500000009
020000FF00040000002D010900040000002D010A000700000021050100B6008C01A40007000000
21050100B6002203810015000000FB0210FF0000000000009001010000020700000054696D6573
204E657720526F6D616E000200040000002D010E00040000002D01050007000000210501007400
22031C01040000002D010600040000002D0107000700000021050100C500DD0164000700000021
050100C500DD01F000040000002D010800040000002D010400070000002105010020002E028001
040000002D010500070000002105010070002E02D601040000002D010600040000002D01070004
0000002D010800040000002D010400040000002D010600040000002D010700040000002D010800
040000002D010400040000002D010600040000002D010700070000002105010028002E024E0204
0000002D010800040000002D010400040000002D010500070000002105010074002E02AB020400
00002D010600040000002D010700040000002D010800040000002D010400040000002D01060004
0000002D010700040000002D010800040000002D010400040000002D010600040000002D010700
070000002105010029002E02F202040000002D010A0007000000210501002D002E028B03040000
002D010700040000002D010800040000002D010400040000002D010600040000002D0107000400
00002D010800040000002D010400040000002D010600040000002D010700040000002D010A0004
0000002D010E00040000002D010500070000002105010070002E026504040000002D0106000400
00002D010700040000002D010800040000002D010400040000002D010600040000002D01070004
0000002D010800040000002D010400040000002D010600040000002D0107000700000021050100
28002E02DD04040000002D010800040000002D010400040000002D010500070000002105010074
002E023A05040000002D010600040000002D010700040000002D010800040000002D0104000400
00002D010600040000002D010700040000002D010800040000002D010400040000002D01060004
0000002D010700070000002105010029002E028105040000002D010A000700000021050100D700
2E020E06040000002D010700040000002D010800040000002D010400040000002D010600040000
002D010700040000002D010800040000002D010400040000002D010600040000002D0107000400
00002D010800040000002D010400040000002D010600040000002D010700040000002D01080004
0000002D010400040000002D010600040000002D0107000700000021050100A10023017A060400
00002D010800040000002D01040007000000210501006D002E02E806070000002105010075002E
02A007040000002D010900040000002D010A0007000000210501002D002E025408040000002D01
0E00040000002D010500070000002105010041002E021F09040000002D010900040000002D010A
000700000021050100D7002E02E209040000002D010800040000002D0104000700000021050100
61002E024E0A07000000210501006C002E02B90A070000002105010070002E02FC0A0700000021
05010068002E02740B070000002105010061002E02EC0B040000002D010900040000002D010A00
0700000021050100D7002E02870C040000002D010800040000002D010400040000002D01050007
000000210501006B002E02F30C040000002D010600040000002D010700040000002D0108000400
00002D010400040000002D010600040000002D010700040000002D010800040000002D01040004
0000002D010600040000002D010700070000002105010028002E02680D040000002D0108000400
00002D010400040000002D010500070000002105010074002E02C50D040000002D010600040000
002D010700040000002D010800040000002D010400040000002D010600040000002D0107000400
00002D010800040000002D010400040000002D010600040000002D010700070000002105010029
002E020C0E15000000FB0256FF0000000000009001000000020700000054696D6573204E657720
526F6D616E000200040000002D010F00040000002D010B00070000002105010061009001690E07
000000210501006C009001B40E070000002105010070009001E30E070000002105010068009001
380F0700000021050100610090018D0F040000002D010C00040000002D010D0007000000210501
002D009001F20F040000002D010F00040000002D010B0007000000210501003100900169100400
00002D010600040000002D010700040000002D010800040000002D010400040000002D01060004
0000002D010700040000002D010800040000002D010400040000002D010600040000002D010700
0700000021050100A2002301BE10040000002D010A0007000000210501002D002E026811040000
002D010800040000002D010400070000002105010070002E022912070000002105010073002E02
A112040000002D010900040000002D010A000700000021050100D7002E022E13040000002D010E
00040000002D010500070000002105010070002E02B413040000002D010600040000002D010700
040000002D010800040000002D010400040000002D010600040000002D010700040000002D0108
00040000002D010400040000002D010600040000002D010700070000002105010028002E022C14
040000002D010800040000002D010400040000002D010500070000002105010074002E02891404
0000002D010600040000002D010700040000002D010800040000002D010400040000002D010600
040000002D010700040000002D010800040000002D010400040000002D010600040000002D0107
00070000002105010029002E02D01409000000FA02000000000000000000002200040000002D01
100004000000F001010007000000FC020000FFFFFF000000040000002D01010010000000FB0210
00070000000000BC02000000000102022253797374656D0000040000002D011100040000002701
FFFF04000000F001030004000000F001040004000000F001050004000000F001060004000000F0
01070004000000F001080004000000F001090004000000F0010A0004000000F0010B0004000000
F0010C0004000000F0010D0004000000F0010E0004000000F0010F00040000002701FFFF040000
002701FFFF030000000000
}\plain\f6\fs22\cf1\protect 
\par    {\pict\wmetafile8\picw7879\pich1684\picscalex99\picscaley99\picwgoal4467\pichgoal955
010009000003050700001200180000000000050000000B0200000000050000000C029406C71E03
0000001E00050000000C029506C91E050000000B0200000000030000001E00030000001E000500
00000C02BB037411050000000B0200000000050000000B020000000018000000FF0600000600CB
BC00002A000100020000C000C0FF3FFF3F020000C0FF3F00C0FF3F0200050000000102FFFF0400
00002D01000009000000FA02000000000000000000002200040000002D01010007000000FC0200
00000000000000040000002D01020010000000FB0210FF00000000000090010000000107000000
417269616C000100040000002D0103000400000002010100050000000102FFFFFF00040000002E
01180005000000090200000000040000000801000015000000FB0210FF00000000000090010000
00010700000054696D6573204E657720526F6D616E000100040000002D0104000B00000026060F
000C004D6174685479706500003C0115000000FB0210FF00000000000090010100000107000000
54696D6573204E657720526F6D616E000100040000002D01050013000000FB0210FF0000000000
00900100000001070000005346204D61746820457874000100040000002D01060013000000FB02
10FF000000000000900100000002070000005346204D61746820457874000200040000002D0107
0015000000FB0210FF0000000000009001000000020700000054696D6573204E657720526F6D61
6E000200040000002D010800040000002D010400040000002D010600040000002D010700040000
002D010800040000002D01040010000000FB0210FF000000000000900100000002070000005379
6D626F6C0002040000002D01090010000000FB0210FF0000000000009001000000020700000053
796D626F6C0002040000002D010A00040000002D010800040000002D010400040000002D010500
040000002D010900040000002D010A00040000002D010800040000002D010400040000002D0105
00040000002D010400040000002D010500040000002D010600040000002D010700040000002D01
0800040000002D010400040000002D010600040000002D010700040000002D010800040000002D
01040015000000FB0256FF0000000000009001000000010700000054696D6573204E657720526F
6D616E000100040000002D010B0010000000FB0256FF0000000000009001000000020700000053
796D626F6C0002040000002D010C0010000000FB0256FF00000000000090010000000207000000
53796D626F6C0002040000002D010D00040000002D010A00040000002D010800040000002D0104
00040000002D010500040000002D010600040000002D010700040000002D010800040000002D01
0400040000002D010600040000002D010700040000002D010800040000002D010400040000002D
010500040000002D010600040000002D010700040000002D010800040000002D01040004000000
2D010600040000002D010700040000002D010800040000002D010400040000002D010900040000
002D010A00040000002D010800040000002D010400040000002D010900040000002D010A000400
00002D010800040000002D010400040000002D010900040000002D010A00040000002D01080004
0000002D010400040000002D010900040000002D010A00040000002D010800040000002D010400
040000002D010900040000002D010A00040000002D010800040000002D01040005000000090200
00FF00040000002D010900040000002D010A000700000021050100B6008D01A400070000002105
0100B6002303810015000000FB0210FF0000000000009001010000020700000054696D6573204E
657720526F6D616E000200040000002D010E00040000002D010500070000002105010074002303
1C01040000002D010600040000002D0107000700000021050100C500DE01640007000000210501
00C500DE01F000040000002D010800040000002D010400070000002105010020002F0280010700
0000210501003100C1015302040000002D01050007000000210501006300BB02D901040000002D
010600040000002D010700040000002D010800040000002D010400040000002D01060004000000
2D010700040000002D010800040000002D010400040000002D010600040000002D010700070000
00210501002800BB024402040000002D010800040000002D010400040000002D01050007000000
210501007400BB02A102040000002D010600040000002D010700040000002D010800040000002D
010400040000002D010600040000002D010700040000002D010800040000002D01040004000000
2D010600040000002D01070007000000210501002900BB02E8020700000021050100C500DE01BC
010700000021050100C500DE014C020700000021050100C500DE01D202040000002D010A000700
0000210501002D002F029E03040000002D010800040000002D01040007000000210501006D008D
017B04070000002105010075008D013305040000002D010900040000002D010A00070000002105
01002D008D01E705040000002D010E00040000002D010500070000002105010041008D01B20604
0000002D010900040000002D010A000700000021050100D7008D017507040000002D0108000400
00002D010400070000002105010061008D01E10707000000210501006C008D014C080700000021
05010070008D018F08070000002105010068008D010709070000002105010061008D017F090400
00002D010900040000002D010A000700000021050100D7008D011A0A040000002D010800040000
002D010400040000002D01050007000000210501006B008D01860A040000002D01060004000000
2D010700040000002D010800040000002D010400040000002D010600040000002D010700040000
002D010800040000002D010400040000002D010600040000002D01070007000000210501002800
8D01FB0A040000002D010800040000002D010400040000002D010500070000002105010074008D
01580B040000002D010600040000002D010700040000002D010800040000002D01040004000000
2D010600040000002D010700040000002D010800040000002D010400040000002D010600040000
002D010700070000002105010029008D019F0B15000000FB0256FF000000000000900100000002
0700000054696D6573204E657720526F6D616E000200040000002D010F00040000002D010B0007
000000210501006100EF00FC0B07000000210501006C00EF00470C07000000210501007000EF00
760C07000000210501006800EF00CB0C07000000210501006100EF00200D040000002D010C0004
0000002D010D0007000000210501002D00EF00850D040000002D010F00040000002D010B000700
0000210501003100EF00FC0D040000002D01050007000000210501006300BB02B008040000002D
010600040000002D010700040000002D010800040000002D010400040000002D01060004000000
2D010700040000002D010800040000002D010400040000002D010600040000002D010700070000
00210501002800BB021B09040000002D010800040000002D010400040000002D01050007000000
210501007400BB027809040000002D010600040000002D010700040000002D010800040000002D
010400040000002D010600040000002D010700040000002D010800040000002D01040004000000
2D010600040000002D01070007000000210501002900BB02BF090700000021050100C500DE015E
040700000021050100C500DE01EE040700000021050100C500DE017E050700000021050100C500
DE010E060700000021050100C500DE019E060700000021050100C500DE012E0707000000210501
00C500DE01BE070700000021050100C500DE014E080700000021050100C500DE01DE0807000000
21050100C500DE016E090700000021050100C500DE01FE090700000021050100C500DE018E0A07
00000021050100C500DE011E0B0700000021050100C500DE01AE0B0700000021050100C500DE01
3E0C0700000021050100C500DE01CE0C0700000021050100C500DE015E0D0700000021050100C5
00DE01DE0D040000002D010A0007000000210501002D002F02AA0E040000002D01080004000000
2D010400070000002105010070008E01D30F070000002105010073008E014B10040000002D0105
0007000000210501006300BB02870F040000002D010600040000002D010700040000002D010800
040000002D010400040000002D010600040000002D010700040000002D010800040000002D0104
00040000002D010600040000002D01070007000000210501002800BB02F20F040000002D010800
040000002D010400040000002D01050007000000210501007400BB024F10040000002D01060004
0000002D010700040000002D010800040000002D010400040000002D010600040000002D010700
040000002D010800040000002D010400040000002D010600040000002D01070007000000210501
002900BB0296100700000021050100C500DE016A0F0700000021050100C500DE01FA0F07000000
21050100C500DE01801009000000FA02000000000000000000002200040000002D011000040000
00F001010007000000FC020000FFFFFF000000040000002D01010010000000FB02100007000000
0000BC02000000000102022253797374656D0000040000002D011100040000002701FFFF040000
00F001030004000000F001040004000000F001050004000000F001060004000000F00107000400
0000F001080004000000F001090004000000F0010A0004000000F0010B0004000000F0010C0004
000000F0010D0004000000F0010E0004000000F0010F00040000002701FFFF040000002701FFFF
030000000000
}\plain\f6\fs22\cf1\protect 
\par    {\pict\wmetafile8\picw12800\pich1825\picscalex99\picscaley99\picwgoal7257\pichgoal1035
0100090000038F0B00001400180000000000050000000B0200000000050000000C022107003203
0000001E00050000000C0222070132050000000B0200000000030000001E00030000001E000500
00000C020B04591C050000000B0200000000050000000B020000000018000000FF0600000600DC
BC00002A000100020000C000C0FF3FFF3F020000C0FF3F00C0FF3F0200050000000102FFFF0400
00002D01000009000000FA02000000000000000000002200040000002D01010007000000FC0200
00000000000000040000002D01020010000000FB0210FF00000000000090010000000107000000
417269616C000100040000002D0103000400000002010100050000000102FFFFFF00040000002E
01180005000000090200000000040000000801000015000000FB0210FF00000000000090010000
00010700000054696D6573204E657720526F6D616E000100040000002D0104000B00000026060F
000C004D617468547970650000E80015000000FB0210FF00000000000090010100000107000000
54696D6573204E657720526F6D616E000100040000002D01050013000000FB0210FF0000000000
00900100000001070000005346204D61746820457874000100040000002D01060013000000FB02
10FF000000000000900100000002070000005346204D61746820457874000200040000002D0107
0015000000FB0210FF0000000000009001000000020700000054696D6573204E657720526F6D61
6E000200040000002D010800040000002D010400040000002D010600040000002D010700040000
002D010800040000002D010400040000002D010500040000002D010600040000002D0107000400
00002D010800040000002D010400040000002D010600040000002D010700040000002D01080004
0000002D01040010000000FB0256FF0000000000009001000000020700000053796D626F6C0002
040000002D01090010000000FB0256FF0000000000009001000000020700000053796D626F6C00
02040000002D010A0015000000FB0256FF0000000000009001000000020700000054696D657320
4E657720526F6D616E000200040000002D010B0015000000FB0256FF0000000000009001000000
010700000054696D6573204E657720526F6D616E000100040000002D010C0015000000FB0256FF
0000000000009001010000010700000054696D6573204E657720526F6D616E000100040000002D
010D00040000002D010900040000002D010A00040000002D010B00040000002D010C0004000000
2D01040010000000FB0210FF0000000000009001000000020700000053796D626F6C0002040000
002D010E0010000000FB0210FF0000000000009001000000020700000053796D626F6C00020400
00002D010F00040000002D010800040000002D010400040000002D010500040000002D01060004
0000002D010700040000002D010800040000002D010400040000002D010600040000002D010700
040000002D010800040000002D010400040000002D010500040000002D010600040000002D0107
00040000002D010800040000002D010400040000002D010600040000002D010700040000002D01
0800040000002D010400040000002D010E00040000002D010F00040000002D010800040000002D
010400040000002D010500040000002D010600040000002D010700040000002D01080004000000
2D010400040000002D010600040000002D010700040000002D010800040000002D010400040000
002D010500040000002D010600040000002D010700040000002D010800040000002D0104000400
00002D010600040000002D010700040000002D010800040000002D010400040000002D010E0004
0000002D010F0015000000FB0210FF0000000000009001010000020700000054696D6573204E65
7720526F6D616E000200040000002D011000040000002D010500040000002D010400040000002D
010500040000002D010600040000002D010700040000002D010800040000002D01040004000000
2D010600040000002D010700040000002D010800040000002D010400040000002D010500040000
002D010600040000002D010700040000002D010800040000002D010400040000002D0106000400
00002D010700040000002D010800040000002D010400040000002D010C00040000002D010E0004
0000002D010F00040000002D010800040000002D010400040000002D010500040000002D010600
040000002D010700040000002D010800040000002D010400040000002D010600040000002D0107
00040000002D010800040000002D010400040000002D010E00040000002D010F00040000002D01
0800040000002D010400040000002D010E00040000002D010F000500000009020000FF00070000
00210501002D00E8028800040000002D010800040000002D010400040000002D010E0004000000
2D010F00040000002D011000040000002D01050007000000210501006B00C0015901040000002D
010600040000002D010700040000002D010800040000002D010400040000002D01060004000000
2D010700040000002D010800040000002D010400040000002D010600040000002D010700070000
00210501002800C001CE01040000002D010800040000002D010400040000002D01050007000000
210501007400C0012B02040000002D010600040000002D010700040000002D010800040000002D
010400040000002D010600040000002D010700040000002D010800040000002D01040004000000
2D010600040000002D01070007000000210501002900C0017202040000002D010F000700000021
050100D700C001FF02040000002D010800040000002D010400040000002D010900040000002D01
0A00040000002D010B00040000002D010C00040000002D010900040000002D010A00040000002D
010B00040000002D010C00040000002D010400040000002D010900040000002D010A0004000000
2D010B00040000002D010C00040000002D010900040000002D010A00040000002D010B00040000
002D010C00040000002D010900040000002D010A000700000021050100B6003501990307000000
21050100B6005502800315000000FB0256FF0000000000009001010000020700000054696D6573
204E657720526F6D616E000200040000002D011100040000002D010D0007000000210501007400
5502ED03040000002D010600040000002D0107000700000021050100C5006F016B030700000021
050100C5006F01A503040000002D010800040000002D01040007000000210501002000C0013504
040000002D01050007000000210501006300C0017104040000002D010600040000002D01070004
0000002D010800040000002D010400040000002D010600040000002D010700040000002D010800
040000002D010400040000002D010600040000002D01070007000000210501002800C001DC0404
0000002D010800040000002D010400040000002D01050007000000210501007400C00139050400
00002D010600040000002D010700040000002D010800040000002D010400040000002D01060004
0000002D010700040000002D010800040000002D010400040000002D010600040000002D010700
07000000210501002900C0018005040000002D010F0007000000210501002B00C0011906040000
002D010800040000002D01040007000000210501006D00C001D90607000000210501007500C001
9107040000002D010E00040000002D010F000700000021050100D700C0013908040000002D0110
00040000002D01050007000000210501006300C001A508040000002D010600040000002D010700
040000002D010800040000002D010400040000002D010600040000002D010700040000002D0108
00040000002D010400040000002D010600040000002D01070007000000210501002800C0011009
040000002D010800040000002D010400040000002D01050007000000210501007400C0016D0904
0000002D010600040000002D010700040000002D010800040000002D010400040000002D010600
040000002D010700040000002D010800040000002D010400040000002D010600040000002D0107
0007000000210501002900C001B409040000002D010F000700000021050100D700C001410A0400
00002D011000040000002D01050007000000210501006B00C001AD0A040000002D010600040000
002D010700040000002D010800040000002D010400040000002D010600040000002D0107000400
00002D010800040000002D010400040000002D010600040000002D010700070000002105010028
00C001220B040000002D010800040000002D010400040000002D01050007000000210501007400
C0017F0B040000002D010600040000002D010700040000002D010800040000002D010400040000
002D010600040000002D010700040000002D010800040000002D010400040000002D0106000400
00002D01070007000000210501002900C001C60B040000002D010F0007000000210501002B00C0
015F0C040000002D010800040000002D01040007000000210501007000C001200D070000002105
01007300C001980D040000002D010E00040000002D010F000700000021050100D700C001250E04
0000002D011000040000002D01050007000000210501006300C001910E040000002D0106000400
00002D010700040000002D010800040000002D010400040000002D010600040000002D01070004
0000002D010800040000002D010400040000002D010600040000002D0107000700000021050100
2800C001FC0E040000002D010800040000002D010400040000002D010500070000002105010074
00C001590F040000002D010600040000002D010700040000002D010800040000002D0104000400
00002D010600040000002D010700040000002D010800040000002D010400040000002D01060004
0000002D01070007000000210501002900C001A00F040000002D010F000700000021050100D700
C0012D10040000002D011000040000002D01050007000000210501006B00C0019910040000002D
010600040000002D010700040000002D010800040000002D010400040000002D01060004000000
2D010700040000002D010800040000002D010400040000002D010600040000002D010700070000
00210501002800C0010E11040000002D010800040000002D010400040000002D01050007000000
210501007400C0016B11040000002D010600040000002D010700040000002D010800040000002D
010400040000002D010600040000002D010700040000002D010800040000002D01040004000000
2D010600040000002D01070007000000210501002900C001B211040000002D010F000700000021
0501002D00C0014B12040000002D011000040000002D01050007000000210501004100C0011613
040000002D010E00040000002D010F000700000021050100D700C001D913040000002D01080004
0000002D01040007000000210501006100C001451407000000210501006C00C001B01407000000
210501007000C001F31407000000210501006800C0016B1507000000210501006100C001E31504
0000002D010E00040000002D010F000700000021050100D700C0017E16040000002D0110000400
00002D01050007000000210501006300C001EA16040000002D010600040000002D010700040000
002D010800040000002D010400040000002D010600040000002D010700040000002D0108000400
00002D010400040000002D010600040000002D01070007000000210501002800C0015517040000
002D010800040000002D010400040000002D01050007000000210501007400C001B21704000000
2D010600040000002D010700040000002D010800040000002D010400040000002D010600040000
002D010700040000002D010800040000002D010400040000002D010600040000002D0107000700
0000210501002900C001F917040000002D010F000700000021050100D700C0018618040000002D
010800040000002D010400040000002D01050007000000210501006B00C001F218040000002D01
0600040000002D010700040000002D010800040000002D010400040000002D010600040000002D
010700040000002D010800040000002D010400040000002D010600040000002D01070007000000
210501002800C0016719040000002D010800040000002D010400040000002D0105000700000021
0501007400C001C419040000002D010600040000002D010700040000002D010800040000002D01
0400040000002D010600040000002D010700040000002D010800040000002D010400040000002D
010600040000002D01070007000000210501002900C0010B1A040000002D010B00040000002D01
0C00070000002105010061002201681A07000000210501006C002201B31A070000002105010070
002201E21A070000002105010068002201371B0700000021050100610022018C1B040000002D01
050007000000210501006B007703DD0D040000002D010600040000002D010700040000002D0108
00040000002D010400040000002D010600040000002D010700040000002D010800040000002D01
0400040000002D010600040000002D010700070000002105010028007703520E040000002D0108
00040000002D010400040000002D010500070000002105010074007703AF0E040000002D010600
040000002D010700040000002D010800040000002D010400040000002D010600040000002D0107
00040000002D010800040000002D010400040000002D010600040000002D010700070000002105
010029007703F60E0700000021050100C50097023C010700000021050100C5009702CC01070000
0021050100C50097025C020700000021050100C5009702EC020700000021050100C50097027C03
0700000021050100C50097020C040700000021050100C50097029C040700000021050100C50097
022C050700000021050100C5009702BC050700000021050100C50097024C060700000021050100
C5009702DC060700000021050100C50097026C070700000021050100C5009702FC070700000021
050100C50097028C080700000021050100C50097021C090700000021050100C5009702AC090700
000021050100C50097023C0A0700000021050100C5009702CC0A0700000021050100C50097025C
0B0700000021050100C5009702EC0B0700000021050100C50097027C0C0700000021050100C500
97020C0D0700000021050100C50097029C0D0700000021050100C50097022C0E07000000210501
00C5009702BC0E0700000021050100C50097024C0F0700000021050100C5009702DC0F07000000
21050100C50097026C100700000021050100C5009702FC100700000021050100C50097028C1107
00000021050100C50097021C120700000021050100C5009702AC120700000021050100C5009702
3C130700000021050100C5009702CC130700000021050100C50097025C140700000021050100C5
009702EC140700000021050100C50097027C150700000021050100C50097020C16070000002105
0100C50097029C160700000021050100C50097022C170700000021050100C5009702BC17070000
0021050100C50097024C180700000021050100C5009702DC180700000021050100C50097026C19
0700000021050100C5009702FC190700000021050100C50097028C1A0700000021050100C50097
021C1B0700000021050100C5009702651B09000000FA0200000000000000000000220004000000
2D01120004000000F001010007000000FC020000FFFFFF000000040000002D01010010000000FB
021000070000000000BC02000000000102022253797374656D0000040000002D01130004000000
2701FFFF04000000F001030004000000F001040004000000F001050004000000F0010600040000
00F001070004000000F001080004000000F001090004000000F0010A0004000000F0010B000400
0000F0010C0004000000F0010D0004000000F0010E0004000000F0010F0004000000F001100004
000000F0011100040000002701FFFF040000002701FFFF030000000000
}\plain\f6\fs22\cf1\protect 
\par    {\pict\wmetafile8\picw7351\pich1682\picscalex99\picscaley99\picwgoal4168\pichgoal954
010009000003D20500001000180000000000050000000B0200000000050000000C029206B71C03
0000001E00050000000C029306B81C050000000B0200000000030000001E00030000001E000500
00000C02BA034810050000000B0200000000050000000B020000000018000000FF0600000600EF
BC00002A000100020000C000C0FF3FFF3F020000C0FF3F00C0FF3F0200050000000102FFFF0400
00002D01000009000000FA02000000000000000000002200040000002D01010007000000FC0200
00000000000000040000002D01020010000000FB0210FF00000000000090010000000107000000
417269616C000100040000002D0103000400000002010100050000000102FFFFFF00040000002E
01180005000000090200000000040000000801000015000000FB0210FF00000000000090010000
00010700000054696D6573204E657720526F6D616E000100040000002D0104000B00000026060F
000C004D6174685479706500003C0115000000FB0210FF00000000000090010100000107000000
54696D6573204E657720526F6D616E000100040000002D01050013000000FB0210FF0000000000
00900100000001070000005346204D61746820457874000100040000002D01060013000000FB02
10FF000000000000900100000002070000005346204D61746820457874000200040000002D0107
0015000000FB0210FF0000000000009001000000020700000054696D6573204E657720526F6D61
6E000200040000002D010800040000002D010400040000002D010600040000002D010700040000
002D010800040000002D01040010000000FB0210FF000000000000900100000002070000005379
6D626F6C0002040000002D01090010000000FB0210FF0000000000009001000000020700000053
796D626F6C0002040000002D010A00040000002D010800040000002D010400040000002D010500
040000002D010900040000002D010A00040000002D010800040000002D010400040000002D0105
00040000002D010600040000002D010700040000002D010800040000002D010400040000002D01
0600040000002D010700040000002D010800040000002D010400040000002D010900040000002D
010A0015000000FB0210FF0000000000009001010000020700000054696D6573204E657720526F
6D616E000200040000002D010B00040000002D010500040000002D010600040000002D01070004
0000002D010800040000002D010400040000002D010600040000002D010700040000002D010800
040000002D010400040000002D010500040000002D010400040000002D010500040000002D0106
00040000002D010700040000002D010800040000002D010400040000002D010600040000002D01
0700040000002D010800040000002D01040015000000FB0256FF00000000000090010000000107
00000054696D6573204E657720526F6D616E000100040000002D010C00040000002D0109000400
00002D010A00040000002D010800040000002D010400040000002D010900040000002D010A0004
0000002D010800040000002D010400040000002D010900040000002D010A00040000002D010800
040000002D010400040000002D010900040000002D010A00040000002D010800040000002D0104
00040000002D010900040000002D010A00040000002D010800040000002D010400050000000902
0000FF00040000002D010900040000002D010A000700000021050100B6008C01A4000700000021
050100B60022038100040000002D010B00040000002D0105000700000021050100740022031C01
040000002D010600040000002D0107000700000021050100C500DD0164000700000021050100C5
00DD01F000040000002D010800040000002D010400070000002105010020002E02800104000000
2D01050007000000210501006B002E02BC01040000002D010600040000002D010700040000002D
010800040000002D010400040000002D010600040000002D010700040000002D01080004000000
2D010400040000002D010600040000002D010700070000002105010028002E023102040000002D
010800040000002D010400040000002D010500070000002105010074002E028E02040000002D01
0600040000002D010700040000002D010800040000002D010400040000002D010600040000002D
010700040000002D010800040000002D010400040000002D010600040000002D01070007000000
2105010029002E02D502040000002D010A0007000000210501003D002E027A0307000000210501
002D002E026A04040000002D010800040000002D01040007000000210501006D002E021E050700
00002105010075002E02D605040000002D010900040000002D010A000700000021050100D7002E
027E06040000002D010B00040000002D01050007000000210501006B002E02EA06040000002D01
0600040000002D010700040000002D010800040000002D010400040000002D010600040000002D
010700040000002D010800040000002D010400040000002D010600040000002D01070007000000
2105010028002E025F07040000002D010800040000002D010400040000002D0105000700000021
05010074002E02BC07040000002D010600040000002D010700040000002D010800040000002D01
0400040000002D010600040000002D010700040000002D010800040000002D010400040000002D
010600040000002D010700070000002105010029002E020308040000002D010A00070000002105
01002D002E029C08040000002D010B00040000002D010500070000002105010063002E025C0904
0000002D010600040000002D010700040000002D010800040000002D010400040000002D010600
040000002D010700040000002D010800040000002D010400040000002D010600040000002D0107
00070000002105010028002E02C709040000002D010800040000002D010400040000002D010500
070000002105010074002E02240A040000002D010600040000002D010700040000002D01080004
0000002D010400040000002D010600040000002D010700040000002D010800040000002D010400
040000002D010600040000002D010700070000002105010029002E026B0A040000002D010A0007
000000210501002B002E02040B040000002D010B00040000002D01050007000000210501004100
2E02CF0B040000002D010900040000002D010A000700000021050100D7002E02920C040000002D
010800040000002D010400040000002D01050007000000210501006B002E02FE0C040000002D01
0600040000002D010700040000002D010800040000002D010400040000002D010600040000002D
010700040000002D010800040000002D010400040000002D010600040000002D01070007000000
2105010028002E02730D040000002D010800040000002D010400040000002D0105000700000021
05010074002E02D00D040000002D010600040000002D010700040000002D010800040000002D01
0400040000002D010600040000002D010700040000002D010800040000002D010400040000002D
010600040000002D010700070000002105010029002E02170E15000000FB0256FF000000000000
9001000000020700000054696D6573204E657720526F6D616E000200040000002D010D00040000
002D010C00070000002105010061009001740E07000000210501006C009001BF0E070000002105
010070009001EE0E070000002105010068009001430F070000002105010061009001980F090000
00FA02000000000000000000002200040000002D010E0004000000F001010007000000FC020000
FFFFFF000000040000002D01010010000000FB021000070000000000BC02000000000102022253
797374656D0000040000002D010F00040000002701FFFF04000000F001030004000000F0010400
04000000F001050004000000F001060004000000F001070004000000F001080004000000F00109
0004000000F0010A0004000000F0010B0004000000F0010C0004000000F0010D00040000002701
FFFF040000002701FFFF030000000000
}\plain\f6\fs22\cf1\protect 
\par    {\pict\wmetafile8\picw10316\pich1497\picscalex99\picscaley99\picwgoal5849\pichgoal849
010009000003C70800001000180000000000050000000B0200000000050000000C02D9054C2803
0000001E00050000000C02DB054D28050000000B0200000000030000001E00030000001E000500
00000C025203D916050000000B0200000000050000000B020000000018000000FF0600000600FE
BC00002A000100020000C000C0FF3FFF3F020000C0FF3F00C0FF3F0200050000000102FFFF0400
00002D01000009000000FA02000000000000000000002200040000002D01010007000000FC0200
00000000000000040000002D01020010000000FB0210FF00000000000090010000000107000000
417269616C000100040000002D0103000400000002010100050000000102FFFFFF00040000002E
01180005000000090200000000040000000801000015000000FB0210FF00000000000090010000
00010700000054696D6573204E657720526F6D616E000100040000002D0104000B00000026060F
000C004D617468547970650000E80015000000FB0210FF00000000000090010100000107000000
54696D6573204E657720526F6D616E000100040000002D01050013000000FB0210FF0000000000
00900100000001070000005346204D61746820457874000100040000002D01060013000000FB02
10FF000000000000900100000002070000005346204D61746820457874000200040000002D0107
0015000000FB0210FF0000000000009001000000020700000054696D6573204E657720526F6D61
6E000200040000002D010800040000002D010400040000002D010600040000002D010700040000
002D010800040000002D010400040000002D010500040000002D010600040000002D0107000400
00002D010800040000002D010400040000002D010600040000002D010700040000002D01080004
0000002D01040010000000FB0210FF0000000000009001000000020700000053796D626F6C0002
040000002D01090010000000FB0210FF0000000000009001000000020700000053796D626F6C00
02040000002D010A00040000002D010800040000002D010400040000002D010500040000002D01
0600040000002D010700040000002D010800040000002D010400040000002D010600040000002D
010700040000002D010800040000002D010400040000002D010500040000002D01060004000000
2D010700040000002D010800040000002D010400040000002D010600040000002D010700040000
002D010800040000002D010400040000002D010900040000002D010A0015000000FB0210FF0000
000000009001010000020700000054696D6573204E657720526F6D616E000200040000002D010B
00040000002D010500040000002D010400040000002D010500040000002D010600040000002D01
0700040000002D010800040000002D010400040000002D010600040000002D010700040000002D
010800040000002D010400040000002D010500040000002D010600040000002D01070004000000
2D010800040000002D010400040000002D010600040000002D010700040000002D010800040000
002D01040015000000FB0256FF0000000000009001000000010700000054696D6573204E657720
526F6D616E000100040000002D010C00040000002D010900040000002D010A00040000002D0108
00040000002D010400040000002D010500040000002D010600040000002D010700040000002D01
0800040000002D010400040000002D010600040000002D010700040000002D010800040000002D
010400040000002D010900040000002D010A00040000002D010800040000002D01040004000000
2D010900040000002D010A000500000009020000FF0007000000210501002D002F028800040000
002D010800040000002D010400040000002D010900040000002D010A00040000002D0108000400
00002D01040007000000210501006D008D015901070000002105010075008D011102040000002D
010900040000002D010A000700000021050100D7008D01B902040000002D010B00040000002D01
0500070000002105010063008D012503040000002D010600040000002D010700040000002D0108
00040000002D010400040000002D010600040000002D010700040000002D010800040000002D01
0400040000002D010600040000002D010700070000002105010028008D019003040000002D0108
00040000002D010400040000002D010500070000002105010074008D01ED03040000002D010600
040000002D010700040000002D010800040000002D010400040000002D010600040000002D0107
00040000002D010800040000002D010400040000002D010600040000002D010700070000002105
010029008D013404040000002D010A000700000021050100D7008D01C104040000002D010B0004
0000002D01050007000000210501006B008D012D05040000002D010600040000002D0107000400
00002D010800040000002D010400040000002D010600040000002D010700040000002D01080004
0000002D010400040000002D010600040000002D010700070000002105010028008D01A2050400
00002D010800040000002D010400040000002D010500070000002105010074008D01FF05040000
002D010600040000002D010700040000002D010800040000002D010400040000002D0106000400
00002D010700040000002D010800040000002D010400040000002D010600040000002D01070007
0000002105010029008D014606040000002D010A0007000000210501002B008D01DF0604000000
2D010800040000002D010400070000002105010070008D01A007070000002105010073008D0118
08040000002D010900040000002D010A000700000021050100D7008D01A508040000002D010B00
040000002D010500070000002105010063008D011109040000002D010600040000002D01070004
0000002D010800040000002D010400040000002D010600040000002D010700040000002D010800
040000002D010400040000002D010600040000002D010700070000002105010028008D017C0904
0000002D010800040000002D010400040000002D010500070000002105010074008D01D9090400
00002D010600040000002D010700040000002D010800040000002D010400040000002D01060004
0000002D010700040000002D010800040000002D010400040000002D010600040000002D010700
070000002105010029008D01200A040000002D010A000700000021050100D7008D01AD0A040000
002D010B00040000002D01050007000000210501006B008D01190B040000002D01060004000000
2D010700040000002D010800040000002D010400040000002D010600040000002D010700040000
002D010800040000002D010400040000002D010600040000002D01070007000000210501002800
8D018E0B040000002D010800040000002D010400040000002D010500070000002105010074008D
01EB0B040000002D010600040000002D010700040000002D010800040000002D01040004000000
2D010600040000002D010700040000002D010800040000002D010400040000002D010600040000
002D010700070000002105010029008D01320C040000002D010A0007000000210501002D008D01
CB0C040000002D010B00040000002D010500070000002105010041008D01960D040000002D0109
00040000002D010A000700000021050100D7008D01590E040000002D010800040000002D010400
070000002105010061008D01C50E07000000210501006C008D01300F070000002105010070008D
01730F070000002105010068008D01EB0F070000002105010061008D016310040000002D010900
040000002D010A000700000021050100D7008D01FE10040000002D010B00040000002D01050007
0000002105010063008D016A11040000002D010600040000002D010700040000002D0108000400
00002D010400040000002D010600040000002D010700040000002D010800040000002D01040004
0000002D010600040000002D010700070000002105010028008D01D511040000002D0108000400
00002D010400040000002D010500070000002105010074008D013212040000002D010600040000
002D010700040000002D010800040000002D010400040000002D010600040000002D0107000400
00002D010800040000002D010400040000002D010600040000002D010700070000002105010029
008D017912040000002D010A000700000021050100D7008D010613040000002D01080004000000
2D010400040000002D01050007000000210501006B008D017213040000002D010600040000002D
010700040000002D010800040000002D010400040000002D010600040000002D01070004000000
2D010800040000002D010400040000002D010600040000002D010700070000002105010028008D
01E713040000002D010800040000002D010400040000002D010500070000002105010074008D01
4414040000002D010600040000002D010700040000002D010800040000002D010400040000002D
010600040000002D010700040000002D010800040000002D010400040000002D01060004000000
2D010700070000002105010029008D018B1415000000FB0256FF00000000000090010000000207
00000054696D6573204E657720526F6D616E000200040000002D010D00040000002D010C000700
0000210501006100EF00E81407000000210501006C00EF00331507000000210501007000EF0062
1507000000210501006800EF00B71507000000210501006100EF000C16040000002D0105000700
0000210501006B00BE021D0B040000002D010600040000002D010700040000002D010800040000
002D010400040000002D010600040000002D010700040000002D010800040000002D0104000400
00002D010600040000002D01070007000000210501002800BE02920B040000002D010800040000
002D010400040000002D01050007000000210501007400BE02EF0B040000002D01060004000000
2D010700040000002D010800040000002D010400040000002D010600040000002D010700040000
002D010800040000002D010400040000002D010600040000002D01070007000000210501002900
BE02360C0700000021050100C500DE013C010700000021050100C500DE01CC0107000000210501
00C500DE015C020700000021050100C500DE01EC020700000021050100C500DE017C0307000000
21050100C500DE010C040700000021050100C500DE019C040700000021050100C500DE012C0507
00000021050100C500DE01BC050700000021050100C500DE014C060700000021050100C500DE01
DC060700000021050100C500DE016C070700000021050100C500DE01FC070700000021050100C5
00DE018C080700000021050100C500DE011C090700000021050100C500DE01AC09070000002105
0100C500DE013C0A0700000021050100C500DE01CC0A0700000021050100C500DE015C0B070000
0021050100C500DE01EC0B0700000021050100C500DE017C0C0700000021050100C500DE010C0D
0700000021050100C500DE019C0D0700000021050100C500DE012C0E0700000021050100C500DE
01BC0E0700000021050100C500DE014C0F0700000021050100C500DE01DC0F0700000021050100
C500DE016C100700000021050100C500DE01FC100700000021050100C500DE018C110700000021
050100C500DE011C120700000021050100C500DE01AC120700000021050100C500DE013C130700
000021050100C500DE01CC130700000021050100C500DE015C140700000021050100C500DE01EC
140700000021050100C500DE017C150700000021050100C500DE01E51509000000FA0200000000
0000000000002200040000002D010E0004000000F001010007000000FC020000FFFFFF00000004
0000002D01010010000000FB021000070000000000BC02000000000102022253797374656D0000
040000002D010F00040000002701FFFF04000000F001030004000000F001040004000000F00105
0004000000F001060004000000F001070004000000F001080004000000F001090004000000F001
0A0004000000F0010B0004000000F0010C0004000000F0010D00040000002701FFFF0400000027
01FFFF030000000000
}\plain\f6\fs22\cf1\protect 
\par    {\pict\wmetafile8\picw7595\pich1419\picscalex99\picscaley99\picwgoal4306\pichgoal805
010009000003890400000F00180000000000050000000B0200000000050000000C028B05AB1D03
0000001E00050000000C028C05AD1D050000000B0200000000030000001E00030000001E000500
00000C022503D310050000000B0200000000050000000B020000000018000000FF06000006000D
BD00002A000100020000C000C0FF3FFF3F020000C0FF3F00C0FF3F0200050000000102FFFF0400
00002D01000009000000FA02000000000000000000002200040000002D01010007000000FC0200
00000000000000040000002D01020010000000FB0210FF00000000000090010000000107000000
417269616C000100040000002D0103000400000002010100050000000102FFFFFF00040000002E
01180005000000090200000000040000000801000015000000FB0210FF00000000000090010000
00010700000054696D6573204E657720526F6D616E000100040000002D0104000B00000026060F
000C004D617468547970650000C40015000000FB0210FF00000000000090010100000107000000
54696D6573204E657720526F6D616E000100040000002D010500040000002D01040010000000FB
0210FF0000000000009001000000020700000053796D626F6C0002040000002D01060010000000
FB0210FF0000000000009001000000020700000053796D626F6C0002040000002D010700150000
00FB0210FF0000000000009001010000020700000054696D6573204E657720526F6D616E000200
040000002D010800040000002D010500040000002D010400040000002D010600040000002D0107
00040000002D010800040000002D010500040000002D010400040000002D01050015000000FB02
56FF0000000000009001000000010700000054696D6573204E657720526F6D616E000100040000
002D010900040000002D010400040000002D010600040000002D01070015000000FB0210FF0000
000000009001000000020700000054696D6573204E657720526F6D616E000200040000002D010A
00040000002D010400040000002D010500040000002D010400040000002D010600040000002D01
0700040000002D010A00040000002D010400040000002D010600040000002D0107000500000009
020000FF0007000000210501002D002F028800040000002D010A00040000002D01040004000000
2D010600040000002D010700040000002D010800040000002D010500070000002105010063008D
015901040000002D010600040000002D0107000700000021050100D7008D01F401040000002D01
0800040000002D01050007000000210501006B008D016002040000002D010600040000002D0107
000700000021050100D7008D010503040000002D010A00040000002D0104000700000021050100
6D008D017103070000002105010075008D012904040000002D010600040000002D010700070000
00210501002B008D01DD04040000002D010800040000002D010500070000002105010063008D01
9D05040000002D010600040000002D0107000700000021050100D7008D013806040000002D0108
00040000002D01050007000000210501006B008D01A406040000002D010600040000002D010700
0700000021050100D7008D014907040000002D010A00040000002D010400070000002105010070
008D01B607070000002105010073008D012E08040000002D010600040000002D01070007000000
210501002D008D01C708040000002D010800040000002D010500070000002105010041008D0192
09040000002D010600040000002D0107000700000021050100D7008D01550A040000002D010800
040000002D010500070000002105010063008D01C10A040000002D010600040000002D01070007
00000021050100D7008D015C0B040000002D010A00040000002D010400040000002D0105000700
0000210501006B008D01C80B040000002D01090007000000210501006100EF003D0C0700000021
0501006C00EF00880C07000000210501007000EF00B70C07000000210501006800EF000C0D0700
0000210501006100EF00610D040000002D010600040000002D0107000700000021050100D7008D
01DD0D040000002D010A00040000002D010400070000002105010061008D01490E070000002105
01006C008D01B40E070000002105010070008D01F70E070000002105010068008D016F0F070000
002105010061008D01E70F040000002D01050007000000210501006B00BE029B0813000000FB02
10FF000000000000900100000001070000005346204D61746820457874000100040000002D010B
0013000000FB0210FF000000000000900100000002070000005346204D61746820457874000200
040000002D010C000700000021050100C500DE013C010700000021050100C500DE01CC01070000
0021050100C500DE015C020700000021050100C500DE01EC020700000021050100C500DE017C03
0700000021050100C500DE010C040700000021050100C500DE019C040700000021050100C500DE
012C050700000021050100C500DE01BC050700000021050100C500DE014C060700000021050100
C500DE01DC060700000021050100C500DE016C070700000021050100C500DE01FC070700000021
050100C500DE018C080700000021050100C500DE011C090700000021050100C500DE01AC090700
000021050100C500DE013C0A0700000021050100C500DE01CC0A0700000021050100C500DE015C
0B0700000021050100C500DE01EC0B0700000021050100C500DE017C0C0700000021050100C500
DE010C0D0700000021050100C500DE019C0D0700000021050100C500DE012C0E07000000210501
00C500DE01BC0E0700000021050100C500DE014C0F0700000021050100C500DE01DC0F07000000
21050100C500DE01DF0F09000000FA02000000000000000000002200040000002D010D00040000
00F001010007000000FC020000FFFFFF000000040000002D01010010000000FB02100007000000
0000BC02000000000102022253797374656D0000040000002D010E00040000002701FFFF040000
00F001030004000000F001040004000000F001050004000000F001060004000000F00107000400
0000F001080004000000F001090004000000F0010A0004000000F0010B0004000000F0010C0004
0000002701FFFF040000002701FFFF030000000000
}\plain\f6\fs22\cf1\protect 
\par    {\pict\wmetafile8\picw3857\pich971\picscalex99\picscaley99\picwgoal2187\pichgoal551
010009000003840200000D00180000000000050000000B0200000000050000000C02CB03110F03
0000001E00050000000C02CC03120F050000000B0200000000030000001E00030000001E000500
00000C0227028B08050000000B0200000000050000000B020000000018000000FF06000006001B
BD00002A000100020000C000C0FF3FFF3F020000C0FF3F00C0FF3F0200050000000102FFFF0400
00002D01000009000000FA02000000000000000000002200040000002D01010007000000FC0200
00000000000000040000002D01020010000000FB0210FF00000000000090010000000107000000
417269616C000100040000002D0103000400000002010100050000000102FFFFFF00040000002E
01180005000000090200000000040000000801000015000000FB0210FF00000000000090010000
00010700000054696D6573204E657720526F6D616E000100040000002D0104000B00000026060F
000C004D6174685479706500007B0015000000FB0210FF00000000000090010100000107000000
54696D6573204E657720526F6D616E000100040000002D010500040000002D010400040000002D
01050015000000FB0256FF0000000000009001000000010700000054696D6573204E657720526F
6D616E000100040000002D01060010000000FB0210FF0000000000009001000000020700000053
796D626F6C0002040000002D01070010000000FB0210FF00000000000090010000000207000000
53796D626F6C0002040000002D01080015000000FB0210FF000000000000900101000002070000
0054696D6573204E657720526F6D616E000200040000002D010900040000002D01050004000000
2D010400040000002D010700040000002D01080015000000FB0210FF0000000000009001000000
020700000054696D6573204E657720526F6D616E000200040000002D010A00040000002D010400
040000002D010700040000002D0108000500000009020000FF00040000002D010900040000002D
010500070000002105010041008D016F00040000002D010700040000002D010800070000002105
0100D7008D013201040000002D010A00040000002D010400040000002D01050007000000210501
006B008D019E01040000002D01060007000000210501006100EF00130207000000210501006C00
EF005E0207000000210501007000EF008D0207000000210501006800EF00E20207000000210501
006100EF003703040000002D010700040000002D01080007000000210501002D008D01BF030400
00002D010900040000002D010500070000002105010063008D017F04040000002D010700040000
002D01080007000000210501002D008D012605040000002D010900040000002D01050007000000
210501006B008D01E605040000002D010700040000002D0108000700000021050100D7008D018B
06040000002D010A00040000002D01040007000000210501006D008D01F7060700000021050100
75008D01AF0709000000FA02000000000000000000002200040000002D010B0004000000F00101
0007000000FC020000FFFFFF000000040000002D01010010000000FB021000070000000000BC02
000000000102022253797374656D0000040000002D010C00040000002701FFFF04000000F00103
0004000000F001040004000000F001050004000000F001060004000000F001070004000000F001
080004000000F001090004000000F0010A00040000002701FFFF040000002701FFFF0300000000
00
}\plain\f6\fs22\cf1\protect 
\par    {\pict\wmetafile8\picw14520\pich1419\picscalex99\picscaley99\picwgoal8232\pichgoal805
0100090000038A0700000F00180000000000050000000B0200000000050000000C028B05B83803
0000001E00050000000C028C05BA38050000000B0200000000030000001E00030000001E000500
00000C0225032920050000000B0200000000050000000B020000000018000000FF060000060027
BD00002A000100020000C000C0FF3FFF3F020000C0FF3F00C0FF3F0200050000000102FFFF0400
00002D01000009000000FA02000000000000000000002200040000002D01010007000000FC0200
00000000000000040000002D01020010000000FB0210FF00000000000090010000000107000000
417269616C000100040000002D0103000400000002010100050000000102FFFFFF00040000002E
01180005000000090200000000040000000801000015000000FB0210FF00000000000090010000
00010700000054696D6573204E657720526F6D616E000100040000002D0104000B00000026060F
000C004D617468547970650000C40015000000FB0210FF00000000000090010100000107000000
54696D6573204E657720526F6D616E000100040000002D010500040000002D01040010000000FB
0210FF0000000000009001000000020700000053796D626F6C0002040000002D01060010000000
FB0210FF0000000000009001000000020700000053796D626F6C0002040000002D010700150000
00FB0210FF0000000000009001010000020700000054696D6573204E657720526F6D616E000200
040000002D010800040000002D010500040000002D010400040000002D010600040000002D0107
00040000002D010800040000002D010500040000002D010400040000002D01050015000000FB02
56FF0000000000009001000000010700000054696D6573204E657720526F6D616E000100040000
002D010900040000002D010400040000002D010600040000002D01070015000000FB0210FF0000
000000009001000000020700000054696D6573204E657720526F6D616E000200040000002D010A
00040000002D010400040000002D010500040000002D010400040000002D010600040000002D01
0700040000002D010800040000002D010500040000002D010400040000002D010500040000002D
010900040000002D010600040000002D010700040000002D010800040000002D01050004000000
2D010400040000002D010600040000002D010700040000002D010A00040000002D010400130000
00FB0210FF000000000000900100000001070000005346204D6174682045787400010004000000
2D010B0013000000FB0210FF000000000000900100000002070000005346204D61746820457874
000200040000002D010C00040000002D010A00040000002D010400040000002D010B0004000000
2D010C00040000002D010A00040000002D010400040000002D010B00040000002D010C00040000
002D010800040000002D010500040000002D010400040000002D010B00040000002D010C000400
00002D010A00040000002D010400040000002D010B00040000002D010C00040000002D010A0004
0000002D010400040000002D010B00040000002D010C00040000002D010A00040000002D010400
040000002D010B00040000002D010C00040000002D010A00040000002D010400040000002D010B
00040000002D010C00040000002D010A00040000002D0104000500000009020000FF0007000000
2105010073002F02640007000000210501006F002F02C10007000000210501006C002F02390107
0000002105010076002F027C01070000002105010065002F02F401040000002D010B0004000000
2D010C00040000002D010A00040000002D010400040000002D010B00040000002D010C00040000
002D010A00040000002D010400040000002D010B00040000002D010C000700000021050100B500
72005F02040000002D010A00040000002D010400040000002D010B00040000002D010C00040000
002D010A00040000002D010400040000002D010B00040000002D010C00040000002D010A000400
00002D010400040000002D010B00040000002D010C000700000021050100B70072001003040000
002D010A00040000002D010400040000002D010600040000002D01070007000000210501002D00
2F02B303040000002D010A00040000002D010400040000002D010600040000002D010700040000
002D010800040000002D010500070000002105010063008D018404040000002D01060004000000
2D0107000700000021050100D7008D011F05040000002D010800040000002D0105000700000021
0501006B008D018B05040000002D010600040000002D0107000700000021050100D7008D013006
040000002D010A00040000002D01040007000000210501006D008D019C06070000002105010075
008D015407040000002D010600040000002D01070007000000210501002B008D01080804000000
2D010800040000002D010500070000002105010063008D01C808040000002D010600040000002D
0107000700000021050100D7008D016309040000002D010800040000002D010500070000002105
01006B008D01CF09040000002D010600040000002D0107000700000021050100D7008D01740A04
0000002D010A00040000002D010400070000002105010070008D01E10A07000000210501007300
8D01590B040000002D010600040000002D01070007000000210501002D008D01F20B040000002D
010800040000002D010500070000002105010041008D01BD0C040000002D010600040000002D01
07000700000021050100D7008D01800D040000002D010800040000002D01050007000000210501
0063008D01EC0D040000002D010600040000002D0107000700000021050100D7008D01870E0400
00002D010A00040000002D010400040000002D01050007000000210501006B008D01F30E040000
002D01090007000000210501006100EF00680F07000000210501006C00EF00B30F070000002105
01007000EF00E20F07000000210501006800EF00371007000000210501006100EF008C10040000
002D010600040000002D0107000700000021050100D7008D010811040000002D010A0004000000
2D010400070000002105010061008D01741107000000210501006C008D01DF1107000000210501
0070008D012212070000002105010068008D019A12070000002105010061008D01121304000000
2D01050007000000210501006B00BE02C60B040000002D010B00040000002D010C000700000021
050100C500DE0167040700000021050100C500DE01F7040700000021050100C500DE0187050700
000021050100C500DE0117060700000021050100C500DE01A7060700000021050100C500DE0137
070700000021050100C500DE01C7070700000021050100C500DE0157080700000021050100C500
DE01E7080700000021050100C500DE0177090700000021050100C500DE01070A07000000210501
00C500DE01970A0700000021050100C500DE01270B0700000021050100C500DE01B70B07000000
21050100C500DE01470C0700000021050100C500DE01D70C0700000021050100C500DE01670D07
00000021050100C500DE01F70D0700000021050100C500DE01870E0700000021050100C500DE01
170F0700000021050100C500DE01A70F0700000021050100C500DE0137100700000021050100C5
00DE01C7100700000021050100C500DE0157110700000021050100C500DE01E711070000002105
0100C500DE0177120700000021050100C500DE0107130700000021050100C500DE010A13040000
002D010A00040000002D01040007000000210501002C002F029A13040000002D01060004000000
2D010700040000002D010800040000002D010500070000002105010041002F023514040000002D
010600040000002D0107000700000021050100D7002F02F814040000002D010A00040000002D01
0400040000002D01050007000000210501006B002F026415040000002D01090007000000210501
0061009101D91507000000210501006C0091012416070000002105010070009101531607000000
2105010068009101A816070000002105010061009101FD16040000002D010600040000002D0107
0007000000210501002D002F028517040000002D010800040000002D0105000700000021050100
63002F024518040000002D010600040000002D01070007000000210501002D002F02EC18040000
002D010800040000002D01050007000000210501006B002F02AC19040000002D01060004000000
2D0107000700000021050100D7002F02511A040000002D010A00040000002D0104000700000021
0501006D002F02BD1A070000002105010075002F02751B040000002D010B00040000002D010C00
040000002D010A00040000002D010400040000002D010B00040000002D010C00040000002D010A
00040000002D010400040000002D010B00040000002D010C000700000021050100B8007200ED1B
040000002D010A00040000002D01040007000000210501002C002F026C1C040000002D010B0004
0000002D010C00040000002D010A00040000002D010400040000002D010B00040000002D010C00
040000002D010A00040000002D010400040000002D010B00040000002D010C0007000000210501
005B002F02FC1C040000002D010A00040000002D010400040000002D0105000700000021050100
63002F02501D040000002D01040007000000210501002C002F02BB1D040000002D010500070000
00210501006B002F024B1E040000002D010B00040000002D010C00040000002D010A0004000000
2D010400040000002D010B00040000002D010C00040000002D010A00040000002D010400040000
002D010B00040000002D010C0007000000210501005D002F02C01E040000002D010A0004000000
2D010400040000002D010B00040000002D010C00040000002D010A00040000002D010400040000
002D010B00040000002D010C000700000021050100B6007200141F09000000FA02000000000000
000000002200040000002D010D0004000000F001010007000000FC020000FFFFFF000000040000
002D01010010000000FB021000070000000000BC02000000000102022253797374656D00000400
00002D010E00040000002701FFFF04000000F001030004000000F001040004000000F001050004
000000F001060004000000F001070004000000F001080004000000F001090004000000F0010A00
04000000F0010B0004000000F0010C00040000002701FFFF040000002701FFFF030000000000
}\plain\f6\fs22\cf1\protect 
\par    {\pict\wmetafile8\picw7595\pich1419\picscalex99\picscaley99\picwgoal4306\pichgoal805
010009000003890400000F00180000000000050000000B0200000000050000000C028B05AB1D03
0000001E00050000000C028C05AD1D050000000B0200000000030000001E00030000001E000500
00000C022503D310050000000B0200000000050000000B020000000018000000FF060000060041
BD00002A000100020000C000C0FF3FFF3F020000C0FF3F00C0FF3F0200050000000102FFFF0400
00002D01000009000000FA02000000000000000000002200040000002D01010007000000FC0200
00000000000000040000002D01020010000000FB0210FF00000000000090010000000107000000
417269616C000100040000002D0103000400000002010100050000000102FFFFFF00040000002E
01180005000000090200000000040000000801000015000000FB0210FF00000000000090010000
00010700000054696D6573204E657720526F6D616E000100040000002D0104000B00000026060F
