\mnb150<nb wrap="0" txtwidth="80" autowidth="0" pprint="1" typeset="1" xface="Times New Roman" xsize="240" xbold="0" xitalic="0" xcolor="#0000FF" slidents="1" sizemult="71" minsize="160" ifont="0 220 255 0 49 Courier New" ofont="0 220 16711680 0 49 Courier New" tfont="0 220 0 1 0 Times New Roman"></nb>ÿ{\rtf1\ansi\deff0\deftab720{\fonttbl{\f0\fswiss MS Sans Serif;}{\f1\froman\fcharset2 Symbol;}{\f2\fswiss\fprq2 System;}{\f3\froman\fprq2 Times New Roman;}{\f4\fswiss\fprq2 Arial;}{\f5\froman\fprq2 Bookman Old Style;}{\f6\fmodern\fprq1 Courier New;}{\f7\fmodern Courier New;}{\f8\froman Times New Roman;}{\f9\froman\fprq2 Symbol;}{\f10\froman\fcharset1 Times New Roman;}{\f11\froman\fprq2\fcharset2 Times New Roman;}{\f12\froman\fcharset1 Times New Roman;}}
{\colortbl\red0\green0\blue0;\red0\green0\blue255;\red255\green0\blue0;\red0\green128\blue0;}
\deflang1033\pard\li300\ri5\fi-300{\*\pn\pnlvlblt\pnf1\pnindent300{\pntxtb\'b7}}\plain\lang1036\f6\fs22\cf2 {\pntext\f1\'b7\tab}3+44
\par \pard\li50\ri6\plain\f6\fs22\cf1\protect    {\pict\wmetafile8\picw776\pich827\picwgoal439\pichgoal468
010009000003FB0000000700180000000000050000000B0200000000050000000C023B03080303
0000001E00030000001E00050000000C02D501B801050000000B020000000018000000FF060000
0600A17804002A000100020000C000C0FF3FFF3F020000C0FF3F00C0FF3F020000000400000024
00040000002D01000009000000FA02000000000000000000002200040000002D01010007000000
FC020000000000000000040000002D01020010000000FB0210FF00000000000090010000000107
000000417269616C000100040000002D0103000400000002010100050000000102FFFFFF000400
00002E01180005000000090200000000040000000801000015000000FB0210FF00000000000090
01000000010700000054696D6573204E657720526F6D616E000100040000002D0104000B000000
26060F000C004D6174685479706500007B000500000009020000FF00070000002105010034003B
016400070000002105010037003B01DC0009000000FA0200000000000000000000220004000000
2D01050004000000F001010007000000FC020000FFFFFF000000040000002D01010010000000FB
021000070000000000BC02000000000102022253797374656D0000040000002D01060004000000
2701FFFF04000000F001030004000000F0010400040000002701FFFF030000000000
}\plain\f6\fs22\cf1\protect 
\par \pard\li50\ri2\plain\f6\fs22\cf1\protect 
\par \pard\li300\ri5\fi-300{\*\pn\pnlvlblt\pnf1\pnindent300{\pntxtb\'b7}}\plain\f6\fs22\cf2 {\pntext\f1\'b7\tab}#\\$
\par \pard\li50\ri6\plain\f6\fs22\cf1\protect #
\par \pard\li50\ri2\plain\f6\fs22\cf1\protect ^ Error: Illegal character '#' [line 1, col 1]
\par 
\par \pard\li300\ri5\fi-300{\*\pn\pnlvlblt\pnf1\pnindent300{\pntxtb\'b7}}\plain\f6\fs22\cf2 {\pntext\f1\'b7\tab}3*4
\par \pard\li50\ri6\plain\f6\fs22\cf1\protect    {\pict\wmetafile8\picw776\pich827\picwgoal439\pichgoal468
010009000003FB0000000700180000000000050000000B0200000000050000000C023B03080303
0000001E00030000001E00050000000C02D501B801050000000B020000000018000000FF060000
0600A77804002A000100020000C000C0FF3FFF3F020000C0FF3F00C0FF3F020015000000FB0210
FF040000002D01000009000000FA02000000000000000000002200040000002D01010007000000
FC020000000000000000040000002D01020010000000FB0210FF00000000000090010000000107
000000417269616C000100040000002D0103000400000002010100050000000102FFFFFF000400
00002E01180005000000090200000000040000000801000015000000FB0210FF00000000000090
01000000010700000054696D6573204E657720526F6D616E000100040000002D0104000B000000
26060F000C004D6174685479706500007B000500000009020000FF00070000002105010031003B
016400070000002105010032003B01DC0009000000FA0200000000000000000000220004000000
2D01050004000000F001010007000000FC020000FFFFFF000000040000002D01010010000000FB
021000070000000000BC02000000000102022253797374656D0000040000002D01060004000000
2701FFFF04000000F001030004000000F0010400040000002701FFFF030000000000
}\plain\f6\fs22\cf1\protect 
\par \pard\li50\ri2\plain\f6\fs22\cf1\protect 
\par \pard\li300\ri5\fi-300{\*\pn\pnlvlblt\pnf1\pnindent300{\pntxtb\'b7}}\plain\lang1036\f6\fs22\cf2 {\pntext\f1\'b7\tab}3*4
\par \pard\li50\ri6\plain\f6\fs22\cf1\protect    {\pict\wmetafile8\picw776\pich827\picwgoal439\pichgoal468
010009000003FB0000000700180000000000050000000B0200000000050000000C023B03080303
0000001E00030000001E00050000000C02D501B801050000000B020000000018000000FF060000
0600AD7804002A000100020000C000C0FF3FFF3F020000C0FF3F00C0FF3F020015000000FB0210
FF040000002D01000009000000FA02000000000000000000002200040000002D01010007000000
FC020000000000000000040000002D01020010000000FB0210FF00000000000090010000000107
000000417269616C000100040000002D0103000400000002010100050000000102FFFFFF000400
00002E01180005000000090200000000040000000801000015000000FB0210FF00000000000090
01000000010700000054696D6573204E657720526F6D616E000100040000002D0104000B000000
26060F000C004D6174685479706500007B000500000009020000FF00070000002105010031003B
016400070000002105010032003B01DC0009000000FA0200000000000000000000220004000000
2D01050004000000F001010007000000FC020000FFFFFF000000040000002D01010010000000FB
021000070000000000BC02000000000102022253797374656D0000040000002D01060004000000
2701FFFF04000000F001030004000000F0010400040000002701FFFF030000000000
}\plain\f6\fs22\cf1\protect 
\par \pard\li50\ri2\plain\f6\fs22\cf1\protect 
\par \pard\li300\ri5\fi-300{\*\pn\pnlvlblt\pnf1\pnindent300{\pntxtb\'b7}}\plain\lang1036\f6\fs22\cf2 {\pntext\f1\'b7\tab}1
\par \pard\li50\ri6\plain\f6\fs22\cf1\protect    {\pict\wmetafile8\picw564\pich827\picwgoal319\pichgoal468
010009000003F40000000700180000000000050000000B0200000000050000000C023B03340203
0000001E00030000001E00050000000C02D5014001050000000B020000000018000000FF060000
0600B37804002A000100020000C000C0FF3FFF3F020000C0FF3F00C0FF3F020015000000FB0210
FF040000002D01000009000000FA02000000000000000000002200040000002D01010007000000
FC020000000000000000040000002D01020010000000FB0210FF00000000000090010000000107
000000417269616C000100040000002D0103000400000002010100050000000102FFFFFF000400
00002E01180005000000090200000000040000000801000015000000FB0210FF00000000000090
01000000010700000054696D6573204E657720526F6D616E000100040000002D0104000B000000
26060F000C004D6174685479706500007B000500000009020000FF00070000002105010031003B
01640009000000FA02000000000000000000002200040000002D01050004000000F00101000700
0000FC020000FFFFFF000000040000002D01010010000000FB021000070000000000BC02000000
000102022253797374656D0000040000002D010600040000002701FFFF04000000F00103000400
0000F0010400040000002701FFFF030000000000
}\plain\f6\fs22\cf1\protect 
\par \pard\li50\ri2\plain\f6\fs22\cf1\protect 
\par \pard\li300\ri5\fi-300{\*\pn\pnlvlblt\pnf1\pnindent300{\pntxtb\'b7}}\plain\lang1036\f6\fs22\cf2 {\pntext\f1\'b7\tab}diff(x^3,x)
\par \plain\f6\fs22\cf2 {\pntext\f1\'b7\tab}
\par \plain\lang1036\f6\fs22\cf2 {\pntext\f1\'b7\tab}H:=U(c)*exp(-T*t)+p*(f(k)-n*k-c)
\par \pard\li50\ri6\plain\f6\fs22\cf1\protect    {\pict\wmetafile8\picw6325\pich1097\picwgoal3585\pichgoal621
010009000003030500001200180000000000050000000B0200000000050000000C024904B51803
0000001E00030000001E00050000000C026E02020E050000000B020000000018000000FF060000
0600B97804002A000100020000C000C0FF3FFF3F020000C0FF3F00C0FF3F020015000000FB0210
FF040000002D01000009000000FA02000000000000000000002200040000002D01010007000000
FC020000000000000000040000002D01020010000000FB0210FF00000000000090010000000107
000000417269616C000100040000002D0103000400000002010100050000000102FFFFFF000400
00002E01180005000000090200000000040000000801000015000000FB0210FF00000000000090
01000000010700000054696D6573204E657720526F6D616E000100040000002D0104000B000000
26060F000C004D6174685479706500007B0015000000FB0210FF00000000000090010100000107
00000054696D6573204E657720526F6D616E000100040000002D01050013000000FB0210FF0000
00000000900100000001070000005346204D61746820457874000100040000002D010600130000
00FB0210FF000000000000900100000002070000005346204D6174682045787400020004000000
2D01070015000000FB0210FF0000000000009001000000020700000054696D6573204E65772052
6F6D616E000200040000002D010800040000002D010400040000002D010600040000002D010700
040000002D010800040000002D01040015000000FB0256FF000000000000900101000001070000
0054696D6573204E657720526F6D616E000100040000002D01090010000000FB0256FF00000000
00009001000000020700000053796D626F6C0002040000002D010A0010000000FB0256FF000000
0000009001000000020700000053796D626F6C0002040000002D010B0010000000FB0210FF0000
000000009001000000020700000053796D626F6C0002040000002D010C0015000000FB0210FF00
00000000009001010000020700000054696D6573204E657720526F6D616E000200040000002D01
0D00040000002D010500040000002D010600040000002D010700040000002D010800040000002D
010400040000002D010600040000002D010700040000002D010800040000002D01040004000000
2D01050010000000FB0210FF0000000000009001000000020700000053796D626F6C0002040000
002D010E00040000002D010C00040000002D010700040000002D010800040000002D0104000400
00002D010600040000002D010700040000002D010800040000002D010400040000002D01060004
0000002D010700040000002D010C00040000002D010800040000002D010400040000002D010E00
040000002D010C000500000009020000FF00040000002D010D00040000002D0105000700000021
0501005500D4016400040000002D010600040000002D010700040000002D010800040000002D01
0400040000002D010600040000002D010700040000002D010800040000002D010400040000002D
010600040000002D01070007000000210501002800D4012701040000002D010800040000002D01
0400040000002D01050007000000210501006300D4018401040000002D010600040000002D0107
00040000002D010800040000002D010400040000002D010600040000002D010700040000002D01
0800040000002D010400040000002D010600040000002D01070007000000210501002900D401EF
01040000002D010C000700000021050100D700D4017C02040000002D010800040000002D010400
07000000210501006500D401E802040000002D010A00040000002D010B0007000000210501002D
0035016C0315000000FB0256FF0000000000009001010000020700000054696D6573204E657720
526F6D616E000200040000002D010F00040000002D010900070000002105010054003501E30304
0000002D010A00040000002D010B000700000021050100D70035016B04040000002D010F000400
00002D010900070000002105010074003501AF04040000002D010E00040000002D010C00070000
00210501002D00D4011E05040000002D010700040000002D010800040000002D01040004000000
2D010600040000002D010700040000002D010800040000002D010400040000002D010600040000
002D010700040000002D010C00040000002D010D00040000002D01050007000000210501007000
D401F805040000002D010E00040000002D010C000700000021050100D700D401A006040000002D
010700040000002D010800040000002D010400040000002D010600040000002D01070004000000
2D010800040000002D010400040000002D010600040000002D010700040000002D010800040000
002D010400040000002D010600040000002D010700040000002D010800040000002D0104000400
00002D010600040000002D0107000700000021050100A100CA000C07040000002D010D00040000
002D01050007000000210501006300D4017A07040000002D010E00040000002D010C0007000000
210501002D00D4012108040000002D010D00040000002D01050007000000210501006600D4010A
09040000002D010600040000002D010700040000002D010800040000002D010400040000002D01
0600040000002D010700040000002D010800040000002D010400040000002D010600040000002D
01070007000000210501002800D4017C09040000002D010800040000002D010400040000002D01
050007000000210501006B00D401D909040000002D010600040000002D010700040000002D0108
00040000002D010400040000002D010600040000002D010700040000002D010800040000002D01
0400040000002D010600040000002D01070007000000210501002900D4014E0A040000002D010C
0007000000210501002B00D401E70A040000002D010D00040000002D0105000700000021050100
6B00D401A70B040000002D010E00040000002D010C000700000021050100D700D4014C0C040000
002D010D00040000002D01050007000000210501006E00D401B80C040000002D01060004000000
2D010700040000002D010800040000002D010400040000002D010600040000002D010700040000
002D010800040000002D010400040000002D010600040000002D0107000700000021050100A200
CA00300D09000000FA02000000000000000000002200040000002D01100004000000F001010007
000000FC020000FFFFFF000000040000002D01010010000000FB021000070000000000BC020000
00000102022253797374656D0000040000002D011100040000002701FFFF04000000F001030004
000000F001040004000000F001050004000000F001060004000000F001070004000000F0010800
04000000F001090004000000F0010A0004000000F0010B0004000000F0010C0004000000F0010D
0004000000F0010E0004000000F0010F00040000002701FFFF030000000000
}\plain\f6\fs22\cf1\protect 
\par \pard\li50\ri2\plain\f6\fs22\cf1\protect 
\par \pard\li300\ri5\fi-300{\*\pn\pnlvlblt\pnf1\pnindent300{\pntxtb\'b7}}\plain\f6\fs22\cf2 {\pntext\f1\'b7\tab}ec.=diff5Hmc-=)
\par \pard\li50\ri6\plain\f6\fs22\cf1\protect ec.=d
\par \pard\li50\ri2\plain\f6\fs22\cf1\protect     ^ Error: 'expression' expected [line 1, col 5]
\par 
\par \pard\li300\ri5\fi-300{\*\pn\pnlvlblt\pnf1\pnindent300{\pntxtb\'b7}}\plain\lang1036\f6\fs22\cf2 {\pntext\f1\'b7\tab}ec:=diff(H,c)=0
\par \pard\li50\ri6\plain\f6\fs22\cf1\protect    {\pict\wmetafile8\picw4452\pich1683\picwgoal2523\pichgoal954
0100090000031F0400001200180000000000050000000B0200000000050000000C029306641103
0000001E00030000001E00050000000C02BA03DC09050000000B020000000018000000FF060000
0600CA7804002A000100020000C000C0FF3FFF3F020000C0FF3F00C0FF3F020015000000FB0210
FF040000002D01000009000000FA02000000000000000000002200040000002D01010007000000
FC020000000000000000040000002D01020010000000FB0210FF00000000000090010000000107
000000417269616C000100040000002D0103000400000002010100050000000102FFFFFF000400
00002E01180005000000090200000000040000000801000015000000FB0210FF00000000000090
01000000010700000054696D6573204E657720526F6D616E000100040000002D0104000B000000
26060F000C004D6174685479706500003C0115000000FB0256FF00000000000090010100000107
00000054696D6573204E657720526F6D616E000100040000002D01050010000000FB0256FF0000
000000009001000000020700000053796D626F6C0002040000002D01060010000000FB0256FF00
00000000009001000000020700000053796D626F6C0002040000002D01070015000000FB0210FF
0000000000009001010000020700000054696D6573204E657720526F6D616E000200040000002D
01080015000000FB0210FF0000000000009001010000010700000054696D6573204E657720526F
6D616E000100040000002D01090013000000FB0210FF0000000000009001000000010700000053
46204D61746820457874000100040000002D010A0013000000FB0210FF00000000000090010000
0002070000005346204D61746820457874000200040000002D010B0015000000FB0210FF000000
0000009001000000020700000054696D6573204E657720526F6D616E000200040000002D010C00
040000002D010400040000002D010A00040000002D010B00040000002D010C00040000002D0104
0010000000FB0210FF0000000000009001000000020700000053796D626F6C0002040000002D01
0D0010000000FB0210FF0000000000009001000000020700000053796D626F6C0002040000002D
010E00040000002D010C00040000002D010400040000002D010900040000002D010D0004000000
2D010E00040000002D010C00040000002D010400040000002D010D00040000002D010E00040000
002D010800040000002D010900040000002D010D00040000002D010E00040000002D010C000400
00002D010400040000002D010D00040000002D010E00040000002D010C00040000002D01040004
0000002D010D00040000002D010E00040000002D010C00040000002D0104000500000009020000
FF00070000002105010065002E026400040000002D010600040000002D01070007000000210501
002D008F01E80015000000FB0256FF0000000000009001010000020700000054696D6573204E65
7720526F6D616E000200040000002D010F00040000002D010500070000002105010054008F015F
01040000002D010600040000002D0107000700000021050100D7008F01E701040000002D010F00
040000002D010500070000002105010074008F012B02040000002D010D00040000002D010E0007
00000021050100D7002E028E02040000002D010C00040000002D010400040000002D010D000400
00002D010E00040000002D010C00040000002D010400040000002D010D00040000002D010E0004
0000002D010C00040000002D010400040000002D010D00040000002D010E00040000002D010C00
040000002D010400040000002D010D00040000002D010E00040000002D010C00040000002D0104
00040000002D010D00040000002D010E000700000021050100B6008C014C030700000021050100
B60022031703040000002D010800040000002D010900070000002105010063002203B203040000
002D010A00040000002D010B000700000021050100C500DD01FA020700000021050100C500DD01
8A030700000021050100C500DD01AA03040000002D010C00040000002D01040007000000210501
0020002E023A04040000002D010900070000002105010055002E027604040000002D010A000400
00002D010B00040000002D010C00040000002D010400040000002D010A00040000002D010B0004
0000002D010C00040000002D010400040000002D010A00040000002D010B000700000021050100
28002E023905040000002D010C00040000002D010400040000002D010900070000002105010063
002E029605040000002D010A00040000002D010B00040000002D010C00040000002D0104000400
00002D010A00040000002D010B00040000002D010C00040000002D010400040000002D010A0004
0000002D010B00070000002105010029002E020106040000002D010E0007000000210501002D00
2E029A06040000002D010800040000002D010900070000002105010070002E027407040000002D
010D00040000002D010E0007000000210501003D002E023408040000002D010C00040000002D01
0400070000002105010030002E02000909000000FA02000000000000000000002200040000002D
01100004000000F001010007000000FC020000FFFFFF000000040000002D01010010000000FB02
1000070000000000BC02000000000102022253797374656D0000040000002D0111000400000027
01FFFF04000000F001030004000000F001040004000000F001050004000000F001060004000000
F001070004000000F001080004000000F001090004000000F0010A0004000000F0010B00040000
00F0010C0004000000F0010D0004000000F0010E0004000000F0010F00040000002701FFFF0300
00000000
}\plain\f6\fs22\cf1\protect 
\par \pard\li50\ri2\plain\f6\fs22\cf1\protect 
\par \pard\li300\ri5\fi-300{\*\pn\pnlvlblt\pnf1\pnindent300{\pntxtb\'b7}}\plain\f6\fs22\cf2 {\pntext\f1\'b7\tab}solve(ec,p)
\par \pard\li50\ri6\plain\f6\fs22\cf1\protect    {\pict\wmetafile8\picw3732\pich1683\picwgoal2115\pichgoal954
010009000003490400001200180000000000050000000B0200000000050000000C029306940E03
0000001E00030000001E00050000000C02BA034408050000000B020000000018000000FF060000
0600DB7804002A000100020000C000C0FF3FFF3F020000C0FF3F00C0FF3F020015000000FB0210
FF040000002D01000009000000FA02000000000000000000002200040000002D01010007000000
FC020000000000000000040000002D01020010000000FB0210FF00000000000090010000000107
000000417269616C000100040000002D0103000400000002010100050000000102FFFFFF000400
00002E01180005000000090200000000040000000801000015000000FB0210FF00000000000090
01000000010700000054696D6573204E657720526F6D616E000100040000002D0104000B000000
26060F000C004D6174685479706500003C0115000000FB0256FF00000000000090010100000107
00000054696D6573204E657720526F6D616E000100040000002D01050010000000FB0256FF0000
000000009001000000020700000053796D626F6C0002040000002D01060010000000FB0256FF00
00000000009001000000020700000053796D626F6C0002040000002D01070015000000FB0210FF
0000000000009001010000020700000054696D6573204E657720526F6D616E000200040000002D
01080015000000FB0210FF0000000000009001010000010700000054696D6573204E657720526F
6D616E000100040000002D01090013000000FB0210FF0000000000009001000000010700000053
46204D61746820457874000100040000002D010A0013000000FB0210FF00000000000090010000
0002070000005346204D61746820457874000200040000002D010B0015000000FB0210FF000000
0000009001000000020700000054696D6573204E657720526F6D616E000200040000002D010C00
040000002D010400040000002D010A00040000002D010B00040000002D010C00040000002D0104
0010000000FB0210FF0000000000009001000000020700000053796D626F6C0002040000002D01
0D0010000000FB0210FF0000000000009001000000020700000053796D626F6C0002040000002D
010E00040000002D010C00040000002D010400040000002D010900040000002D010D0004000000
2D010E00040000002D010C00040000002D010400040000002D010D00040000002D010E00040000
002D010B00040000002D010C00040000002D010400040000002D010A00040000002D010B000400
00002D010C00040000002D010400040000002D010A00040000002D010B00040000002D010C0004
0000002D010400040000002D010A00040000002D010B00040000002D010C00040000002D010400
040000002D010A00040000002D010B00040000002D010C00040000002D010400040000002D010A
00040000002D010B000500000009020000FF000700000021050100C70075006400040000002D01
0C00040000002D010400040000002D010D00040000002D010E00040000002D010C00040000002D
010400070000002105010065002E022501040000002D010600040000002D010700070000002105
01002D008F01A90115000000FB0256FF0000000000009001010000020700000054696D6573204E
657720526F6D616E000200040000002D010F00040000002D010500070000002105010054008F01
2002040000002D010600040000002D0107000700000021050100D7008F01A802040000002D010F
00040000002D010500070000002105010074008F01EC02040000002D010D00040000002D010E00
0700000021050100D7002E024F03040000002D010C00040000002D010400040000002D010D0004
0000002D010E00040000002D010C00040000002D010400040000002D010D00040000002D010E00
040000002D010C00040000002D010400040000002D010D00040000002D010E00040000002D010C
00040000002D010400040000002D010D00040000002D010E00040000002D010C00040000002D01
0400040000002D010D00040000002D010E000700000021050100B6008C010D0407000000210501
00B6002203D803040000002D010800040000002D01090007000000210501006300220373040400
00002D010A00040000002D010B000700000021050100C500DD01BB030700000021050100C500DD
014B040700000021050100C500DD016B04040000002D010C00040000002D010400070000002105
010020002E02FB04040000002D010900070000002105010055002E023705040000002D010A0004
0000002D010B00040000002D010C00040000002D010400040000002D010A00040000002D010B00
040000002D010C00040000002D010400040000002D010A00040000002D010B0007000000210501
0028002E02FA05040000002D010C00040000002D010400040000002D0109000700000021050100
63002E025706040000002D010A00040000002D010B00040000002D010C00040000002D01040004
0000002D010A00040000002D010B00040000002D010C00040000002D010400040000002D010A00
040000002D010B00070000002105010029002E02C206040000002D010C00040000002D01040004
0000002D010A00040000002D010B00040000002D010C00040000002D010400040000002D010A00
040000002D010B000700000021050100C80075001F0709000000FA020000000000000000000022
00040000002D01100004000000F001010007000000FC020000FFFFFF000000040000002D010100
10000000FB021000070000000000BC02000000000102022253797374656D0000040000002D0111
00040000002701FFFF04000000F001030004000000F001040004000000F001050004000000F001
060004000000F001070004000000F001080004000000F001090004000000F0010A0004000000F0
010B0004000000F0010C0004000000F0010D0004000000F0010E0004000000F0010F0004000000
2701FFFF030000000000
}\plain\f6\fs22\cf1\protect 
\par \pard\li50\ri2\plain\f6\fs22\cf1\protect 
\par \pard\li300\ri5\fi-300{\*\pn\pnlvlblt\pnf1\pnindent300{\pntxtb\'b7}}\plain\f6\fs22\cf2 {\pntext\f1\'b7\tab}p1:=solve(ec,p)
\par \pard\li50\ri6\plain\f6\fs22\cf1\protect    {\pict\wmetafile8\picw3732\pich1683\picwgoal2115\pichgoal954
010009000003490400001200180000000000050000000B0200000000050000000C029306940E03
0000001E00030000001E00050000000C02BA034408050000000B020000000018000000FF060000
0600EC7804002A000100020000C000C0FF3FFF3F020000C0FF3F00C0FF3F020015000000FB0210
FF040000002D01000009000000FA02000000000000000000002200040000002D01010007000000
FC020000000000000000040000002D01020010000000FB0210FF00000000000090010000000107
000000417269616C000100040000002D0103000400000002010100050000000102FFFFFF000400
00002E01180005000000090200000000040000000801000015000000FB0210FF00000000000090
01000000010700000054696D6573204E657720526F6D616E000100040000002D0104000B000000
26060F000C004D6174685479706500003C0115000000FB0256FF00000000000090010100000107
00000054696D6573204E657720526F6D616E000100040000002D01050010000000FB0256FF0000
000000009001000000020700000053796D626F6C0002040000002D01060010000000FB0256FF00
00000000009001000000020700000053796D626F6C0002040000002D01070015000000FB0210FF
0000000000009001010000020700000054696D6573204E657720526F6D616E000200040000002D
01080015000000FB0210FF0000000000009001010000010700000054696D6573204E657720526F
6D616E000100040000002D01090013000000FB0210FF0000000000009001000000010700000053
46204D61746820457874000100040000002D010A0013000000FB0210FF00000000000090010000
0002070000005346204D61746820457874000200040000002D010B0015000000FB0210FF000000
0000009001000000020700000054696D6573204E657720526F6D616E000200040000002D010C00
040000002D010400040000002D010A00040000002D010B00040000002D010C00040000002D0104
0010000000FB0210FF0000000000009001000000020700000053796D626F6C0002040000002D01
0D0010000000FB0210FF0000000000009001000000020700000053796D626F6C0002040000002D
010E00040000002D010C00040000002D010400040000002D010900040000002D010D0004000000
2D010E00040000002D010C00040000002D010400040000002D010D00040000002D010E00040000
002D010B00040000002D010C00040000002D010400040000002D010A00040000002D010B000400
00002D010C00040000002D010400040000002D010A00040000002D010B00040000002D010C0004
0000002D010400040000002D010A00040000002D010B00040000002D010C00040000002D010400
040000002D010A00040000002D010B00040000002D010C00040000002D010400040000002D010A
00040000002D010B000500000009020000FF000700000021050100C70075006400040000002D01
0C00040000002D010400040000002D010D00040000002D010E00040000002D010C00040000002D
010400070000002105010065002E022501040000002D010600040000002D010700070000002105
01002D008F01A90115000000FB0256FF0000000000009001010000020700000054696D6573204E
657720526F6D616E000200040000002D010F00040000002D010500070000002105010054008F01
2002040000002D010600040000002D0107000700000021050100D7008F01A802040000002D010F
00040000002D010500070000002105010074008F01EC02040000002D010D00040000002D010E00
0700000021050100D7002E024F03040000002D010C00040000002D010400040000002D010D0004
0000002D010E00040000002D010C00040000002D010400040000002D010D00040000002D010E00
040000002D010C00040000002D010400040000002D010D00040000002D010E00040000002D010C
00040000002D010400040000002D010D00040000002D010E00040000002D010C00040000002D01
0400040000002D010D00040000002D010E000700000021050100B6008C010D0407000000210501
00B6002203D803040000002D010800040000002D01090007000000210501006300220373040400
00002D010A00040000002D010B000700000021050100C500DD01BB030700000021050100C500DD
014B040700000021050100C500DD016B04040000002D010C00040000002D010400070000002105
010020002E02FB04040000002D010900070000002105010055002E023705040000002D010A0004
0000002D010B00040000002D010C00040000002D010400040000002D010A00040000002D010B00
040000002D010C00040000002D010400040000002D010A00040000002D010B0007000000210501
0028002E02FA05040000002D010C00040000002D010400040000002D0109000700000021050100
63002E025706040000002D010A00040000002D010B00040000002D010C00040000002D01040004
0000002D010A00040000002D010B00040000002D010C00040000002D010400040000002D010A00
040000002D010B00070000002105010029002E02C206040000002D010C00040000002D01040004
0000002D010A00040000002D010B00040000002D010C00040000002D010400040000002D010A00
040000002D010B000700000021050100C80075001F0709000000FA020000000000000000000022
00040000002D01100004000000F001010007000000FC020000FFFFFF000000040000002D010100
10000000FB021000070000000000BC02000000000102022253797374656D0000040000002D0111
00040000002701FFFF04000000F001030004000000F001040004000000F001050004000000F001
060004000000F001070004000000F001080004000000F001090004000000F0010A0004000000F0
010B0004000000F0010C0004000000F0010D0004000000F0010E0004000000F0010F0004000000
2701FFFF030000000000
}\plain\f6\fs22\cf1\protect 
\par \pard\li50\ri2\plain\f6\fs22\cf1\protect 
\par \pard\li300\ri5\fi-300{\*\pn\pnlvlblt\pnf1\pnindent300{\pntxtb\'b7}}\plain\f6\fs22\cf2 {\pntext\f1\'b7\tab}p1[0]
\par \pard\li50\ri6\plain\f6\fs22\cf1\protect    {\pict\wmetafile8\picw2304\pich827\picwgoal1306\pichgoal468
0100090000037F0100000A00180000000000050000000B0200000000050000000C023B03000903
0000001E00030000001E00050000000C02D5011A05050000000B020000000018000000FF060000
0600FD7804002A000100020000C000C0FF3FFF3F020000C0FF3F00C0FF3F020015000000FB0210
FF040000002D01000009000000FA02000000000000000000002200040000002D01010007000000
FC020000000000000000040000002D01020010000000FB0210FF00000000000090010000000107
000000417269616C000100040000002D0103000400000002010100050000000102FFFFFF000400
00002E01180005000000090200000000040000000801000015000000FB0210FF00000000000090
01000000010700000054696D6573204E657720526F6D616E000100040000002D0104000B000000
26060F000C004D6174685479706500007B0010000000FB0210FF00000000000090010000000207
00000053796D626F6C0002040000002D01050010000000FB0210FF000000000000900100000002
0700000053796D626F6C0002040000002D01060015000000FB0210FF0000000000009001000000
020700000054696D6573204E657720526F6D616E000200040000002D010700040000002D010400
0500000009020000FF00070000002105010044003B01640007000000210501004F003B01110107
000000210501004D003B01BE01040000002D010500040000002D01060007000000210501005F00
3B019302040000002D010700040000002D010400070000002105010053003B010B030700000021
05010045003B019003070000002105010054003B01230409000000FA0200000000000000000000
2200040000002D01080004000000F001010007000000FC020000FFFFFF000000040000002D0101
0010000000FB021000070000000000BC02000000000102022253797374656D0000040000002D01
0900040000002701FFFF04000000F001030004000000F001040004000000F001050004000000F0
01060004000000F0010700040000002701FFFF030000000000
}\plain\f6\fs22\cf1\protect 
\par \pard\li50\ri2\plain\f6\fs22\cf1\protect 
\par \pard\li300\ri5\fi-300{\*\pn\pnlvlblt\pnf1\pnindent300{\pntxtb\'b7}}\plain\f6\fs22\cf2 {\pntext\f1\'b7\tab}p1+0
\par \pard\li50\ri6\plain\f6\fs22\cf1\protect    {\pict\wmetafile8\picw3732\pich1683\picwgoal2115\pichgoal954
010009000003490400001200180000000000050000000B0200000000050000000C029306940E03
0000001E00030000001E00050000000C02BA034408050000000B020000000018000000FF060000
0600067904002A000100020000C000C0FF3FFF3F020000C0FF3F00C0FF3F020015000000FB0210
FF040000002D01000009000000FA02000000000000000000002200040000002D01010007000000
FC020000000000000000040000002D01020010000000FB0210FF00000000000090010000000107
000000417269616C000100040000002D0103000400000002010100050000000102FFFFFF000400
00002E01180005000000090200000000040000000801000015000000FB0210FF00000000000090
01000000010700000054696D6573204E657720526F6D616E000100040000002D0104000B000000
26060F000C004D6174685479706500003C0115000000FB0256FF00000000000090010100000107
00000054696D6573204E657720526F6D616E000100040000002D01050010000000FB0256FF0000
000000009001000000020700000053796D626F6C0002040000002D01060010000000FB0256FF00
00000000009001000000020700000053796D626F6C0002040000002D01070015000000FB0210FF
0000000000009001010000020700000054696D6573204E657720526F6D616E000200040000002D
01080015000000FB0210FF0000000000009001010000010700000054696D6573204E657720526F
6D616E000100040000002D01090013000000FB0210FF0000000000009001000000010700000053
46204D61746820457874000100040000002D010A0013000000FB0210FF00000000000090010000
0002070000005346204D61746820457874000200040000002D010B0015000000FB0210FF000000
0000009001000000020700000054696D6573204E657720526F6D616E000200040000002D010C00
040000002D010400040000002D010A00040000002D010B00040000002D010C00040000002D0104
0010000000FB0210FF0000000000009001000000020700000053796D626F6C0002040000002D01
0D0010000000FB0210FF0000000000009001000000020700000053796D626F6C0002040000002D
010E00040000002D010C00040000002D010400040000002D010900040000002D010D0004000000
2D010E00040000002D010C00040000002D010400040000002D010D00040000002D010E00040000
002D010B00040000002D010C00040000002D010400040000002D010A00040000002D010B000400
00002D010C00040000002D010400040000002D010A00040000002D010B00040000002D010C0004
0000002D010400040000002D010A00040000002D010B00040000002D010C00040000002D010400
040000002D010A00040000002D010B00040000002D010C00040000002D010400040000002D010A
00040000002D010B000500000009020000FF000700000021050100C70075006400040000002D01
0C00040000002D010400040000002D010D00040000002D010E00040000002D010C00040000002D
010400070000002105010065002E022501040000002D010600040000002D010700070000002105
01002D008F01A90115000000FB0256FF0000000000009001010000020700000054696D6573204E
657720526F6D616E000200040000002D010F00040000002D010500070000002105010054008F01
2002040000002D010600040000002D0107000700000021050100D7008F01A802040000002D010F
00040000002D010500070000002105010074008F01EC02040000002D010D00040000002D010E00
0700000021050100D7002E024F03040000002D010C00040000002D010400040000002D010D0004
0000002D010E00040000002D010C00040000002D010400040000002D010D00040000002D010E00
040000002D010C00040000002D010400040000002D010D00040000002D010E00040000002D010C
00040000002D010400040000002D010D00040000002D010E00040000002D010C00040000002D01
0400040000002D010D00040000002D010E000700000021050100B6008C010D0407000000210501
00B6002203D803040000002D010800040000002D01090007000000210501006300220373040400
00002D010A00040000002D010B000700000021050100C500DD01BB030700000021050100C500DD
014B040700000021050100C500DD016B04040000002D010C00040000002D010400070000002105
010020002E02FB04040000002D010900070000002105010055002E023705040000002D010A0004
0000002D010B00040000002D010C00040000002D010400040000002D010A00040000002D010B00
040000002D010C00040000002D010400040000002D010A00040000002D010B0007000000210501
0028002E02FA05040000002D010C00040000002D010400040000002D0109000700000021050100
63002E025706040000002D010A00040000002D010B00040000002D010C00040000002D01040004
0000002D010A00040000002D010B00040000002D010C00040000002D010400040000002D010A00
040000002D010B00070000002105010029002E02C206040000002D010C00040000002D01040004
0000002D010A00040000002D010B00040000002D010C00040000002D010400040000002D010A00
040000002D010B000700000021050100C80075001F0709000000FA020000000000000000000022
00040000002D01100004000000F001010007000000FC020000FFFFFF000000040000002D010100
10000000FB021000070000000000BC02000000000102022253797374656D0000040000002D0111
00040000002701FFFF04000000F001030004000000F001040004000000F001050004000000F001
060004000000F001070004000000F001080004000000F001090004000000F0010A0004000000F0
010B0004000000F0010C0004000000F0010D0004000000F0010E0004000000F0010F0004000000
2701FFFF030000000000
}\plain\f6\fs22\cf1\protect 
\par \pard\li50\ri2\plain\f6\fs22\cf1\protect 
\par \pard\li300\ri5\fi-300{\*\pn\pnlvlblt\pnf1\pnindent300{\pntxtb\'b7}}\plain\f6\fs22\cf2 {\pntext\f1\'b7\tab}p1[1]
\par \pard\li50\ri6\plain\f6\fs22\cf1\protect    {\pict\wmetafile8\picw3052\pich1683\picwgoal1730\pichgoal954
010009000003C70300001200180000000000050000000B0200000000050000000C029306EC0B03
0000001E00030000001E00050000000C02BA03C206050000000B020000000018000000FF060000
0600177904002A000100020000C000C0FF3FFF3F020000C0FF3F00C0FF3F020015000000FB0210
FF040000002D01000009000000FA02000000000000000000002200040000002D01010007000000
FC020000000000000000040000002D01020010000000FB0210FF00000000000090010000000107
000000417269616C000100040000002D0103000400000002010100050000000102FFFFFF000400
00002E01180005000000090200000000040000000801000015000000FB0210FF00000000000090
01000000010700000054696D6573204E657720526F6D616E000100040000002D0104000B000000
26060F000C004D6174685479706500003C0115000000FB0256FF00000000000090010100000107
00000054696D6573204E657720526F6D616E000100040000002D01050010000000FB0256FF0000
000000009001000000020700000053796D626F6C0002040000002D01060010000000FB0256FF00
00000000009001000000020700000053796D626F6C0002040000002D01070015000000FB0210FF
0000000000009001010000020700000054696D6573204E657720526F6D616E000200040000002D
01080015000000FB0210FF0000000000009001010000010700000054696D6573204E657720526F
6D616E000100040000002D01090013000000FB0210FF0000000000009001000000010700000053
46204D61746820457874000100040000002D010A0013000000FB0210FF00000000000090010000
0002070000005346204D61746820457874000200040000002D010B0015000000FB0210FF000000
0000009001000000020700000054696D6573204E657720526F6D616E000200040000002D010C00
040000002D010400040000002D010A00040000002D010B00040000002D010C00040000002D0104
0010000000FB0210FF0000000000009001000000020700000053796D626F6C0002040000002D01
0D0010000000FB0210FF0000000000009001000000020700000053796D626F6C0002040000002D
010E00040000002D010C00040000002D010400040000002D010900040000002D010D0004000000
2D010E00040000002D010C00040000002D010400040000002D010D00040000002D010E00040000
002D010C00040000002D010400040000002D010D00040000002D010E00040000002D010C000400
00002D0104000500000009020000FF00070000002105010065002E026400040000002D01060004
0000002D01070007000000210501002D008F01E80015000000FB0256FF00000000000090010100
00020700000054696D6573204E657720526F6D616E000200040000002D010F00040000002D0105
00070000002105010054008F015F01040000002D010600040000002D0107000700000021050100
D7008F01E701040000002D010F00040000002D010500070000002105010074008F012B02040000
002D010D00040000002D010E000700000021050100D7002E028E02040000002D010C0004000000
2D010400040000002D010D00040000002D010E00040000002D010C00040000002D010400040000
002D010D00040000002D010E00040000002D010C00040000002D010400040000002D010D000400
00002D010E00040000002D010C00040000002D010400040000002D010D00040000002D010E0004
0000002D010C00040000002D010400040000002D010D00040000002D010E000700000021050100
B6008C014C030700000021050100B60022031703040000002D010800040000002D010900070000
002105010063002203B203040000002D010A00040000002D010B000700000021050100C500DD01
FA020700000021050100C500DD018A030700000021050100C500DD01AA03040000002D010C0004
0000002D010400070000002105010020002E023A04040000002D01090007000000210501005500
2E027604040000002D010A00040000002D010B00040000002D010C00040000002D010400040000
002D010A00040000002D010B00040000002D010C00040000002D010400040000002D010A000400
00002D010B00070000002105010028002E023905040000002D010C00040000002D010400040000
002D010900070000002105010063002E029605040000002D010A00040000002D010B0004000000
2D010C00040000002D010400040000002D010A00040000002D010B00040000002D010C00040000
002D010400040000002D010A00040000002D010B00070000002105010029002E02010609000000
FA02000000000000000000002200040000002D01100004000000F001010007000000FC020000FF
FFFF000000040000002D01010010000000FB021000070000000000BC0200000000010202225379
7374656D0000040000002D011100040000002701FFFF04000000F001030004000000F001040004
000000F001050004000000F001060004000000F001070004000000F001080004000000F0010900
04000000F0010A0004000000F0010B0004000000F0010C0004000000F0010D0004000000F0010E
0004000000F0010F00040000002701FFFF030000000000
}\plain\f6\fs22\cf1\protect 
\par \pard\li50\ri2\plain\f6\fs22\cf1\protect 
\par \pard\li300\ri5\fi-300{\*\pn\pnlvlblt\pnf1\pnindent300{\pntxtb\'b7}}\plain\f6\fs22\cf2 {\pntext\f1\'b7\tab}p1=p1[1]
\par \pard\li50\ri6\plain\f6\fs22\cf1\protect    {\pict\wmetafile8\picw6918\pich1683\picwgoal3922\pichgoal954
0100090000032B0600001200180000000000050000000B0200000000050000000C029306061B03
0000001E00030000001E00050000000C02BA03520F050000000B020000000018000000FF060000
0600287904002A000100020000C000C0FF3FFF3F020000C0FF3F00C0FF3F020015000000FB0210
FF040000002D01000009000000FA02000000000000000000002200040000002D01010007000000
FC020000000000000000040000002D01020010000000FB0210FF00000000000090010000000107
000000417269616C000100040000002D0103000400000002010100050000000102FFFFFF000400
00002E01180005000000090200000000040000000801000015000000FB0210FF00000000000090
01000000010700000054696D6573204E657720526F6D616E000100040000002D0104000B000000
26060F000C004D6174685479706500003C0115000000FB0256FF00000000000090010100000107
00000054696D6573204E657720526F6D616E000100040000002D01050010000000FB0256FF0000
000000009001000000020700000053796D626F6C0002040000002D01060010000000FB0256FF00
00000000009001000000020700000053796D626F6C0002040000002D01070015000000FB0210FF
0000000000009001010000020700000054696D6573204E657720526F6D616E000200040000002D
01080015000000FB0210FF0000000000009001010000010700000054696D6573204E657720526F
6D616E000100040000002D01090013000000FB0210FF0000000000009001000000010700000053
46204D61746820457874000100040000002D010A0013000000FB0210FF00000000000090010000
0002070000005346204D61746820457874000200040000002D010B0015000000FB0210FF000000
0000009001000000020700000054696D6573204E657720526F6D616E000200040000002D010C00
040000002D010400040000002D010A00040000002D010B00040000002D010C00040000002D0104
0010000000FB0210FF0000000000009001000000020700000053796D626F6C0002040000002D01
0D0010000000FB0210FF0000000000009001000000020700000053796D626F6C0002040000002D
010E00040000002D010C00040000002D010400040000002D010900040000002D010D0004000000
2D010E00040000002D010C00040000002D010400040000002D010D00040000002D010E00040000
002D010B00040000002D010C00040000002D010400040000002D010A00040000002D010B000400
00002D010C00040000002D010400040000002D010A00040000002D010B00040000002D010C0004
0000002D010400040000002D010500040000002D010600040000002D010700040000002D010800
040000002D010900040000002D010A00040000002D010B00040000002D010C00040000002D0104
00040000002D010A00040000002D010B00040000002D010C00040000002D010400040000002D01
0D00040000002D010E00040000002D010C00040000002D010400040000002D010900040000002D
010D00040000002D010E00040000002D010C00040000002D010400040000002D010D0004000000
2D010E00040000002D010C00040000002D010400040000002D010A00040000002D010B00040000
002D010C00040000002D010400040000002D010A00040000002D010B00040000002D010C000400
00002D010400040000002D010A00040000002D010B000500000009020000FF0007000000210501
00C70075006400040000002D010C00040000002D010400040000002D010D00040000002D010E00
040000002D010C00040000002D010400070000002105010065002E022501040000002D01060004
0000002D01070007000000210501002D008F01A90115000000FB0256FF00000000000090010100
00020700000054696D6573204E657720526F6D616E000200040000002D010F00040000002D0105
00070000002105010054008F012002040000002D010600040000002D0107000700000021050100
D7008F01A802040000002D010F00040000002D010500070000002105010074008F01EC02040000
002D010D00040000002D010E000700000021050100D7002E024F03040000002D010C0004000000
2D010400040000002D010D00040000002D010E00040000002D010C00040000002D010400040000
002D010D00040000002D010E00040000002D010C00040000002D010400040000002D010D000400
00002D010E00040000002D010C00040000002D010400040000002D010D00040000002D010E0004
0000002D010C00040000002D010400040000002D010D00040000002D010E000700000021050100
B6008C010D040700000021050100B6002203D803040000002D010800040000002D010900070000
0021050100630022037304040000002D010A00040000002D010B000700000021050100C500DD01
BB030700000021050100C500DD014B040700000021050100C500DD016B04040000002D010C0004
0000002D010400070000002105010020002E02FB04040000002D01090007000000210501005500
2E023705040000002D010A00040000002D010B00040000002D010C00040000002D010400040000
002D010A00040000002D010B00040000002D010C00040000002D010400040000002D010A000400
00002D010B00070000002105010028002E02FA05040000002D010C00040000002D010400040000
002D010900070000002105010063002E025706040000002D010A00040000002D010B0004000000
2D010C00040000002D010400040000002D010A00040000002D010B00040000002D010C00040000
002D010400040000002D010A00040000002D010B00070000002105010029002E02C20604000000
2D010C00040000002D010400040000002D010A00040000002D010B00040000002D010C00040000
002D010400040000002D010A00040000002D010B000700000021050100C80075001F0704000000
2D010E0007000000210501003D002E022808040000002D010C00040000002D0104000700000021
05010065002E02F408040000002D010600040000002D01070007000000210501002D008F017809
040000002D010F00040000002D010500070000002105010054008F01EF09040000002D01060004
0000002D0107000700000021050100D7008F01770A040000002D010F00040000002D0105000700
00002105010074008F01BB0A040000002D010D00040000002D010E000700000021050100D7002E
021E0B040000002D010C00040000002D010400040000002D010D00040000002D010E0004000000
2D010C00040000002D010400040000002D010D00040000002D010E00040000002D010C00040000
002D010400040000002D010D00040000002D010E00040000002D010C00040000002D0104000400
00002D010D00040000002D010E00040000002D010C00040000002D010400040000002D010D0004
0000002D010E000700000021050100B6008C01DC0B0700000021050100B6002203A70B04000000
2D010800040000002D010900070000002105010063002203420C040000002D010A00040000002D
010B000700000021050100C500DD018A0B0700000021050100C500DD011A0C0700000021050100
C500DD013A0C040000002D010C00040000002D010400070000002105010020002E02CA0C040000
002D010900070000002105010055002E02060D040000002D010A00040000002D010B0004000000
2D010C00040000002D010400040000002D010A00040000002D010B00040000002D010C00040000
002D010400040000002D010A00040000002D010B00070000002105010028002E02C90D04000000
2D010C00040000002D010400040000002D010900070000002105010063002E02260E040000002D
010A00040000002D010B00040000002D010C00040000002D010400040000002D010A0004000000
2D010B00040000002D010C00040000002D010400040000002D010A00040000002D010B00070000
002105010029002E02910E09000000FA02000000000000000000002200040000002D0110000400
0000F001010007000000FC020000FFFFFF000000040000002D01010010000000FB021000070000
000000BC02000000000102022253797374656D0000040000002D011100040000002701FFFF0400
0000F001030004000000F001040004000000F001050004000000F001060004000000F001070004
000000F001080004000000F001090004000000F0010A0004000000F0010B0004000000F0010C00
04000000F0010D0004000000F0010E0004000000F0010F00040000002701FFFF030000000000
}\plain\f6\fs22\cf1\protect 
\par \pard\li50\ri2\plain\f6\fs22\cf1\protect 
\par \pard\li300\ri5\fi-300{\*\pn\pnlvlblt\pnf1\pnindent300{\pntxtb\'b7}}\plain\f6\fs22\cf2 {\pntext\f1\'b7\tab}p1
\par \pard\li50\ri6\plain\f6\fs22\cf1\protect    {\pict\wmetafile8\picw3732\pich1683\picwgoal2115\pichgoal954
010009000003490400001200180000000000050000000B0200000000050000000C029306940E03
0000001E00030000001E00050000000C02BA034408050000000B020000000018000000FF060000
0600397904002A000100020000C000C0FF3FFF3F020000C0FF3F00C0FF3F020015000000FB0210
FF040000002D01000009000000FA02000000000000000000002200040000002D01010007000000
FC020000000000000000040000002D01020010000000FB0210FF00000000000090010000000107
000000417269616C000100040000002D0103000400000002010100050000000102FFFFFF000400
00002E01180005000000090200000000040000000801000015000000FB0210FF00000000000090
01000000010700000054696D6573204E657720526F6D616E000100040000002D0104000B000000
26060F000C004D6174685479706500003C0115000000FB0256FF00000000000090010100000107
00000054696D6573204E657720526F6D616E000100040000002D01050010000000FB0256FF0000
000000009001000000020700000053796D626F6C0002040000002D01060010000000FB0256FF00
00000000009001000000020700000053796D626F6C0002040000002D01070015000000FB0210FF
0000000000009001010000020700000054696D6573204E657720526F6D616E000200040000002D
01080015000000FB0210FF0000000000009001010000010700000054696D6573204E657720526F
6D616E000100040000002D01090013000000FB0210FF0000000000009001000000010700000053
46204D61746820457874000100040000002D010A0013000000FB0210FF00000000000090010000
0002070000005346204D61746820457874000200040000002D010B0015000000FB0210FF000000
0000009001000000020700000054696D6573204E657720526F6D616E000200040000002D010C00
040000002D010400040000002D010A00040000002D010B00040000002D010C00040000002D0104
0010000000FB0210FF0000000000009001000000020700000053796D626F6C0002040000002D01
0D0010000000FB0210FF0000000000009001000000020700000053796D626F6C0002040000002D
010E00040000002D010C00040000002D010400040000002D010900040000002D010D0004000000
2D010E00040000002D010C00040000002D010400040000002D010D00040000002D010E00040000
002D010B00040000002D010C00040000002D010400040000002D010A00040000002D010B000400
00002D010C00040000002D010400040000002D010A00040000002D010B00040000002D010C0004
0000002D010400040000002D010A00040000002D010B00040000002D010C00040000002D010400
040000002D010A00040000002D010B00040000002D010C00040000002D010400040000002D010A
00040000002D010B000500000009020000FF000700000021050100C70075006400040000002D01
0C00040000002D010400040000002D010D00040000002D010E00040000002D010C00040000002D
010400070000002105010065002E022501040000002D010600040000002D010700070000002105
01002D008F01A90115000000FB0256FF0000000000009001010000020700000054696D6573204E
657720526F6D616E000200040000002D010F00040000002D010500070000002105010054008F01
2002040000002D010600040000002D0107000700000021050100D7008F01A802040000002D010F
00040000002D010500070000002105010074008F01EC02040000002D010D00040000002D010E00
0700000021050100D7002E024F03040000002D010C00040000002D010400040000002D010D0004
0000002D010E00040000002D010C00040000002D010400040000002D010D00040000002D010E00
040000002D010C00040000002D010400040000002D010D00040000002D010E00040000002D010C
00040000002D010400040000002D010D00040000002D010E00040000002D010C00040000002D01
0400040000002D010D00040000002D010E000700000021050100B6008C010D0407000000210501
00B6002203D803040000002D010800040000002D01090007000000210501006300220373040400
00002D010A00040000002D010B000700000021050100C500DD01BB030700000021050100C500DD
014B040700000021050100C500DD016B04040000002D010C00040000002D010400070000002105
010020002E02FB04040000002D010900070000002105010055002E023705040000002D010A0004
0000002D010B00040000002D010C00040000002D010400040000002D010A00040000002D010B00
040000002D010C00040000002D010400040000002D010A00040000002D010B0007000000210501
0028002E02FA05040000002D010C00040000002D010400040000002D0109000700000021050100
63002E025706040000002D010A00040000002D010B00040000002D010C00040000002D01040004
0000002D010A00040000002D010B00040000002D010C00040000002D010400040000002D010A00
040000002D010B00070000002105010029002E02C206040000002D010C00040000002D01040004
0000002D010A00040000002D010B00040000002D010C00040000002D010400040000002D010A00
040000002D010B000700000021050100C80075001F0709000000FA020000000000000000000022
00040000002D01100004000000F001010007000000FC020000FFFFFF000000040000002D010100
10000000FB021000070000000000BC02000000000102022253797374656D0000040000002D0111
00040000002701FFFF04000000F001030004000000F001040004000000F001050004000000F001
060004000000F001070004000000F001080004000000F001090004000000F0010A0004000000F0
010B0004000000F0010C0004000000F0010D0004000000F0010E0004000000F0010F0004000000
2701FFFF030000000000
}\plain\f6\fs22\cf1\protect 
\par \pard\li50\ri2\plain\f6\fs22\cf1\protect 
\par \pard\li300\ri5\fi-300{\*\pn\pnlvlblt\pnf1\pnindent300{\pntxtb\'b7}}\plain\f6\fs22\cf2 {\pntext\f1\'b7\tab}p1:=p1[1]
\par \pard\li50\ri6\plain\f6\fs22\cf1\protect    {\pict\wmetafile8\picw3052\pich1683\picwgoal1730\pichgoal954
010009000003C70300001200180000000000050000000B0200000000050000000C029306EC0B03
0000001E00030000001E00050000000C02BA03C206050000000B020000000018000000FF060000
06004A7904002A000100020000C000C0FF3FFF3F020000C0FF3F00C0FF3F020015000000FB0210
FF040000002D01000009000000FA02000000000000000000002200040000002D01010007000000
FC020000000000000000040000002D01020010000000FB0210FF00000000000090010000000107
000000417269616C000100040000002D0103000400000002010100050000000102FFFFFF000400
00002E01180005000000090200000000040000000801000015000000FB0210FF00000000000090
01000000010700000054696D6573204E657720526F6D616E000100040000002D0104000B000000
26060F000C004D6174685479706500003C0115000000FB0256FF00000000000090010100000107
00000054696D6573204E657720526F6D616E000100040000002D01050010000000FB0256FF0000
000000009001000000020700000053796D626F6C0002040000002D01060010000000FB0256FF00
00000000009001000000020700000053796D626F6C0002040000002D01070015000000FB0210FF
0000000000009001010000020700000054696D6573204E657720526F6D616E000200040000002D
01080015000000FB0210FF0000000000009001010000010700000054696D6573204E657720526F
6D616E000100040000002D01090013000000FB0210FF0000000000009001000000010700000053
46204D61746820457874000100040000002D010A0013000000FB0210FF00000000000090010000
0002070000005346204D61746820457874000200040000002D010B0015000000FB0210FF000000
0000009001000000020700000054696D6573204E657720526F6D616E000200040000002D010C00
040000002D010400040000002D010A00040000002D010B00040000002D010C00040000002D0104
0010000000FB0210FF0000000000009001000000020700000053796D626F6C0002040000002D01
0D0010000000FB0210FF0000000000009001000000020700000053796D626F6C0002040000002D
010E00040000002D010C00040000002D010400040000002D010900040000002D010D0004000000
2D010E00040000002D010C00040000002D010400040000002D010D00040000002D010E00040000
002D010C00040000002D010400040000002D010D00040000002D010E00040000002D010C000400
00002D0104000500000009020000FF00070000002105010065002E026400040000002D01060004
0000002D01070007000000210501002D008F01E80015000000FB0256FF00000000000090010100
00020700000054696D6573204E657720526F6D616E000200040000002D010F00040000002D0105
00070000002105010054008F015F01040000002D010600040000002D0107000700000021050100
D7008F01E701040000002D010F00040000002D010500070000002105010074008F012B02040000
002D010D00040000002D010E000700000021050100D7002E028E02040000002D010C0004000000
2D010400040000002D010D00040000002D010E00040000002D010C00040000002D010400040000
002D010D00040000002D010E00040000002D010C00040000002D010400040000002D010D000400
00002D010E00040000002D010C00040000002D010400040000002D010D00040000002D010E0004
0000002D010C00040000002D010400040000002D010D00040000002D010E000700000021050100
B6008C014C030700000021050100B60022031703040000002D010800040000002D010900070000
002105010063002203B203040000002D010A00040000002D010B000700000021050100C500DD01
FA020700000021050100C500DD018A030700000021050100C500DD01AA03040000002D010C0004
0000002D010400070000002105010020002E023A04040000002D01090007000000210501005500
2E027604040000002D010A00040000002D010B00040000002D010C00040000002D010400040000
002D010A00040000002D010B00040000002D010C00040000002D010400040000002D010A000400
00002D010B00070000002105010028002E023905040000002D010C00040000002D010400040000
002D010900070000002105010063002E029605040000002D010A00040000002D010B0004000000
2D010C00040000002D010400040000002D010A00040000002D010B00040000002D010C00040000
002D010400040000002D010A00040000002D010B00070000002105010029002E02010609000000
FA02000000000000000000002200040000002D01100004000000F001010007000000FC020000FF
FFFF000000040000002D01010010000000FB021000070000000000BC0200000000010202225379
7374656D0000040000002D011100040000002701FFFF04000000F001030004000000F001040004
000000F001050004000000F001060004000000F001070004000000F001080004000000F0010900
04000000F0010A0004000000F0010B0004000000F0010C0004000000F0010D0004000000F0010E
0004000000F0010F00040000002701FFFF030000000000
}\plain\f6\fs22\cf1\protect 
\par \pard\li50\ri2\plain\f6\fs22\cf1\protect 
\par \pard\li300\ri5\fi-300{\*\pn\pnlvlblt\pnf1\pnindent300{\pntxtb\'b7}}\plain\f6\fs22\cf2 {\pntext\f1\'b7\tab}p1
\par \pard\li50\ri6\plain\f6\fs22\cf1\protect    {\pict\wmetafile8\picw3052\pich1683\picwgoal1730\pichgoal954
010009000003C70300001200180000000000050000000B0200000000050000000C029306EC0B03
0000001E00030000001E00050000000C02BA03C206050000000B020000000018000000FF060000
06005B7904002A000100020000C000C0FF3FFF3F020000C0FF3F00C0FF3F020015000000FB0210
FF040000002D01000009000000FA02000000000000000000002200040000002D01010007000000
FC020000000000000000040000002D01020010000000FB0210FF00000000000090010000000107
000000417269616C000100040000002D0103000400000002010100050000000102FFFFFF000400
00002E01180005000000090200000000040000000801000015000000FB0210FF00000000000090
01000000010700000054696D6573204E657720526F6D616E000100040000002D0104000B000000
26060F000C004D6174685479706500003C0115000000FB0256FF00000000000090010100000107
00000054696D6573204E657720526F6D616E000100040000002D01050010000000FB0256FF0000
000000009001000000020700000053796D626F6C0002040000002D01060010000000FB0256FF00
00000000009001000000020700000053796D626F6C0002040000002D01070015000000FB0210FF
0000000000009001010000020700000054696D6573204E657720526F6D616E000200040000002D
01080015000000FB0210FF0000000000009001010000010700000054696D6573204E657720526F
6D616E000100040000002D01090013000000FB0210FF0000000000009001000000010700000053
46204D61746820457874000100040000002D010A0013000000FB0210FF00000000000090010000
0002070000005346204D61746820457874000200040000002D010B0015000000FB0210FF000000
0000009001000000020700000054696D6573204E657720526F6D616E000200040000002D010C00
040000002D010400040000002D010A00040000002D010B00040000002D010C00040000002D0104
0010000000FB0210FF0000000000009001000000020700000053796D626F6C0002040000002D01
0D0010000000FB0210FF0000000000009001000000020700000053796D626F6C0002040000002D
010E00040000002D010C00040000002D010400040000002D010900040000002D010D0004000000
2D010E00040000002D010C00040000002D010400040000002D010D00040000002D010E00040000
002D010C00040000002D010400040000002D010D00040000002D010E00040000002D010C000400
00002D0104000500000009020000FF00070000002105010065002E026400040000002D01060004
0000002D01070007000000210501002D008F01E80015000000FB0256FF00000000000090010100
00020700000054696D6573204E657720526F6D616E000200040000002D010F00040000002D0105
00070000002105010054008F015F01040000002D010600040000002D0107000700000021050100
D7008F01E701040000002D010F00040000002D010500070000002105010074008F012B02040000
002D010D00040000002D010E000700000021050100D7002E028E02040000002D010C0004000000
2D010400040000002D010D00040000002D010E00040000002D010C00040000002D010400040000
002D010D00040000002D010E00040000002D010C00040000002D010400040000002D010D000400
00002D010E00040000002D010C00040000002D010400040000002D010D00040000002D010E0004
0000002D010C00040000002D010400040000002D010D00040000002D010E000700000021050100
B6008C014C030700000021050100B60022031703040000002D010800040000002D010900070000
002105010063002203B203040000002D010A00040000002D010B000700000021050100C500DD01
FA020700000021050100C500DD018A030700000021050100C500DD01AA03040000002D010C0004
0000002D010400070000002105010020002E023A04040000002D01090007000000210501005500
2E027604040000002D010A00040000002D010B00040000002D010C00040000002D010400040000
002D010A00040000002D010B00040000002D010C00040000002D010400040000002D010A000400
00002D010B00070000002105010028002E023905040000002D010C00040000002D010400040000
002D010900070000002105010063002E029605040000002D010A00040000002D010B0004000000
2D010C00040000002D010400040000002D010A00040000002D010B00040000002D010C00040000
002D010400040000002D010A00040000002D010B00070000002105010029002E02010609000000
FA02000000000000000000002200040000002D01100004000000F001010007000000FC020000FF
FFFF000000040000002D01010010000000FB021000070000000000BC0200000000010202225379
7374656D0000040000002D011100040000002701FFFF04000000F001030004000000F001040004
000000F001050004000000F001060004000000F001070004000000F001080004000000F0010900
04000000F0010A0004000000F0010B0004000000F0010C0004000000F0010D0004000000F0010E
0004000000F0010F00040000002701FFFF030000000000
}\plain\f6\fs22\cf1\protect 
\par \pard\li50\ri2\plain\f6\fs22\cf1\protect 
\par \pard\li300\ri5\fi-300{\*\pn\pnlvlblt\pnf1\pnindent300{\pntxtb\'b7}}\plain\f6\fs22\cf2 {\pntext\f1\'b7\tab}
\par {\pntext\f1\'b7\tab}ek:=diff\plain\lang1036\f6\fs22\cf2 (P(t),t)=subs(-diff(H,k),p=P(t))
\par \pard\li50\ri6\plain\f6\fs22\cf1\protect    {\pict\wmetafile8\picw5994\pich1683\picwgoal3398\pichgoal954
010009000003E30500000E00180000000000050000000B0200000000050000000C0293066A1703
0000001E00030000001E00050000000C02BA03460D050000000B020000000018000000FF060000
06006C7904002A000100020000C000C0FF3FFF3F020000C0FF3F00C0FF3F020015000000FB0210
FF040000002D01000009000000FA02000000000000000000002200040000002D01010007000000
FC020000000000000000040000002D01020010000000FB0210FF00000000000090010000000107
000000417269616C000100040000002D0103000400000002010100050000000102FFFFFF000400
00002E01180005000000090200000000040000000801000015000000FB0210FF00000000000090
01000000010700000054696D6573204E657720526F6D616E000100040000002D0104000B000000
26060F000C004D6174685479706500003C0115000000FB0210FF00000000000090010100000107
00000054696D6573204E657720526F6D616E000100040000002D01050013000000FB0210FF0000
00000000900100000001070000005346204D61746820457874000100040000002D010600130000
00FB0210FF000000000000900100000002070000005346204D6174682045787400020004000000
2D01070015000000FB0210FF0000000000009001000000020700000054696D6573204E65772052
6F6D616E000200040000002D010800040000002D010400040000002D010600040000002D010700
040000002D010800040000002D01040010000000FB0210FF000000000000900100000002070000
0053796D626F6C0002040000002D01090010000000FB0210FF0000000000009001000000020700
000053796D626F6C0002040000002D010A00040000002D010800040000002D010400040000002D
010500040000002D010900040000002D010A00040000002D010800040000002D01040004000000
2D010500040000002D010600040000002D010700040000002D010800040000002D010400040000
002D010600040000002D010700040000002D010800040000002D010400040000002D0105000400
00002D010600040000002D010700040000002D010800040000002D010400040000002D01060004
0000002D010700040000002D010800040000002D010400040000002D010900040000002D010A00
040000002D010800040000002D010400040000002D010500040000002D010900040000002D010A
00040000002D010800040000002D010400040000002D010900040000002D010A00040000002D01
0700040000002D010800040000002D010400040000002D010600040000002D010700040000002D
010800040000002D010400040000002D010600040000002D010700040000002D010A0004000000
2D010800040000002D010400040000002D010900040000002D010A00040000002D010800040000
002D010400040000002D010900040000002D010A00040000002D010800040000002D0104000400
00002D010900040000002D010A00040000002D010800040000002D010400040000002D01090004
0000002D010A00040000002D010800040000002D0104000500000009020000FF00040000002D01
0900040000002D010A000700000021050100B6008C01A4000700000021050100B6002203810015
000000FB0210FF0000000000009001010000020700000054696D6573204E657720526F6D616E00
0200040000002D010B00040000002D0105000700000021050100740022031C01040000002D0106
00040000002D0107000700000021050100C500DD0164000700000021050100C500DD01F0000400
00002D010800040000002D010400070000002105010020002E028001040000002D010500070000
002105010050002E02C101040000002D010600040000002D010700040000002D01080004000000
2D010400040000002D010600040000002D010700040000002D010800040000002D010400040000
002D010600040000002D010700070000002105010028002E025602040000002D01080004000000
2D010400040000002D010500070000002105010074002E02B302040000002D010600040000002D
010700040000002D010800040000002D010400040000002D010600040000002D01070004000000
2D010800040000002D010400040000002D010600040000002D010700070000002105010029002E
02FA02040000002D010A0007000000210501003D002E029F03040000002D010700040000002D01
0800040000002D010400040000002D010600040000002D010700040000002D010800040000002D
010400040000002D010600040000002D010700040000002D010A00040000002D010B0004000000
2D010500070000002105010050002E027004040000002D010600040000002D010700040000002D
010800040000002D010400040000002D010600040000002D010700040000002D01080004000000
2D010400040000002D010600040000002D010700070000002105010028002E020505040000002D
010800040000002D010400040000002D010500070000002105010074002E026205040000002D01
0600040000002D010700040000002D010800040000002D010400040000002D010600040000002D
010700040000002D010800040000002D010400040000002D010600040000002D01070007000000
2105010029002E02A905040000002D010A000700000021050100D7002E023606040000002D0107
00040000002D010800040000002D010400040000002D010600040000002D010700040000002D01
0800040000002D010400040000002D010600040000002D010700040000002D010800040000002D
010400040000002D010600040000002D010700040000002D010800040000002D01040004000000
2D010600040000002D0107000700000021050100C3007500A206040000002D010B00040000002D
01050007000000210501006E002E026007040000002D010900040000002D010A00070000002105
01002D002E021408040000002D010800040000002D010400040000002D010900040000002D010A
00040000002D010800040000002D010400040000002D010900040000002D010A00040000002D01
0800040000002D010400040000002D010900040000002D010A00040000002D010800040000002D
010400040000002D010900040000002D010A00040000002D010800040000002D01040004000000
2D010900040000002D010A000700000021050100B6008C012B090700000021050100B6002203F1
08040000002D010B00040000002D01050007000000210501006B0022038C09040000002D010600
040000002D0107000700000021050100C500DD01D4080700000021050100C500DD016409070000
0021050100C500DD018E09040000002D010800040000002D010400070000002105010020002E02
1E0A040000002D010500070000002105010066002E02830A040000002D010600040000002D0107
00040000002D010800040000002D010400040000002D010600040000002D010700040000002D01
0800040000002D010400040000002D010600040000002D010700070000002105010028002E02F5
0A040000002D010800040000002D010400040000002D01050007000000210501006B002E02520B
040000002D010600040000002D010700040000002D010800040000002D010400040000002D0106
00040000002D010700040000002D010800040000002D010400040000002D010600040000002D01
0700070000002105010029002E02C70B040000002D010800040000002D010400040000002D0106
00040000002D010700040000002D010800040000002D010400040000002D010600040000002D01
0700070000002105010021007500240C09000000FA02000000000000000000002200040000002D
010C0004000000F001010007000000FC020000FFFFFF000000040000002D01010010000000FB02
1000070000000000BC02000000000102022253797374656D0000040000002D010D000400000027
01FFFF04000000F001030004000000F001040004000000F001050004000000F001060004000000
F001070004000000F001080004000000F001090004000000F0010A0004000000F0010B00040000
002701FFFF030000000000
}\plain\f6\fs22\cf1\protect 
\par \pard\li50\ri2\plain\f6\fs22\cf1\protect 
\par \pard\li300\ri5\fi-300{\*\pn\pnlvlblt\pnf1\pnindent300{\pntxtb\'b7}}\plain\lang1036\f6\fs22\cf2 {\pntext\f1\'b7\tab}p2:=subs(p1,c=C(t))
\par \pard\li50\ri6\plain\f6\fs22\cf1\protect    {\pict\wmetafile8\picw4177\pich1683\picwgoal2368\pichgoal954
010009000003E70400001200180000000000050000000B0200000000050000000C029306511003
0000001E00030000001E00050000000C02BA034009050000000B020000000018000000FF060000
0600797904002A000100020000C000C0FF3FFF3F020000C0FF3F00C0FF3F020015000000FB0210
FF040000002D01000009000000FA02000000000000000000002200040000002D01010007000000
FC020000000000000000040000002D01020010000000FB0210FF00000000000090010000000107
000000417269616C000100040000002D0103000400000002010100050000000102FFFFFF000400
00002E01180005000000090200000000040000000801000015000000FB0210FF00000000000090
01000000010700000054696D6573204E657720526F6D616E000100040000002D0104000B000000
26060F000C004D6174685479706500003C0115000000FB0256FF00000000000090010100000107
00000054696D6573204E657720526F6D616E000100040000002D01050010000000FB0256FF0000
000000009001000000020700000053796D626F6C0002040000002D01060010000000FB0256FF00
00000000009001000000020700000053796D626F6C0002040000002D01070015000000FB0210FF
0000000000009001010000020700000054696D6573204E657720526F6D616E000200040000002D
01080015000000FB0210FF0000000000009001010000010700000054696D6573204E657720526F
6D616E000100040000002D01090013000000FB0210FF0000000000009001000000010700000053
46204D61746820457874000100040000002D010A0013000000FB0210FF00000000000090010000
0002070000005346204D61746820457874000200040000002D010B0015000000FB0210FF000000
0000009001000000020700000054696D6573204E657720526F6D616E000200040000002D010C00
040000002D010400040000002D010A00040000002D010B00040000002D010C00040000002D0104
00040000002D010A00040000002D010B00040000002D010C00040000002D010400040000002D01
0A00040000002D010B00040000002D010C00040000002D01040010000000FB0210FF0000000000
009001000000020700000053796D626F6C0002040000002D010D0010000000FB0210FF00000000
00009001000000020700000053796D626F6C0002040000002D010E00040000002D010C00040000
002D010400040000002D010900040000002D010A00040000002D010B00040000002D010C000400
00002D010400040000002D010A00040000002D010B00040000002D010C00040000002D01040004
0000002D010D00040000002D010E00040000002D010C00040000002D010400040000002D010D00
040000002D010E00040000002D010C00040000002D010400040000002D010D00040000002D010E
00040000002D010C00040000002D0104000500000009020000FF00070000002105010065002E02
6400040000002D010600040000002D01070007000000210501002D008F01E80015000000FB0256
FF0000000000009001010000020700000054696D6573204E657720526F6D616E00020004000000
2D010F00040000002D010500070000002105010054008F015F01040000002D010600040000002D
0107000700000021050100D7008F01E701040000002D010F00040000002D010500070000002105
010074008F012B02040000002D010D00040000002D010E000700000021050100D7002E028E0204
0000002D010C00040000002D010400040000002D010D00040000002D010E00040000002D010C00
040000002D010400040000002D010D00040000002D010E00040000002D010C00040000002D0104
00040000002D010D00040000002D010E00040000002D010C00040000002D010400040000002D01
0D00040000002D010E00040000002D010C00040000002D010400040000002D010D00040000002D
010E000700000021050100B6008C01EC030700000021050100B60022031703040000002D010800
040000002D010900070000002105010043002203B203040000002D010A00040000002D010B0004
0000002D010C00040000002D010400040000002D010A00040000002D010B00040000002D010C00
040000002D010400040000002D010A00040000002D010B000700000021050100280022035B0404
0000002D010C00040000002D010400040000002D010900070000002105010074002203B8040400
00002D010A00040000002D010B00040000002D010C00040000002D010400040000002D010A0004
0000002D010B00040000002D010C00040000002D010400040000002D010A00040000002D010B00
070000002105010029002203FF040700000021050100C500DD01FA020700000021050100C500DD
018A030700000021050100C500DD011A040700000021050100C500DD01AA040700000021050100
C500DD01E904040000002D010C00040000002D010400070000002105010020002E027905040000
002D010900070000002105010055002E02B505040000002D010A00040000002D010B0004000000
2D010C00040000002D010400040000002D010A00040000002D010B00040000002D010C00040000
002D010400040000002D010A00040000002D010B00070000002105010028002E02780604000000
2D010C00040000002D010400040000002D010900070000002105010043002E02D506040000002D
010A00040000002D010B00040000002D010C00040000002D010400040000002D010A0004000000
2D010B00040000002D010C00040000002D010400040000002D010A00040000002D010B00070000
002105010028002E027E07040000002D010C00040000002D010400040000002D01090007000000
2105010074002E02DB07040000002D010A00040000002D010B00040000002D010C00040000002D
010400040000002D010A00040000002D010B00040000002D010C00040000002D01040004000000
2D010A00040000002D010B00070000002105010029002E022208040000002D010C00040000002D
010400040000002D010A00040000002D010B00040000002D010C00040000002D01040004000000
2D010A00040000002D010B00070000002105010029002E027F0809000000FA0200000000000000
0000002200040000002D01100004000000F001010007000000FC020000FFFFFF00000004000000
2D01010010000000FB021000070000000000BC02000000000102022253797374656D0000040000
002D011100040000002701FFFF04000000F001030004000000F001040004000000F00105000400
0000F001060004000000F001070004000000F001080004000000F001090004000000F0010A0004
000000F0010B0004000000F0010C0004000000F0010D0004000000F0010E0004000000F0010F00
040000002701FFFF030000000000
}\plain\f6\fs22\cf1\protect 
\par \pard\li50\ri2\plain\f6\fs22\cf1\protect 
\par \pard\li300\ri5\fi-300{\*\pn\pnlvlblt\pnf1\pnindent300{\pntxtb\'b7}}\plain\lang1036\f6\fs22\cf2 {\pntext\f1\'b7\tab}D(sin)
\par \pard\li50\ri6\plain\f6\fs22\cf1\protect    {\pict\wmetafile8\picw917\pich827\picwgoal519\pichgoal468
010009000003020100000700180000000000050000000B0200000000050000000C023B03950303
0000001E00030000001E00050000000C02D5010802050000000B020000000018000000FF060000
06008A7904002A000100020000C000C0FF3FFF3F020000C0FF3F00C0FF3F020015000000FB0210
FF040000002D01000009000000FA02000000000000000000002200040000002D01010007000000
FC020000000000000000040000002D01020010000000FB0210FF00000000000090010000000107
000000417269616C000100040000002D0103000400000002010100050000000102FFFFFF000400
00002E01180005000000090200000000040000000801000015000000FB0210FF00000000000090
01000000010700000054696D6573204E657720526F6D616E000100040000002D0104000B000000
26060F000C004D6174685479706500007B000500000009020000FF00070000002105010063003B
01640007000000210501006F003B01CF00070000002105010073003B01470109000000FA020000
00000000000000002200040000002D01050004000000F001010007000000FC020000FFFFFF0000
00040000002D01010010000000FB021000070000000000BC02000000000102022253797374656D
0000040000002D010600040000002701FFFF04000000F001030004000000F00104000400000027
01FFFF030000000000
}\plain\f6\fs22\cf1\protect 
\par \pard\li50\ri2\plain\f6\fs22\cf1\protect 
\par \pard\li300\ri5\fi-300{\*\pn\pnlvlblt\pnf1\pnindent300{\pntxtb\'b7}}\plain\lang1036\f6\fs22\cf2 {\pntext\f1\'b7\tab}p3:=subs(p1,diff(U(c),c)=D(U)(c))
\par \pard\li50\ri6\plain\f6\fs22\cf1\protect    {\pict\wmetafile8\picw2480\pich1097\picwgoal1405\pichgoal621
0100090000031D0300001200180000000000050000000B0200000000050000000C024904B00903
0000001E00030000001E00050000000C026E027E05050000000B020000000018000000FF060000
0600907904002A000100020000C000C0FF3FFF3F020000C0FF3F00C0FF3F020015000000FB0210
FF040000002D01000009000000FA02000000000000000000002200040000002D01010007000000
FC020000000000000000040000002D01020010000000FB0210FF00000000000090010000000107
000000417269616C000100040000002D0103000400000002010100050000000102FFFFFF000400
00002E01180005000000090200000000040000000801000015000000FB0210FF00000000000090
01000000010700000054696D6573204E657720526F6D616E000100040000002D0104000B000000
26060F000C004D6174685479706500007B0015000000FB0210FF00000000000090010100000107
00000054696D6573204E657720526F6D616E000100040000002D01050015000000FB0256FF0000
000000009001000000010700000054696D6573204E657720526F6D616E000100040000002D0106
00040000002D01050013000000FB0210FF000000000000900100000001070000005346204D6174
6820457874000100040000002D01070013000000FB0210FF000000000000900100000002070000
005346204D61746820457874000200040000002D01080015000000FB0210FF0000000000009001
000000020700000054696D6573204E657720526F6D616E000200040000002D010900040000002D
010400040000002D010700040000002D010800040000002D010900040000002D01040015000000
FB0256FF0000000000009001010000010700000054696D6573204E657720526F6D616E00010004
0000002D010A0010000000FB0256FF0000000000009001000000020700000053796D626F6C0002
040000002D010B0010000000FB0256FF0000000000009001000000020700000053796D626F6C00
02040000002D010C0010000000FB0210FF0000000000009001000000020700000053796D626F6C
0002040000002D010D00040000002D010900040000002D01040010000000FB0210FF0000000000
009001000000020700000053796D626F6C0002040000002D010E00040000002D010D0004000000
2D010900040000002D010400040000002D0106000500000009020000FF00040000002D01050007
000000210501005500D4016400040000002D010600070000002105010027009E01400104000000
2D010700040000002D010800040000002D010900040000002D010400040000002D010700040000
002D010800040000002D010900040000002D010400040000002D010700040000002D0108000700
0000210501002800D4015F01040000002D010900040000002D010400040000002D010500070000
00210501006300D401BC01040000002D010700040000002D010800040000002D01090004000000
2D010400040000002D010700040000002D010800040000002D010900040000002D010400040000
002D010700040000002D01080007000000210501002900D4012702040000002D010D0007000000
21050100D700D401B402040000002D010900040000002D01040007000000210501006500D40120
03040000002D010B00040000002D010C0007000000210501002D003501A40315000000FB0256FF
0000000000009001010000020700000054696D6573204E657720526F6D616E000200040000002D
010F00040000002D010A000700000021050100540035011B04040000002D010B00040000002D01
0C000700000021050100D7003501A304040000002D010F00040000002D010A0007000000210501
0074003501E70409000000FA02000000000000000000002200040000002D01100004000000F001
010007000000FC020000FFFFFF000000040000002D01010010000000FB021000070000000000BC
02000000000102022253797374656D0000040000002D011100040000002701FFFF04000000F001
030004000000F001040004000000F001050004000000F001060004000000F001070004000000F0
01080004000000F001090004000000F0010A0004000000F0010B0004000000F0010C0004000000
F0010D0004000000F0010E0004000000F0010F00040000002701FFFF030000000000
}\plain\f6\fs22\cf1\protect 
\par \pard\li50\ri2\plain\f6\fs22\cf1\protect 
\par \pard\li300\ri5\fi-300{\*\pn\pnlvlblt\pnf1\pnindent300{\pntxtb\'b7}}\plain\lang1036\f6\fs22\cf2 {\pntext\f1\'b7\tab}p4:=subs(p3,c=C(t))
\par \pard\li50\ri6\plain\f6\fs22\cf1\protect    {\pict\wmetafile8\picw3043\pich1097\picwgoal1725\pichgoal621
010009000003A60300001200180000000000050000000B0200000000050000000C024904E30B03
0000001E00030000001E00050000000C026E02BD06050000000B020000000018000000FF060000
0600A17904002A000100020000C000C0FF3FFF3F020000C0FF3F00C0FF3F020015000000FB0210
FF040000002D01000009000000FA02000000000000000000002200040000002D01010007000000
FC020000000000000000040000002D01020010000000FB0210FF00000000000090010000000107
000000417269616C000100040000002D0103000400000002010100050000000102FFFFFF000400
00002E01180005000000090200000000040000000801000015000000FB0210FF00000000000090
01000000010700000054696D6573204E657720526F6D616E000100040000002D0104000B000000
26060F000C004D6174685479706500007B0015000000FB0210FF00000000000090010100000107
00000054696D6573204E657720526F6D616E000100040000002D01050015000000FB0256FF0000
000000009001000000010700000054696D6573204E657720526F6D616E000100040000002D0106
00040000002D01050013000000FB0210FF000000000000900100000001070000005346204D6174
6820457874000100040000002D01070013000000FB0210FF000000000000900100000002070000
005346204D61746820457874000200040000002D01080015000000FB0210FF0000000000009001
000000020700000054696D6573204E657720526F6D616E000200040000002D010900040000002D
010400040000002D010700040000002D010800040000002D010900040000002D01040004000000
2D010700040000002D010800040000002D010900040000002D010400040000002D010700040000
002D010800040000002D010900040000002D01040015000000FB0256FF00000000000090010100
00010700000054696D6573204E657720526F6D616E000100040000002D010A0010000000FB0256
FF0000000000009001000000020700000053796D626F6C0002040000002D010B0010000000FB02
56FF0000000000009001000000020700000053796D626F6C0002040000002D010C0010000000FB
0210FF0000000000009001000000020700000053796D626F6C0002040000002D010D0004000000
2D010900040000002D01040010000000FB0210FF0000000000009001000000020700000053796D
626F6C0002040000002D010E00040000002D010D00040000002D010900040000002D0104000400
00002D0106000500000009020000FF00040000002D01050007000000210501005500D401640004
0000002D010600070000002105010027009E014001040000002D010700040000002D0108000400
00002D010900040000002D010400040000002D010700040000002D010800040000002D01090004
0000002D010400040000002D010700040000002D01080007000000210501002800D4015F010400
00002D010900040000002D010400040000002D01050007000000210501004300D401BC01040000
002D010700040000002D010800040000002D010900040000002D010400040000002D0107000400
00002D010800040000002D010900040000002D010400040000002D010700040000002D01080007
000000210501002800D4016502040000002D010900040000002D010400040000002D0105000700
0000210501007400D401C202040000002D010700040000002D010800040000002D010900040000
002D010400040000002D010700040000002D010800040000002D010900040000002D0104000400
00002D010700040000002D01080007000000210501002900D4010903040000002D010900040000
002D010400040000002D010700040000002D010800040000002D010900040000002D0104000400
00002D010700040000002D01080007000000210501002900D4016603040000002D010D00070000
0021050100D700D401F303040000002D010900040000002D01040007000000210501006500D401
5F04040000002D010B00040000002D010C0007000000210501002D003501E30415000000FB0256
FF0000000000009001010000020700000054696D6573204E657720526F6D616E00020004000000
2D010F00040000002D010A000700000021050100540035015A05040000002D010B00040000002D
010C000700000021050100D7003501E205040000002D010F00040000002D010A00070000002105
010074003501260609000000FA02000000000000000000002200040000002D01100004000000F0
01010007000000FC020000FFFFFF000000040000002D01010010000000FB021000070000000000
BC02000000000102022253797374656D0000040000002D011100040000002701FFFF04000000F0
01030004000000F001040004000000F001050004000000F001060004000000F001070004000000
F001080004000000F001090004000000F0010A0004000000F0010B0004000000F0010C00040000
00F0010D0004000000F0010E0004000000F0010F00040000002701FFFF030000000000
}\plain\f6\fs22\cf1\protect 
\par \pard\li50\ri2\plain\f6\fs22\cf1\protect 
\par \pard\li300\ri5\fi-300{\*\pn\pnlvlblt\pnf1\pnindent300{\pntxtb\'b7}}\plain\lang1036\f6\fs22\cf2 {\pntext\f1\'b7\tab}fff:=x->x*x*x
\par \pard\li50\ri6\plain\f6\fs22\cf1\protect    {\pict\wmetafile8\picw2379\pich970\picwgoal1348\pichgoal549
010009000003E50100000C00180000000000050000000B0200000000050000000C02CA034B0903
0000001E00030000001E00050000000C0226024505050000000B020000000018000000FF060000
0600B27904002A000100020000C000C0FF3FFF3F020000C0FF3F00C0FF3F020015000000FB0210
FF040000002D01000009000000FA02000000000000000000002200040000002D01010007000000
FC020000000000000000040000002D01020010000000FB0210FF00000000000090010000000107
000000417269616C000100040000002D0103000400000002010100050000000102FFFFFF000400
00002E01180005000000090200000000040000000801000015000000FB0210FF00000000000090
01000000010700000054696D6573204E657720526F6D616E000100040000002D0104000B000000
26060F000C004D6174685479706500007B0015000000FB0210FF00000000000090010100000107
00000054696D6573204E657720526F6D616E000100040000002D01050010000000FB0210FF0000
000000009001000000020700000053796D626F6C0002040000002D01060010000000FB0210FF00
00000000009001000000020700000053796D626F6C0002040000002D01070015000000FB0210FF
0000000000009001000000020700000054696D6573204E657720526F6D616E000200040000002D
010800040000002D010400040000002D010600040000002D0107000500000009020000FF001500
0000FB0210FF0000000000009001010000020700000054696D6573204E657720526F6D616E0002
00040000002D010900040000002D010500070000002105010078008C016B00040000002D010600
040000002D0107000700000021050100AE008C011E01040000002D010900040000002D01050007
0000002105010078008C015A02040000002D010600040000002D0107000700000021050100D700
8C01F502040000002D010900040000002D010500070000002105010078008C016803040000002D
010600040000002D0107000700000021050100D7008C010304040000002D010900040000002D01
0500070000002105010078008C01760409000000FA02000000000000000000002200040000002D
010A0004000000F001010007000000FC020000FFFFFF000000040000002D01010010000000FB02
1000070000000000BC02000000000102022253797374656D0000040000002D010B000400000027
01FFFF04000000F001030004000000F001040004000000F001050004000000F001060004000000
F001070004000000F001080004000000F0010900040000002701FFFF030000000000
}\plain\f6\fs22\cf1\protect 
\par \pard\li50\ri2\plain\f6\fs22\cf1\protect 
\par \pard\li300\ri5\fi-300{\*\pn\pnlvlblt\pnf1\pnindent300{\pntxtb\'b7}}\plain\f6\fs22\cf2 {\pntext\f1\'b7\tab}fff5!)-
\par \pard\li50\ri6\plain\f6\fs22\cf1\protect fff5!)
\par \pard\li50\ri2\plain\f6\fs22\cf1\protect      ^ Error: Unexpected ')' [line 1, col 6]
\par 
\par \pard\li300\ri5\fi-300{\*\pn\pnlvlblt\pnf1\pnindent300{\pntxtb\'b7}}\plain\f6\fs22\cf2 {\pntext\f1\'b7\tab}fff(10)
\par \pard\li50\ri6\plain\f6\fs22\cf1\protect    {\pict\wmetafile8\picw1199\pich827\picwgoal679\pichgoal468
010009000003090100000700180000000000050000000B0200000000050000000C023B03AF0403
0000001E00030000001E00050000000C02D501A802050000000B020000000018000000FF060000
0600BD7904002A000100020000C000C0FF3FFF3F020000C0FF3F00C0FF3F020015000000FB0210
FF040000002D01000009000000FA02000000000000000000002200040000002D01010007000000
FC020000000000000000040000002D01020010000000FB0210FF00000000000090010000000107
000000417269616C000100040000002D0103000400000002010100050000000102FFFFFF000400
00002E01180005000000090200000000040000000801000015000000FB0210FF00000000000090
01000000010700000054696D6573204E657720526F6D616E000100040000002D0104000B000000
26060F000C004D6174685479706500007B000500000009020000FF00070000002105010031003B
016400070000002105010030003B01DC00070000002105010030003B0154010700000021050100
30003B01CC0109000000FA02000000000000000000002200040000002D01050004000000F00101
0007000000FC020000FFFFFF000000040000002D01010010000000FB021000070000000000BC02
000000000102022253797374656D0000040000002D010600040000002701FFFF04000000F00103
0004000000F0010400040000002701FFFF030000000000
}\plain\f6\fs22\cf1\protect 
\par \pard\li50\ri2\plain\f6\fs22\cf1\protect 
\par \pard\li300\ri5\fi-300{\*\pn\pnlvlblt\pnf1\pnindent300{\pntxtb\'b7}}\plain\f6\fs22\cf2 {\pntext\f1\'b7\tab}P:=t->p4
\par \pard\li50\ri6\plain\f6\fs22\cf1\protect    {\pict\wmetafile8\picw1575\pich970\picwgoal892\pichgoal549
010009000003B40100000C00180000000000050000000B0200000000050000000C02CA03270603
0000001E00030000001E00050000000C0226027D03050000000B020000000018000000FF060000
0600C37904002A000100020000C000C0FF3FFF3F020000C0FF3F00C0FF3F020015000000FB0210
FF040000002D01000009000000FA02000000000000000000002200040000002D01010007000000
FC020000000000000000040000002D01020010000000FB0210FF00000000000090010000000107
000000417269616C000100040000002D0103000400000002010100050000000102FFFFFF000400
00002E01180005000000090200000000040000000801000015000000FB0210FF00000000000090
01000000010700000054696D6573204E657720526F6D616E000100040000002D0104000B000000
26060F000C004D6174685479706500007B0015000000FB0210FF00000000000090010100000107
00000054696D6573204E657720526F6D616E000100040000002D010500040000002D0104001000
0000FB0210FF0000000000009001000000020700000053796D626F6C0002040000002D01060010
000000FB0210FF0000000000009001000000020700000053796D626F6C0002040000002D010700
15000000FB0210FF0000000000009001000000020700000054696D6573204E657720526F6D616E
000200040000002D010800040000002D010400040000002D010600040000002D01070005000000
09020000FF0015000000FB0210FF0000000000009001010000020700000054696D6573204E6577
20526F6D616E000200040000002D010900040000002D010500070000002105010074008C016400
040000002D010600040000002D0107000700000021050100AE008C01F300040000002D01080004
0000002D010400070000002105010070008C012902070000002105010034008C01A10209000000
FA02000000000000000000002200040000002D010A0004000000F001010007000000FC020000FF
FFFF000000040000002D01010010000000FB021000070000000000BC0200000000010202225379
7374656D0000040000002D010B00040000002701FFFF04000000F001030004000000F001040004
000000F001050004000000F001060004000000F001070004000000F001080004000000F0010900
040000002701FFFF030000000000
}\plain\f6\fs22\cf1\protect 
\par \pard\li50\ri2\plain\f6\fs22\cf1\protect 
\par \pard\li300\ri5\fi-300{\*\pn\pnlvlblt\pnf1\pnindent300{\pntxtb\'b7}}\plain\f6\fs22\cf2 {\pntext\f1\'b7\tab}ek
\par \pard\li50\ri6\plain\f6\fs22\cf1\protect    {\pict\wmetafile8\picw14732\pich1683\picwgoal8352\pichgoal954
010009000003370B00001300180000000000050000000B0200000000050000000C0293068C3903
0000001E00030000001E00050000000C02BA03A020050000000B020000000018000000FF060000
0600CE7904002A000100020000C000C0FF3FFF3F020000C0FF3F00C0FF3F020015000000FB0210
FF040000002D01000009000000FA02000000000000000000002200040000002D01010007000000
FC020000000000000000040000002D01020010000000FB0210FF00000000000090010000000107
000000417269616C000100040000002D0103000400000002010100050000000102FFFFFF000400
00002E01180005000000090200000000040000000801000015000000FB0210FF00000000000090
01000000010700000054696D6573204E657720526F6D616E000100040000002D0104000B000000
26060F000C004D6174685479706500003C0115000000FB0210FF00000000000090010100000107
00000054696D6573204E657720526F6D616E000100040000002D01050015000000FB0256FF0000
000000009001000000010700000054696D6573204E657720526F6D616E000100040000002D0106
00040000002D01050013000000FB0210FF000000000000900100000001070000005346204D6174
6820457874000100040000002D01070013000000FB0210FF000000000000900100000002070000
005346204D61746820457874000200040000002D01080015000000FB0210FF0000000000009001
000000020700000054696D6573204E657720526F6D616E000200040000002D010900040000002D
010400040000002D010700040000002D010800040000002D010900040000002D01040004000000
2D010700040000002D010800040000002D010900040000002D010400040000002D010700040000
002D010800040000002D010900040000002D01040015000000FB0256FF00000000000090010100
00010700000054696D6573204E657720526F6D616E000100040000002D010A0010000000FB0256
FF0000000000009001000000020700000053796D626F6C0002040000002D010B0010000000FB02
56FF0000000000009001000000020700000053796D626F6C0002040000002D010C0015000000FB
0210FF0000000000009001010000020700000054696D6573204E657720526F6D616E0002000400
00002D010D00040000002D010500040000002D010700040000002D010800040000002D01090004
0000002D010400040000002D010700040000002D010800040000002D010900040000002D010400
10000000FB0210FF0000000000009001000000020700000053796D626F6C0002040000002D010E
0010000000FB0210FF0000000000009001000000020700000053796D626F6C0002040000002D01
0F00040000002D010900040000002D010400040000002D010500040000002D010E00040000002D
010F00040000002D010900040000002D010400040000002D010E00040000002D010F0004000000
2D010D00040000002D010500040000002D010400040000002D010500040000002D010600040000
002D010500040000002D010700040000002D010800040000002D010900040000002D0104000400
00002D010700040000002D010800040000002D010900040000002D010400040000002D01070004
0000002D010800040000002D010900040000002D010400040000002D010700040000002D010800
040000002D010900040000002D010400040000002D010A00040000002D010B00040000002D010C
00040000002D010F00040000002D010900040000002D010400040000002D010500040000002D01
0600040000002D010500040000002D010700040000002D010800040000002D010900040000002D
010400040000002D010700040000002D010800040000002D010900040000002D01040004000000
2D010700040000002D010800040000002D010900040000002D010400040000002D010700040000
002D010800040000002D010900040000002D010400040000002D010A00040000002D010B000400
00002D010C00040000002D010D00040000002D010500040000002D010700040000002D01080004
0000002D010900040000002D010400040000002D010700040000002D010800040000002D010900
040000002D010400040000002D010E00040000002D010F00040000002D010900040000002D0104
00040000002D010500040000002D010E00040000002D010F00040000002D010900040000002D01
0400040000002D010E00040000002D010F00040000002D010800040000002D010900040000002D
010400040000002D010700040000002D010800040000002D010900040000002D01040004000000
2D010700040000002D010800040000002D010F00040000002D010900040000002D010400040000
002D010E00040000002D010F00040000002D010900040000002D010400040000002D0106000400
00002D010400040000002D0106000500000009020000FF00040000002D01050007000000210501
0055002E026400040000002D01060007000000210501002700F801400107000000210501002700
F8017801040000002D010700040000002D010800040000002D010900040000002D010400040000
002D010700040000002D010800040000002D010900040000002D010400040000002D0107000400
00002D010800070000002105010028002E029701040000002D010900040000002D010400040000
002D010500070000002105010043002E02F401040000002D010700040000002D01080004000000
2D010900040000002D010400040000002D010700040000002D010800040000002D010900040000
002D010400040000002D010700040000002D010800070000002105010028002E029D0204000000
2D010900040000002D010400040000002D010500070000002105010074002E02FA02040000002D
010700040000002D010800040000002D010900040000002D010400040000002D01070004000000
2D010800040000002D010900040000002D010400040000002D010700040000002D010800070000
002105010029002E024103040000002D010900040000002D010400040000002D01070004000000
2D010800040000002D010900040000002D010400040000002D010700040000002D010800070000
002105010029002E029E03040000002D010F000700000021050100D7002E022B04040000002D01
0900040000002D010400070000002105010065002E029704040000002D010B00040000002D010C
0007000000210501002D008F011B0515000000FB0256FF00000000000090010100000207000000
54696D6573204E657720526F6D616E000200040000002D011000040000002D010A000700000021
05010054008F019205040000002D010B00040000002D010C000700000021050100D7008F011A06
040000002D011000040000002D010A00070000002105010074008F015E06040000002D010E0004
0000002D010F000700000021050100D7002E02C106040000002D010900040000002D0104000400
00002D010E00040000002D010F00040000002D010900040000002D010400040000002D010E0004
0000002D010F00040000002D010900040000002D010400040000002D010E00040000002D010F00
040000002D010900040000002D010400040000002D010E00040000002D010F00040000002D0109
00040000002D010400040000002D010E00040000002D010F000700000021050100B6008C016D07
0700000021050100B60022034A07040000002D010D00040000002D010500070000002105010074
002203E507040000002D010700040000002D0108000700000021050100C500DD012D0707000000
21050100C500DD01B907040000002D010900040000002D010400070000002105010020002E0249
08040000002D010500070000002105010043002E028508040000002D010700040000002D010800
040000002D010900040000002D010400040000002D010700040000002D010800040000002D0109
00040000002D010400040000002D010700040000002D010800070000002105010028002E022E09
040000002D010900040000002D010400040000002D010500070000002105010074002E028B0904
0000002D010700040000002D010800040000002D010900040000002D010400040000002D010700
040000002D010800040000002D010900040000002D010400040000002D010700040000002D0108
00070000002105010029002E02D209040000002D010F0007000000210501002D002E026B0A0400
00002D010D00040000002D010500070000002105010054002E022B0B040000002D010E00040000
002D010F000700000021050100D7002E02F60B040000002D010900040000002D01040004000000
2D010600040000002D010500070000002105010055002E02620C040000002D0106000700000021
0501002700F8013E0D040000002D010700040000002D010800040000002D010900040000002D01
0400040000002D010700040000002D010800040000002D010900040000002D010400040000002D
010700040000002D010800070000002105010028002E025D0D040000002D010900040000002D01
0400040000002D010500070000002105010043002E02BA0D040000002D010700040000002D0108
00040000002D010900040000002D010400040000002D010700040000002D010800040000002D01
0900040000002D010400040000002D010700040000002D010800070000002105010028002E0263
0E040000002D010900040000002D010400040000002D010500070000002105010074002E02C00E
040000002D010700040000002D010800040000002D010900040000002D010400040000002D0107
00040000002D010800040000002D010900040000002D010400040000002D010700040000002D01
0800070000002105010029002E02070F040000002D010900040000002D010400040000002D0107
00040000002D010800040000002D010900040000002D010400040000002D010700040000002D01
0800070000002105010029002E02640F040000002D010F000700000021050100D7002E02F10F04
0000002D010900040000002D010400070000002105010065002E025D10040000002D010B000400
00002D010C0007000000210501002D008F01E110040000002D011000040000002D010A00070000
002105010054008F015811040000002D010B00040000002D010C000700000021050100D7008F01
E011040000002D011000040000002D010A00070000002105010074008F012412040000002D010E
00040000002D010F0007000000210501003D002E029F12040000002D010800040000002D010900
040000002D010400040000002D010700040000002D010800040000002D010900040000002D0104
00040000002D010700040000002D010800040000002D010F00040000002D010900040000002D01
0400040000002D010600040000002D010500070000002105010055002E026B13040000002D0106
0007000000210501002700F8014714040000002D010700040000002D010800040000002D010900
040000002D010400040000002D010700040000002D010800040000002D010900040000002D0104
00040000002D010700040000002D010800070000002105010028002E026614040000002D010900
040000002D010400040000002D010500070000002105010043002E02C314040000002D01070004
0000002D010800040000002D010900040000002D010400040000002D010700040000002D010800
040000002D010900040000002D010400040000002D010700040000002D01080007000000210501
0028002E026C15040000002D010900040000002D010400040000002D0105000700000021050100
74002E02C915040000002D010700040000002D010800040000002D010900040000002D01040004
0000002D010700040000002D010800040000002D010900040000002D010400040000002D010700
040000002D010800070000002105010029002E021016040000002D010900040000002D01040004
0000002D010700040000002D010800040000002D010900040000002D010400040000002D010700
040000002D010800070000002105010029002E026D16040000002D010F000700000021050100D7
002E02FA16040000002D010900040000002D010400070000002105010065002E02661704000000
2D010B00040000002D010C0007000000210501002D008F01EA17040000002D011000040000002D
010A00070000002105010054008F016118040000002D010B00040000002D010C00070000002105
0100D7008F01E918040000002D011000040000002D010A00070000002105010074008F012D1904
0000002D010E00040000002D010F000700000021050100D7002E029019040000002D0108000400
00002D010900040000002D010400040000002D010700040000002D010800040000002D01090004
0000002D010400040000002D010700040000002D010800040000002D010900040000002D010400
040000002D010700040000002D010800040000002D010900040000002D010400040000002D0107
00040000002D0108000700000021050100C3007500FC19040000002D010D00040000002D010500
07000000210501006E002E02BA1A040000002D010E00040000002D010F0007000000210501002D
002E026E1B040000002D010900040000002D010400040000002D010E00040000002D010F000400
00002D010900040000002D010400040000002D010E00040000002D010F00040000002D01090004
0000002D010400040000002D010E00040000002D010F00040000002D010900040000002D010400
040000002D010E00040000002D010F00040000002D010900040000002D010400040000002D010E
00040000002D010F000700000021050100B6008C01851C0700000021050100B60022034B1C0400
00002D010D00040000002D01050007000000210501006B002203E61C040000002D010700040000
002D0108000700000021050100C500DD012E1C0700000021050100C500DD01BE1C070000002105
0100C500DD01E81C040000002D010900040000002D010400070000002105010020002E02781D04
0000002D010500070000002105010066002E02DD1D040000002D010700040000002D0108000400
00002D010900040000002D010400040000002D010700040000002D010800040000002D01090004
0000002D010400040000002D010700040000002D010800070000002105010028002E024F1E0400
00002D010900040000002D010400040000002D01050007000000210501006B002E02AC1E040000
002D010700040000002D010800040000002D010900040000002D010400040000002D0107000400
00002D010800040000002D010900040000002D010400040000002D010700040000002D01080007
0000002105010029002E02211F040000002D010900040000002D010400040000002D0107000400
00002D010800040000002D010900040000002D010400040000002D010700040000002D01080007
00000021050100210075007E1F09000000FA02000000000000000000002200040000002D011100
04000000F001010007000000FC020000FFFFFF000000040000002D01010010000000FB02100007
0000000000BC02000000000102022253797374656D0000040000002D011200040000002701FFFF
04000000F001030004000000F001040004000000F001050004000000F001060004000000F00107
0004000000F001080004000000F001090004000000F0010A0004000000F0010B0004000000F001
0C0004000000F0010D0004000000F0010E0004000000F0010F0004000000F00110000400000027
01FFFF030000000000
}\plain\f6\fs22\cf1\protect 
\par \pard\li50\ri2\plain\f6\fs22\cf1\protect 
\par \pard\li300\ri5\fi-300{\*\pn\pnlvlblt\pnf1\pnindent300{\pntxtb\'b7}}\plain\lang1036\f6\fs22\cf2 {\pntext\f1\'b7\tab}ek2:=simplify(ek/(U'(C(t))*exp(-T*t)))
\par \pard\li50\ri6\plain\f6\fs22\cf1\protect    {\pict\wmetafile8\picw8719\pich2011\picwgoal4943\pichgoal1140
010009000003F60900001400180000000000050000000B0200000000050000000C02DB070F2203
0000001E00030000001E00050000000C0274044F13050000000B020000000018000000FF060000
0600E07904002A000100020000C000C0FF3FFF3F020000C0FF3F00C0FF3F020015000000FB0210
FF040000002D01000009000000FA02000000000000000000002200040000002D01010007000000
FC020000000000000000040000002D01020010000000FB0210FF00000000000090010000000107
000000417269616C000100040000002D0103000400000002010100050000000102FFFFFF000400
00002E01180005000000090200000000040000000801000015000000FB0210FF00000000000090
01000000010700000054696D6573204E657720526F6D616E000100040000002D0104000B000000
26060F000C004D6174685479706500003C0115000000FB0210FF00000000000090010100000107
00000054696D6573204E657720526F6D616E000100040000002D01050015000000FB0256FF0000
000000009001000000010700000054696D6573204E657720526F6D616E000100040000002D0106
00040000002D01050013000000FB0210FF000000000000900100000001070000005346204D6174
6820457874000100040000002D01070013000000FB0210FF000000000000900100000002070000
005346204D61746820457874000200040000002D01080015000000FB0210FF0000000000009001
000000020700000054696D6573204E657720526F6D616E000200040000002D010900040000002D
010400040000002D010700040000002D010800040000002D010900040000002D01040004000000
2D010700040000002D010800040000002D010900040000002D010400040000002D010700040000
002D010800040000002D010900040000002D010400040000002D010500040000002D0107000400
00002D010800040000002D010900040000002D010400040000002D010700040000002D01080004
0000002D010900040000002D01040010000000FB0256FF00000000000090010000000207000000
53796D626F6C0002040000002D010A0010000000FB0256FF000000000000900100000002070000
0053796D626F6C0002040000002D010B0015000000FB0256FF0000000000009001000000020700
000054696D6573204E657720526F6D616E000200040000002D010C00040000002D010600150000
00FB0256FF0000000000009001010000010700000054696D6573204E657720526F6D616E000100
040000002D010D00040000002D010A00040000002D010B00040000002D010C00040000002D0106
00040000002D01040010000000FB0210FF0000000000009001000000020700000053796D626F6C
0002040000002D010E0010000000FB0210FF0000000000009001000000020700000053796D626F
6C0002040000002D010F0015000000FB0210FF0000000000009001010000020700000054696D65
73204E657720526F6D616E000200040000002D011000040000002D010500040000002D01040004
0000002D010500040000002D010600040000002D010500040000002D010700040000002D010800
