{\rtf1\ansi\deff0\deftab720{\fonttbl{\f0\fswiss MS Sans Serif;}{\f1\froman\fcharset2 Symbol;}{\f2\fswiss\fprq2 System;}{\f3\froman\fprq2 Times New Roman;}{\f4\fswiss\fprq2 Arial;}{\f5\froman\fprq2 Bookman Old Style;}{\f6\fmodern\fprq1 Courier New;}{\f7\fmodern Courier New;}{\f8\froman Times New Roman;}{\f9\froman\fprq2 Symbol;}{\f10\froman\fcharset1 Times New Roman;}{\f11\froman\fprq2\fcharset2 Times New Roman;}{\f12\froman\fcharset1 Times New Roman;}}
{\colortbl\red0\green0\blue0;\red0\green0\blue255;\red255\green0\blue0;\red0\green128\blue0;}
\deflang1033\pard\li300\ri5\fi-300{\*\pn\pnlvlblt\pnf1\pnindent300{\pntxtb\'b7}}\plain\lang1036\f6\fs22\cf2 {\pntext\f1\'b7\tab}read("c:\\\\jacques\\\\eco\\\\ramsey32in.txt")
\par \pard\li50\ri6\plain\f6\fs22\cf1\protect    {\pict\wmetafile8\picw1412\pich825\picscalex99\picscaley99\picwgoal801\pichgoal468
010009000003340100000700180000000000050000000B0200000000050000000C023903840503
0000001E00050000000C023B038505050000000B0200000000030000001E00030000001E000500
00000C02D5012103050000000B0200000000050000000B020000000018000000FF0600000600F3
7B05002A000100020000C000C0FF3FFF3F020000C0FF3F00C0FF3F020000000400000024000400
00002D01000009000000FA02000000000000000000002200040000002D01010007000000FC0200
00000000000000040000002D01020010000000FB0210FF00000000000090010000000107000000
417269616C000100040000002D0103000400000002010100050000000102FFFFFF00040000002E
01180005000000090200000000040000000801000015000000FB0210FF00000000000090010000
00010700000054696D6573204E657720526F6D616E000100040000002D0104000B00000026060F
000C004D6174685479706500007B000500000009020000FF00070000002105010072003B016400
070000002105010065003B01B400070000002105010073003B011F01070000002105010074003B
017C01070000002105010061003B01BF01070000002105010072003B012A020700000021050100
74003B017A0209000000FA02000000000000000000002200040000002D01050004000000F00101
0007000000FC020000FFFFFF000000040000002D01010010000000FB021000070000000000BC02
000000000102022253797374656D0000040000002D010600040000002701FFFF04000000F00103
0004000000F0010400040000002701FFFF040000002701FFFF030000000000
}\plain\f6\fs22\cf1\protect 
\par \pard\li50\ri2\plain\f6\fs22\cf1\protect    {\pict\wmetafile8\picw2629\pich971\picscalex99\picscaley99\picwgoal1491\pichgoal551
0100090000032D0200000D00180000000000050000000B0200000000050000000C02CB03450A03
0000001E00050000000C02CC03460A050000000B0200000000030000001E00030000001E000500
00000C022702D305050000000B0200000000050000000B020000000018000000FF0600000600F9
7B05002A000100020000C000C0FF3FFF3F020000C0FF3F00C0FF3F0200050000000102FFFF0400
00002D01000009000000FA02000000000000000000002200040000002D01010007000000FC0200
00000000000000040000002D01020010000000FB0210FF00000000000090010000000107000000
417269616C000100040000002D0103000400000002010100050000000102FFFFFF00040000002E
01180005000000090200000000040000000801000015000000FB0210FF00000000000090010000
00010700000054696D6573204E657720526F6D616E000100040000002D0104000B00000026060F
000C004D6174685479706500007B0015000000FB0210FF00000000000090010100000107000000
54696D6573204E657720526F6D616E000100040000002D010500040000002D010400040000002D
01050015000000FB0256FF0000000000009001000000010700000054696D6573204E657720526F
6D616E000100040000002D01060010000000FB0210FF0000000000009001000000020700000053
796D626F6C0002040000002D01070010000000FB0210FF00000000000090010000000207000000
53796D626F6C0002040000002D01080015000000FB0210FF000000000000900100000002070000
0054696D6573204E657720526F6D616E000200040000002D010900040000002D01040004000000
2D010700040000002D0108000500000009020000FF0015000000FB0210FF000000000000900101
0000020700000054696D6573204E657720526F6D616E000200040000002D010A00040000002D01
0500070000002105010078008D016B00040000002D010700040000002D01080007000000210501
00AE008D011E01040000002D010A00040000002D010500070000002105010041008D015E020400
00002D010700040000002D0108000700000021050100D7008D012103040000002D010900040000
002D010400040000002D010500070000002105010078008D019403040000002D01060007000000
210501006100EF00FF0307000000210501006C00EF004A0407000000210501007000EF00790407
000000210501006800EF00CE0407000000210501006100EF00230509000000FA02000000000000
000000002200040000002D010B0004000000F001010007000000FC020000FFFFFF000000040000
002D01010010000000FB021000070000000000BC02000000000102022253797374656D00000400
00002D010C00040000002701FFFF04000000F001030004000000F001040004000000F001050004
000000F001060004000000F001070004000000F001080004000000F001090004000000F0010A00
040000002701FFFF040000002701FFFF030000000000
}\plain\f6\fs22\cf1\protect 
\par    {\pict\wmetafile8\picw4226\pich971\picscalex99\picscaley99\picwgoal2396\pichgoal551
010009000003D60200001000180000000000050000000B0200000000050000000C02CB03821003
0000001E00050000000C02CC038410050000000B0200000000030000001E00030000001E000500
00000C0227025D09050000000B0200000000050000000B020000000018000000FF060000060005
7C05002A000100020000C000C0FF3FFF3F020000C0FF3F00C0FF3F0200050000000102FFFF0400
00002D01000009000000FA02000000000000000000002200040000002D01010007000000FC0200
00000000000000040000002D01020010000000FB0210FF00000000000090010000000107000000
417269616C000100040000002D0103000400000002010100050000000102FFFFFF00040000002E
01180005000000090200000000040000000801000015000000FB0210FF00000000000090010000
00010700000054696D6573204E657720526F6D616E000100040000002D0104000B00000026060F
000C004D6174685479706500007B0015000000FB0210FF00000000000090010100000107000000
54696D6573204E657720526F6D616E000100040000002D010500040000002D010400040000002D
01050015000000FB0256FF0000000000009001000000010700000054696D6573204E657720526F
6D616E000100040000002D01060010000000FB0256FF0000000000009001000000020700000053
796D626F6C0002040000002D01070010000000FB0256FF00000000000090010000000207000000
53796D626F6C0002040000002D01080015000000FB0210FF000000000000900100000002070000
0054696D6573204E657720526F6D616E000200040000002D010900040000002D01040010000000
FB0210FF0000000000009001000000020700000053796D626F6C0002040000002D010A00100000
00FB0210FF0000000000009001000000020700000053796D626F6C0002040000002D010B000400
00002D010900040000002D010400040000002D010A00040000002D010B000500000009020000FF
0015000000FB0210FF0000000000009001010000020700000054696D6573204E657720526F6D61
6E000200040000002D010C00040000002D010500070000002105010078008D016B00040000002D
010A00040000002D010B000700000021050100AE008D011E01040000002D010C00040000002D01
0500070000002105010041008D015E02040000002D010A00040000002D010B0007000000210501
00D7008D012103040000002D010900040000002D010400040000002D0105000700000021050100
78008D019403040000002D01060007000000210501006100EF00FF0307000000210501006C00EF
004A0407000000210501007000EF00790407000000210501006800EF00CE040700000021050100
6100EF002305040000002D010700040000002D01080007000000210501002D00EF008805150000
00FB0256FF0000000000009001000000020700000054696D6573204E657720526F6D616E000200
040000002D010D00040000002D01060007000000210501003100EF00FF05040000002D010A0004
0000002D010B000700000021050100D7008D018406040000002D010900040000002D0104000700
00002105010061008D01F00607000000210501006C008D015B07070000002105010070008D019E
07070000002105010068008D011608070000002105010061008D018E0809000000FA0200000000
0000000000002200040000002D010E0004000000F001010007000000FC020000FFFFFF00000004
0000002D01010010000000FB021000070000000000BC02000000000102022253797374656D0000
040000002D010F00040000002701FFFF04000000F001030004000000F001040004000000F00105
0004000000F001060004000000F001070004000000F001080004000000F001090004000000F001
0A0004000000F0010B0004000000F0010C0004000000F0010D00040000002701FFFF0400000027
01FFFF030000000000
}\plain\f6\fs22\cf1\protect 
\par    {\pict\wmetafile8\picw3774\pich968\picscalex99\picscaley99\picwgoal2140\pichgoal549
010009000003D70200000E00180000000000050000000B0200000000050000000C02C803BE0E03
0000001E00050000000C02CA03C00E050000000B0200000000030000001E00030000001E000500
00000C0226025D08050000000B0200000000050000000B020000000018000000FF060000060014
7C05002A000100020000C000C0FF3FFF3F020000C0FF3F00C0FF3F0200050000000102FFFF0400
00002D01000009000000FA02000000000000000000002200040000002D01010007000000FC0200
00000000000000040000002D01020010000000FB0210FF00000000000090010000000107000000
417269616C000100040000002D0103000400000002010100050000000102FFFFFF00040000002E
01180005000000090200000000040000000801000015000000FB0210FF00000000000090010000
00010700000054696D6573204E657720526F6D616E000100040000002D0104000B00000026060F
000C004D6174685479706500007B0015000000FB0210FF00000000000090010100000107000000
54696D6573204E657720526F6D616E000100040000002D010500040000002D010400040000002D
01050013000000FB0210FF000000000000900100000001070000005346204D6174682045787400
0100040000002D01060013000000FB0210FF000000000000900100000002070000005346204D61
746820457874000200040000002D01070015000000FB0210FF0000000000009001000000020700
000054696D6573204E657720526F6D616E000200040000002D010800040000002D010400040000
002D010600040000002D010700040000002D010800040000002D010400040000002D0105001000
0000FB0210FF0000000000009001000000020700000053796D626F6C0002040000002D01090010
000000FB0210FF0000000000009001000000020700000053796D626F6C0002040000002D010A00
040000002D010800040000002D010400040000002D010900040000002D010A0005000000090200
00FF0015000000FB0210FF0000000000009001010000020700000054696D6573204E657720526F
6D616E000200040000002D010B00040000002D010500070000002105010078008C016B00040000
002D010900040000002D010A000700000021050100AE008C011E01040000002D01080004000000
2D010400070000002105010066008C01530207000000210501006E008C01A30207000000210501
0070008C011B03040000002D010600040000002D010700040000002D010800040000002D010400
040000002D010600040000002D010700040000002D010800040000002D010400040000002D0106
00040000002D010700070000002105010028008C019303040000002D010800040000002D010400
040000002D010500070000002105010078008C01F703040000002D010600040000002D01070004
0000002D010800040000002D010400040000002D010600040000002D010700040000002D010800
040000002D010400040000002D010600040000002D010700070000002105010029008C01620404
0000002D010A0007000000210501002D008C01FB04040000002D010800040000002D0104000700
0000210501006D008C01BB05070000002105010075008C017306040000002D010900040000002D
010A000700000021050100D7008C011B07040000002D010B00040000002D010500070000002105
010078008C018E0709000000FA02000000000000000000002200040000002D010C0004000000F0
01010007000000FC020000FFFFFF000000040000002D01010010000000FB021000070000000000
BC02000000000102022253797374656D0000040000002D010D00040000002701FFFF04000000F0
01030004000000F001040004000000F001050004000000F001060004000000F001070004000000
F001080004000000F001090004000000F0010A0004000000F0010B00040000002701FFFF040000
002701FFFF030000000000
}\plain\f6\fs22\cf1\protect 
\par    {\pict\wmetafile8\picw5208\pich971\picscalex99\picscaley99\picwgoal2953\pichgoal551
0100090000030B0300001000180000000000050000000B0200000000050000000C02CB03581403
0000001E00050000000C02CC035914050000000B0200000000030000001E00030000001E000500
00000C022702890B050000000B0200000000050000000B020000000018000000FF060000060021
7C05002A000100020000C000C0FF3FFF3F020000C0FF3F00C0FF3F0200050000000102FFFF0400
00002D01000009000000FA02000000000000000000002200040000002D01010007000000FC0200
00000000000000040000002D01020010000000FB0210FF00000000000090010000000107000000
417269616C000100040000002D0103000400000002010100050000000102FFFFFF00040000002E
01180005000000090200000000040000000801000015000000FB0210FF00000000000090010000
00010700000054696D6573204E657720526F6D616E000100040000002D0104000B00000026060F
000C004D6174685479706500007B0015000000FB0210FF00000000000090010100000107000000
54696D6573204E657720526F6D616E000100040000002D010500040000002D010400040000002D
01050015000000FB0256FF0000000000009001000000010700000054696D6573204E657720526F
6D616E000100040000002D01060010000000FB0256FF0000000000009001000000020700000053
796D626F6C0002040000002D01070010000000FB0256FF00000000000090010000000207000000
53796D626F6C0002040000002D01080015000000FB0210FF000000000000900100000002070000
0054696D6573204E657720526F6D616E000200040000002D010900040000002D01040010000000
FB0210FF0000000000009001000000020700000053796D626F6C0002040000002D010A00100000
00FB0210FF0000000000009001000000020700000053796D626F6C0002040000002D010B000400
00002D010900040000002D010400040000002D010A00040000002D010B00040000002D01090004
0000002D010400040000002D010A00040000002D010B000500000009020000FF0015000000FB02
10FF0000000000009001010000020700000054696D6573204E657720526F6D616E000200040000
002D010C00040000002D010500070000002105010078008D016B00040000002D010A0004000000
2D010B000700000021050100AE008D011E01040000002D010C00040000002D0105000700000021
05010041008D015E02040000002D010A00040000002D010B000700000021050100D7008D012103
040000002D010900040000002D010400040000002D010500070000002105010078008D01940304
0000002D01060007000000210501006100EF00FF0307000000210501006C00EF004A0407000000
210501007000EF00790407000000210501006800EF00CE0407000000210501006100EF00230504
0000002D010700040000002D01080007000000210501002D00EF00880515000000FB0256FF0000
000000009001000000020700000054696D6573204E657720526F6D616E000200040000002D010D
00040000002D01060007000000210501003100EF00FF05040000002D010A00040000002D010B00
0700000021050100D7008D018406040000002D010900040000002D010400070000002105010061
008D01F00607000000210501006C008D015B07070000002105010070008D019E07070000002105
010068008D011608070000002105010061008D018E08040000002D010A00040000002D010B0007
000000210501002D008D013509040000002D010900040000002D01040007000000210501006D00
8D01F509070000002105010075008D01AD0A09000000FA02000000000000000000002200040000
002D010E0004000000F001010007000000FC020000FFFFFF000000040000002D01010010000000
FB021000070000000000BC02000000000102022253797374656D0000040000002D010F00040000
002701FFFF04000000F001030004000000F001040004000000F001050004000000F00106000400
0000F001070004000000F001080004000000F001090004000000F0010A0004000000F0010B0004
000000F0010C0004000000F0010D00040000002701FFFF040000002701FFFF030000000000
}\plain\f6\fs22\cf1\protect 
\par    {\pict\wmetafile8\picw2084\pich968\picscalex99\picscaley99\picwgoal1182\pichgoal549
0100090000038D0200000E00180000000000050000000B0200000000050000000C02C803240803
0000001E00050000000C02CA032508050000000B0200000000030000001E00030000001E000500
00000C0226029E04050000000B0200000000050000000B020000000018000000FF060000060030
7C05002A000100020000C000C0FF3FFF3F020000C0FF3F00C0FF3F0200050000000102FFFF0400
00002D01000009000000FA02000000000000000000002200040000002D01010007000000FC0200
00000000000000040000002D01020010000000FB0210FF00000000000090010000000107000000
417269616C000100040000002D0103000400000002010100050000000102FFFFFF00040000002E
01180005000000090200000000040000000801000015000000FB0210FF00000000000090010000
00010700000054696D6573204E657720526F6D616E000100040000002D0104000B00000026060F
000C004D6174685479706500007B0015000000FB0210FF00000000000090010100000107000000
54696D6573204E657720526F6D616E000100040000002D010500040000002D010400040000002D
01050013000000FB0210FF000000000000900100000001070000005346204D6174682045787400
0100040000002D01060013000000FB0210FF000000000000900100000002070000005346204D61
746820457874000200040000002D01070015000000FB0210FF0000000000009001000000020700
000054696D6573204E657720526F6D616E000200040000002D010800040000002D010400040000
002D010600040000002D010700040000002D010800040000002D01040010000000FB0210FF0000
000000009001000000020700000053796D626F6C0002040000002D01090010000000FB0210FF00
00000000009001000000020700000053796D626F6C0002040000002D010A00040000002D010800
040000002D010400040000002D010900040000002D010A000500000009020000FF0015000000FB
0210FF0000000000009001010000020700000054696D6573204E657720526F6D616E0002000400
00002D010B00040000002D010500070000002105010078008C016B00040000002D010900040000
002D010A000700000021050100AE008C011E01040000002D010800040000002D01040007000000
210501006C008C01530207000000210501006E008C019602040000002D010600040000002D0107
00040000002D010800040000002D010400040000002D010600040000002D010700040000002D01
0800040000002D010400040000002D010600040000002D010700070000002105010028008C010E
03040000002D010800040000002D010400040000002D010500070000002105010078008C017203
040000002D010600040000002D010700040000002D010800040000002D010400040000002D0106
00040000002D010700040000002D010800040000002D010400040000002D010600040000002D01
0700070000002105010029008C01DD0309000000FA02000000000000000000002200040000002D
010C0004000000F001010007000000FC020000FFFFFF000000040000002D01010010000000FB02
1000070000000000BC02000000000102022253797374656D0000040000002D010D000400000027
01FFFF04000000F001030004000000F001040004000000F001050004000000F001060004000000
F001070004000000F001080004000000F001090004000000F0010A0004000000F0010B00040000
002701FFFF040000002701FFFF030000000000
}\plain\f6\fs22\cf1\protect 
\par    {\pict\wmetafile8\picw1539\pich1128\picscalex99\picscaley99\picwgoal873\pichgoal640
0100090000031A0200000E00180000000000050000000B0200000000050000000C026804030603
0000001E00050000000C0269040406050000000B0200000000030000001E00030000001E000500
00000C0280026903050000000B0200000000050000000B020000000018000000FF06000006003D
7C05002A000100020000C000C0FF3FFF3F020000C0FF3F00C0FF3F0200050000000102FFFF0400
00002D01000009000000FA02000000000000000000002200040000002D01010007000000FC0200
00000000000000040000002D01020010000000FB0210FF00000000000090010000000107000000
417269616C000100040000002D0103000400000002010100050000000102FFFFFF00040000002E
01180005000000090200000000040000000801000015000000FB0210FF00000000000090010000
00010700000054696D6573204E657720526F6D616E000100040000002D0104000B00000026060F
000C004D617468547970650000BF0015000000FB0210FF00000000000090010100000107000000
54696D6573204E657720526F6D616E000100040000002D010500040000002D010400040000002D
010500040000002D01040010000000FB0210FF0000000000009001000000020700000053796D62
6F6C0002040000002D01060010000000FB0210FF0000000000009001000000020700000053796D
626F6C0002040000002D01070015000000FB0210FF000000000000900100000002070000005469
6D6573204E657720526F6D616E000200040000002D010800040000002D010400040000002D0106
00040000002D0107000500000009020000FF0015000000FB0210FF000000000000900101000002
0700000054696D6573204E657720526F6D616E000200040000002D010900040000002D01050007
00000021050100780091016B00040000002D010600040000002D0107000700000021050100AE00
91011E01040000002D010800040000002D0104000700000021050100310023017002040000002D
0105000700000021050100780019027A0213000000FB0210FF0000000000009001000000010700
00005346204D61746820457874000100040000002D010A0013000000FB0210FF00000000000090
0100000002070000005346204D61746820457874000200040000002D010B000700000021050100
C500400153020700000021050100C5004001750209000000FA0200000000000000000000220004
0000002D010C0004000000F001010007000000FC020000FFFFFF000000040000002D0101001000
0000FB021000070000000000BC02000000000102022253797374656D0000040000002D010D0004
0000002701FFFF04000000F001030004000000F001040004000000F001050004000000F0010600
04000000F001070004000000F001080004000000F001090004000000F0010A0004000000F0010B
00040000002701FFFF040000002701FFFF030000000000
}\plain\f6\fs22\cf1\protect 
\par    {\pict\wmetafile8\picw6725\pich968\picscalex99\picscaley99\picwgoal3813\pichgoal549
010009000003440500000E00180000000000050000000B0200000000050000000C02C803451A03
0000001E00050000000C02CA03471A050000000B0200000000030000001E00030000001E000500
00000C022602E60E050000000B0200000000050000000B020000000018000000FF06000006004A
7C05002A000100020000C000C0FF3FFF3F020000C0FF3F00C0FF3F0200050000000102FFFF0400
00002D01000009000000FA02000000000000000000002200040000002D01010007000000FC0200
00000000000000040000002D01020010000000FB0210FF00000000000090010000000107000000
417269616C000100040000002D0103000400000002010100050000000102FFFFFF00040000002E
01180005000000090200000000040000000801000015000000FB0210FF00000000000090010000
00010700000054696D6573204E657720526F6D616E000100040000002D0104000B00000026060F
000C004D6174685479706500007B0015000000FB0210FF00000000000090010100000107000000
54696D6573204E657720526F6D616E000100040000002D010500040000002D01040013000000FB
0210FF000000000000900100000001070000005346204D61746820457874000100040000002D01
060013000000FB0210FF000000000000900100000002070000005346204D617468204578740002
00040000002D01070015000000FB0210FF0000000000009001000000020700000054696D657320
4E657720526F6D616E000200040000002D010800040000002D010400040000002D010600040000
002D010700040000002D010800040000002D010400040000002D010500040000002D0106000400
00002D010700040000002D010800040000002D010400040000002D010600040000002D01070004
0000002D010800040000002D010400040000002D010500040000002D010400040000002D010500
040000002D010600040000002D010700040000002D010800040000002D010400040000002D0106
00040000002D010700040000002D010800040000002D010400040000002D01050010000000FB02
10FF0000000000009001000000020700000053796D626F6C0002040000002D01090010000000FB
0210FF0000000000009001000000020700000053796D626F6C0002040000002D010A0004000000
2D010700040000002D010800040000002D010400040000002D010600040000002D010700040000
002D010800040000002D010400040000002D010900040000002D010A00040000002D0108000400
00002D010400040000002D010600040000002D010700040000002D010800040000002D01040004
0000002D010600040000002D010700040000002D010800040000002D010400040000002D010900
040000002D010A00040000002D010700040000002D010800040000002D010400040000002D0106
00040000002D010700040000002D010800040000002D010400040000002D010600040000002D01
0700040000002D010800040000002D010400040000002D010600040000002D010700040000002D
010800040000002D0104000500000009020000FF00040000002D010600040000002D0107000700
00002105010028008C016400040000002D010800040000002D010400040000002D010500070000
002105010063008C01C100040000002D01040007000000210501002C008C012C01040000002D01
050007000000210501006B008C01BC01040000002D01040007000000210501002C008C01310204
0000002D010500070000002105010070008C01DB02040000002D010600040000002D0107000400
00002D010800040000002D010400040000002D010600040000002D010700040000002D01080004
0000002D010400040000002D010600040000002D010700070000002105010029008C0153030400
00002D010A000700000021050100AE008C01F803040000002D010800040000002D010400070000
002105010055008C012D05070000002105010074008C01DA05070000002105010069008C011D06
07000000210501006C008C016006040000002D010600040000002D010700040000002D01080004
0000002D010400040000002D010600040000002D010700040000002D010800040000002D010400
040000002D010600040000002D010700070000002105010028008C01A306040000002D01080004
0000002D010400040000002D010500070000002105010063008C010007040000002D0106000400
00002D010700040000002D010800040000002D010400040000002D010600040000002D01070004
0000002D010800040000002D010400040000002D010600040000002D0107000700000021050100
29008C016B07040000002D010A0007000000210501002B008C010408040000002D010700040000
002D010800040000002D010400040000002D010600040000002D010700040000002D0108000400
00002D010400040000002D010900040000002D010A0015000000FB0210FF000000000000900101
0000020700000054696D6573204E657720526F6D616E000200040000002D010B00040000002D01
0500070000002105010070008C01DE08040000002D010900040000002D010A0007000000210501
00D7008C018609040000002D010700040000002D010800040000002D010400040000002D010600
040000002D010700040000002D010800040000002D010400040000002D010600040000002D0107
00040000002D010800040000002D010400040000002D010600040000002D010700040000002D01
0800040000002D010400040000002D010600040000002D010700070000002105010028008C01F2
09040000002D010800040000002D010400070000002105010066008C014F0A0700000021050100
70008C019F0A07000000210501006E008C01170B040000002D010600040000002D010700040000
002D010800040000002D010400040000002D010600040000002D010700040000002D0108000400
00002D010400040000002D010600040000002D010700070000002105010028008C018F0B040000
002D010800040000002D010400040000002D01050007000000210501006B008C01EC0B04000000
2D010600040000002D010700040000002D010800040000002D010400040000002D010600040000
002D010700040000002D010800040000002D010400040000002D010600040000002D0107000700
00002105010029008C01610C040000002D010A0007000000210501002D008C01FA0C040000002D
010B00040000002D010500070000002105010063008C01BA0D040000002D010600040000002D01
0700040000002D010800040000002D010400040000002D010600040000002D010700040000002D
010800040000002D010400040000002D010600040000002D010700070000002105010029008C01
250E09000000FA02000000000000000000002200040000002D010C0004000000F0010100070000
00FC020000FFFFFF000000040000002D01010010000000FB021000070000000000BC0200000000
0102022253797374656D0000040000002D010D00040000002701FFFF04000000F0010300040000
00F001040004000000F001050004000000F001060004000000F001070004000000F00108000400
0000F001090004000000F0010A0004000000F0010B00040000002701FFFF040000002701FFFF03
0000000000
}\plain\f6\fs22\cf1\protect 
\par    {\pict\wmetafile8\picw1368\pich1128\picscalex99\picscaley99\picwgoal776\pichgoal640
010009000003020200000E00180000000000050000000B0200000000050000000C026804580503
0000001E00050000000C0269045905050000000B0200000000030000001E00030000001E000500
00000C0280020803050000000B0200000000050000000B020000000018000000FF060000060057
7C05002A000100020000C000C0FF3FFF3F020000C0FF3F00C0FF3F0200050000000102FFFF0400
00002D01000009000000FA02000000000000000000002200040000002D01010007000000FC0200
00000000000000040000002D01020010000000FB0210FF00000000000090010000000107000000
417269616C000100040000002D0103000400000002010100050000000102FFFFFF00040000002E
01180005000000090200000000040000000801000015000000FB0210FF00000000000090010000
00010700000054696D6573204E657720526F6D616E000100040000002D0104000B00000026060F
000C004D617468547970650000BF0015000000FB0210FF00000000000090010100000107000000
54696D6573204E657720526F6D616E000100040000002D010500040000002D010400040000002D
01050010000000FB0210FF0000000000009001000000020700000053796D626F6C000204000000
2D01060010000000FB0210FF0000000000009001000000020700000053796D626F6C0002040000
002D01070015000000FB0210FF0000000000009001000000020700000054696D6573204E657720
526F6D616E000200040000002D010800040000002D0104000500000009020000FF000700000021
050100310023018100040000002D010500070000002105010063001902870013000000FB0210FF
000000000000900100000001070000005346204D61746820457874000100040000002D01090013
000000FB0210FF000000000000900100000002070000005346204D617468204578740002000400
00002D010A000700000021050100C500400164000700000021050100C50040018600040000002D
01070007000000210501002D009101520115000000FB0210FF0000000000009001010000020700
000054696D6573204E657720526F6D616E000200040000002D010B00040000002D010500070000
0021050100700091012C0209000000FA02000000000000000000002200040000002D010C000400
0000F001010007000000FC020000FFFFFF000000040000002D01010010000000FB021000070000
000000BC02000000000102022253797374656D0000040000002D010D00040000002701FFFF0400
0000F001030004000000F001040004000000F001050004000000F001060004000000F001070004
000000F001080004000000F001090004000000F0010A0004000000F0010B00040000002701FFFF
040000002701FFFF030000000000
}\plain\f6\fs22\cf1\protect 
\par    {\pict\wmetafile8\picw5642\pich971\picscalex99\picscaley99\picwgoal3199\pichgoal551
010009000003020400001200180000000000050000000B0200000000050000000C02CB030A1603
0000001E00050000000C02CC030B16050000000B0200000000030000001E00030000001E000500
00000C0227027F0C050000000B0200000000050000000B020000000018000000FF060000060064
7C05002A000100020000C000C0FF3FFF3F020000C0FF3F00C0FF3F0200050000000102FFFF0400
00002D01000009000000FA02000000000000000000002200040000002D01010007000000FC0200
00000000000000040000002D01020010000000FB0210FF00000000000090010000000107000000
417269616C000100040000002D0103000400000002010100050000000102FFFFFF00040000002E
01180005000000090200000000040000000801000015000000FB0210FF00000000000090010000
00010700000054696D6573204E657720526F6D616E000100040000002D0104000B00000026060F
000C004D6174685479706500007B0015000000FB0210FF00000000000090010100000107000000
54696D6573204E657720526F6D616E000100040000002D010500040000002D010400040000002D
010500040000002D010400040000002D01050015000000FB0256FF000000000000900100000001
0700000054696D6573204E657720526F6D616E000100040000002D01060010000000FB0256FF00
00000000009001000000020700000053796D626F6C0002040000002D01070010000000FB0256FF
0000000000009001000000020700000053796D626F6C0002040000002D01080015000000FB0210
FF0000000000009001000000020700000054696D6573204E657720526F6D616E00020004000000
2D010900040000002D01040010000000FB0210FF0000000000009001000000020700000053796D
626F6C0002040000002D010A0010000000FB0210FF000000000000900100000002070000005379
6D626F6C0002040000002D010B0013000000FB0210FF0000000000009001000000020700000053
46204D61746820457874000200040000002D010C00040000002D010900040000002D0104001300
0000FB0210FF000000000000900100000001070000005346204D61746820457874000100040000
002D010D00040000002D010C00040000002D010900040000002D010400040000002D010D000400
00002D010C00040000002D010B00040000002D010900040000002D010400040000002D010A0004
0000002D010B000500000009020000FF0007000000210501002D008D018800040000002D010C00
040000002D010900040000002D010400040000002D010D00040000002D010C00040000002D0109
00040000002D010400040000002D010D00040000002D010C00040000002D010B0015000000FB02
10FF0000000000009001010000020700000054696D6573204E657720526F6D616E000200040000
002D010E00040000002D010500070000002105010070008D015601040000002D010A0004000000
2D010B000700000021050100D7008D01FE01040000002D010C00040000002D010900040000002D
010400040000002D010D00040000002D010C00040000002D010900040000002D01040004000000
2D010D00040000002D010C00040000002D010900040000002D010400040000002D010D00040000
002D010C00040000002D010900040000002D010400040000002D010D00040000002D010C000700
000021050100A10082006A02040000002D010900040000002D01040007000000210501006D008D
01D802070000002105010075008D019003040000002D010A00040000002D010B00070000002105
01002D008D014404040000002D010E00040000002D010500070000002105010041008D010F0504
0000002D010A00040000002D010B000700000021050100D7008D01D205040000002D0109000400
00002D010400040000002D01050007000000210501006B008D013E06040000002D010600070000
00210501006100EF00B30607000000210501006C00EF00FE0607000000210501007000EF002D07
07000000210501006800EF00820707000000210501006100EF00D707040000002D010700040000
002D01080007000000210501002D00EF003C0815000000FB0256FF000000000000900100000002
0700000054696D6573204E657720526F6D616E000200040000002D010F00040000002D01060007
000000210501003100EF00B308040000002D010A00040000002D010B000700000021050100D700
8D013809040000002D010900040000002D010400070000002105010061008D01A4090700000021
0501006C008D010F0A070000002105010070008D01520A070000002105010068008D01CA0A0700
00002105010061008D01420B040000002D010D00040000002D010C00040000002D010900040000
002D010400040000002D010D00040000002D010C00040000002D010900040000002D0104000400
00002D010D00040000002D010C000700000021050100A2008200AD0B09000000FA020000000000
00000000002200040000002D01100004000000F001010007000000FC020000FFFFFF0000000400
00002D01010010000000FB021000070000000000BC02000000000102022253797374656D000004
0000002D011100040000002701FFFF04000000F001030004000000F001040004000000F0010500
04000000F001060004000000F001070004000000F001080004000000F001090004000000F0010A
0004000000F0010B0004000000F0010C0004000000F0010D0004000000F0010E0004000000F001
0F00040000002701FFFF040000002701FFFF030000000000
}\plain\f6\fs22\cf1\protect 
\par    {\pict\wmetafile8\picw2250\pich1213\picscalex99\picscaley99\picwgoal1276\pichgoal688
0100090000031F0300000E00180000000000050000000B0200000000050000000C02BD04CA0803
0000001E00050000000C02BF04CC08050000000B0200000000030000001E00030000001E000500
00000C02B102FD04050000000B0200000000050000000B020000000018000000FF060000060075
7C05002A000100020000C000C0FF3FFF3F020000C0FF3F00C0FF3F0200050000000102FFFF0400
00002D01000009000000FA02000000000000000000002200040000002D01010007000000FC0200
00000000000000040000002D01020010000000FB0210FF00000000000090010000000107000000
417269616C000100040000002D0103000400000002010100050000000102FFFFFF00040000002E
01180005000000090200000000040000000801000015000000FB0210FF00000000000090010000
00010700000054696D6573204E657720526F6D616E000100040000002D0104000B00000026060F
000C004D617468547970650000E60015000000FB0210FF00000000000090010100000107000000
54696D6573204E657720526F6D616E000100040000002D01050013000000FB0210FF0000000000
00900100000001070000005346204D61746820457874000100040000002D01060013000000FB02
10FF000000000000900100000002070000005346204D61746820457874000200040000002D0107
0015000000FB0210FF0000000000009001000000020700000054696D6573204E657720526F6D61
6E000200040000002D010800040000002D010400040000002D010600040000002D010700040000
002D010800040000002D010400040000002D010500040000002D010600040000002D0107000400
00002D010800040000002D010400040000002D010600040000002D010700040000002D01080004
0000002D01040010000000FB0210FF0000000000009001000000020700000053796D626F6C0002
040000002D01090010000000FB0210FF0000000000009001000000020700000053796D626F6C00
02040000002D010A00040000002D010800040000002D0104000500000009020000FF0007000000
2105010031002301FB00040000002D010500070000002105010063001D028100040000002D0106
00040000002D010700040000002D010800040000002D010400040000002D010600040000002D01
0700040000002D010800040000002D010400040000002D010600040000002D0107000700000021
05010028001D02EC00040000002D010800040000002D010400040000002D010500070000002105
010074001D024901040000002D010600040000002D010700040000002D010800040000002D0104
00040000002D010600040000002D010700040000002D010800040000002D010400040000002D01
0600040000002D010700070000002105010029001D0290010700000021050100C5004001640007
00000021050100C5004001F4000700000021050100C50040017A01040000002D010A0007000000
210501002D009101460215000000FB0210FF0000000000009001010000020700000054696D6573
204E657720526F6D616E000200040000002D010B00040000002D01050007000000210501007000
91012003040000002D010600040000002D010700040000002D010800040000002D010400040000
002D010600040000002D010700040000002D010800040000002D010400040000002D0106000400
00002D0107000700000021050100280091019803040000002D010800040000002D010400040000
002D010500070000002105010074009101F503040000002D010600040000002D01070004000000
2D010800040000002D010400040000002D010600040000002D010700040000002D010800040000
002D010400040000002D010600040000002D0107000700000021050100290091013C0409000000
FA02000000000000000000002200040000002D010C0004000000F001010007000000FC020000FF
FFFF000000040000002D01010010000000FB021000070000000000BC0200000000010202225379
7374656D0000040000002D010D00040000002701FFFF04000000F001030004000000F001040004
000000F001050004000000F001060004000000F001070004000000F001080004000000F0010900
04000000F0010A0004000000F0010B00040000002701FFFF040000002701FFFF030000000000
}\plain\f6\fs22\cf1\protect 
\par    {\pict\wmetafile8\picw6547\pich971\picscalex99\picscaley99\picwgoal3712\pichgoal551
010009000003140500001200180000000000050000000B0200000000050000000C02CB03931903
0000001E00050000000C02CC039519050000000B0200000000030000001E00030000001E000500
00000C022702810E050000000B0200000000050000000B020000000018000000FF060000060082
7C05002A000100020000C000C0FF3FFF3F020000C0FF3F00C0FF3F0200050000000102FFFF0400
00002D01000009000000FA02000000000000000000002200040000002D01010007000000FC0200
00000000000000040000002D01020010000000FB0210FF00000000000090010000000107000000
417269616C000100040000002D0103000400000002010100050000000102FFFFFF00040000002E
01180005000000090200000000040000000801000015000000FB0210FF00000000000090010000
00010700000054696D6573204E657720526F6D616E000100040000002D0104000B00000026060F
000C004D6174685479706500007B0015000000FB0210FF00000000000090010100000107000000
54696D6573204E657720526F6D616E000100040000002D01050013000000FB0210FF0000000000
00900100000001070000005346204D61746820457874000100040000002D01060013000000FB02
10FF000000000000900100000002070000005346204D61746820457874000200040000002D0107
0015000000FB0210FF0000000000009001000000020700000054696D6573204E657720526F6D61
6E000200040000002D010800040000002D010400040000002D010600040000002D010700040000
002D010800040000002D010400040000002D010500040000002D010400040000002D0105000400
00002D010600040000002D010700040000002D010800040000002D010400040000002D01060004
0000002D010700040000002D010800040000002D01040015000000FB0256FF0000000000009001
000000010700000054696D6573204E657720526F6D616E000100040000002D01090010000000FB
0256FF0000000000009001000000020700000053796D626F6C0002040000002D010A0010000000
FB0256FF0000000000009001000000020700000053796D626F6C0002040000002D010B00100000
00FB0210FF0000000000009001000000020700000053796D626F6C0002040000002D010C000400
00002D010700040000002D010800040000002D010400040000002D010600040000002D01070004
0000002D010800040000002D010400040000002D010600040000002D010700040000002D010C00
040000002D010800040000002D01040010000000FB0210FF000000000000900100000002070000
0053796D626F6C0002040000002D010D00040000002D010C000500000009020000FF0007000000
210501002D008D018800040000002D010700040000002D010800040000002D010400040000002D
010600040000002D010700040000002D010800040000002D010400040000002D01060004000000
2D010700040000002D010C0015000000FB0210FF0000000000009001010000020700000054696D
6573204E657720526F6D616E000200040000002D010E00040000002D0105000700000021050100
70008D015601040000002D010600040000002D010700040000002D010800040000002D01040004
0000002D010600040000002D010700040000002D010800040000002D010400040000002D010600
040000002D010700070000002105010028008D01CE01040000002D010800040000002D01040004
0000002D010500070000002105010074008D012B02040000002D010600040000002D0107000400
00002D010800040000002D010400040000002D010600040000002D010700040000002D01080004
0000002D010400040000002D010600040000002D010700070000002105010029008D0172020400
00002D010C000700000021050100D7008D01FF02040000002D010700040000002D010800040000
002D010400040000002D010600040000002D010700040000002D010800040000002D0104000400
00002D010600040000002D010700040000002D010800040000002D010400040000002D01060004
0000002D010700040000002D010800040000002D010400040000002D010600040000002D010700
0700000021050100A10082006B03040000002D010800040000002D01040007000000210501006D
008D01D903070000002105010075008D019104040000002D010D00040000002D010C0007000000
210501002D008D014505040000002D010E00040000002D010500070000002105010041008D0110
06040000002D010D00040000002D010C000700000021050100D7008D01D306040000002D010800
040000002D010400070000002105010061008D013F0707000000210501006C008D01AA07070000
002105010070008D01ED07070000002105010068008D016508070000002105010061008D01DD08
040000002D010D00040000002D010C000700000021050100D7008D017809040000002D01080004
0000002D010400040000002D01050007000000210501006B008D01E409040000002D0106000400
00002D010700040000002D010800040000002D010400040000002D010600040000002D01070004
0000002D010800040000002D010400040000002D010600040000002D0107000700000021050100
28008D01590A040000002D010800040000002D010400040000002D010500070000002105010074
008D01B60A040000002D010600040000002D010700040000002D010800040000002D0104000400
00002D010600040000002D010700040000002D010800040000002D010400040000002D01060004
0000002D010700070000002105010029008D01FD0A15000000FB0256FF00000000000090010000
00020700000054696D6573204E657720526F6D616E000200040000002D010F00040000002D0109
0007000000210501006100EF005A0B07000000210501006C00EF00A50B07000000210501007000
EF00D40B07000000210501006800EF00290C07000000210501006100EF007E0C040000002D010A
00040000002D010B0007000000210501002D00EF00E30C040000002D010F00040000002D010900
07000000210501003100EF005A0D040000002D010600040000002D010700040000002D01080004
0000002D010400040000002D010600040000002D010700040000002D010800040000002D010400
040000002D010600040000002D0107000700000021050100A2008200AF0D09000000FA02000000
000000000000002200040000002D01100004000000F001010007000000FC020000FFFFFF000000
040000002D01010010000000FB021000070000000000BC02000000000102022253797374656D00
00040000002D011100040000002701FFFF04000000F001030004000000F001040004000000F001
050004000000F001060004000000F001070004000000F001080004000000F001090004000000F0
010A0004000000F0010B0004000000F0010C0004000000F0010D0004000000F0010E0004000000
F0010F00040000002701FFFF040000002701FFFF030000000000
}\plain\f6\fs22\cf1\protect 
\par    {\pict\wmetafile8\picw9736\pich1682\picscalex99\picscaley99\picwgoal5520\pichgoal954
010009000003420700001200180000000000050000000B0200000000050000000C029206082603
0000001E00050000000C0293060A26050000000B0200000000030000001E00030000001E000500
00000C02BA039115050000000B0200000000050000000B020000000018000000FF060000060093
7C05002A000100020000C000C0FF3FFF3F020000C0FF3F00C0FF3F0200050000000102FFFF0400
00002D01000009000000FA02000000000000000000002200040000002D01010007000000FC0200
00000000000000040000002D01020010000000FB0210FF00000000000090010000000107000000
417269616C000100040000002D0103000400000002010100050000000102FFFFFF00040000002E
01180005000000090200000000040000000801000015000000FB0210FF00000000000090010000
00010700000054696D6573204E657720526F6D616E000100040000002D0104000B00000026060F
000C004D6174685479706500003C0115000000FB0210FF00000000000090010100000107000000
54696D6573204E657720526F6D616E000100040000002D01050013000000FB0210FF0000000000
00900100000001070000005346204D61746820457874000100040000002D01060013000000FB02
10FF000000000000900100000002070000005346204D61746820457874000200040000002D0107
0015000000FB0210FF0000000000009001000000020700000054696D6573204E657720526F6D61
6E000200040000002D010800040000002D010400040000002D010600040000002D010700040000
002D010800040000002D01040010000000FB0210FF000000000000900100000002070000005379
6D626F6C0002040000002D01090010000000FB0210FF0000000000009001000000020700000053
796D626F6C0002040000002D010A00040000002D010800040000002D010400040000002D010500
040000002D010900040000002D010A00040000002D010800040000002D010400040000002D0105
00040000002D010600040000002D010700040000002D010800040000002D010400040000002D01
0600040000002D010700040000002D010800040000002D010400040000002D010500040000002D
010400040000002D010500040000002D010600040000002D010700040000002D01080004000000
2D010400040000002D010600040000002D010700040000002D010800040000002D010400150000
00FB0256FF0000000000009001000000010700000054696D6573204E657720526F6D616E000100
040000002D010B0010000000FB0256FF0000000000009001000000020700000053796D626F6C00
02040000002D010C0010000000FB0256FF0000000000009001000000020700000053796D626F6C
0002040000002D010D00040000002D010A00040000002D010700040000002D010800040000002D
010400040000002D010600040000002D010700040000002D010800040000002D01040004000000
2D010600040000002D010700040000002D010A00040000002D010800040000002D010400040000
002D010500040000002D010600040000002D010700040000002D010800040000002D0104000400
00002D010600040000002D010700040000002D010800040000002D010400040000002D01090004
0000002D010A00040000002D010800040000002D010400040000002D010900040000002D010A00
040000002D010800040000002D010400040000002D010900040000002D010A00040000002D0108
00040000002D010400040000002D010900040000002D010A00040000002D010800040000002D01
0400040000002D010900040000002D010A00040000002D010800040000002D0104000500000009
020000FF00040000002D010900040000002D010A000700000021050100B6008C01A40007000000
21050100B6002203810015000000FB0210FF0000000000009001010000020700000054696D6573
204E657720526F6D616E000200040000002D010E00040000002D01050007000000210501007400
22031C01040000002D010600040000002D0107000700000021050100C500DD0164000700000021
050100C500DD01F000040000002D010800040000002D010400070000002105010020002E028001
040000002D010500070000002105010070002E02D601040000002D010600040000002D01070004
0000002D010800040000002D010400040000002D010600040000002D010700040000002D010800
040000002D010400040000002D010600040000002D010700070000002105010028002E024E0204
0000002D010800040000002D010400040000002D010500070000002105010074002E02AB020400
00002D010600040000002D010700040000002D010800040000002D010400040000002D01060004
0000002D010700040000002D010800040000002D010400040000002D010600040000002D010700
070000002105010029002E02F202040000002D010A0007000000210501002D002E028B03040000
002D010700040000002D010800040000002D010400040000002D010600040000002D0107000400
00002D010800040000002D010400040000002D010600040000002D010700040000002D010A0004
0000002D010E00040000002D010500070000002105010070002E026504040000002D0106000400
00002D010700040000002D010800040000002D010400040000002D010600040000002D01070004
0000002D010800040000002D010400040000002D010600040000002D0107000700000021050100
28002E02DD04040000002D010800040000002D010400040000002D010500070000002105010074
002E023A05040000002D010600040000002D010700040000002D010800040000002D0104000400
00002D010600040000002D010700040000002D010800040000002D010400040000002D01060004
0000002D010700070000002105010029002E028105040000002D010A000700000021050100D700
2E020E06040000002D010700040000002D010800040000002D010400040000002D010600040000
002D010700040000002D010800040000002D010400040000002D010600040000002D0107000400
00002D010800040000002D010400040000002D010600040000002D010700040000002D01080004
0000002D010400040000002D010600040000002D0107000700000021050100A10023017A060400
00002D010800040000002D01040007000000210501006D002E02E806070000002105010075002E
02A007040000002D010900040000002D010A0007000000210501002D002E025408040000002D01
0E00040000002D010500070000002105010041002E021F09040000002D010900040000002D010A
000700000021050100D7002E02E209040000002D010800040000002D0104000700000021050100
61002E024E0A07000000210501006C002E02B90A070000002105010070002E02FC0A0700000021
05010068002E02740B070000002105010061002E02EC0B040000002D010900040000002D010A00
0700000021050100D7002E02870C040000002D010800040000002D010400040000002D01050007
000000210501006B002E02F30C040000002D010600040000002D010700040000002D0108000400
00002D010400040000002D010600040000002D010700040000002D010800040000002D01040004
0000002D010600040000002D010700070000002105010028002E02680D040000002D0108000400
00002D010400040000002D010500070000002105010074002E02C50D040000002D010600040000
002D010700040000002D010800040000002D010400040000002D010600040000002D0107000400
00002D010800040000002D010400040000002D010600040000002D010700070000002105010029
002E020C0E15000000FB0256FF0000000000009001000000020700000054696D6573204E657720
526F6D616E000200040000002D010F00040000002D010B00070000002105010061009001690E07
000000210501006C009001B40E070000002105010070009001E30E070000002105010068009001
380F0700000021050100610090018D0F040000002D010C00040000002D010D0007000000210501
002D009001F20F040000002D010F00040000002D010B0007000000210501003100900169100400
00002D010600040000002D010700040000002D010800040000002D010400040000002D01060004
0000002D010700040000002D010800040000002D010400040000002D010600040000002D010700
0700000021050100A2002301BE10040000002D010A0007000000210501002D002E026811040000
002D010800040000002D010400070000002105010070002E022912070000002105010073002E02
A112040000002D010900040000002D010A000700000021050100D7002E022E13040000002D010E
00040000002D010500070000002105010070002E02B413040000002D010600040000002D010700
040000002D010800040000002D010400040000002D010600040000002D010700040000002D0108
00040000002D010400040000002D010600040000002D010700070000002105010028002E022C14
040000002D010800040000002D010400040000002D010500070000002105010074002E02891404
0000002D010600040000002D010700040000002D010800040000002D010400040000002D010600
040000002D010700040000002D010800040000002D010400040000002D010600040000002D0107
00070000002105010029002E02D01409000000FA02000000000000000000002200040000002D01
100004000000F001010007000000FC020000FFFFFF000000040000002D01010010000000FB0210
00070000000000BC02000000000102022253797374656D0000040000002D011100040000002701
FFFF04000000F001030004000000F001040004000000F001050004000000F001060004000000F0
01070004000000F001080004000000F001090004000000F0010A0004000000F0010B0004000000
F0010C0004000000F0010D0004000000F0010E0004000000F0010F00040000002701FFFF040000
002701FFFF030000000000
}\plain\f6\fs22\cf1\protect 
\par    {\pict\wmetafile8\picw7879\pich1684\picscalex99\picscaley99\picwgoal4467\pichgoal955
010009000003050700001200180000000000050000000B0200000000050000000C029406C71E03
0000001E00050000000C029506C91E050000000B0200000000030000001E00030000001E000500
00000C02BB037411050000000B0200000000050000000B020000000018000000FF0600000600A4
7C05002A000100020000C000C0FF3FFF3F020000C0FF3F00C0FF3F0200050000000102FFFF0400
00002D01000009000000FA02000000000000000000002200040000002D01010007000000FC0200
00000000000000040000002D01020010000000FB0210FF00000000000090010000000107000000
417269616C000100040000002D0103000400000002010100050000000102FFFFFF00040000002E
01180005000000090200000000040000000801000015000000FB0210FF00000000000090010000
00010700000054696D6573204E657720526F6D616E000100040000002D0104000B00000026060F
000C004D6174685479706500003C0115000000FB0210FF00000000000090010100000107000000
54696D6573204E657720526F6D616E000100040000002D01050013000000FB0210FF0000000000
00900100000001070000005346204D61746820457874000100040000002D01060013000000FB02
10FF000000000000900100000002070000005346204D61746820457874000200040000002D0107
0015000000FB0210FF0000000000009001000000020700000054696D6573204E657720526F6D61
6E000200040000002D010800040000002D010400040000002D010600040000002D010700040000
002D010800040000002D01040010000000FB0210FF000000000000900100000002070000005379
6D626F6C0002040000002D01090010000000FB0210FF0000000000009001000000020700000053
796D626F6C0002040000002D010A00040000002D010800040000002D010400040000002D010500
040000002D010900040000002D010A00040000002D010800040000002D010400040000002D0105
00040000002D010400040000002D010500040000002D010600040000002D010700040000002D01
0800040000002D010400040000002D010600040000002D010700040000002D010800040000002D
01040015000000FB0256FF0000000000009001000000010700000054696D6573204E657720526F
6D616E000100040000002D010B0010000000FB0256FF0000000000009001000000020700000053
796D626F6C0002040000002D010C0010000000FB0256FF00000000000090010000000207000000
53796D626F6C0002040000002D010D00040000002D010A00040000002D010800040000002D0104
00040000002D010500040000002D010600040000002D010700040000002D010800040000002D01
0400040000002D010600040000002D010700040000002D010800040000002D010400040000002D
010500040000002D010600040000002D010700040000002D010800040000002D01040004000000
2D010600040000002D010700040000002D010800040000002D010400040000002D010900040000
002D010A00040000002D010800040000002D010400040000002D010900040000002D010A000400
00002D010800040000002D010400040000002D010900040000002D010A00040000002D01080004
0000002D010400040000002D010900040000002D010A00040000002D010800040000002D010400
040000002D010900040000002D010A00040000002D010800040000002D01040005000000090200
00FF00040000002D010900040000002D010A000700000021050100B6008D01A400070000002105
0100B6002303810015000000FB0210FF0000000000009001010000020700000054696D6573204E
657720526F6D616E000200040000002D010E00040000002D010500070000002105010074002303
1C01040000002D010600040000002D0107000700000021050100C500DE01640007000000210501
00C500DE01F000040000002D010800040000002D010400070000002105010020002F0280010700
0000210501003100C1015302040000002D01050007000000210501006300BB02D901040000002D
010600040000002D010700040000002D010800040000002D010400040000002D01060004000000
2D010700040000002D010800040000002D010400040000002D010600040000002D010700070000
00210501002800BB024402040000002D010800040000002D010400040000002D01050007000000
210501007400BB02A102040000002D010600040000002D010700040000002D010800040000002D
010400040000002D010600040000002D010700040000002D010800040000002D01040004000000
2D010600040000002D01070007000000210501002900BB02E8020700000021050100C500DE01BC
010700000021050100C500DE014C020700000021050100C500DE01D202040000002D010A000700
0000210501002D002F029E03040000002D010800040000002D01040007000000210501006D008D
017B04070000002105010075008D013305040000002D010900040000002D010A00070000002105
01002D008D01E705040000002D010E00040000002D010500070000002105010041008D01B20604
0000002D010900040000002D010A000700000021050100D7008D017507040000002D0108000400
00002D010400070000002105010061008D01E10707000000210501006C008D014C080700000021
05010070008D018F08070000002105010068008D010709070000002105010061008D017F090400
00002D010900040000002D010A000700000021050100D7008D011A0A040000002D010800040000
002D010400040000002D01050007000000210501006B008D01860A040000002D01060004000000
2D010700040000002D010800040000002D010400040000002D010600040000002D010700040000
002D010800040000002D010400040000002D010600040000002D01070007000000210501002800
8D01FB0A040000002D010800040000002D010400040000002D010500070000002105010074008D
01580B040000002D010600040000002D010700040000002D010800040000002D01040004000000
2D010600040000002D010700040000002D010800040000002D010400040000002D010600040000
002D010700070000002105010029008D019F0B15000000FB0256FF000000000000900100000002
0700000054696D6573204E657720526F6D616E000200040000002D010F00040000002D010B0007
000000210501006100EF00FC0B07000000210501006C00EF00470C07000000210501007000EF00
760C07000000210501006800EF00CB0C07000000210501006100EF00200D040000002D010C0004
0000002D010D0007000000210501002D00EF00850D040000002D010F00040000002D010B000700
0000210501003100EF00FC0D040000002D01050007000000210501006300BB02B008040000002D
010600040000002D010700040000002D010800040000002D010400040000002D01060004000000
2D010700040000002D010800040000002D010400040000002D010600040000002D010700070000
00210501002800BB021B09040000002D010800040000002D010400040000002D01050007000000
210501007400BB027809040000002D010600040000002D010700040000002D010800040000002D
010400040000002D010600040000002D010700040000002D010800040000002D01040004000000
2D010600040000002D01070007000000210501002900BB02BF090700000021050100C500DE015E
040700000021050100C500DE01EE040700000021050100C500DE017E050700000021050100C500
DE010E060700000021050100C500DE019E060700000021050100C500DE012E0707000000210501
00C500DE01BE070700000021050100C500DE014E080700000021050100C500DE01DE0807000000
21050100C500DE016E090700000021050100C500DE01FE090700000021050100C500DE018E0A07
00000021050100C500DE011E0B0700000021050100C500DE01AE0B0700000021050100C500DE01
3E0C0700000021050100C500DE01CE0C0700000021050100C500DE015E0D0700000021050100C5
00DE01DE0D040000002D010A0007000000210501002D002F02AA0E040000002D01080004000000
2D010400070000002105010070008E01D30F070000002105010073008E014B10040000002D0105
0007000000210501006300BB02870F040000002D010600040000002D010700040000002D010800
040000002D010400040000002D010600040000002D010700040000002D010800040000002D0104
00040000002D010600040000002D01070007000000210501002800BB02F20F040000002D010800
040000002D010400040000002D01050007000000210501007400BB024F10040000002D01060004
0000002D010700040000002D010800040000002D010400040000002D010600040000002D010700
040000002D010800040000002D010400040000002D010600040000002D01070007000000210501
002900BB0296100700000021050100C500DE016A0F0700000021050100C500DE01FA0F07000000
21050100C500DE01801009000000FA02000000000000000000002200040000002D011000040000
00F001010007000000FC020000FFFFFF000000040000002D01010010000000FB02100007000000
0000BC02000000000102022253797374656D0000040000002D011100040000002701FFFF040000
00F001030004000000F001040004000000F001050004000000F001060004000000F00107000400
0000F001080004000000F001090004000000F0010A0004000000F0010B0004000000F0010C0004
000000F0010D0004000000F0010E0004000000F0010F00040000002701FFFF040000002701FFFF
030000000000
}\plain\f6\fs22\cf1\protect 
\par    {\pict\wmetafile8\picw9759\pich1684\picscalex99\picscaley99\picwgoal5533\pichgoal955
010009000003200800001000180000000000050000000B0200000000050000000C0294061F2603
0000001E00050000000C0295062026050000000B0200000000030000001E00030000001E000500
00000C02BB039D15050000000B0200000000050000000B020000000018000000FF0600000600B5
7C05002A000100020000C000C0FF3FFF3F020000C0FF3F00C0FF3F0200050000000102FFFF0400
00002D01000009000000FA02000000000000000000002200040000002D01010007000000FC0200
00000000000000040000002D01020010000000FB0210FF00000000000090010000000107000000
417269616C000100040000002D0103000400000002010100050000000102FFFFFF00040000002E
01180005000000090200000000040000000801000015000000FB0210FF00000000000090010000
00010700000054696D6573204E657720526F6D616E000100040000002D0104000B00000026060F
000C004D6174685479706500003C0115000000FB0210FF00000000000090010100000107000000
54696D6573204E657720526F6D616E000100040000002D010500040000002D010400040000002D
01050013000000FB0210FF000000000000900100000001070000005346204D6174682045787400
0100040000002D01060013000000FB0210FF000000000000900100000002070000005346204D61
746820457874000200040000002D01070015000000FB0210FF0000000000009001000000020700
000054696D6573204E657720526F6D616E000200040000002D010800040000002D010400040000
002D010600040000002D010700040000002D010800040000002D010400040000002D0105000400
00002D010600040000002D010700040000002D010800040000002D010400040000002D01060004
0000002D010700040000002D010800040000002D01040015000000FB0256FF0000000000009001
000000010700000054696D6573204E657720526F6D616E000100040000002D01090010000000FB
0210FF0000000000009001000000020700000053796D626F6C0002040000002D010A0010000000
FB0210FF0000000000009001000000020700000053796D626F6C0002040000002D010B00040000
002D010800040000002D010400040000002D010500040000002D010600040000002D0107000400
00002D010800040000002D010400040000002D010600040000002D010700040000002D01080004
0000002D010400040000002D010500040000002D010600040000002D010700040000002D010800
040000002D010400040000002D010600040000002D010700040000002D010800040000002D0104
00040000002D010A00040000002D010B00040000002D010800040000002D010400040000002D01
0500040000002D010600040000002D010700040000002D010800040000002D010400040000002D
010600040000002D010700040000002D010800040000002D010400040000002D010A0004000000
2D010B0015000000FB0210FF0000000000009001010000020700000054696D6573204E65772052
6F6D616E000200040000002D010C00040000002D010500040000002D010600040000002D010700
040000002D010800040000002D010400040000002D010600040000002D010700040000002D0108
00040000002D010400040000002D010A00040000002D010B00040000002D010800040000002D01
0400040000002D010500040000002D010A00040000002D010B00040000002D010800040000002D
010400040000002D010A00040000002D010B00040000002D010800040000002D01040004000000
2D010A00040000002D010B000500000009020000FF00040000002D010C00040000002D01050007
0000002105010041008D018C00040000002D010A00040000002D010B000700000021050100D700
8D014F01040000002D010800040000002D010400070000002105010061008D01BB010700000021
0501006C008D012602070000002105010070008D016902070000002105010068008D01E1020700
00002105010061008D015903040000002D010A00040000002D010B000700000021050100D7008D
01F403040000002D010C00040000002D010500070000002105010063008D016004040000002D01
0600040000002D010700040000002D010800040000002D010400040000002D010600040000002D
010700040000002D010800040000002D010400040000002D010600040000002D01070007000000
2105010028008D01CB04040000002D010800040000002D010400040000002D0105000700000021
05010074008D012805040000002D010600040000002D010700040000002D010800040000002D01
0400040000002D010600040000002D010700040000002D010800040000002D010400040000002D
010600040000002D010700070000002105010029008D016F05040000002D010B00070000002105
0100D7008D01FC05040000002D010800040000002D010400040000002D01050007000000210501
006B008D016806040000002D010600040000002D010700040000002D010800040000002D010400
040000002D010600040000002D010700040000002D010800040000002D010400040000002D0106
00040000002D010700070000002105010028008D01DD06040000002D010800040000002D010400
040000002D010500070000002105010074008D013A07040000002D010600040000002D01070004
0000002D010800040000002D010400040000002D010600040000002D010700040000002D010800
040000002D010400040000002D010600040000002D010700070000002105010029008D01810715
000000FB0256FF0000000000009001000000020700000054696D6573204E657720526F6D616E00
0200040000002D010D00040000002D01090007000000210501006100EF00DE0707000000210501
006C00EF00290807000000210501007000EF00580807000000210501006800EF00AD0807000000
210501006100EF000209040000002D01050007000000210501006B00BE022C04040000002D0106
00040000002D010700040000002D010800040000002D010400040000002D010600040000002D01
0700040000002D010800040000002D010400040000002D010600040000002D0107000700000021
0501002800BE02A104040000002D010800040000002D010400040000002D010500070000002105
01007400BE02FE04040000002D010600040000002D010700040000002D010800040000002D0104
00040000002D010600040000002D010700040000002D010800040000002D010400040000002D01
0600040000002D01070007000000210501002900BE0245050700000021050100C500DE01640007
00000021050100C500DE01F4000700000021050100C500DE0184010700000021050100C500DE01
14020700000021050100C500DE01A4020700000021050100C500DE0134030700000021050100C5
00DE01C4030700000021050100C500DE0154040700000021050100C500DE01E404070000002105
0100C500DE0174050700000021050100C500DE0104060700000021050100C500DE019406070000
0021050100C500DE0124070700000021050100C500DE01B4070700000021050100C500DE014408
0700000021050100C500DE01D4080700000021050100C500DE01DB08040000002D010B00070000
00210501002D002F02A709040000002D010800040000002D01040007000000210501006D002F02
670A070000002105010075002F021F0B040000002D010A00040000002D010B0007000000210501
00D7002F02C70B040000002D010C00040000002D010500070000002105010063002F02330C0400
00002D010600040000002D010700040000002D010800040000002D010400040000002D01060004
0000002D010700040000002D010800040000002D010400040000002D010600040000002D010700
070000002105010028002F029E0C040000002D010800040000002D010400040000002D01050007
0000002105010074002F02FB0C040000002D010600040000002D010700040000002D0108000400
00002D010400040000002D010600040000002D010700040000002D010800040000002D01040004
0000002D010600040000002D010700070000002105010029002F02420D040000002D010B000700
0000210501002D002F02DB0D040000002D010800040000002D010400070000002105010070002F
029C0E070000002105010073002F02140F040000002D010A00040000002D010B00070000002105
0100D7002F02A10F040000002D010C00040000002D010500070000002105010063002F020D1004
0000002D010600040000002D010700040000002D010800040000002D010400040000002D010600
040000002D010700040000002D010800040000002D010400040000002D010600040000002D0107
00070000002105010028002F027810040000002D010800040000002D010400040000002D010500
070000002105010074002F02D510040000002D010600040000002D010700040000002D01080004
0000002D010400040000002D010600040000002D010700040000002D010800040000002D010400
040000002D010600040000002D010700070000002105010029002F021C11040000002D010B0007
000000210501002D002F02B511040000002D010800040000002D010400040000002D010A000400
00002D010B00040000002D010800040000002D010400040000002D010A00040000002D010B0004
0000002D010800040000002D010400040000002D010A00040000002D010B00040000002D010800
040000002D010400040000002D010A00040000002D010B00040000002D010800040000002D0104
00040000002D010A00040000002D010B000700000021050100B6008D01B5120700000021050100
B60023039212040000002D010C00040000002D0105000700000021050100740023032D13040000
002D010600040000002D0107000700000021050100C500DE0175120700000021050100C500DE01
0113040000002D010800040000002D010400070000002105010020002F029113040000002D0105
00070000002105010063002F02CD13040000002D010600040000002D010700040000002D010800
040000002D010400040000002D010600040000002D010700040000002D010800040000002D0104
00040000002D010600040000002D010700070000002105010028002F023814040000002D010800
040000002D010400040000002D010500070000002105010074002F029514040000002D01060004
0000002D010700040000002D010800040000002D010400040000002D010600040000002D010700
040000002D010800040000002D010400040000002D010600040000002D01070007000000210501
0029002F02DC1409000000FA02000000000000000000002200040000002D010E0004000000F001
010007000000FC020000FFFFFF000000040000002D01010010000000FB021000070000000000BC
02000000000102022253797374656D0000040000002D010F00040000002701FFFF04000000F001
030004000000F001040004000000F001050004000000F001060004000000F001070004000000F0
01080004000000F001090004000000F0010A0004000000F0010B0004000000F0010C0004000000
F0010D00040000002701FFFF040000002701FFFF030000000000
}\plain\f6\fs22\cf1\protect 
\par    {\pict\wmetafile8\picw7351\pich1682\picscalex99\picscaley99\picwgoal4168\pichgoal954
010009000003D20500001000180000000000050000000B0200000000050000000C029206B71C03
0000001E00050000000C029306B81C050000000B0200000000030000001E00030000001E000500
00000C02BA034810050000000B0200000000050000000B020000000018000000FF0600000600C4
7C05002A000100020000C000C0FF3FFF3F020000C0FF3F00C0FF3F0200050000000102FFFF0400
00002D01000009000000FA02000000000000000000002200040000002D01010007000000FC0200
00000000000000040000002D01020010000000FB0210FF00000000000090010000000107000000
417269616C000100040000002D0103000400000002010100050000000102FFFFFF00040000002E
01180005000000090200000000040000000801000015000000FB0210FF00000000000090010000
00010700000054696D6573204E657720526F6D616E000100040000002D0104000B00000026060F
000C004D6174685479706500003C0115000000FB0210FF00000000000090010100000107000000
54696D6573204E657720526F6D616E000100040000002D01050013000000FB0210FF0000000000
00900100000001070000005346204D61746820457874000100040000002D01060013000000FB02
10FF000000000000900100000002070000005346204D61746820457874000200040000002D0107
0015000000FB0210FF0000000000009001000000020700000054696D6573204E657720526F6D61
6E000200040000002D010800040000002D010400040000002D010600040000002D010700040000
002D010800040000002D01040010000000FB0210FF000000000000900100000002070000005379
6D626F6C0002040000002D01090010000000FB0210FF0000000000009001000000020700000053
796D626F6C0002040000002D010A00040000002D010800040000002D010400040000002D010500
040000002D010900040000002D010A00040000002D010800040000002D010400040000002D0105
00040000002D010600040000002D010700040000002D010800040000002D010400040000002D01
0600040000002D010700040000002D010800040000002D010400040000002D010900040000002D
010A0015000000FB0210FF0000000000009001010000020700000054696D6573204E657720526F
6D616E000200040000002D010B00040000002D010500040000002D010600040000002D01070004
0000002D010800040000002D010400040000002D010600040000002D010700040000002D010800
040000002D010400040000002D010500040000002D010400040000002D010500040000002D0106
00040000002D010700040000002D010800040000002D010400040000002D010600040000002D01
0700040000002D010800040000002D01040015000000FB0256FF00000000000090010000000107
00000054696D6573204E657720526F6D616E000100040000002D010C00040000002D0109000400
00002D010A00040000002D010800040000002D010400040000002D010900040000002D010A0004
0000002D010800040000002D010400040000002D010900040000002D010A00040000002D010800
040000002D010400040000002D010900040000002D010A00040000002D010800040000002D0104
00040000002D010900040000002D010A00040000002D010800040000002D010400050000000902
0000FF00040000002D010900040000002D010A000700000021050100B6008C01A4000700000021
050100B60022038100040000002D010B00040000002D0105000700000021050100740022031C01
040000002D010600040000002D0107000700000021050100C500DD0164000700000021050100C5
00DD01F000040000002D010800040000002D010400070000002105010020002E02800104000000
2D01050007000000210501006B002E02BC01040000002D010600040000002D010700040000002D
010800040000002D010400040000002D010600040000002D010700040000002D01080004000000
2D010400040000002D010600040000002D010700070000002105010028002E023102040000002D
010800040000002D010400040000002D010500070000002105010074002E028E02040000002D01
0600040000002D010700040000002D010800040000002D010400040000002D010600040000002D
010700040000002D010800040000002D010400040000002D010600040000002D01070007000000
2105010029002E02D502040000002D010A0007000000210501003D002E027A0307000000210501
002D002E026A04040000002D010800040000002D01040007000000210501006D002E021E050700
00002105010075002E02D605040000002D010900040000002D010A000700000021050100D7002E
027E06040000002D010B00040000002D01050007000000210501006B002E02EA06040000002D01
0600040000002D010700040000002D010800040000002D010400040000002D010600040000002D
010700040000002D010800040000002D010400040000002D010600040000002D01070007000000
2105010028002E025F07040000002D010800040000002D010400040000002D0105000700000021
05010074002E02BC07040000002D010600040000002D010700040000002D010800040000002D01
0400040000002D010600040000002D010700040000002D010800040000002D010400040000002D
010600040000002D010700070000002105010029002E020308040000002D010A00070000002105
01002D002E029C08040000002D010B00040000002D010500070000002105010063002E025C0904
0000002D010600040000002D010700040000002D010800040000002D010400040000002D010600
040000002D010700040000002D010800040000002D010400040000002D010600040000002D0107
00070000002105010028002E02C709040000002D010800040000002D010400040000002D010500
070000002105010074002E02240A040000002D010600040000002D010700040000002D01080004
0000002D010400040000002D010600040000002D010700040000002D010800040000002D010400
040000002D010600040000002D010700070000002105010029002E026B0A040000002D010A0007
000000210501002B002E02040B040000002D010B00040000002D01050007000000210501004100
2E02CF0B040000002D010900040000002D010A000700000021050100D7002E02920C040000002D
010800040000002D010400040000002D01050007000000210501006B002E02FE0C040000002D01
0600040000002D010700040000002D010800040000002D010400040000002D010600040000002D
010700040000002D010800040000002D010400040000002D010600040000002D01070007000000
2105010028002E02730D040000002D010800040000002D010400040000002D0105000700000021
05010074002E02D00D040000002D010600040000002D010700040000002D010800040000002D01
0400040000002D010600040000002D010700040000002D010800040000002D010400040000002D
010600040000002D010700070000002105010029002E02170E15000000FB0256FF000000000000
9001000000020700000054696D6573204E657720526F6D616E000200040000002D010D00040000
002D010C00070000002105010061009001740E07000000210501006C009001BF0E070000002105
010070009001EE0E070000002105010068009001430F070000002105010061009001980F090000
00FA02000000000000000000002200040000002D010E0004000000F001010007000000FC020000
FFFFFF000000040000002D01010010000000FB021000070000000000BC02000000000102022253
797374656D0000040000002D010F00040000002701FFFF04000000F001030004000000F0010400
04000000F001050004000000F001060004000000F001070004000000F001080004000000F00109
0004000000F0010A0004000000F0010B0004000000F0010C0004000000F0010D00040000002701
FFFF040000002701FFFF030000000000
}\plain\f6\fs22\cf1\protect 
\par    {\pict\wmetafile8\picw8064\pich1497\picscalex99\picscaley99\picwgoal4572\pichgoal849
010009000003B30600001000180000000000050000000B0200000000050000000C02D905801F03
0000001E00050000000C02DB05821F050000000B0200000000030000001E00030000001E000500
00000C025203DD11050000000B0200000000050000000B020000000018000000FF0600000600D3
7C05002A000100020000C000C0FF3FFF3F020000C0FF3F00C0FF3F0200050000000102FFFF0400
00002D01000009000000FA02000000000000000000002200040000002D01010007000000FC0200
00000000000000040000002D01020010000000FB0210FF00000000000090010000000107000000
417269616C000100040000002D0103000400000002010100050000000102FFFFFF00040000002E
01180005000000090200000000040000000801000015000000FB0210FF00000000000090010000
00010700000054696D6573204E657720526F6D616E000100040000002D0104000B00000026060F
000C004D617468547970650000E80015000000FB0210FF00000000000090010100000107000000
54696D6573204E657720526F6D616E000100040000002D010500040000002D010400040000002D
01050013000000FB0210FF000000000000900100000001070000005346204D6174682045787400
0100040000002D01060013000000FB0210FF000000000000900100000002070000005346204D61
746820457874000200040000002D01070015000000FB0210FF0000000000009001000000020700
000054696D6573204E657720526F6D616E000200040000002D010800040000002D010400040000
002D010600040000002D010700040000002D010800040000002D010400040000002D0105000400
00002D010600040000002D010700040000002D010800040000002D010400040000002D01060004
0000002D010700040000002D010800040000002D01040015000000FB0256FF0000000000009001
000000010700000054696D6573204E657720526F6D616E000100040000002D01090010000000FB
0210FF0000000000009001000000020700000053796D626F6C0002040000002D010A0010000000
FB0210FF0000000000009001000000020700000053796D626F6C0002040000002D010B00040000
002D010800040000002D010400040000002D010500040000002D010600040000002D0107000400
00002D010800040000002D010400040000002D010600040000002D010700040000002D01080004
0000002D010400040000002D010500040000002D010600040000002D010700040000002D010800
040000002D010400040000002D010600040000002D010700040000002D010800040000002D0104
00040000002D010A00040000002D010B00040000002D010800040000002D010400040000002D01
0500040000002D010600040000002D010700040000002D010800040000002D010400040000002D
010600040000002D010700040000002D010800040000002D010400040000002D010A0004000000
2D010B00040000002D010800040000002D010400040000002D010A00040000002D010B00050000
0009020000FF0015000000FB0210FF0000000000009001010000020700000054696D6573204E65
7720526F6D616E000200040000002D010C00040000002D010500070000002105010041008D018C
00040000002D010A00040000002D010B000700000021050100D7008D014F01040000002D010800
040000002D010400070000002105010061008D01BB0107000000210501006C008D012602070000
002105010070008D016902070000002105010068008D01E102070000002105010061008D015903
040000002D010A00040000002D010B000700000021050100D7008D01F403040000002D010C0004
0000002D010500070000002105010063008D016004040000002D010600040000002D0107000400
00002D010800040000002D010400040000002D010600040000002D010700040000002D01080004
0000002D010400040000002D010600040000002D010700070000002105010028008D01CB040400
00002D010800040000002D010400040000002D010500070000002105010074008D012805040000
002D010600040000002D010700040000002D010800040000002D010400040000002D0106000400
00002D010700040000002D010800040000002D010400040000002D010600040000002D01070007
0000002105010029008D016F05040000002D010B000700000021050100D7008D01FC0504000000
2D010800040000002D010400040000002D01050007000000210501006B008D016806040000002D
010600040000002D010700040000002D010800040000002D010400040000002D01060004000000
2D010700040000002D010800040000002D010400040000002D010600040000002D010700070000
002105010028008D01DD06040000002D010800040000002D010400040000002D01050007000000
2105010074008D013A07040000002D010600040000002D010700040000002D010800040000002D
010400040000002D010600040000002D010700040000002D010800040000002D01040004000000
2D010600040000002D010700070000002105010029008D01810715000000FB0256FF0000000000
009001000000020700000054696D6573204E657720526F6D616E000200040000002D010D000400
00002D01090007000000210501006100EF00DE0707000000210501006C00EF0029080700000021
0501007000EF00580807000000210501006800EF00AD0807000000210501006100EF0002090400
00002D01050007000000210501006B00BE022C04040000002D010600040000002D010700040000
002D010800040000002D010400040000002D010600040000002D010700040000002D0108000400
00002D010400040000002D010600040000002D01070007000000210501002800BE02A104040000
002D010800040000002D010400040000002D01050007000000210501007400BE02FE0404000000
2D010600040000002D010700040000002D010800040000002D010400040000002D010600040000
002D010700040000002D010800040000002D010400040000002D010600040000002D0107000700
0000210501002900BE0245050700000021050100C500DE0164000700000021050100C500DE01F4
000700000021050100C500DE0184010700000021050100C500DE0114020700000021050100C500
DE01A4020700000021050100C500DE0134030700000021050100C500DE01C40307000000210501
00C500DE0154040700000021050100C500DE01E4040700000021050100C500DE01740507000000
21050100C500DE0104060700000021050100C500DE0194060700000021050100C500DE01240707
00000021050100C500DE01B4070700000021050100C500DE0144080700000021050100C500DE01
D4080700000021050100C500DE01DB08040000002D010B0007000000210501002D002F02A70904
0000002D010800040000002D010400070000002105010070002F02680A07000000210501007300
2F02E00A040000002D010A00040000002D010B000700000021050100D7002F026D0B040000002D
010C00040000002D010500070000002105010063002F02D90B040000002D010600040000002D01
0700040000002D010800040000002D010400040000002D010600040000002D010700040000002D
010800040000002D010400040000002D010600040000002D010700070000002105010028002F02
440C040000002D010800040000002D010400040000002D010500070000002105010074002F02A1
0C040000002D010600040000002D010700040000002D010800040000002D010400040000002D01
0600040000002D010700040000002D010800040000002D010400040000002D010600040000002D
010700070000002105010029002F02E80C040000002D010B0007000000210501002D002F02810D
040000002D010800040000002D01040007000000210501006D002F02410E070000002105010075
002F02F90E040000002D010A00040000002D010B000700000021050100D7002F02A10F04000000
2D010C00040000002D010500070000002105010063002F020D10040000002D010600040000002D
010700040000002D010800040000002D010400040000002D010600040000002D01070004000000
2D010800040000002D010400040000002D010600040000002D010700070000002105010028002F
027810040000002D010800040000002D010400040000002D010500070000002105010074002F02
D510040000002D010600040000002D010700040000002D010800040000002D010400040000002D
010600040000002D010700040000002D010800040000002D010400040000002D01060004000000
2D010700070000002105010029002F021C1109000000FA02000000000000000000002200040000
002D010E0004000000F001010007000000FC020000FFFFFF000000040000002D01010010000000
FB021000070000000000BC02000000000102022253797374656D0000040000002D010F00040000
002701FFFF04000000F001030004000000F001040004000000F001050004000000F00106000400
0000F001070004000000F001080004000000F001090004000000F0010A0004000000F0010B0004
000000F0010C0004000000F0010D00040000002701FFFF040000002701FFFF030000000000
}\plain\f6\fs22\cf1\protect 
\par    {\pict\wmetafile8\picw6252\pich1419\picscalex99\picscaley99\picwgoal3545\pichgoal805
010009000003BD0300000F00180000000000050000000B0200000000050000000C028B056C1803
0000001E00050000000C028C056D18050000000B0200000000030000001E00030000001E000500
00000C022503D90D050000000B0200000000050000000B020000000018000000FF0600000600E2
7C05002A000100020000C000C0FF3FFF3F020000C0FF3F00C0FF3F0200050000000102FFFF0400
00002D01000009000000FA02000000000000000000002200040000002D01010007000000FC0200
00000000000000040000002D01020010000000FB0210FF00000000000090010000000107000000
417269616C000100040000002D0103000400000002010100050000000102FFFFFF00040000002E
01180005000000090200000000040000000801000015000000FB0210FF00000000000090010000
00010700000054696D6573204E657720526F6D616E000100040000002D0104000B00000026060F
000C004D617468547970650000C40015000000FB0210FF00000000000090010100000107000000
54696D6573204E657720526F6D616E000100040000002D010500040000002D010400040000002D
01050015000000FB0256FF0000000000009001000000010700000054696D6573204E657720526F
6D616E000100040000002D010600040000002D01040010000000FB0210FF000000000000900100
0000020700000053796D626F6C0002040000002D01070010000000FB0210FF0000000000009001
000000020700000053796D626F6C0002040000002D01080015000000FB0210FF00000000000090
01000000020700000054696D6573204E657720526F6D616E000200040000002D01090004000000
2D010400040000002D010500040000002D010400040000002D010500040000002D010400040000
002D010700040000002D01080015000000FB0210FF000000000000900101000002070000005469
6D6573204E657720526F6D616E000200040000002D010A00040000002D010500040000002D0104
00040000002D010700040000002D010800040000002D010900040000002D010400040000002D01
0700040000002D0108000500000009020000FF00040000002D010A00040000002D010500070000
002105010041008D018C00040000002D010700040000002D0108000700000021050100D7008D01
4F01040000002D010A00040000002D010500070000002105010063008D01BB01040000002D0107
00040000002D0108000700000021050100D7008D015602040000002D010900040000002D010400
040000002D01050007000000210501006B008D01C202040000002D010600070000002105010061
00EF00370307000000210501006C00EF00820307000000210501007000EF00B103070000002105
01006800EF00060407000000210501006100EF005B04040000002D010700040000002D01080007
00000021050100D7008D01D704040000002D010900040000002D01040007000000210501006100
8D01430507000000210501006C008D01AE05070000002105010070008D01F10507000000210501
0068008D016906070000002105010061008D01E106040000002D01050007000000210501006B00
BE02AC0313000000FB0210FF000000000000900100000001070000005346204D61746820457874
000100040000002D010B0013000000FB0210FF000000000000900100000002070000005346204D
61746820457874000200040000002D010C000700000021050100C500DE01640007000000210501
00C500DE01F4000700000021050100C500DE0184010700000021050100C500DE01140207000000
21050100C500DE01A4020700000021050100C500DE0134030700000021050100C500DE01C40307
00000021050100C500DE0154040700000021050100C500DE01E4040700000021050100C500DE01
74050700000021050100C500DE0104060700000021050100C500DE0194060700000021050100C5
00DE01D906040000002D01080007000000210501002D002F02A507040000002D010A0004000000
2D010500070000002105010063002F026508040000002D010700040000002D0108000700000021
050100D7002F020009040000002D010900040000002D010400070000002105010070002F026D09
070000002105010073002F02E509040000002D010700040000002D01080007000000210501002D
002F027E0A040000002D010A00040000002D010500070000002105010063002F023E0B04000000
2D010700040000002D0108000700000021050100D7002F02D90B040000002D010900040000002D
01040007000000210501006D002F02450C070000002105010075002F02FD0C09000000FA020000
00000000000000002200040000002D010D0004000000F001010007000000FC020000FFFFFF0000
00040000002D01010010000000FB021000070000000000BC02000000000102022253797374656D
0000040000002D010E00040000002701FFFF04000000F001030004000000F001040004000000F0
01050004000000F001060004000000F001070004000000F001080004000000F001090004000000
F0010A0004000000F0010B0004000000F0010C00040000002701FFFF040000002701FFFF030000
000000
}\plain\f6\fs22\cf1\protect 
\par    {\pict\wmetafile8\picw3857\pich971\picscalex99\picscaley99\picwgoal2187\pichgoal551
010009000003840200000D00180000000000050000000B0200000000050000000C02CB03110F03
0000001E00050000000C02CC03120F050000000B0200000000030000001E00030000001E000500
00000C0227028B08050000000B0200000000050000000B020000000018000000FF0600000600F0
7C05002A000100020000C000C0FF3FFF3F020000C0FF3F00C0FF3F0200050000000102FFFF0400
00002D01000009000000FA02000000000000000000002200040000002D01010007000000FC0200
00000000000000040000002D01020010000000FB0210FF00000000000090010000000107000000
417269616C000100040000002D0103000400000002010100050000000102FFFFFF00040000002E
01180005000000090200000000040000000801000015000000FB0210FF00000000000090010000
00010700000054696D6573204E657720526F6D616E000100040000002D0104000B00000026060F
000C004D6174685479706500007B0015000000FB0210FF00000000000090010100000107000000
54696D6573204E657720526F6D616E000100040000002D010500040000002D010400040000002D
01050015000000FB0256FF0000000000009001000000010700000054696D6573204E657720526F
6D616E000100040000002D01060010000000FB0210FF0000000000009001000000020700000053
796D626F6C0002040000002D01070010000000FB0210FF00000000000090010000000207000000
53796D626F6C0002040000002D01080015000000FB0210FF000000000000900101000002070000
0054696D6573204E657720526F6D616E000200040000002D010900040000002D01050004000000
2D010400040000002D010700040000002D01080015000000FB0210FF0000000000009001000000
020700000054696D6573204E657720526F6D616E000200040000002D010A00040000002D010400
040000002D010700040000002D0108000500000009020000FF00040000002D010900040000002D
010500070000002105010041008D016F00040000002D010700040000002D010800070000002105
0100D7008D013201040000002D010A00040000002D010400040000002D01050007000000210501
006B008D019E01040000002D01060007000000210501006100EF00130207000000210501006C00
EF005E0207000000210501007000EF008D0207000000210501006800EF00E20207000000210501
006100EF003703040000002D010700040000002D01080007000000210501002D008D01BF030400
00002D010900040000002D010500070000002105010063008D017F04040000002D010700040000
002D01080007000000210501002D008D012605040000002D010900040000002D01050007000000
210501006B008D01E605040000002D010700040000002D0108000700000021050100D7008D018B
06040000002D010A00040000002D01040007000000210501006D008D01F7060700000021050100
75008D01AF0709000000FA02000000000000000000002200040000002D010B0004000000F00101
0007000000FC020000FFFFFF000000040000002D01010010000000FB021000070000000000BC02
000000000102022253797374656D0000040000002D010C00040000002701FFFF04000000F00103
0004000000F001040004000000F001050004000000F001060004000000F001070004000000F001
080004000000F001090004000000F0010A00040000002701FFFF040000002701FFFF0300000000
00
}\plain\f6\fs22\cf1\protect 
\par    {\pict\wmetafile8\picw13176\pich1419\picscalex99\picscaley99\picwgoal7470\pichgoal805
010009000003B60600000F00180000000000050000000B0200000000050000000C028B05783303
0000001E00050000000C028C057A33050000000B0200000000030000001E00030000001E000500
00000C0225032F1D050000000B0200000000050000000B020000000018000000FF0600000600FC
7C05002A000100020000C000C0FF3FFF3F020000C0FF3F00C0FF3F0200050000000102FFFF0400
00002D01000009000000FA02000000000000000000002200040000002D01010007000000FC0200
00000000000000040000002D01020010000000FB0210FF00000000000090010000000107000000
417269616C000100040000002D0103000400000002010100050000000102FFFFFF00040000002E
01180005000000090200000000040000000801000015000000FB0210FF00000000000090010000
00010700000054696D6573204E657720526F6D616E000100040000002D0104000B00000026060F
000C004D617468547970650000C40015000000FB0210FF00000000000090010100000107000000
54696D6573204E657720526F6D616E000100040000002D010500040000002D010400040000002D
01050015000000FB0256FF0000000000009001000000010700000054696D6573204E657720526F
6D616E000100040000002D010600040000002D01040010000000FB0210FF000000000000900100
0000020700000053796D626F6C0002040000002D01070010000000FB0210FF0000000000009001
000000020700000053796D626F6C0002040000002D01080015000000FB0210FF00000000000090
01000000020700000054696D6573204E657720526F6D616E000200040000002D01090004000000
2D010400040000002D010500040000002D010400040000002D010500040000002D010400040000
002D010700040000002D01080015000000FB0210FF000000000000900101000002070000005469
6D6573204E657720526F6D616E000200040000002D010A00040000002D010500040000002D0104
00040000002D010700040000002D010800040000002D010A00040000002D010500040000002D01
0400040000002D010500040000002D010600040000002D010700040000002D010800040000002D
010A00040000002D010500040000002D010400040000002D010700040000002D01080004000000
2D010900040000002D01040013000000FB0210FF00000000000090010000000107000000534620
4D61746820457874000100040000002D010B0013000000FB0210FF000000000000900100000002
070000005346204D61746820457874000200040000002D010C00040000002D010900040000002D
010400040000002D010B00040000002D010C00040000002D010900040000002D01040004000000
2D010B00040000002D010C00040000002D010A00040000002D010500040000002D010400040000
002D010B00040000002D010C00040000002D010900040000002D010400040000002D010B000400
00002D010C00040000002D010900040000002D010400040000002D010B00040000002D010C0004
0000002D010900040000002D010400040000002D010B00040000002D010C00040000002D010900
040000002D010400040000002D010B00040000002D010C00040000002D010900040000002D0104
000500000009020000FF00070000002105010073002F02640007000000210501006F002F02C100
07000000210501006C002F023901070000002105010076002F027C01070000002105010065002F
02F401040000002D010B00040000002D010C00040000002D010900040000002D01040004000000
2D010B00040000002D010C00040000002D010900040000002D010400040000002D010B00040000
002D010C000700000021050100B50072005F02040000002D010900040000002D01040004000000
2D010B00040000002D010C00040000002D010900040000002D010400040000002D010B00040000
002D010C00040000002D010900040000002D010400040000002D010B00040000002D010C000700
000021050100B70072001003040000002D010900040000002D010400040000002D010700040000
002D010800040000002D010A00040000002D010500070000002105010041008D01B70304000000
2D010700040000002D0108000700000021050100D7008D017A04040000002D010A00040000002D
010500070000002105010063008D01E604040000002D010700040000002D010800070000002105
0100D7008D018105040000002D010900040000002D010400040000002D01050007000000210501
006B008D01ED05040000002D01060007000000210501006100EF00620607000000210501006C00
EF00AD0607000000210501007000EF00DC0607000000210501006800EF00310707000000210501
006100EF008607040000002D010700040000002D0108000700000021050100D7008D0102080400
00002D010900040000002D010400070000002105010061008D016E0807000000210501006C008D
01D908070000002105010070008D011C09070000002105010068008D0194090700000021050100
61008D010C0A040000002D01050007000000210501006B00BE02D706040000002D010B00040000
002D010C000700000021050100C500DE018F030700000021050100C500DE011F04070000002105
0100C500DE01AF040700000021050100C500DE013F050700000021050100C500DE01CF05070000
0021050100C500DE015F060700000021050100C500DE01EF060700000021050100C500DE017F07
0700000021050100C500DE010F080700000021050100C500DE019F080700000021050100C500DE
012F090700000021050100C500DE01BF090700000021050100C500DE01040A040000002D010800
07000000210501002D002F02D00A040000002D010A00040000002D010500070000002105010063
002F02900B040000002D010700040000002D0108000700000021050100D7002F022B0C04000000
2D010900040000002D010400070000002105010070002F02980C070000002105010073002F0210
0D040000002D010700040000002D01080007000000210501002D002F02A90D040000002D010A00
040000002D010500070000002105010063002F02690E040000002D010700040000002D01080007
00000021050100D7002F02040F040000002D010900040000002D01040007000000210501006D00
2F02700F070000002105010075002F02281007000000210501002C002F02A010040000002D0107
00040000002D010800040000002D010A00040000002D010500070000002105010041002F023B11
040000002D010700040000002D0108000700000021050100D7002F02FE11040000002D01090004
0000002D010400040000002D01050007000000210501006B002F026A12040000002D0106000700
00002105010061009101DF1207000000210501006C0091012A1307000000210501007000910159
13070000002105010068009101AE130700000021050100610091010314040000002D0107000400
00002D01080007000000210501002D002F028B14040000002D010A00040000002D010500070000
002105010063002F024B15040000002D010700040000002D01080007000000210501002D002F02
F215040000002D010A00040000002D01050007000000210501006B002F02B216040000002D0107
00040000002D0108000700000021050100D7002F025717040000002D010900040000002D010400
07000000210501006D002F02C317070000002105010075002F027B18040000002D010B00040000
002D010C00040000002D010900040000002D010400040000002D010B00040000002D010C000400
00002D010900040000002D010400040000002D010B00040000002D010C000700000021050100B8
007200F318040000002D010900040000002D01040007000000210501002C002F02721904000000
2D010B00040000002D010C00040000002D010900040000002D010400040000002D010B00040000
002D010C00040000002D010900040000002D010400040000002D010B00040000002D010C000700
0000210501005B002F02021A040000002D010900040000002D010400040000002D010500070000
002105010063002F02561A040000002D01040007000000210501002C002F02C11A040000002D01
050007000000210501006B002F02511B040000002D010B00040000002D010C00040000002D0109
00040000002D010400040000002D010B00040000002D010C00040000002D010900040000002D01
0400040000002D010B00040000002D010C0007000000210501005D002F02C61B040000002D0109
00040000002D010400040000002D010B00040000002D010C00040000002D010900040000002D01
0400040000002D010B00040000002D010C000700000021050100B60072001A1C09000000FA0200
0000000000000000002200040000002D010D0004000000F001010007000000FC020000FFFFFF00
0000040000002D01010010000000FB021000070000000000BC0200000000010202225379737465
6D0000040000002D010E00040000002701FFFF04000000F001030004000000F001040004000000
F001050004000000F001060004000000F001070004000000F001080004000000F0010900040000
00F0010A0004000000F0010B0004000000F0010C00040000002701FFFF040000002701FFFF0300
00000000
}\plain\f6\fs22\cf1\protect 
\par    {\pict\wmetafile8\picw7595\pich1419\picscalex99\picscaley99\picwgoal4306\pichgoal805
010009000003890400000F00180000000000050000000B0200000000050000000C028B05AB1D03
0000001E00050000000C028C05AD1D050000000B0200000000030000001E00030000001E000500
00000C022503D310050000000B0200000000050000000B020000000018000000FF06000006000A
7D05002A000100020000C000C0FF3FFF3F020000C0FF3F00C0FF3F0200050000000102FFFF0400
00002D01000009000000FA02000000000000000000002200040000002D01010007000000FC0200
00000000000000040000002D01020010000000FB0210FF00000000000090010000000107000000
417269616C000100040000002D0103000400000002010100050000000102FFFFFF00040000002E
01180005000000090200000000040000000801000015000000FB0210FF00000000000090010000
00010700000054696D6573204E657720526F6D616E000100040000002D0104000B00000026060F
000C004D617468547970650000C40015000000FB0210FF00000000000090010100000107000000
54696D6573204E657720526F6D616E000100040000002D010500040000002D01040010000000FB
0210FF0000000000009001000000020700000053796D626F6C0002040000002D01060010000000
FB0210FF0000000000009001000000020700000053796D626F6C0002040000002D010700150000
00FB0210FF0000000000009001010000020700000054696D6573204E657720526F6D616E000200
040000002D010800040000002D010500040000002D010400040000002D010600040000002D0107
00040000002D010800040000002D010500040000002D010400040000002D01050015000000FB02
56FF0000000000009001000000010700000054696D6573204E657720526F6D616E000100040000
002D010900040000002D010400040000002D010600040000002D01070015000000FB0210FF0000
000000009001000000020700000054696D6573204E657720526F6D616E000200040000002D010A
00040000002D010400040000002D010500040000002D010400040000002D010600040000002D01
0700040000002D010A00040000002D010400040000002D010600040000002D0107000500000009
020000FF0007000000210501002D002F028800040000002D010A00040000002D01040004000000
2D010600040000002D010700040000002D010800040000002D010500070000002105010063008D
015901040000002D010600040000002D0107000700000021050100D7008D01F401040000002D01
0800040000002D01050007000000210501006B008D016002040000002D010600040000002D0107
000700000021050100D7008D010503040000002D010A00040000002D0104000700000021050100
6D008D017103070000002105010075008D012904040000002D010600040000002D010700070000
00210501002B008D01DD04040000002D010800040000002D010500070000002105010063008D01
9D05040000002D010600040000002D0107000700000021050100D7008D013806040000002D0108
00040000002D01050007000000210501006B008D01A406040000002D010600040000002D010700
0700000021050100D7008D014907040000002D010A00040000002D010400070000002105010070
008D01B607070000002105010073008D012E08040000002D010600040000002D01070007000000
210501002D008D01C708040000002D010800040000002D010500070000002105010041008D0192
09040000002D010600040000002D0107000700000021050100D7008D01550A040000002D010800
040000002D010500070000002105010063008D01C10A040000002D010600040000002D01070007
00000021050100D7008D015C0B040000002D010A00040000002D010400040000002D0105000700
0000210501006B008D01C80B040000002D01090007000000210501006100EF003D0C0700000021
0501006C00EF00880C07000000210501007000EF00B70C07000000210501006800EF000C0D0700
0000210501006100EF00610D040000002D010600040000002D0107000700000021050100D7008D
01DD0D040000002D010A00040000002D010400070000002105010061008D01490E070000002105
01006C008D01B40E070000002105010070008D01F70E070000002105010068008D016F0F070000
002105010061008D01E70F040000002D01050007000000210501006B00BE029B0813000000FB02
10FF000000000000900100000001070000005346204D61746820457874000100040000002D010B
0013000000FB0210FF000000000000900100000002070000005346204D61746820457874000200
040000002D010C000700000021050100C500DE013C010700000021050100C500DE01CC01070000
0021050100C500DE015C020700000021050100C500DE01EC020700000021050100C500DE017C03
0700000021050100C500DE010C040700000021050100C500DE019C040700000021050100C500DE
012C050700000021050100C500DE01BC050700000021050100C500DE014C060700000021050100
C500DE01DC060700000021050100C500DE016C070700000021050100C500DE01FC070700000021
050100C500DE018C080700000021050100C500DE011C090700000021050100C500DE01AC090700
000021050100C500DE013C0A0700000021050100C500DE01CC0A0700000021050100C500DE015C
0B0700000021050100C500DE01EC0B0700000021050100C500DE017C0C0700000021050100C500
DE010C0D0700000021050100C500DE019C0D0700000021050100C500DE012C0E07000000210501
00C500DE01BC0E0700000021050100C500DE014C0F0700000021050100C500DE01DC0F07000000
21050100C500DE01DF0F09000000FA02000000000000000000002200040000002D010D00040000
00F001010007000000FC020000FFFFFF000000040000002D01010010000000FB02100007000000
0000BC02000000000102022253797374656D0000040000002D010E00040000002701FFFF040000
00F001030004000000F001040004000000F001050004000000F001060004000000F00107000400
0000F001080004000000F001090004000000F0010A0004000000F0010B0004000000F0010C0004
0000002701FFFF040000002701FFFF030000000000
}\plain\f6\fs22\cf1\protect 
\par    {\pict\wmetafile8\picw6252\pich1419\picscalex99\picscaley99\picwgoal3545\pichgoal805
010009000003BD0300000F00180000000000050000000B0200000000050000000C028B056C1803
0000001E00050000000C028C056D18050000000B0200000000030000001E00030000001E000500
00000C022503D90D050000000B0200000000050000000B020000000018000000FF060000060018
7D05002A000100020000C000C0FF3FFF3F020000C0FF3F00C0FF3F0200050000000102FFFF0400
00002D01000009000000FA02000000000000000000002200040000002D01010007000000FC0200
00000000000000040000002D01020010000000FB0210FF00000000000090010000000107000000
417269616C000100040000002D0103000400000002010100050000000102FFFFFF00040000002E
01180005000000090200000000040000000801000015000000FB0210FF00000000000090010000
00010700000054696D6573204E657720526F6D616E000100040000002D0104000B00000026060F
000C004D617468547970650000C40015000000FB0210FF00000000000090010100000107000000
54696D6573204E657720526F6D616E000100040000002D010500040000002D010400040000002D
01050015000000FB0256FF0000000000009001000000010700000054696D6573204E657720526F
6D616E000100040000002D010600040000002D01040010000000FB0210FF000000000000900100
0000020700000053796D626F6C0002040000002D01070010000000FB0210FF0000000000009001
000000020700000053796D626F6C0002040000002D01080015000000FB0210FF00000000000090
01000000020700000054696D6573204E657720526F6D616E000200040000002D01090004000000
2D010400040000002D010500040000002D010400040000002D010500040000002D010400040000
002D010700040000002D01080015000000FB0210FF000000000000900101000002070000005469
6D6573204E657720526F6D616E000200040000002D010A00040000002D010500040000002D0104
00040000002D010700040000002D010800040000002D010900040000002D010400040000002D01
0700040000002D0108000500000009020000FF00040000002D010A00040000002D010500070000
002105010041008D018C00040000002D010700040000002D0108000700000021050100D7008D01
4F01040000002D010A00040000002D010500070000002105010063008D01BB01040000002D0107
00040000002D0108000700000021050100D7008D015602040000002D010900040000002D010400
040000002D01050007000000210501006B008D01C202040000002D010600070000002105010061
00EF00370307000000210501006C00EF00820307000000210501007000EF00B103070000002105
01006800EF00060407000000210501006100EF005B04040000002D010700040000002D01080007
00000021050100D7008D01D704040000002D010900040000002D01040007000000210501006100
8D01430507000000210501006C008D01AE05070000002105010070008D01F10507000000210501
0068008D016906070000002105010061008D01E106040000002D01050007000000210501006B00
BE02AC0313000000FB0210FF000000000000900100000001070000005346204D61746820457874
000100040000002D010B0013000000FB0210FF000000000000900100000002070000005346204D
61746820457874000200040000002D010C000700000021050100C500DE01640007000000210501
00C500DE01F4000700000021050100C500DE0184010700000021050100C500DE01140207000000
21050100C500DE01A4020700000021050100C500DE0134030700000021050100C500DE01C40307
00000021050100C500DE0154040700000021050100C500DE01E4040700000021050100C500DE01
74050700000021050100C500DE0104060700000021050100C500DE0194060700000021050100C5
00DE01D906040000002D01080007000000210501002D002F02A507040000002D010A0004000000
2D010500070000002105010063002F026508040000002D010700040000002D0108000700000021
050100D7002F020009040000002D010900040000002D010400070000002105010070002F026D09
070000002105010073002F02E509040000002D010700040000002D01080007000000210501002D
002F027E0A040000002D010A00040000002D010500070000002105010063002F023E0B04000000
